{
  "deployments": [
    {
      "transactions": [
        {
          "hash": "0x8460fe3613a8f63e191f212705923a67f5a5211dfc24c19b4978a95b174fd0c7",
          "transactionType": "CALL",
          "contractName": null,
          "contractAddress": "0xeccacad7ed94d501ffa9cfe93b61d0d4870546d7",
          "function": "setPeer(uint32,bytes32)",
          "arguments": [
            "40232",
            "0x00000000000000000000000007040be54ddbd74b0f4cf4a40a4b3ef4ca5217fe"
          ],
          "transaction": {
            "from": "0x64a822f980dc5f126215d75d11dd8114ed0bdb5f",
            "to": "0xeccacad7ed94d501ffa9cfe93b61d0d4870546d7",
            "gas": "0x9e5d",
            "value": "0x0",
            "input": "0x3400288b0000000000000000000000000000000000000000000000000000000000009d2800000000000000000000000007040be54ddbd74b0f4cf4a40a4b3ef4ca5217fe",
            "nonce": "0x109",
            "chainId": "0x14a34"
          },
          "additionalContracts": [],
          "isFixedGasLimit": false
        }
      ],
      "receipts": [
        {
          "status": "0x1",
          "cumulativeGasUsed": "0x14bed4",
          "logs": [
            {
              "address": "0xeccacad7ed94d501ffa9cfe93b61d0d4870546d7",
              "topics": [
                "0x238399d427b947898edb290f5ff0f9109849b1c3ba196a42e35f00c50a54b98b"
              ],
              "data": "0x0000000000000000000000000000000000000000000000000000000000009d2800000000000000000000000007040be54ddbd74b0f4cf4a40a4b3ef4ca5217fe",
              "blockHash": "0x7d3ee5a0d18673b1b710452ca57aa9d6c683966ff6fc619b8d460dc27ad08cf1",
              "blockNumber": "0xdfddf6",
              "transactionHash": "0x8460fe3613a8f63e191f212705923a67f5a5211dfc24c19b4978a95b174fd0c7",
              "transactionIndex": "0x9",
              "logIndex": "0x15",
              "removed": false
            }
          ],
          "logsBloom": "0x00000000000000000000000000000000000000000000000000000000000000000000000000000000000000000000000000000000080000000800000000000000000000000000200000000000000000000000000000000000000000000000000000000000000000000000000000000000000000000000000000000000000000000000000000000000000000000000000004000000000000000000000000000000000000000000000000000000000000000000000000000000000002000000000000000000000000000000000000000000000000000000000000040000000000000000000000000000000000000000000000000000000000000000000000000000",
          "type": "0x2",
          "transactionHash": "0x8460fe3613a8f63e191f212705923a67f5a5211dfc24c19b4978a95b174fd0c7",
          "transactionIndex": "0x9",
          "blockHash": "0x7d3ee5a0d18673b1b710452ca57aa9d6c683966ff6fc619b8d460dc27ad08cf1",
          "blockNumber": "0xdfddf6",
          "gasUsed": "0x6c49",
          "effectiveGasPrice": "0xf45d7",
          "from": "0x64a822f980dc5f126215d75d11dd8114ed0bdb5f",
          "to": "0xeccacad7ed94d501ffa9cfe93b61d0d4870546d7",
          "contractAddress": null,
          "l1BaseFeeScalar": "0x44d",
          "l1BlobBaseFee": "0x1c308568af",
          "l1BlobBaseFeeScalar": "0xa118b",
          "l1Fee": "0x7470da5766b",
          "l1GasPrice": "0x1aebb77de",
          "l1GasUsed": "0x640"
        }
      ],
      "libraries": [],
      "pending": [],
      "returns": {},
      "timestamp": 1725110983,
      "chain": 84532,
      "commit": "ef3e872"
    },
    {
      "transactions": [
        {
          "hash": "0x21382038a2f396b9264b012ef217fd9c57cf163ab00971b12d7dbc1d256ae5a2",
          "transactionType": "CALL",
          "contractName": null,
          "contractAddress": "0x07040be54ddbd74b0f4cf4a40a4b3ef4ca5217fe",
          "function": "setPeer(uint32,bytes32)",
          "arguments": [
            "40245",
            "0x0000000000000000000000009ccd0a438e7938e3539d83c0e29326353f50338d"
          ],
          "transaction": {
            "from": "0x64a822f980dc5f126215d75d11dd8114ed0bdb5f",
            "to": "0x07040be54ddbd74b0f4cf4a40a4b3ef4ca5217fe",
            "gas": "0x9e5d",
            "value": "0x0",
            "input": "0x3400288b0000000000000000000000000000000000000000000000000000000000009d350000000000000000000000009ccd0a438e7938e3539d83c0e29326353f50338d",
            "nonce": "0x8f",
            "chainId": "0xaa37dc"
          },
          "additionalContracts": [],
          "isFixedGasLimit": false
        }
      ],
      "receipts": [
        {
          "status": "0x1",
          "cumulativeGasUsed": "0x13ebb7",
          "logs": [
            {
              "address": "0x07040be54ddbd74b0f4cf4a40a4b3ef4ca5217fe",
              "topics": [
                "0x238399d427b947898edb290f5ff0f9109849b1c3ba196a42e35f00c50a54b98b"
              ],
              "data": "0x0000000000000000000000000000000000000000000000000000000000009d350000000000000000000000009ccd0a438e7938e3539d83c0e29326353f50338d",
              "blockHash": "0xc98b5d6c9a9af488b453c3d6a5cfbb18b6d6c685ab0dc1e2d1c65cc6010b85d7",
              "blockNumber": "0xfe1f94",
              "transactionHash": "0x21382038a2f396b9264b012ef217fd9c57cf163ab00971b12d7dbc1d256ae5a2",
              "transactionIndex": "0x3",
              "logIndex": "0x1d",
              "removed": false
            }
          ],
          "logsBloom": "0x00000000000000000000000000000000000000000000000000000000000000000000000000000000000000000000000000000800000000000800000000000000000000000000000000000000000000000000000000000000000000000000000002000000000000000000000000000000000000000000000000000000000000000000000000000000000000000000000000000000000000000000000000000000000000000000000000000000000000000000000000000000000002000000000000000000000000000000000000000000000000000800000000040000000000000000000000000000000000000000000000000000000000000000000000000000",
          "type": "0x2",
          "transactionHash": "0x21382038a2f396b9264b012ef217fd9c57cf163ab00971b12d7dbc1d256ae5a2",
          "transactionIndex": "0x3",
          "blockHash": "0xc98b5d6c9a9af488b453c3d6a5cfbb18b6d6c685ab0dc1e2d1c65cc6010b85d7",
          "blockNumber": "0xfe1f94",
          "gasUsed": "0x6c49",
          "effectiveGasPrice": "0x2dcae4",
          "from": "0x64a822f980dc5f126215d75d11dd8114ed0bdb5f",
          "to": "0x07040be54ddbd74b0f4cf4a40a4b3ef4ca5217fe",
          "contractAddress": null,
          "l1BaseFeeScalar": "0x1db0",
          "l1BlobBaseFee": "0x1645f145ba",
          "l1BlobBaseFeeScalar": "0xd2730",
          "l1Fee": "0x793aa737e3d",
          "l1GasPrice": "0x19f0cd8bc",
          "l1GasUsed": "0x640"
        }
      ],
      "libraries": [],
      "pending": [],
      "returns": {},
      "timestamp": 1725110983,
      "chain": 11155420,
      "commit": "ef3e872"
    }
  ],
  "timestamp": 1725111003
}