{
  "deployments": [
    {
      "transactions": [
        {
          "hash": "0x11bcbb592a7747d76ad21e46bc96d1b5643ea7895fff3e0be3f79b0de2ed82a7",
          "transactionType": "CALL",
          "contractName": null,
          "contractAddress": "0x4a53515ab41d860e22163337524d3eaf21b04b4e",
          "function": "setPeer(uint32,bytes32)",
          "arguments": [
            "40232",
            "0x0000000000000000000000004a53515ab41d860e22163337524d3eaf21b04b4e"
          ],
          "transaction": {
            "from": "0x64a822f980dc5f126215d75d11dd8114ed0bdb5f",
            "to": "0x4a53515ab41d860e22163337524d3eaf21b04b4e",
            "gas": "0x1016a",
            "value": "0x0",
            "input": "0x3400288b0000000000000000000000000000000000000000000000000000000000009d280000000000000000000000004a53515ab41d860e22163337524d3eaf21b04b4e",
            "nonce": "0x25c",
            "chainId": "0x14a34"
          },
          "additionalContracts": [],
          "isFixedGasLimit": false
        },
        {
          "hash": "0x00f7169a798e4eb176556ffe761fed52bce4aff0d9968bd2cdf84c47baf450cd",
          "transactionType": "CALL",
          "contractName": null,
          "contractAddress": "0x4a53515ab41d860e22163337524d3eaf21b04b4e",
          "function": "setPeer(uint32,bytes32)",
          "arguments": [
            "40231",
            "0x0000000000000000000000004a53515ab41d860e22163337524d3eaf21b04b4e"
          ],
          "transaction": {
            "from": "0x64a822f980dc5f126215d75d11dd8114ed0bdb5f",
            "to": "0x4a53515ab41d860e22163337524d3eaf21b04b4e",
            "gas": "0x1016a",
            "value": "0x0",
            "input": "0x3400288b0000000000000000000000000000000000000000000000000000000000009d270000000000000000000000004a53515ab41d860e22163337524d3eaf21b04b4e",
            "nonce": "0x25d",
            "chainId": "0x14a34"
          },
          "additionalContracts": [],
          "isFixedGasLimit": false
        },
        {
          "hash": "0xf7851142c1b4a1226949e9ee938cffe06e77a263c101662ee99d879348769890",
          "transactionType": "CALL",
          "contractName": null,
          "contractAddress": "0x4a53515ab41d860e22163337524d3eaf21b04b4e",
          "function": "setPeer(uint32,bytes32)",
          "arguments": [
            "40305",
            "0x0000000000000000000000004a53515ab41d860e22163337524d3eaf21b04b4e"
          ],
          "transaction": {
            "from": "0x64a822f980dc5f126215d75d11dd8114ed0bdb5f",
            "to": "0x4a53515ab41d860e22163337524d3eaf21b04b4e",
            "gas": "0x1016a",
            "value": "0x0",
            "input": "0x3400288b0000000000000000000000000000000000000000000000000000000000009d710000000000000000000000004a53515ab41d860e22163337524d3eaf21b04b4e",
            "nonce": "0x25e",
            "chainId": "0x14a34"
          },
          "additionalContracts": [],
          "isFixedGasLimit": false
        },
        {
          "hash": "0xbf48d166097926c1bd30685b7c423647bc7d35c7a7e3d16cf2e52b7d5ba8fcd7",
          "transactionType": "CALL",
          "contractName": null,
          "contractAddress": "0x4a53515ab41d860e22163337524d3eaf21b04b4e",
          "function": "setPeer(uint32,bytes32)",
          "arguments": [
            "40287",
            "0x0000000000000000000000004a53515ab41d860e22163337524d3eaf21b04b4e"
          ],
          "transaction": {
            "from": "0x64a822f980dc5f126215d75d11dd8114ed0bdb5f",
            "to": "0x4a53515ab41d860e22163337524d3eaf21b04b4e",
            "gas": "0x1016a",
            "value": "0x0",
            "input": "0x3400288b0000000000000000000000000000000000000000000000000000000000009d5f0000000000000000000000004a53515ab41d860e22163337524d3eaf21b04b4e",
            "nonce": "0x25f",
            "chainId": "0x14a34"
          },
          "additionalContracts": [],
          "isFixedGasLimit": false
        },
        {
          "hash": "0xbdaea85e238edb0523006e185972d004cc03b0fe0ee81d137f72c22d4603731e",
          "transactionType": "CALL",
          "contractName": null,
          "contractAddress": "0x4a53515ab41d860e22163337524d3eaf21b04b4e",
          "function": "setPeer(uint32,bytes32)",
          "arguments": [
            "40161",
            "0x0000000000000000000000004a53515ab41d860e22163337524d3eaf21b04b4e"
          ],
          "transaction": {
            "from": "0x64a822f980dc5f126215d75d11dd8114ed0bdb5f",
            "to": "0x4a53515ab41d860e22163337524d3eaf21b04b4e",
            "gas": "0x1016a",
            "value": "0x0",
            "input": "0x3400288b0000000000000000000000000000000000000000000000000000000000009ce10000000000000000000000004a53515ab41d860e22163337524d3eaf21b04b4e",
            "nonce": "0x260",
            "chainId": "0x14a34"
          },
          "additionalContracts": [],
          "isFixedGasLimit": false
        },
        {
          "hash": "0x6b7a2fc092bff69af57ddb44eb9cdb914fc0d1ae95b7d6b932852726825d68c0",
          "transactionType": "CALL",
          "contractName": null,
          "contractAddress": "0x4a53515ab41d860e22163337524d3eaf21b04b4e",
          "function": "setDstEidOfHomeChain(uint32)",
          "arguments": [
            "40245"
          ],
          "transaction": {
            "from": "0x64a822f980dc5f126215d75d11dd8114ed0bdb5f",
            "to": "0x4a53515ab41d860e22163337524d3eaf21b04b4e",
            "gas": "0xa4d0",
            "value": "0x0",
            "input": "0x1cd24bd40000000000000000000000000000000000000000000000000000000000009d35",
            "nonce": "0x261",
            "chainId": "0x14a34"
          },
          "additionalContracts": [],
          "isFixedGasLimit": false
        }
      ],
      "receipts": [
        {
          "status": "0x1",
          "cumulativeGasUsed": "0x23754d",
          "logs": [
            {
              "address": "0x4a53515ab41d860e22163337524d3eaf21b04b4e",
              "topics": [
                "0x238399d427b947898edb290f5ff0f9109849b1c3ba196a42e35f00c50a54b98b"
              ],
              "data": "0x0000000000000000000000000000000000000000000000000000000000009d280000000000000000000000004a53515ab41d860e22163337524d3eaf21b04b4e",
              "blockHash": "0x3099069df748bf5752dd3313206aaadb799d618b0ca5cc34ab0c939758ddc55a",
              "blockNumber": "0xe3dd92",
              "transactionHash": "0x11bcbb592a7747d76ad21e46bc96d1b5643ea7895fff3e0be3f79b0de2ed82a7",
              "transactionIndex": "0x4",
              "logIndex": "0x38",
              "removed": false
            }
          ],
          "logsBloom": "0x00000000000000000000000000000000000000000000000000000800000000000000000000000000000000000000000000000000000000000800000000000000000000000000000000000000000000000000000000000000000000000000000000000000000000000000000000000000000001000000000000000000000000000000000000000000000000000000000000000000000000000000000000000000080000000000000000000000000000000000000000000000000002000000000000000000000000000000000000000000000000000000000000040000000000000000000000000000000000000000000000000000000000000000000000000000",
          "type": "0x2",
          "transactionHash": "0x11bcbb592a7747d76ad21e46bc96d1b5643ea7895fff3e0be3f79b0de2ed82a7",
          "transactionIndex": "0x4",
          "blockHash": "0x3099069df748bf5752dd3313206aaadb799d618b0ca5cc34ab0c939758ddc55a",
          "blockNumber": "0xe3dd92",
          "gasUsed": "0xba5e",
          "effectiveGasPrice": "0x8a1d6e",
          "from": "0x64a822f980dc5f126215d75d11dd8114ed0bdb5f",
          "to": "0x4a53515ab41d860e22163337524d3eaf21b04b4e",
          "contractAddress": null,
          "l1BaseFeeScalar": "0x44d",
          "l1BlobBaseFee": "0x1c9d2ba8146",
          "l1BlobBaseFeeScalar": "0xa118b",
          "l1Fee": "0x7618a9a1b641",
          "l1GasPrice": "0xd250c5b49",
          "l1GasUsed": "0x640"
        },
        {
          "status": "0x1",
          "cumulativeGasUsed": "0x242fab",
          "logs": [
            {
              "address": "0x4a53515ab41d860e22163337524d3eaf21b04b4e",
              "topics": [
                "0x238399d427b947898edb290f5ff0f9109849b1c3ba196a42e35f00c50a54b98b"
              ],
              "data": "0x0000000000000000000000000000000000000000000000000000000000009d270000000000000000000000004a53515ab41d860e22163337524d3eaf21b04b4e",
              "blockHash": "0x3099069df748bf5752dd3313206aaadb799d618b0ca5cc34ab0c939758ddc55a",
              "blockNumber": "0xe3dd92",
              "transactionHash": "0x00f7169a798e4eb176556ffe761fed52bce4aff0d9968bd2cdf84c47baf450cd",
              "transactionIndex": "0x5",
              "logIndex": "0x39",
              "removed": false
            }
          ],
          "logsBloom": "0x00000000000000000000000000000000000000000000000000000800000000000000000000000000000000000000000000000000000000000800000000000000000000000000000000000000000000000000000000000000000000000000000000000000000000000000000000000000000001000000000000000000000000000000000000000000000000000000000000000000000000000000000000000000080000000000000000000000000000000000000000000000000002000000000000000000000000000000000000000000000000000000000000040000000000000000000000000000000000000000000000000000000000000000000000000000",
          "type": "0x2",
          "transactionHash": "0x00f7169a798e4eb176556ffe761fed52bce4aff0d9968bd2cdf84c47baf450cd",
          "transactionIndex": "0x5",
          "blockHash": "0x3099069df748bf5752dd3313206aaadb799d618b0ca5cc34ab0c939758ddc55a",
          "blockNumber": "0xe3dd92",
          "gasUsed": "0xba5e",
          "effectiveGasPrice": "0x8a1d6e",
          "from": "0x64a822f980dc5f126215d75d11dd8114ed0bdb5f",
          "to": "0x4a53515ab41d860e22163337524d3eaf21b04b4e",
          "contractAddress": null,
          "l1BaseFeeScalar": "0x44d",
          "l1BlobBaseFee": "0x1c9d2ba8146",
          "l1BlobBaseFeeScalar": "0xa118b",
          "l1Fee": "0x7618a9a1b641",
          "l1GasPrice": "0xd250c5b49",
          "l1GasUsed": "0x640"
        },
        {
          "status": "0x1",
          "cumulativeGasUsed": "0x24ea09",
          "logs": [
            {
              "address": "0x4a53515ab41d860e22163337524d3eaf21b04b4e",
              "topics": [
                "0x238399d427b947898edb290f5ff0f9109849b1c3ba196a42e35f00c50a54b98b"
              ],
              "data": "0x0000000000000000000000000000000000000000000000000000000000009d710000000000000000000000004a53515ab41d860e22163337524d3eaf21b04b4e",
              "blockHash": "0x3099069df748bf5752dd3313206aaadb799d618b0ca5cc34ab0c939758ddc55a",
              "blockNumber": "0xe3dd92",
              "transactionHash": "0xf7851142c1b4a1226949e9ee938cffe06e77a263c101662ee99d879348769890",
              "transactionIndex": "0x6",
              "logIndex": "0x3a",
              "removed": false
            }
          ],
          "logsBloom": "0x00000000000000000000000000000000000000000000000000000800000000000000000000000000000000000000000000000000000000000800000000000000000000000000000000000000000000000000000000000000000000000000000000000000000000000000000000000000000001000000000000000000000000000000000000000000000000000000000000000000000000000000000000000000080000000000000000000000000000000000000000000000000002000000000000000000000000000000000000000000000000000000000000040000000000000000000000000000000000000000000000000000000000000000000000000000",
          "type": "0x2",
          "transactionHash": "0xf7851142c1b4a1226949e9ee938cffe06e77a263c101662ee99d879348769890",
          "transactionIndex": "0x6",
          "blockHash": "0x3099069df748bf5752dd3313206aaadb799d618b0ca5cc34ab0c939758ddc55a",
          "blockNumber": "0xe3dd92",
          "gasUsed": "0xba5e",
          "effectiveGasPrice": "0x8a1d6e",
          "from": "0x64a822f980dc5f126215d75d11dd8114ed0bdb5f",
          "to": "0x4a53515ab41d860e22163337524d3eaf21b04b4e",
          "contractAddress": null,
          "l1BaseFeeScalar": "0x44d",
          "l1BlobBaseFee": "0x1c9d2ba8146",
          "l1BlobBaseFeeScalar": "0xa118b",
          "l1Fee": "0x7618a9a1b641",
          "l1GasPrice": "0xd250c5b49",
          "l1GasUsed": "0x640"
        },
        {
          "status": "0x1",
          "cumulativeGasUsed": "0x25a467",
          "logs": [
            {
              "address": "0x4a53515ab41d860e22163337524d3eaf21b04b4e",
              "topics": [
                "0x238399d427b947898edb290f5ff0f9109849b1c3ba196a42e35f00c50a54b98b"
              ],
              "data": "0x0000000000000000000000000000000000000000000000000000000000009d5f0000000000000000000000004a53515ab41d860e22163337524d3eaf21b04b4e",
              "blockHash": "0x3099069df748bf5752dd3313206aaadb799d618b0ca5cc34ab0c939758ddc55a",
              "blockNumber": "0xe3dd92",
              "transactionHash": "0xbf48d166097926c1bd30685b7c423647bc7d35c7a7e3d16cf2e52b7d5ba8fcd7",
              "transactionIndex": "0x7",
              "logIndex": "0x3b",
              "removed": false
            }
          ],
          "logsBloom": "0x00000000000000000000000000000000000000000000000000000800000000000000000000000000000000000000000000000000000000000800000000000000000000000000000000000000000000000000000000000000000000000000000000000000000000000000000000000000000001000000000000000000000000000000000000000000000000000000000000000000000000000000000000000000080000000000000000000000000000000000000000000000000002000000000000000000000000000000000000000000000000000000000000040000000000000000000000000000000000000000000000000000000000000000000000000000",
          "type": "0x2",
          "transactionHash": "0xbf48d166097926c1bd30685b7c423647bc7d35c7a7e3d16cf2e52b7d5ba8fcd7",
          "transactionIndex": "0x7",
          "blockHash": "0x3099069df748bf5752dd3313206aaadb799d618b0ca5cc34ab0c939758ddc55a",
          "blockNumber": "0xe3dd92",
          "gasUsed": "0xba5e",
          "effectiveGasPrice": "0x8a1d6e",
          "from": "0x64a822f980dc5f126215d75d11dd8114ed0bdb5f",
          "to": "0x4a53515ab41d860e22163337524d3eaf21b04b4e",
          "contractAddress": null,
          "l1BaseFeeScalar": "0x44d",
          "l1BlobBaseFee": "0x1c9d2ba8146",
          "l1BlobBaseFeeScalar": "0xa118b",
          "l1Fee": "0x7618a9a1b641",
          "l1GasPrice": "0xd250c5b49",
          "l1GasUsed": "0x640"
        },
        {
          "status": "0x1",
          "cumulativeGasUsed": "0x265ec5",
          "logs": [
            {
              "address": "0x4a53515ab41d860e22163337524d3eaf21b04b4e",
              "topics": [
                "0x238399d427b947898edb290f5ff0f9109849b1c3ba196a42e35f00c50a54b98b"
              ],
              "data": "0x0000000000000000000000000000000000000000000000000000000000009ce10000000000000000000000004a53515ab41d860e22163337524d3eaf21b04b4e",
              "blockHash": "0x3099069df748bf5752dd3313206aaadb799d618b0ca5cc34ab0c939758ddc55a",
              "blockNumber": "0xe3dd92",
              "transactionHash": "0xbdaea85e238edb0523006e185972d004cc03b0fe0ee81d137f72c22d4603731e",
              "transactionIndex": "0x8",
              "logIndex": "0x3c",
              "removed": false
            }
          ],
          "logsBloom": "0x00000000000000000000000000000000000000000000000000000800000000000000000000000000000000000000000000000000000000000800000000000000000000000000000000000000000000000000000000000000000000000000000000000000000000000000000000000000000001000000000000000000000000000000000000000000000000000000000000000000000000000000000000000000080000000000000000000000000000000000000000000000000002000000000000000000000000000000000000000000000000000000000000040000000000000000000000000000000000000000000000000000000000000000000000000000",
          "type": "0x2",
          "transactionHash": "0xbdaea85e238edb0523006e185972d004cc03b0fe0ee81d137f72c22d4603731e",
          "transactionIndex": "0x8",
          "blockHash": "0x3099069df748bf5752dd3313206aaadb799d618b0ca5cc34ab0c939758ddc55a",
          "blockNumber": "0xe3dd92",
          "gasUsed": "0xba5e",
          "effectiveGasPrice": "0x8a1d6e",
          "from": "0x64a822f980dc5f126215d75d11dd8114ed0bdb5f",
          "to": "0x4a53515ab41d860e22163337524d3eaf21b04b4e",
          "contractAddress": null,
          "l1BaseFeeScalar": "0x44d",
          "l1BlobBaseFee": "0x1c9d2ba8146",
          "l1BlobBaseFeeScalar": "0xa118b",
          "l1Fee": "0x7618a9a1b641",
          "l1GasPrice": "0xd250c5b49",
          "l1GasUsed": "0x640"
        },
        {
          "status": "0x1",
          "cumulativeGasUsed": "0x26cf77",
          "logs": [],
          "logsBloom": "0x00000000000000000000000000000000000000000000000000000000000000000000000000000000000000000000000000000000000000000000000000000000000000000000000000000000000000000000000000000000000000000000000000000000000000000000000000000000000000000000000000000000000000000000000000000000000000000000000000000000000000000000000000000000000000000000000000000000000000000000000000000000000000000000000000000000000000000000000000000000000000000000000000000000000000000000000000000000000000000000000000000000000000000000000000000000",
          "type": "0x2",
          "transactionHash": "0x6b7a2fc092bff69af57ddb44eb9cdb914fc0d1ae95b7d6b932852726825d68c0",
          "transactionIndex": "0x9",
          "blockHash": "0x3099069df748bf5752dd3313206aaadb799d618b0ca5cc34ab0c939758ddc55a",
          "blockNumber": "0xe3dd92",
          "gasUsed": "0x70b2",
          "effectiveGasPrice": "0x8a1d6e",
          "from": "0x64a822f980dc5f126215d75d11dd8114ed0bdb5f",
          "to": "0x4a53515ab41d860e22163337524d3eaf21b04b4e",
          "contractAddress": null,
          "l1BaseFeeScalar": "0x44d",
          "l1BlobBaseFee": "0x1c9d2ba8146",
          "l1BlobBaseFeeScalar": "0xa118b",
          "l1Fee": "0x7618a9a1b641",
          "l1GasPrice": "0xd250c5b49",
          "l1GasUsed": "0x640"
        }
      ],
      "libraries": [],
      "pending": [],
      "returns": {},
      "timestamp": 1725635069,
      "chain": 84532,
      "commit": "2af87c9"
    },
    {
      "transactions": [
        {
          "hash": "0xb5645332b76cac192374bf90c4a1e0706e75a814e4f8292719f070dbc20bcee4",
          "transactionType": "CALL",
          "contractName": null,
          "contractAddress": "0x4a53515ab41d860e22163337524d3eaf21b04b4e",
          "function": "setPeer(uint32,bytes32)",
          "arguments": [
            "40245",
            "0x0000000000000000000000004a53515ab41d860e22163337524d3eaf21b04b4e"
          ],
          "transaction": {
            "from": "0x64a822f980dc5f126215d75d11dd8114ed0bdb5f",
            "to": "0x4a53515ab41d860e22163337524d3eaf21b04b4e",
            "gas": "0x1016a",
            "value": "0x0",
            "input": "0x3400288b0000000000000000000000000000000000000000000000000000000000009d350000000000000000000000004a53515ab41d860e22163337524d3eaf21b04b4e",
            "nonce": "0x172",
            "chainId": "0xaa37dc"
          },
          "additionalContracts": [],
          "isFixedGasLimit": false
        },
        {
          "hash": "0xc47760db3c789dca6bbf44d413dcaa132995e5d255548980f7d72246b86dd2f3",
          "transactionType": "CALL",
          "contractName": null,
          "contractAddress": "0x4a53515ab41d860e22163337524d3eaf21b04b4e",
          "function": "setPeer(uint32,bytes32)",
          "arguments": [
            "40231",
            "0x0000000000000000000000004a53515ab41d860e22163337524d3eaf21b04b4e"
          ],
          "transaction": {
            "from": "0x64a822f980dc5f126215d75d11dd8114ed0bdb5f",
            "to": "0x4a53515ab41d860e22163337524d3eaf21b04b4e",
            "gas": "0x1016a",
            "value": "0x0",
            "input": "0x3400288b0000000000000000000000000000000000000000000000000000000000009d270000000000000000000000004a53515ab41d860e22163337524d3eaf21b04b4e",
            "nonce": "0x173",
            "chainId": "0xaa37dc"
          },
          "additionalContracts": [],
          "isFixedGasLimit": false
        },
        {
          "hash": "0x3746817167bb82fcf47490f3a333db09379dd873c2d7e8388baa6d54acfe44b5",
          "transactionType": "CALL",
          "contractName": null,
          "contractAddress": "0x4a53515ab41d860e22163337524d3eaf21b04b4e",
          "function": "setPeer(uint32,bytes32)",
          "arguments": [
            "40305",
            "0x0000000000000000000000004a53515ab41d860e22163337524d3eaf21b04b4e"
          ],
          "transaction": {
            "from": "0x64a822f980dc5f126215d75d11dd8114ed0bdb5f",
            "to": "0x4a53515ab41d860e22163337524d3eaf21b04b4e",
            "gas": "0x1016a",
            "value": "0x0",
            "input": "0x3400288b0000000000000000000000000000000000000000000000000000000000009d710000000000000000000000004a53515ab41d860e22163337524d3eaf21b04b4e",
            "nonce": "0x174",
            "chainId": "0xaa37dc"
          },
          "additionalContracts": [],
          "isFixedGasLimit": false
        },
        {
          "hash": "0x19498b85cd57f809e00d3d519bb9ea72204edac9b61b5b7397bb4029eb33f7e0",
          "transactionType": "CALL",
          "contractName": null,
          "contractAddress": "0x4a53515ab41d860e22163337524d3eaf21b04b4e",
          "function": "setPeer(uint32,bytes32)",
          "arguments": [
            "40287",
            "0x0000000000000000000000004a53515ab41d860e22163337524d3eaf21b04b4e"
          ],
          "transaction": {
            "from": "0x64a822f980dc5f126215d75d11dd8114ed0bdb5f",
            "to": "0x4a53515ab41d860e22163337524d3eaf21b04b4e",
            "gas": "0x1016a",
            "value": "0x0",
            "input": "0x3400288b0000000000000000000000000000000000000000000000000000000000009d5f0000000000000000000000004a53515ab41d860e22163337524d3eaf21b04b4e",
            "nonce": "0x175",
            "chainId": "0xaa37dc"
          },
          "additionalContracts": [],
          "isFixedGasLimit": false
        },
        {
          "hash": "0x4d0023c7f912e1b27d375dd038fe704404f19efecbbe7b1b6105ac752132906b",
          "transactionType": "CALL",
          "contractName": null,
          "contractAddress": "0x4a53515ab41d860e22163337524d3eaf21b04b4e",
          "function": "setPeer(uint32,bytes32)",
          "arguments": [
            "40161",
            "0x0000000000000000000000004a53515ab41d860e22163337524d3eaf21b04b4e"
          ],
          "transaction": {
            "from": "0x64a822f980dc5f126215d75d11dd8114ed0bdb5f",
            "to": "0x4a53515ab41d860e22163337524d3eaf21b04b4e",
            "gas": "0x1016a",
            "value": "0x0",
            "input": "0x3400288b0000000000000000000000000000000000000000000000000000000000009ce10000000000000000000000004a53515ab41d860e22163337524d3eaf21b04b4e",
            "nonce": "0x176",
            "chainId": "0xaa37dc"
          },
          "additionalContracts": [],
          "isFixedGasLimit": false
        },
        {
          "hash": "0x258544945584b076c1afd8efb45c97a4a972f1c6ed31c7c99235f10127bcba0f",
          "transactionType": "CALL",
          "contractName": null,
          "contractAddress": "0x4a53515ab41d860e22163337524d3eaf21b04b4e",
          "function": "setDstEidOfHomeChain(uint32)",
          "arguments": [
            "40232"
          ],
          "transaction": {
            "from": "0x64a822f980dc5f126215d75d11dd8114ed0bdb5f",
            "to": "0x4a53515ab41d860e22163337524d3eaf21b04b4e",
            "gas": "0xa4d0",
            "value": "0x0",
            "input": "0x1cd24bd40000000000000000000000000000000000000000000000000000000000009d28",
            "nonce": "0x177",
            "chainId": "0xaa37dc"
          },
          "additionalContracts": [],
          "isFixedGasLimit": false
        }
      ],
      "receipts": [
        {
          "status": "0x1",
          "cumulativeGasUsed": "0x140763",
          "logs": [
            {
              "address": "0x4a53515ab41d860e22163337524d3eaf21b04b4e",
              "topics": [
                "0x238399d427b947898edb290f5ff0f9109849b1c3ba196a42e35f00c50a54b98b"
              ],
              "data": "0x0000000000000000000000000000000000000000000000000000000000009d350000000000000000000000004a53515ab41d860e22163337524d3eaf21b04b4e",
              "blockHash": "0x954d50991b4c08a15c2065f49fe5bd9e05cee10f46fe0a246ec52a6a87bfe418",
              "blockNumber": "0x1021f31",
              "transactionHash": "0xb5645332b76cac192374bf90c4a1e0706e75a814e4f8292719f070dbc20bcee4",
              "transactionIndex": "0x4",
              "logIndex": "0x1a",
              "removed": false
            }
          ],
          "logsBloom": "0x00000000000000000000000000000000000000000000000000000800000000000000000000000000000000000000000000000000000000000800000000000000000000000000000000000000000000000000000000000000000000000000000000000000000000000000000000000000000001000000000000000000000000000000000000000000000000000000000000000000000000000000000000000000080000000000000000000000000000000000000000000000000002000000000000000000000000000000000000000000000000000000000000040000000000000000000000000000000000000000000000000000000000000000000000000000",
          "type": "0x2",
          "transactionHash": "0xb5645332b76cac192374bf90c4a1e0706e75a814e4f8292719f070dbc20bcee4",
          "transactionIndex": "0x4",
          "blockHash": "0x954d50991b4c08a15c2065f49fe5bd9e05cee10f46fe0a246ec52a6a87bfe418",
          "blockNumber": "0x1021f31",
          "gasUsed": "0xba5e",
          "effectiveGasPrice": "0xf6a98",
          "from": "0x64a822f980dc5f126215d75d11dd8114ed0bdb5f",
          "to": "0x4a53515ab41d860e22163337524d3eaf21b04b4e",
          "contractAddress": null,
          "l1BaseFeeScalar": "0x1db0",
          "l1BlobBaseFee": "0x217acb8943d",
          "l1BlobBaseFeeScalar": "0xd2730",
          "l1Fee": "0xb4f5cab62870",
          "l1GasPrice": "0xc633af448",
          "l1GasUsed": "0x640"
        },
        {
          "status": "0x1",
          "cumulativeGasUsed": "0x14c1c1",
          "logs": [
            {
              "address": "0x4a53515ab41d860e22163337524d3eaf21b04b4e",
              "topics": [
                "0x238399d427b947898edb290f5ff0f9109849b1c3ba196a42e35f00c50a54b98b"
              ],
              "data": "0x0000000000000000000000000000000000000000000000000000000000009d270000000000000000000000004a53515ab41d860e22163337524d3eaf21b04b4e",
              "blockHash": "0x954d50991b4c08a15c2065f49fe5bd9e05cee10f46fe0a246ec52a6a87bfe418",
              "blockNumber": "0x1021f31",
              "transactionHash": "0xc47760db3c789dca6bbf44d413dcaa132995e5d255548980f7d72246b86dd2f3",
              "transactionIndex": "0x5",
              "logIndex": "0x1b",
              "removed": false
            }
          ],
          "logsBloom": "0x00000000000000000000000000000000000000000000000000000800000000000000000000000000000000000000000000000000000000000800000000000000000000000000000000000000000000000000000000000000000000000000000000000000000000000000000000000000000001000000000000000000000000000000000000000000000000000000000000000000000000000000000000000000080000000000000000000000000000000000000000000000000002000000000000000000000000000000000000000000000000000000000000040000000000000000000000000000000000000000000000000000000000000000000000000000",
          "type": "0x2",
          "transactionHash": "0xc47760db3c789dca6bbf44d413dcaa132995e5d255548980f7d72246b86dd2f3",
          "transactionIndex": "0x5",
          "blockHash": "0x954d50991b4c08a15c2065f49fe5bd9e05cee10f46fe0a246ec52a6a87bfe418",
          "blockNumber": "0x1021f31",
          "gasUsed": "0xba5e",
          "effectiveGasPrice": "0xf6a98",
          "from": "0x64a822f980dc5f126215d75d11dd8114ed0bdb5f",
          "to": "0x4a53515ab41d860e22163337524d3eaf21b04b4e",
          "contractAddress": null,
          "l1BaseFeeScalar": "0x1db0",
          "l1BlobBaseFee": "0x217acb8943d",
          "l1BlobBaseFeeScalar": "0xd2730",
          "l1Fee": "0xb4f5cab62870",
          "l1GasPrice": "0xc633af448",
          "l1GasUsed": "0x640"
        },
        {
          "status": "0x1",
          "cumulativeGasUsed": "0x157c1f",
          "logs": [
            {
              "address": "0x4a53515ab41d860e22163337524d3eaf21b04b4e",
              "topics": [
                "0x238399d427b947898edb290f5ff0f9109849b1c3ba196a42e35f00c50a54b98b"
              ],
              "data": "0x0000000000000000000000000000000000000000000000000000000000009d710000000000000000000000004a53515ab41d860e22163337524d3eaf21b04b4e",
              "blockHash": "0x954d50991b4c08a15c2065f49fe5bd9e05cee10f46fe0a246ec52a6a87bfe418",
              "blockNumber": "0x1021f31",
              "transactionHash": "0x3746817167bb82fcf47490f3a333db09379dd873c2d7e8388baa6d54acfe44b5",
              "transactionIndex": "0x6",
              "logIndex": "0x1c",
              "removed": false
            }
          ],
          "logsBloom": "0x00000000000000000000000000000000000000000000000000000800000000000000000000000000000000000000000000000000000000000800000000000000000000000000000000000000000000000000000000000000000000000000000000000000000000000000000000000000000001000000000000000000000000000000000000000000000000000000000000000000000000000000000000000000080000000000000000000000000000000000000000000000000002000000000000000000000000000000000000000000000000000000000000040000000000000000000000000000000000000000000000000000000000000000000000000000",
          "type": "0x2",
          "transactionHash": "0x3746817167bb82fcf47490f3a333db09379dd873c2d7e8388baa6d54acfe44b5",
          "transactionIndex": "0x6",
          "blockHash": "0x954d50991b4c08a15c2065f49fe5bd9e05cee10f46fe0a246ec52a6a87bfe418",
          "blockNumber": "0x1021f31",
          "gasUsed": "0xba5e",
          "effectiveGasPrice": "0xf6a98",
          "from": "0x64a822f980dc5f126215d75d11dd8114ed0bdb5f",
          "to": "0x4a53515ab41d860e22163337524d3eaf21b04b4e",
          "contractAddress": null,
          "l1BaseFeeScalar": "0x1db0",
          "l1BlobBaseFee": "0x217acb8943d",
          "l1BlobBaseFeeScalar": "0xd2730",
          "l1Fee": "0xb4f5cab62870",
          "l1GasPrice": "0xc633af448",
          "l1GasUsed": "0x640"
        },
        {
          "status": "0x1",
          "cumulativeGasUsed": "0x2c267f",
          "logs": [
            {
              "address": "0x4a53515ab41d860e22163337524d3eaf21b04b4e",
              "topics": [
                "0x238399d427b947898edb290f5ff0f9109849b1c3ba196a42e35f00c50a54b98b"
              ],
              "data": "0x0000000000000000000000000000000000000000000000000000000000009d5f0000000000000000000000004a53515ab41d860e22163337524d3eaf21b04b4e",
              "blockHash": "0x954d50991b4c08a15c2065f49fe5bd9e05cee10f46fe0a246ec52a6a87bfe418",
              "blockNumber": "0x1021f31",
              "transactionHash": "0x19498b85cd57f809e00d3d519bb9ea72204edac9b61b5b7397bb4029eb33f7e0",
              "transactionIndex": "0x8",
              "logIndex": "0x2b",
              "removed": false
            }
          ],
          "logsBloom": "0x00000000000000000000000000000000000000000000000000000800000000000000000000000000000000000000000000000000000000000800000000000000000000000000000000000000000000000000000000000000000000000000000000000000000000000000000000000000000001000000000000000000000000000000000000000000000000000000000000000000000000000000000000000000080000000000000000000000000000000000000000000000000002000000000000000000000000000000000000000000000000000000000000040000000000000000000000000000000000000000000000000000000000000000000000000000",
          "type": "0x2",
          "transactionHash": "0x19498b85cd57f809e00d3d519bb9ea72204edac9b61b5b7397bb4029eb33f7e0",
          "transactionIndex": "0x8",
          "blockHash": "0x954d50991b4c08a15c2065f49fe5bd9e05cee10f46fe0a246ec52a6a87bfe418",
          "blockNumber": "0x1021f31",
          "gasUsed": "0xba5e",
          "effectiveGasPrice": "0xf6a98",
          "from": "0x64a822f980dc5f126215d75d11dd8114ed0bdb5f",
          "to": "0x4a53515ab41d860e22163337524d3eaf21b04b4e",
          "contractAddress": null,
          "l1BaseFeeScalar": "0x1db0",
          "l1BlobBaseFee": "0x217acb8943d",
          "l1BlobBaseFeeScalar": "0xd2730",
          "l1Fee": "0xb4f5cab62870",
          "l1GasPrice": "0xc633af448",
          "l1GasUsed": "0x640"
        },
        {
          "status": "0x1",
          "cumulativeGasUsed": "0x878d5",
          "logs": [
            {
              "address": "0x4a53515ab41d860e22163337524d3eaf21b04b4e",
              "topics": [
                "0x238399d427b947898edb290f5ff0f9109849b1c3ba196a42e35f00c50a54b98b"
              ],
              "data": "0x0000000000000000000000000000000000000000000000000000000000009ce10000000000000000000000004a53515ab41d860e22163337524d3eaf21b04b4e",
              "blockHash": "0xb0c7311a74151b684903fe048344203c3dfe7a609b6e3d543a031f9142109db6",
              "blockNumber": "0x1021f32",
              "transactionHash": "0x4d0023c7f912e1b27d375dd038fe704404f19efecbbe7b1b6105ac752132906b",
              "transactionIndex": "0x4",
              "logIndex": "0xa",
              "removed": false
            }
          ],
          "logsBloom": "0x00000000000000000000000000000000000000000000000000000800000000000000000000000000000000000000000000000000000000000800000000000000000000000000000000000000000000000000000000000000000000000000000000000000000000000000000000000000000001000000000000000000000000000000000000000000000000000000000000000000000000000000000000000000080000000000000000000000000000000000000000000000000002000000000000000000000000000000000000000000000000000000000000040000000000000000000000000000000000000000000000000000000000000000000000000000",
          "type": "0x2",
          "transactionHash": "0x4d0023c7f912e1b27d375dd038fe704404f19efecbbe7b1b6105ac752132906b",
          "transactionIndex": "0x4",
          "blockHash": "0xb0c7311a74151b684903fe048344203c3dfe7a609b6e3d543a031f9142109db6",
          "blockNumber": "0x1021f32",
          "gasUsed": "0xba5e",
          "effectiveGasPrice": "0xf6a98",
          "from": "0x64a822f980dc5f126215d75d11dd8114ed0bdb5f",
          "to": "0x4a53515ab41d860e22163337524d3eaf21b04b4e",
          "contractAddress": null,
          "l1BaseFeeScalar": "0x1db0",
          "l1BlobBaseFee": "0x217acb8943d",
          "l1BlobBaseFeeScalar": "0xd2730",
          "l1Fee": "0xb4f5cab62870",
          "l1GasPrice": "0xc633af448",
          "l1GasUsed": "0x640"
        },
        {
          "status": "0x1",
          "cumulativeGasUsed": "0x8e987",
          "logs": [],
          "logsBloom": "0x00000000000000000000000000000000000000000000000000000000000000000000000000000000000000000000000000000000000000000000000000000000000000000000000000000000000000000000000000000000000000000000000000000000000000000000000000000000000000000000000000000000000000000000000000000000000000000000000000000000000000000000000000000000000000000000000000000000000000000000000000000000000000000000000000000000000000000000000000000000000000000000000000000000000000000000000000000000000000000000000000000000000000000000000000000000",
          "type": "0x2",
          "transactionHash": "0x258544945584b076c1afd8efb45c97a4a972f1c6ed31c7c99235f10127bcba0f",
          "transactionIndex": "0x5",
          "blockHash": "0xb0c7311a74151b684903fe048344203c3dfe7a609b6e3d543a031f9142109db6",
          "blockNumber": "0x1021f32",
          "gasUsed": "0x70b2",
          "effectiveGasPrice": "0xf6a98",
          "from": "0x64a822f980dc5f126215d75d11dd8114ed0bdb5f",
          "to": "0x4a53515ab41d860e22163337524d3eaf21b04b4e",
          "contractAddress": null,
          "l1BaseFeeScalar": "0x1db0",
          "l1BlobBaseFee": "0x217acb8943d",
          "l1BlobBaseFeeScalar": "0xd2730",
          "l1Fee": "0xb4f5cab62870",
          "l1GasPrice": "0xc633af448",
          "l1GasUsed": "0x640"
        }
      ],
      "libraries": [],
      "pending": [],
      "returns": {},
      "timestamp": 1725635069,
      "chain": 11155420,
      "commit": "2af87c9"
    },
    {
      "transactions": [
        {
          "hash": "0xe8c5ff7630f0a1045cde824de4ecf34b51503cdc290718e410fd57c9b2d3d07d",
          "transactionType": "CALL",
          "contractName": null,
          "contractAddress": "0x4a53515ab41d860e22163337524d3eaf21b04b4e",
          "function": "setPeer(uint32,bytes32)",
          "arguments": [
            "40245",
            "0x0000000000000000000000004a53515ab41d860e22163337524d3eaf21b04b4e"
          ],
          "transaction": {
            "from": "0x64a822f980dc5f126215d75d11dd8114ed0bdb5f",
            "to": "0x4a53515ab41d860e22163337524d3eaf21b04b4e",
            "gas": "0x2ba0af",
            "value": "0x0",
            "input": "0x3400288b0000000000000000000000000000000000000000000000000000000000009d350000000000000000000000004a53515ab41d860e22163337524d3eaf21b04b4e",
            "nonce": "0x94",
            "chainId": "0x66eee"
          },
          "additionalContracts": [],
          "isFixedGasLimit": false
        },
        {
          "hash": "0xdd810865535b6a7719a62e67c01ae36afda090db690ae1daa924fffb2a0f52f3",
          "transactionType": "CALL",
          "contractName": null,
          "contractAddress": "0x4a53515ab41d860e22163337524d3eaf21b04b4e",
          "function": "setPeer(uint32,bytes32)",
          "arguments": [
            "40232",
            "0x0000000000000000000000004a53515ab41d860e22163337524d3eaf21b04b4e"
          ],
          "transaction": {
            "from": "0x64a822f980dc5f126215d75d11dd8114ed0bdb5f",
            "to": "0x4a53515ab41d860e22163337524d3eaf21b04b4e",
            "gas": "0x2ba0af",
            "value": "0x0",
            "input": "0x3400288b0000000000000000000000000000000000000000000000000000000000009d280000000000000000000000004a53515ab41d860e22163337524d3eaf21b04b4e",
            "nonce": "0x95",
            "chainId": "0x66eee"
          },
          "additionalContracts": [],
          "isFixedGasLimit": false
        },
        {
          "hash": "0x1481cb87495270af2a49d2d824d5554ae4e20b882f517ec588f0740a9228978c",
          "transactionType": "CALL",
          "contractName": null,
          "contractAddress": "0x4a53515ab41d860e22163337524d3eaf21b04b4e",
          "function": "setPeer(uint32,bytes32)",
          "arguments": [
            "40305",
            "0x0000000000000000000000004a53515ab41d860e22163337524d3eaf21b04b4e"
          ],
          "transaction": {
            "from": "0x64a822f980dc5f126215d75d11dd8114ed0bdb5f",
            "to": "0x4a53515ab41d860e22163337524d3eaf21b04b4e",
            "gas": "0x2ba0af",
            "value": "0x0",
            "input": "0x3400288b0000000000000000000000000000000000000000000000000000000000009d710000000000000000000000004a53515ab41d860e22163337524d3eaf21b04b4e",
            "nonce": "0x96",
            "chainId": "0x66eee"
          },
          "additionalContracts": [],
          "isFixedGasLimit": false
        },
        {
          "hash": "0xc376c6078eea3f0c724ef5486517dfe447b6898cdb79e320149561ff370972da",
          "transactionType": "CALL",
          "contractName": null,
          "contractAddress": "0x4a53515ab41d860e22163337524d3eaf21b04b4e",
          "function": "setPeer(uint32,bytes32)",
          "arguments": [
            "40287",
            "0x0000000000000000000000004a53515ab41d860e22163337524d3eaf21b04b4e"
          ],
          "transaction": {
            "from": "0x64a822f980dc5f126215d75d11dd8114ed0bdb5f",
            "to": "0x4a53515ab41d860e22163337524d3eaf21b04b4e",
            "gas": "0x2ba0af",
            "value": "0x0",
            "input": "0x3400288b0000000000000000000000000000000000000000000000000000000000009d5f0000000000000000000000004a53515ab41d860e22163337524d3eaf21b04b4e",
            "nonce": "0x97",
            "chainId": "0x66eee"
          },
          "additionalContracts": [],
          "isFixedGasLimit": false
        },
        {
          "hash": "0x640225e797f924a13dbd957bffe5c86ac1ea210311c1b4ee6b243d601c7f1029",
          "transactionType": "CALL",
          "contractName": null,
          "contractAddress": "0x4a53515ab41d860e22163337524d3eaf21b04b4e",
          "function": "setPeer(uint32,bytes32)",
          "arguments": [
            "40161",
            "0x0000000000000000000000004a53515ab41d860e22163337524d3eaf21b04b4e"
          ],
          "transaction": {
            "from": "0x64a822f980dc5f126215d75d11dd8114ed0bdb5f",
            "to": "0x4a53515ab41d860e22163337524d3eaf21b04b4e",
            "gas": "0x2ba0af",
            "value": "0x0",
            "input": "0x3400288b0000000000000000000000000000000000000000000000000000000000009ce10000000000000000000000004a53515ab41d860e22163337524d3eaf21b04b4e",
            "nonce": "0x98",
            "chainId": "0x66eee"
          },
          "additionalContracts": [],
          "isFixedGasLimit": false
        },
        {
          "hash": "0x454a3d2105bf67939e62cb5cbabc31d3f26dc21e3d97c1b69943b431a224746e",
          "transactionType": "CALL",
          "contractName": null,
          "contractAddress": "0x4a53515ab41d860e22163337524d3eaf21b04b4e",
          "function": "setDstEidOfHomeChain(uint32)",
          "arguments": [
            "40231"
          ],
          "transaction": {
            "from": "0x64a822f980dc5f126215d75d11dd8114ed0bdb5f",
            "to": "0x4a53515ab41d860e22163337524d3eaf21b04b4e",
            "gas": "0x249507",
            "value": "0x0",
            "input": "0x1cd24bd40000000000000000000000000000000000000000000000000000000000009d27",
            "nonce": "0x99",
            "chainId": "0x66eee"
          },
          "additionalContracts": [],
          "isFixedGasLimit": false
        }
      ],
      "receipts": [
        {
          "status": "0x1",
          "cumulativeGasUsed": "0x1a24c2",
          "logs": [
            {
              "address": "0x4a53515ab41d860e22163337524d3eaf21b04b4e",
              "topics": [
                "0x238399d427b947898edb290f5ff0f9109849b1c3ba196a42e35f00c50a54b98b"
              ],
              "data": "0x0000000000000000000000000000000000000000000000000000000000009d350000000000000000000000004a53515ab41d860e22163337524d3eaf21b04b4e",
              "blockHash": "0x0ba67c0eee310bba39112fef2be0e4d5fa25bdff845f18fb400ec575667b568d",
              "blockNumber": "0x4a438f2",
              "transactionHash": "0xe8c5ff7630f0a1045cde824de4ecf34b51503cdc290718e410fd57c9b2d3d07d",
              "transactionIndex": "0x1",
              "logIndex": "0x0",
              "removed": false
            }
          ],
          "logsBloom": "0x00000000000000000000000000000000000000000000000000000800000000000000000000000000000000000000000000000000000000000800000000000000000000000000000000000000000000000000000000000000000000000000000000000000000000000000000000000000000001000000000000000000000000000000000000000000000000000000000000000000000000000000000000000000080000000000000000000000000000000000000000000000000002000000000000000000000000000000000000000000000000000000000000040000000000000000000000000000000000000000000000000000000000000000000000000000",
          "type": "0x2",
          "transactionHash": "0xe8c5ff7630f0a1045cde824de4ecf34b51503cdc290718e410fd57c9b2d3d07d",
          "transactionIndex": "0x1",
          "blockHash": "0x0ba67c0eee310bba39112fef2be0e4d5fa25bdff845f18fb400ec575667b568d",
          "blockNumber": "0x4a438f2",
          "gasUsed": "0x1a24c2",
          "effectiveGasPrice": "0x5f5e100",
          "from": "0x64a822f980dc5f126215d75d11dd8114ed0bdb5f",
          "to": "0x4a53515ab41d860e22163337524d3eaf21b04b4e",
          "contractAddress": null,
          "gasUsedForL1": "0x196a64",
          "l1BlockNumber": "0x656068"
        },
        {
          "status": "0x1",
          "cumulativeGasUsed": "0xc218d5",
          "logs": [
            {
              "address": "0x4a53515ab41d860e22163337524d3eaf21b04b4e",
              "topics": [
                "0x238399d427b947898edb290f5ff0f9109849b1c3ba196a42e35f00c50a54b98b"
              ],
              "data": "0x0000000000000000000000000000000000000000000000000000000000009d280000000000000000000000004a53515ab41d860e22163337524d3eaf21b04b4e",
              "blockHash": "0xa1c0c0f517c767763d67b565b8ddd1bf91094080384ec1ee11dc2c7ee4000405",
              "blockNumber": "0x4a438f6",
              "transactionHash": "0xdd810865535b6a7719a62e67c01ae36afda090db690ae1daa924fffb2a0f52f3",
              "transactionIndex": "0x2",
              "logIndex": "0x9",
              "removed": false
            }
          ],
          "logsBloom": "0x00000000000000000000000000000000000000000000000000000800000000000000000000000000000000000000000000000000000000000800000000000000000000000000000000000000000000000000000000000000000000000000000000000000000000000000000000000000000001000000000000000000000000000000000000000000000000000000000000000000000000000000000000000000080000000000000000000000000000000000000000000000000002000000000000000000000000000000000000000000000000000000000000040000000000000000000000000000000000000000000000000000000000000000000000000000",
          "type": "0x2",
          "transactionHash": "0xdd810865535b6a7719a62e67c01ae36afda090db690ae1daa924fffb2a0f52f3",
          "transactionIndex": "0x2",
          "blockHash": "0xa1c0c0f517c767763d67b565b8ddd1bf91094080384ec1ee11dc2c7ee4000405",
          "blockNumber": "0x4a438f6",
          "gasUsed": "0x1a24c2",
          "effectiveGasPrice": "0x5f5e100",
          "from": "0x64a822f980dc5f126215d75d11dd8114ed0bdb5f",
          "to": "0x4a53515ab41d860e22163337524d3eaf21b04b4e",
          "contractAddress": null,
          "gasUsedForL1": "0x196a64",
          "l1BlockNumber": "0x656068"
        },
        {
          "status": "0x1",
          "cumulativeGasUsed": "0x217cbc1",
          "logs": [
            {
              "address": "0x4a53515ab41d860e22163337524d3eaf21b04b4e",
              "topics": [
                "0x238399d427b947898edb290f5ff0f9109849b1c3ba196a42e35f00c50a54b98b"
              ],
              "data": "0x0000000000000000000000000000000000000000000000000000000000009d710000000000000000000000004a53515ab41d860e22163337524d3eaf21b04b4e",
              "blockHash": "0x61c75f1e03b077beb640b118fecef78a3c42f0d462297fb6f91453551685c4da",
              "blockNumber": "0x4a438fb",
              "transactionHash": "0x1481cb87495270af2a49d2d824d5554ae4e20b882f517ec588f0740a9228978c",
              "transactionIndex": "0x2",
              "logIndex": "0x21",
              "removed": false
            }
          ],
          "logsBloom": "0x00000000000000000000000000000000000000000000000000000800000000000000000000000000000000000000000000000000000000000800000000000000000000000000000000000000000000000000000000000000000000000000000000000000000000000000000000000000000001000000000000000000000000000000000000000000000000000000000000000000000000000000000000000000080000000000000000000000000000000000000000000000000002000000000000000000000000000000000000000000000000000000000000040000000000000000000000000000000000000000000000000000000000000000000000000000",
          "type": "0x2",
          "transactionHash": "0x1481cb87495270af2a49d2d824d5554ae4e20b882f517ec588f0740a9228978c",
          "transactionIndex": "0x2",
          "blockHash": "0x61c75f1e03b077beb640b118fecef78a3c42f0d462297fb6f91453551685c4da",
          "blockNumber": "0x4a438fb",
          "gasUsed": "0x1a24c2",
          "effectiveGasPrice": "0x5f5e100",
          "from": "0x64a822f980dc5f126215d75d11dd8114ed0bdb5f",
          "to": "0x4a53515ab41d860e22163337524d3eaf21b04b4e",
          "contractAddress": null,
          "gasUsedForL1": "0x196a64",
          "l1BlockNumber": "0x656068"
        },
        {
          "status": "0x1",
          "cumulativeGasUsed": "0x1a24c2",
          "logs": [
            {
              "address": "0x4a53515ab41d860e22163337524d3eaf21b04b4e",
              "topics": [
                "0x238399d427b947898edb290f5ff0f9109849b1c3ba196a42e35f00c50a54b98b"
              ],
              "data": "0x0000000000000000000000000000000000000000000000000000000000009d5f0000000000000000000000004a53515ab41d860e22163337524d3eaf21b04b4e",
              "blockHash": "0x621446ba37a70b97e234164dea1fe275b32e10e9fa312b59baf5cc75794e83a1",
              "blockNumber": "0x4a43900",
              "transactionHash": "0xc376c6078eea3f0c724ef5486517dfe447b6898cdb79e320149561ff370972da",
              "transactionIndex": "0x1",
              "logIndex": "0x0",
              "removed": false
            }
          ],
          "logsBloom": "0x00000000000000000000000000000000000000000000000000000800000000000000000000000000000000000000000000000000000000000800000000000000000000000000000000000000000000000000000000000000000000000000000000000000000000000000000000000000000001000000000000000000000000000000000000000000000000000000000000000000000000000000000000000000080000000000000000000000000000000000000000000000000002000000000000000000000000000000000000000000000000000000000000040000000000000000000000000000000000000000000000000000000000000000000000000000",
          "type": "0x2",
          "transactionHash": "0xc376c6078eea3f0c724ef5486517dfe447b6898cdb79e320149561ff370972da",
          "transactionIndex": "0x1",
          "blockHash": "0x621446ba37a70b97e234164dea1fe275b32e10e9fa312b59baf5cc75794e83a1",
          "blockNumber": "0x4a43900",
          "gasUsed": "0x1a24c2",
          "effectiveGasPrice": "0x5f5e100",
          "from": "0x64a822f980dc5f126215d75d11dd8114ed0bdb5f",
          "to": "0x4a53515ab41d860e22163337524d3eaf21b04b4e",
          "contractAddress": null,
          "gasUsedForL1": "0x196a64",
          "l1BlockNumber": "0x656068"
        },
        {
          "status": "0x1",
          "cumulativeGasUsed": "0x4002e8",
          "logs": [
            {
              "address": "0x4a53515ab41d860e22163337524d3eaf21b04b4e",
              "topics": [
                "0x238399d427b947898edb290f5ff0f9109849b1c3ba196a42e35f00c50a54b98b"
              ],
              "data": "0x0000000000000000000000000000000000000000000000000000000000009ce10000000000000000000000004a53515ab41d860e22163337524d3eaf21b04b4e",
              "blockHash": "0x7a61e65ed2f4d6c2ccb9fe9bf04e09be719efa57ee69d82406ca49f9750d720c",
              "blockNumber": "0x4a43904",
              "transactionHash": "0x640225e797f924a13dbd957bffe5c86ac1ea210311c1b4ee6b243d601c7f1029",
              "transactionIndex": "0x2",
              "logIndex": "0x2",
              "removed": false
            }
          ],
          "logsBloom": "0x00000000000000000000000000000000000000000000000000000800000000000000000000000000000000000000000000000000000000000800000000000000000000000000000000000000000000000000000000000000000000000000000000000000000000000000000000000000000001000000000000000000000000000000000000000000000000000000000000000000000000000000000000000000080000000000000000000000000000000000000000000000000002000000000000000000000000000000000000000000000000000000000000040000000000000000000000000000000000000000000000000000000000000000000000000000",
          "type": "0x2",
          "transactionHash": "0x640225e797f924a13dbd957bffe5c86ac1ea210311c1b4ee6b243d601c7f1029",
          "transactionIndex": "0x2",
          "blockHash": "0x7a61e65ed2f4d6c2ccb9fe9bf04e09be719efa57ee69d82406ca49f9750d720c",
          "blockNumber": "0x4a43904",
          "gasUsed": "0x1a24c2",
          "effectiveGasPrice": "0x5f5e100",
          "from": "0x64a822f980dc5f126215d75d11dd8114ed0bdb5f",
          "to": "0x4a53515ab41d860e22163337524d3eaf21b04b4e",
          "contractAddress": null,
          "gasUsedForL1": "0x196a64",
          "l1BlockNumber": "0x656068"
        },
        {
          "status": "0x1",
          "cumulativeGasUsed": "0x1545cd",
          "logs": [],
          "logsBloom": "0x00000000000000000000000000000000000000000000000000000000000000000000000000000000000000000000000000000000000000000000000000000000000000000000000000000000000000000000000000000000000000000000000000000000000000000000000000000000000000000000000000000000000000000000000000000000000000000000000000000000000000000000000000000000000000000000000000000000000000000000000000000000000000000000000000000000000000000000000000000000000000000000000000000000000000000000000000000000000000000000000000000000000000000000000000000000",
          "type": "0x2",
          "transactionHash": "0x454a3d2105bf67939e62cb5cbabc31d3f26dc21e3d97c1b69943b431a224746e",
          "transactionIndex": "0x1",
          "blockHash": "0x13102876cea7df31b0000d1be5a57e816f1c8dfe89cf025197e6b5bf6ee0c75f",
          "blockNumber": "0x4a43908",
          "gasUsed": "0x1545cd",
          "effectiveGasPrice": "0x5f5e100",
          "from": "0x64a822f980dc5f126215d75d11dd8114ed0bdb5f",
          "to": "0x4a53515ab41d860e22163337524d3eaf21b04b4e",
          "contractAddress": null,
          "gasUsedForL1": "0x14d51b",
          "l1BlockNumber": "0x656068"
        }
      ],
      "libraries": [],
      "pending": [],
      "returns": {},
      "timestamp": 1725635071,
      "chain": 421614,
      "commit": "2af87c9"
    },
    {
      "transactions": [
        {
          "hash": "0x5f3a0f9fd833f9b6443ad26c7f5765bdd6935c9fa7a4bc7e444c707944f1c81a",
          "transactionType": "CALL",
          "contractName": null,
          "contractAddress": "0x4a53515ab41d860e22163337524d3eaf21b04b4e",
          "function": "setPeer(uint32,bytes32)",
          "arguments": [
            "40245",
            "0x0000000000000000000000004a53515ab41d860e22163337524d3eaf21b04b4e"
          ],
          "transaction": {
            "from": "0x64a822f980dc5f126215d75d11dd8114ed0bdb5f",
            "to": "0x4a53515ab41d860e22163337524d3eaf21b04b4e",
            "gas": "0x1016a",
            "value": "0x0",
            "input": "0x3400288b0000000000000000000000000000000000000000000000000000000000009d350000000000000000000000004a53515ab41d860e22163337524d3eaf21b04b4e",
            "nonce": "0x54",
            "chainId": "0xe705"
          },
          "additionalContracts": [],
          "isFixedGasLimit": false
        },
        {
          "hash": "0x5407404a3611c2bfd704db44f388be5647cbcebc759ebfecea5d2c83582d961b",
          "transactionType": "CALL",
          "contractName": null,
          "contractAddress": "0x4a53515ab41d860e22163337524d3eaf21b04b4e",
          "function": "setPeer(uint32,bytes32)",
          "arguments": [
            "40232",
            "0x0000000000000000000000004a53515ab41d860e22163337524d3eaf21b04b4e"
          ],
          "transaction": {
            "from": "0x64a822f980dc5f126215d75d11dd8114ed0bdb5f",
            "to": "0x4a53515ab41d860e22163337524d3eaf21b04b4e",
            "gas": "0x1016a",
            "value": "0x0",
            "input": "0x3400288b0000000000000000000000000000000000000000000000000000000000009d280000000000000000000000004a53515ab41d860e22163337524d3eaf21b04b4e",
            "nonce": "0x55",
            "chainId": "0xe705"
          },
          "additionalContracts": [],
          "isFixedGasLimit": false
        },
        {
          "hash": "0xcb898b84dea0b00c21b8e77dc081b835b472e1fba1370cf63265d1deab5c9952",
          "transactionType": "CALL",
          "contractName": null,
          "contractAddress": "0x4a53515ab41d860e22163337524d3eaf21b04b4e",
          "function": "setPeer(uint32,bytes32)",
          "arguments": [
            "40231",
            "0x0000000000000000000000004a53515ab41d860e22163337524d3eaf21b04b4e"
          ],
          "transaction": {
            "from": "0x64a822f980dc5f126215d75d11dd8114ed0bdb5f",
            "to": "0x4a53515ab41d860e22163337524d3eaf21b04b4e",
            "gas": "0x1016a",
            "value": "0x0",
            "input": "0x3400288b0000000000000000000000000000000000000000000000000000000000009d270000000000000000000000004a53515ab41d860e22163337524d3eaf21b04b4e",
            "nonce": "0x56",
            "chainId": "0xe705"
          },
          "additionalContracts": [],
          "isFixedGasLimit": false
        },
        {
          "hash": "0x81060fbd1e6271e95af87f954440093bb523ed779a5958c4579088e504da73c2",
          "transactionType": "CALL",
          "contractName": null,
          "contractAddress": "0x4a53515ab41d860e22163337524d3eaf21b04b4e",
          "function": "setPeer(uint32,bytes32)",
          "arguments": [
            "40305",
            "0x0000000000000000000000004a53515ab41d860e22163337524d3eaf21b04b4e"
          ],
          "transaction": {
            "from": "0x64a822f980dc5f126215d75d11dd8114ed0bdb5f",
            "to": "0x4a53515ab41d860e22163337524d3eaf21b04b4e",
            "gas": "0x1016a",
            "value": "0x0",
            "input": "0x3400288b0000000000000000000000000000000000000000000000000000000000009d710000000000000000000000004a53515ab41d860e22163337524d3eaf21b04b4e",
            "nonce": "0x57",
            "chainId": "0xe705"
          },
          "additionalContracts": [],
          "isFixedGasLimit": false
        },
        {
          "hash": "0x18961871983851f7353c06ade1c9fc3f008ed0941ba7e654feb8ff257e9b269b",
          "transactionType": "CALL",
          "contractName": null,
          "contractAddress": "0x4a53515ab41d860e22163337524d3eaf21b04b4e",
          "function": "setPeer(uint32,bytes32)",
          "arguments": [
            "40161",
            "0x0000000000000000000000004a53515ab41d860e22163337524d3eaf21b04b4e"
          ],
          "transaction": {
            "from": "0x64a822f980dc5f126215d75d11dd8114ed0bdb5f",
            "to": "0x4a53515ab41d860e22163337524d3eaf21b04b4e",
            "gas": "0x1016a",
            "value": "0x0",
            "input": "0x3400288b0000000000000000000000000000000000000000000000000000000000009ce10000000000000000000000004a53515ab41d860e22163337524d3eaf21b04b4e",
            "nonce": "0x58",
            "chainId": "0xe705"
          },
          "additionalContracts": [],
          "isFixedGasLimit": false
        },
        {
          "hash": "0x2ef38c3f39d0e7b7fc7a95c9f4f831a2121f46d3ab6a3e49f05b85066b569970",
          "transactionType": "CALL",
          "contractName": null,
          "contractAddress": "0x4a53515ab41d860e22163337524d3eaf21b04b4e",
          "function": "setDstEidOfHomeChain(uint32)",
          "arguments": [
            "40287"
          ],
          "transaction": {
            "from": "0x64a822f980dc5f126215d75d11dd8114ed0bdb5f",
            "to": "0x4a53515ab41d860e22163337524d3eaf21b04b4e",
            "gas": "0xa4d0",
            "value": "0x0",
            "input": "0x1cd24bd40000000000000000000000000000000000000000000000000000000000009d5f",
            "nonce": "0x59",
            "chainId": "0xe705"
          },
          "additionalContracts": [],
          "isFixedGasLimit": false
        }
      ],
      "receipts": [
        {
          "status": "0x1",
          "cumulativeGasUsed": "0xba5e",
          "logs": [
            {
              "address": "0x4a53515ab41d860e22163337524d3eaf21b04b4e",
              "topics": [
                "0x238399d427b947898edb290f5ff0f9109849b1c3ba196a42e35f00c50a54b98b"
              ],
              "data": "0x0000000000000000000000000000000000000000000000000000000000009d350000000000000000000000004a53515ab41d860e22163337524d3eaf21b04b4e",
              "blockHash": "0xb7fa651d53d2796dac89c2f8012beae9b6015f318981fc455b419892abe0a7d3",
              "blockNumber": "0x396266",
              "transactionHash": "0x5f3a0f9fd833f9b6443ad26c7f5765bdd6935c9fa7a4bc7e444c707944f1c81a",
              "transactionIndex": "0x0",
              "logIndex": "0x0",
              "removed": false
            }
          ],
          "logsBloom": "0x00000000000000000000000000000000000000000000000000000800000000000000000000000000000000000000000000000000000000000800000000000000000000000000000000000000000000000000000000000000000000000000000000000000000000000000000000000000000001000000000000000000000000000000000000000000000000000000000000000000000000000000000000000000080000000000000000000000000000000000000000000000000002000000000000000000000000000000000000000000000000000000000000040000000000000000000000000000000000000000000000000000000000000000000000000000",
          "type": "0x2",
          "transactionHash": "0x5f3a0f9fd833f9b6443ad26c7f5765bdd6935c9fa7a4bc7e444c707944f1c81a",
          "transactionIndex": "0x0",
          "blockHash": "0xb7fa651d53d2796dac89c2f8012beae9b6015f318981fc455b419892abe0a7d3",
          "blockNumber": "0x396266",
          "gasUsed": "0xba5e",
          "effectiveGasPrice": "0x12caec416",
          "from": "0x64a822f980dc5f126215d75d11dd8114ed0bdb5f",
          "to": "0x4a53515ab41d860e22163337524d3eaf21b04b4e",
          "contractAddress": null
        },
        {
          "status": "0x1",
          "cumulativeGasUsed": "0x174bc",
          "logs": [
            {
              "address": "0x4a53515ab41d860e22163337524d3eaf21b04b4e",
              "topics": [
                "0x238399d427b947898edb290f5ff0f9109849b1c3ba196a42e35f00c50a54b98b"
              ],
              "data": "0x0000000000000000000000000000000000000000000000000000000000009d280000000000000000000000004a53515ab41d860e22163337524d3eaf21b04b4e",
              "blockHash": "0xb7fa651d53d2796dac89c2f8012beae9b6015f318981fc455b419892abe0a7d3",
              "blockNumber": "0x396266",
              "transactionHash": "0x5407404a3611c2bfd704db44f388be5647cbcebc759ebfecea5d2c83582d961b",
              "transactionIndex": "0x1",
              "logIndex": "0x1",
              "removed": false
            }
          ],
          "logsBloom": "0x00000000000000000000000000000000000000000000000000000800000000000000000000000000000000000000000000000000000000000800000000000000000000000000000000000000000000000000000000000000000000000000000000000000000000000000000000000000000001000000000000000000000000000000000000000000000000000000000000000000000000000000000000000000080000000000000000000000000000000000000000000000000002000000000000000000000000000000000000000000000000000000000000040000000000000000000000000000000000000000000000000000000000000000000000000000",
          "type": "0x2",
          "transactionHash": "0x5407404a3611c2bfd704db44f388be5647cbcebc759ebfecea5d2c83582d961b",
          "transactionIndex": "0x1",
          "blockHash": "0xb7fa651d53d2796dac89c2f8012beae9b6015f318981fc455b419892abe0a7d3",
          "blockNumber": "0x396266",
          "gasUsed": "0xba5e",
          "effectiveGasPrice": "0x12caec416",
          "from": "0x64a822f980dc5f126215d75d11dd8114ed0bdb5f",
          "to": "0x4a53515ab41d860e22163337524d3eaf21b04b4e",
          "contractAddress": null
        },
        {
          "status": "0x1",
          "cumulativeGasUsed": "0xba5e",
          "logs": [
            {
              "address": "0x4a53515ab41d860e22163337524d3eaf21b04b4e",
              "topics": [
                "0x238399d427b947898edb290f5ff0f9109849b1c3ba196a42e35f00c50a54b98b"
              ],
              "data": "0x0000000000000000000000000000000000000000000000000000000000009d270000000000000000000000004a53515ab41d860e22163337524d3eaf21b04b4e",
              "blockHash": "0xb4aee251bd307f2885211ccd854a39659a367197944d206f68f3bceb03723d7a",
              "blockNumber": "0x396267",
              "transactionHash": "0xcb898b84dea0b00c21b8e77dc081b835b472e1fba1370cf63265d1deab5c9952",
              "transactionIndex": "0x0",
              "logIndex": "0x0",
              "removed": false
            }
          ],
          "logsBloom": "0x00000000000000000000000000000000000000000000000000000800000000000000000000000000000000000000000000000000000000000800000000000000000000000000000000000000000000000000000000000000000000000000000000000000000000000000000000000000000001000000000000000000000000000000000000000000000000000000000000000000000000000000000000000000080000000000000000000000000000000000000000000000000002000000000000000000000000000000000000000000000000000000000000040000000000000000000000000000000000000000000000000000000000000000000000000000",
          "type": "0x2",
          "transactionHash": "0xcb898b84dea0b00c21b8e77dc081b835b472e1fba1370cf63265d1deab5c9952",
          "transactionIndex": "0x0",
          "blockHash": "0xb4aee251bd307f2885211ccd854a39659a367197944d206f68f3bceb03723d7a",
          "blockNumber": "0x396267",
          "gasUsed": "0xba5e",
          "effectiveGasPrice": "0x12caec416",
          "from": "0x64a822f980dc5f126215d75d11dd8114ed0bdb5f",
          "to": "0x4a53515ab41d860e22163337524d3eaf21b04b4e",
          "contractAddress": null
        },
        {
          "status": "0x1",
          "cumulativeGasUsed": "0x174bc",
          "logs": [
            {
              "address": "0x4a53515ab41d860e22163337524d3eaf21b04b4e",
              "topics": [
                "0x238399d427b947898edb290f5ff0f9109849b1c3ba196a42e35f00c50a54b98b"
              ],
              "data": "0x0000000000000000000000000000000000000000000000000000000000009d710000000000000000000000004a53515ab41d860e22163337524d3eaf21b04b4e",
              "blockHash": "0xb4aee251bd307f2885211ccd854a39659a367197944d206f68f3bceb03723d7a",
              "blockNumber": "0x396267",
              "transactionHash": "0x81060fbd1e6271e95af87f954440093bb523ed779a5958c4579088e504da73c2",
              "transactionIndex": "0x1",
              "logIndex": "0x1",
              "removed": false
            }
          ],
          "logsBloom": "0x00000000000000000000000000000000000000000000000000000800000000000000000000000000000000000000000000000000000000000800000000000000000000000000000000000000000000000000000000000000000000000000000000000000000000000000000000000000000001000000000000000000000000000000000000000000000000000000000000000000000000000000000000000000080000000000000000000000000000000000000000000000000002000000000000000000000000000000000000000000000000000000000000040000000000000000000000000000000000000000000000000000000000000000000000000000",
          "type": "0x2",
          "transactionHash": "0x81060fbd1e6271e95af87f954440093bb523ed779a5958c4579088e504da73c2",
          "transactionIndex": "0x1",
          "blockHash": "0xb4aee251bd307f2885211ccd854a39659a367197944d206f68f3bceb03723d7a",
          "blockNumber": "0x396267",
          "gasUsed": "0xba5e",
          "effectiveGasPrice": "0x12caec416",
          "from": "0x64a822f980dc5f126215d75d11dd8114ed0bdb5f",
          "to": "0x4a53515ab41d860e22163337524d3eaf21b04b4e",
          "contractAddress": null
        },
        {
          "status": "0x1",
          "cumulativeGasUsed": "0x22f1a",
          "logs": [
            {
              "address": "0x4a53515ab41d860e22163337524d3eaf21b04b4e",
              "topics": [
                "0x238399d427b947898edb290f5ff0f9109849b1c3ba196a42e35f00c50a54b98b"
              ],
              "data": "0x0000000000000000000000000000000000000000000000000000000000009ce10000000000000000000000004a53515ab41d860e22163337524d3eaf21b04b4e",
              "blockHash": "0xb4aee251bd307f2885211ccd854a39659a367197944d206f68f3bceb03723d7a",
              "blockNumber": "0x396267",
              "transactionHash": "0x18961871983851f7353c06ade1c9fc3f008ed0941ba7e654feb8ff257e9b269b",
              "transactionIndex": "0x2",
              "logIndex": "0x2",
              "removed": false
            }
          ],
          "logsBloom": "0x00000000000000000000000000000000000000000000000000000800000000000000000000000000000000000000000000000000000000000800000000000000000000000000000000000000000000000000000000000000000000000000000000000000000000000000000000000000000001000000000000000000000000000000000000000000000000000000000000000000000000000000000000000000080000000000000000000000000000000000000000000000000002000000000000000000000000000000000000000000000000000000000000040000000000000000000000000000000000000000000000000000000000000000000000000000",
          "type": "0x2",
          "transactionHash": "0x18961871983851f7353c06ade1c9fc3f008ed0941ba7e654feb8ff257e9b269b",
          "transactionIndex": "0x2",
          "blockHash": "0xb4aee251bd307f2885211ccd854a39659a367197944d206f68f3bceb03723d7a",
          "blockNumber": "0x396267",
          "gasUsed": "0xba5e",
          "effectiveGasPrice": "0x12caec416",
          "from": "0x64a822f980dc5f126215d75d11dd8114ed0bdb5f",
          "to": "0x4a53515ab41d860e22163337524d3eaf21b04b4e",
          "contractAddress": null
        },
        {
          "status": "0x1",
          "cumulativeGasUsed": "0x29fcc",
          "logs": [],
          "logsBloom": "0x00000000000000000000000000000000000000000000000000000000000000000000000000000000000000000000000000000000000000000000000000000000000000000000000000000000000000000000000000000000000000000000000000000000000000000000000000000000000000000000000000000000000000000000000000000000000000000000000000000000000000000000000000000000000000000000000000000000000000000000000000000000000000000000000000000000000000000000000000000000000000000000000000000000000000000000000000000000000000000000000000000000000000000000000000000000",
          "type": "0x2",
          "transactionHash": "0x2ef38c3f39d0e7b7fc7a95c9f4f831a2121f46d3ab6a3e49f05b85066b569970",
          "transactionIndex": "0x3",
          "blockHash": "0xb4aee251bd307f2885211ccd854a39659a367197944d206f68f3bceb03723d7a",
          "blockNumber": "0x396267",
          "gasUsed": "0x70b2",
          "effectiveGasPrice": "0x12caec416",
          "from": "0x64a822f980dc5f126215d75d11dd8114ed0bdb5f",
          "to": "0x4a53515ab41d860e22163337524d3eaf21b04b4e",
          "contractAddress": null
        }
      ],
      "libraries": [],
      "pending": [],
      "returns": {},
      "timestamp": 1725635071,
      "chain": 59141,
      "commit": "2af87c9"
    }
  ],
  "timestamp": 1725635109
}