{
  "deployments": [
    {
      "transactions": [
        {
          "hash": "0xb32c5385c6eb2bca804d371cf44d1adb7909d912a5a001a28a01f769efff905e",
          "transactionType": "CALL",
          "contractName": null,
          "contractAddress": "0x76baeae38288df2504775f8e5b0084c0e1012a21",
          "function": "setPeer(uint32,bytes32)",
          "arguments": [
            "40232",
            "0x00000000000000000000000076baeae38288df2504775f8e5b0084c0e1012a21"
          ],
          "transaction": {
            "from": "0x64a822f980dc5f126215d75d11dd8114ed0bdb5f",
            "to": "0x76baeae38288df2504775f8e5b0084c0e1012a21",
            "gas": "0x10ffc",
            "value": "0x0",
            "input": "0x3400288b0000000000000000000000000000000000000000000000000000000000009d2800000000000000000000000076baeae38288df2504775f8e5b0084c0e1012a21",
            "nonce": "0x157",
            "chainId": "0x14a34"
          },
          "additionalContracts": [],
          "isFixedGasLimit": false
        }
      ],
      "receipts": [
        {
          "status": "0x1",
          "cumulativeGasUsed": "0x23cdb9",
          "logs": [
            {
              "address": "0x76baeae38288df2504775f8e5b0084c0e1012a21",
              "topics": [
                "0x238399d427b947898edb290f5ff0f9109849b1c3ba196a42e35f00c50a54b98b"
              ],
              "data": "0x0000000000000000000000000000000000000000000000000000000000009d2800000000000000000000000076baeae38288df2504775f8e5b0084c0e1012a21",
              "blockHash": "0xadb69c6f88dd8f03dfdf1ccf169e497a172080cd6bde168a9a8a47593a1adbc2",
              "blockNumber": "0xe022cd",
              "transactionHash": "0xb32c5385c6eb2bca804d371cf44d1adb7909d912a5a001a28a01f769efff905e",
              "transactionIndex": "0x5",
              "logIndex": "0x2b",
              "removed": false
            }
          ],
          "logsBloom": "0x00000000000000000000000000000000000000000020000000000000000000000000000000000000000000000000000000000000000000000800000000000000000000000000000000000000000000000000000000000000000000000000000000000000000000000000000000008000000000000000000000000000000000000000000000000000000000000000000000000000000000000000000000000000000000000000000000000000000000000000000000000000010002000000000000000000000000000000000000000000000000000000000000040000000000000000000000000000000000000000000000000000000000000000000000000000",
          "type": "0x2",
          "transactionHash": "0xb32c5385c6eb2bca804d371cf44d1adb7909d912a5a001a28a01f769efff905e",
          "transactionIndex": "0x5",
          "blockHash": "0xadb69c6f88dd8f03dfdf1ccf169e497a172080cd6bde168a9a8a47593a1adbc2",
          "blockNumber": "0xe022cd",
          "gasUsed": "0xb9f9",
          "effectiveGasPrice": "0xf460f",
          "from": "0x64a822f980dc5f126215d75d11dd8114ed0bdb5f",
          "to": "0x76baeae38288df2504775f8e5b0084c0e1012a21",
          "contractAddress": null,
          "l1BaseFeeScalar": "0x44d",
          "l1BlobBaseFee": "0x37772ed0",
          "l1BlobBaseFeeScalar": "0xa118b",
          "l1Fee": "0xe59397014",
          "l1GasPrice": "0x79045a3",
          "l1GasUsed": "0x640"
        }
      ],
      "libraries": [],
      "pending": [],
      "returns": {},
      "timestamp": 1725146228,
      "chain": 84532,
      "commit": "d669b79"
    },
    {
      "transactions": [
        {
          "hash": "0xd0012728af75e44d6c92aaa5243250328d4ca14cbb41691a53d44a75359ef55f",
          "transactionType": "CALL",
          "contractName": null,
          "contractAddress": "0x76baeae38288df2504775f8e5b0084c0e1012a21",
          "function": "setPeer(uint32,bytes32)",
          "arguments": [
            "40245",
            "0x00000000000000000000000076baeae38288df2504775f8e5b0084c0e1012a21"
          ],
          "transaction": {
            "from": "0x64a822f980dc5f126215d75d11dd8114ed0bdb5f",
            "to": "0x76baeae38288df2504775f8e5b0084c0e1012a21",
            "gas": "0x10ffc",
            "value": "0x0",
            "input": "0x3400288b0000000000000000000000000000000000000000000000000000000000009d3500000000000000000000000076baeae38288df2504775f8e5b0084c0e1012a21",
            "nonce": "0xbf",
            "chainId": "0xaa37dc"
          },
          "additionalContracts": [],
          "isFixedGasLimit": false
        }
      ],
      "receipts": [
        {
          "status": "0x1",
          "cumulativeGasUsed": "0x17070b",
          "logs": [
            {
              "address": "0x76baeae38288df2504775f8e5b0084c0e1012a21",
              "topics": [
                "0x238399d427b947898edb290f5ff0f9109849b1c3ba196a42e35f00c50a54b98b"
              ],
              "data": "0x0000000000000000000000000000000000000000000000000000000000009d3500000000000000000000000076baeae38288df2504775f8e5b0084c0e1012a21",
              "blockHash": "0x872909df90866ba76404ac519a743b30b6c9a06f9948a2a4ac0a61080d8d9c3f",
              "blockNumber": "0xfe646b",
              "transactionHash": "0xd0012728af75e44d6c92aaa5243250328d4ca14cbb41691a53d44a75359ef55f",
              "transactionIndex": "0x4",
              "logIndex": "0x1e",
              "removed": false
            }
          ],
          "logsBloom": "0x00000000000000000000000000000000000000000020000000000000000000000000000000000000000000000000000000000000000000000800000000000000000000000000000000000000000000000000000000000000000000000000000000000000000000000000000000008000000000000000000000000000000000000000000000000000000000000000000000000000000000000000000000000000000000000000000000000000000000000000000000000000010002000000000000000000000000000000000000000000000000000000000000040000000000000000000000000000000000000000000000000000000000000000000000000000",
          "type": "0x2",
          "transactionHash": "0xd0012728af75e44d6c92aaa5243250328d4ca14cbb41691a53d44a75359ef55f",
          "transactionIndex": "0x4",
          "blockHash": "0x872909df90866ba76404ac519a743b30b6c9a06f9948a2a4ac0a61080d8d9c3f",
          "blockNumber": "0xfe646b",
          "gasUsed": "0xb9f9",
          "effectiveGasPrice": "0xf6a62",
          "from": "0x64a822f980dc5f126215d75d11dd8114ed0bdb5f",
          "to": "0x76baeae38288df2504775f8e5b0084c0e1012a21",
          "contractAddress": null,
          "l1BaseFeeScalar": "0x1db0",
          "l1BlobBaseFee": "0x2883dbf1",
          "l1BlobBaseFeeScalar": "0xd2730",
          "l1Fee": "0xdf3acf0db",
          "l1GasPrice": "0x684f879",
          "l1GasUsed": "0x640"
        }
      ],
      "libraries": [],
      "pending": [],
      "returns": {},
      "timestamp": 1725146230,
      "chain": 11155420,
      "commit": "d669b79"
    }
  ],
  "timestamp": 1725146248
}