{
  "deployments": [
    {
      "transactions": [
        {
          "hash": "0xaa45df0bef95d1e1a4574e28b4f557331943131394b4a33fc5ae7f6cbf4dac09",
          "transactionType": "CALL",
          "contractName": null,
          "contractAddress": "0x92bee7c879bc36dca46f728604d00aff0bbfd673",
          "function": "setPeer(uint32,bytes32)",
          "arguments": [
            "40232",
            "0x00000000000000000000000092bee7c879bc36dca46f728604d00aff0bbfd673"
          ],
          "transaction": {
            "from": "0x64a822f980dc5f126215d75d11dd8114ed0bdb5f",
            "to": "0x92bee7c879bc36dca46f728604d00aff0bbfd673",
            "gas": "0xae5c",
            "value": "0x0",
            "input": "0x3400288b0000000000000000000000000000000000000000000000000000000000009d2800000000000000000000000092bee7c879bc36dca46f728604d00aff0bbfd673",
            "nonce": "0x183",
            "chainId": "0x14a34"
          },
          "additionalContracts": [],
          "isFixedGasLimit": false
        }
      ],
      "receipts": [
        {
          "status": "0x1",
          "cumulativeGasUsed": "0x1b7ec6",
          "logs": [
            {
              "address": "0x92bee7c879bc36dca46f728604d00aff0bbfd673",
              "topics": [
                "0x238399d427b947898edb290f5ff0f9109849b1c3ba196a42e35f00c50a54b98b"
              ],
              "data": "0x0000000000000000000000000000000000000000000000000000000000009d2800000000000000000000000092bee7c879bc36dca46f728604d00aff0bbfd673",
              "blockHash": "0x022d4301a3ac3d2abd81337f3eda220419f0e793e27fa33358f6d46790851243",
              "blockNumber": "0xe114f9",
              "transactionHash": "0xaa45df0bef95d1e1a4574e28b4f557331943131394b4a33fc5ae7f6cbf4dac09",
              "transactionIndex": "0x9",
              "logIndex": "0x1f",
              "removed": false
            }
          ],
          "logsBloom": "0x00000000000000000000000000000000000000000000000000000000000000000000000000000000000000000000000000000000000000000800000000004000000000000000000000000000000000000000000000000000000000000000000000400000000000000004000000000000000000000000000000000000000000000000000000000000000000000000000000000000000000000000000000000000000000000000000000000000000000000000000000000000000002000000000000000000000000000000000000000000000000000000000000040000000000000000000000000000000000000000000000000000000000000000000000000000",
          "type": "0x2",
          "transactionHash": "0xaa45df0bef95d1e1a4574e28b4f557331943131394b4a33fc5ae7f6cbf4dac09",
          "transactionIndex": "0x9",
          "blockHash": "0x022d4301a3ac3d2abd81337f3eda220419f0e793e27fa33358f6d46790851243",
          "blockNumber": "0xe114f9",
          "gasUsed": "0x7739",
          "effectiveGasPrice": "0x7a925",
          "from": "0x64a822f980dc5f126215d75d11dd8114ed0bdb5f",
          "to": "0x92bee7c879bc36dca46f728604d00aff0bbfd673",
          "contractAddress": null,
          "l1BaseFeeScalar": "0x44d",
          "l1BlobBaseFee": "0xb26f1877d6",
          "l1BlobBaseFeeScalar": "0xa118b",
          "l1Fee": "0x2e0db22f08fc",
          "l1GasPrice": "0x8eb6ea134",
          "l1GasUsed": "0x640"
        }
      ],
      "libraries": [],
      "pending": [],
      "returns": {},
      "timestamp": 1725270221,
      "chain": 84532,
      "commit": "63746a1"
    },
    {
      "transactions": [
        {
          "hash": "0xaa0dab1b61e794611d76481a160d57cb1dcabdc68845fcf9963fe834b3fc66f7",
          "transactionType": "CALL",
          "contractName": null,
          "contractAddress": "0x92bee7c879bc36dca46f728604d00aff0bbfd673",
          "function": "setPeer(uint32,bytes32)",
          "arguments": [
            "40245",
            "0x00000000000000000000000092bee7c879bc36dca46f728604d00aff0bbfd673"
          ],
          "transaction": {
            "from": "0x64a822f980dc5f126215d75d11dd8114ed0bdb5f",
            "to": "0x92bee7c879bc36dca46f728604d00aff0bbfd673",
            "gas": "0xae5c",
            "value": "0x0",
            "input": "0x3400288b0000000000000000000000000000000000000000000000000000000000009d3500000000000000000000000092bee7c879bc36dca46f728604d00aff0bbfd673",
            "nonce": "0xd0",
            "chainId": "0xaa37dc"
          },
          "additionalContracts": [],
          "isFixedGasLimit": false
        }
      ],
      "receipts": [
        {
          "status": "0x1",
          "cumulativeGasUsed": "0x4d9d8d",
          "logs": [
            {
              "address": "0x92bee7c879bc36dca46f728604d00aff0bbfd673",
              "topics": [
                "0x238399d427b947898edb290f5ff0f9109849b1c3ba196a42e35f00c50a54b98b"
              ],
              "data": "0x0000000000000000000000000000000000000000000000000000000000009d3500000000000000000000000092bee7c879bc36dca46f728604d00aff0bbfd673",
              "blockHash": "0x4b544778b172d5bbf2dfcacc22bf51013cd0a454f3612fc53085de70c21e0f72",
              "blockNumber": "0xff5697",
              "transactionHash": "0xaa0dab1b61e794611d76481a160d57cb1dcabdc68845fcf9963fe834b3fc66f7",
              "transactionIndex": "0x9",
              "logIndex": "0x55",
              "removed": false
            }
          ],
          "logsBloom": "0x00000000000000000000000000000000000000000000000000000000000000000000000000000000000000000000000000000000000000000800000000004000000000000000000000000000000000000000000000000000000000000000000000400000000000000004000000000000000000000000000000000000000000000000000000000000000000000000000000000000000000000000000000000000000000000000000000000000000000000000000000000000000002000000000000000000000000000000000000000000000000000000000000040000000000000000000000000000000000000000000000000000000000000000000000000000",
          "type": "0x2",
          "transactionHash": "0xaa0dab1b61e794611d76481a160d57cb1dcabdc68845fcf9963fe834b3fc66f7",
          "transactionIndex": "0x9",
          "blockHash": "0x4b544778b172d5bbf2dfcacc22bf51013cd0a454f3612fc53085de70c21e0f72",
          "blockNumber": "0xff5697",
          "gasUsed": "0x7739",
          "effectiveGasPrice": "0xf6acf",
          "from": "0x64a822f980dc5f126215d75d11dd8114ed0bdb5f",
          "to": "0x92bee7c879bc36dca46f728604d00aff0bbfd673",
          "contractAddress": null,
          "l1BaseFeeScalar": "0x1db0",
          "l1BlobBaseFee": "0x98806356d5",
          "l1BlobBaseFeeScalar": "0xd2730",
          "l1Fee": "0x33e409d93bf3",
          "l1GasPrice": "0xb61d93f14",
          "l1GasUsed": "0x640"
        }
      ],
      "libraries": [],
      "pending": [],
      "returns": {},
      "timestamp": 1725270221,
      "chain": 11155420,
      "commit": "63746a1"
    }
  ],
  "timestamp": 1725270239
}