{
  "deployments": [
    {
      "transactions": [
        {
          "hash": "0x28d44a46294df973bcec8a07bc40e83cf6b61abf20d14710636d82cd3ef30bad",
          "transactionType": "CALL",
          "contractName": null,
          "contractAddress": "0x2875c0971817ebf19d2e1e0e35bb6a928ac958da",
          "function": "setPeer(uint32,bytes32)",
          "arguments": [
            "40232",
            "0x0000000000000000000000002875c0971817ebf19d2e1e0e35bb6a928ac958da"
          ],
          "transaction": {
            "from": "0x64a822f980dc5f126215d75d11dd8114ed0bdb5f",
            "to": "0x2875c0971817ebf19d2e1e0e35bb6a928ac958da",
            "gas": "0x10154",
            "value": "0x0",
            "input": "0x3400288b0000000000000000000000000000000000000000000000000000000000009d280000000000000000000000002875c0971817ebf19d2e1e0e35bb6a928ac958da",
            "nonce": "0x2af",
            "chainId": "0x14a34"
          },
          "additionalContracts": [],
          "isFixedGasLimit": false
        },
        {
          "hash": "0x5727005c23ef57de1ae66294af1829603cfb6be589bfcfa445e1843664f07845",
          "transactionType": "CALL",
          "contractName": null,
          "contractAddress": "0x2875c0971817ebf19d2e1e0e35bb6a928ac958da",
          "function": "setPeer(uint32,bytes32)",
          "arguments": [
            "40231",
            "0x0000000000000000000000002875c0971817ebf19d2e1e0e35bb6a928ac958da"
          ],
          "transaction": {
            "from": "0x64a822f980dc5f126215d75d11dd8114ed0bdb5f",
            "to": "0x2875c0971817ebf19d2e1e0e35bb6a928ac958da",
            "gas": "0x10154",
            "value": "0x0",
            "input": "0x3400288b0000000000000000000000000000000000000000000000000000000000009d270000000000000000000000002875c0971817ebf19d2e1e0e35bb6a928ac958da",
            "nonce": "0x2b0",
            "chainId": "0x14a34"
          },
          "additionalContracts": [],
          "isFixedGasLimit": false
        },
        {
          "hash": "0x4a2598b71ba270dcb9181dae28daea8896fe3a4bbb5c8f564bbf760af1a81c10",
          "transactionType": "CALL",
          "contractName": null,
          "contractAddress": "0x2875c0971817ebf19d2e1e0e35bb6a928ac958da",
          "function": "setPeer(uint32,bytes32)",
          "arguments": [
            "40305",
            "0x0000000000000000000000002875c0971817ebf19d2e1e0e35bb6a928ac958da"
          ],
          "transaction": {
            "from": "0x64a822f980dc5f126215d75d11dd8114ed0bdb5f",
            "to": "0x2875c0971817ebf19d2e1e0e35bb6a928ac958da",
            "gas": "0x10154",
            "value": "0x0",
            "input": "0x3400288b0000000000000000000000000000000000000000000000000000000000009d710000000000000000000000002875c0971817ebf19d2e1e0e35bb6a928ac958da",
            "nonce": "0x2b1",
            "chainId": "0x14a34"
          },
          "additionalContracts": [],
          "isFixedGasLimit": false
        },
        {
          "hash": "0xde21c3e9ca18cd9fea195694913b2a61d3b1777569ebaf684081590cfc95f04c",
          "transactionType": "CALL",
          "contractName": null,
          "contractAddress": "0x2875c0971817ebf19d2e1e0e35bb6a928ac958da",
          "function": "setPeer(uint32,bytes32)",
          "arguments": [
            "40287",
            "0x0000000000000000000000002875c0971817ebf19d2e1e0e35bb6a928ac958da"
          ],
          "transaction": {
            "from": "0x64a822f980dc5f126215d75d11dd8114ed0bdb5f",
            "to": "0x2875c0971817ebf19d2e1e0e35bb6a928ac958da",
            "gas": "0x10154",
            "value": "0x0",
            "input": "0x3400288b0000000000000000000000000000000000000000000000000000000000009d5f0000000000000000000000002875c0971817ebf19d2e1e0e35bb6a928ac958da",
            "nonce": "0x2b2",
            "chainId": "0x14a34"
          },
          "additionalContracts": [],
          "isFixedGasLimit": false
        },
        {
          "hash": "0xe9a87f44d357394f1457c811027108c07076482afd01fffd407e6f70211aeaf3",
          "transactionType": "CALL",
          "contractName": null,
          "contractAddress": "0x2875c0971817ebf19d2e1e0e35bb6a928ac958da",
          "function": "setPeer(uint32,bytes32)",
          "arguments": [
            "40161",
            "0x0000000000000000000000002875c0971817ebf19d2e1e0e35bb6a928ac958da"
          ],
          "transaction": {
            "from": "0x64a822f980dc5f126215d75d11dd8114ed0bdb5f",
            "to": "0x2875c0971817ebf19d2e1e0e35bb6a928ac958da",
            "gas": "0x10154",
            "value": "0x0",
            "input": "0x3400288b0000000000000000000000000000000000000000000000000000000000009ce10000000000000000000000002875c0971817ebf19d2e1e0e35bb6a928ac958da",
            "nonce": "0x2b3",
            "chainId": "0x14a34"
          },
          "additionalContracts": [],
          "isFixedGasLimit": false
        },
        {
          "hash": "0xe648086a7bbf0cd87d3667b8265216800a45e46479f52377222463540d85910b",
          "transactionType": "CALL",
          "contractName": null,
          "contractAddress": "0x2875c0971817ebf19d2e1e0e35bb6a928ac958da",
          "function": "setDstEidOfHomeChain(uint32)",
          "arguments": [
            "40245"
          ],
          "transaction": {
            "from": "0x64a822f980dc5f126215d75d11dd8114ed0bdb5f",
            "to": "0x2875c0971817ebf19d2e1e0e35bb6a928ac958da",
            "gas": "0xa3ff",
            "value": "0x0",
            "input": "0x1cd24bd40000000000000000000000000000000000000000000000000000000000009d35",
            "nonce": "0x2b4",
            "chainId": "0x14a34"
          },
          "additionalContracts": [],
          "isFixedGasLimit": false
        }
      ],
      "receipts": [
        {
          "status": "0x1",
          "cumulativeGasUsed": "0x85c23",
          "logs": [
            {
              "address": "0x2875c0971817ebf19d2e1e0e35bb6a928ac958da",
              "topics": [
                "0x238399d427b947898edb290f5ff0f9109849b1c3ba196a42e35f00c50a54b98b"
              ],
              "data": "0x0000000000000000000000000000000000000000000000000000000000009d280000000000000000000000002875c0971817ebf19d2e1e0e35bb6a928ac958da",
              "blockHash": "0xc542cd630138567cb73942189ee01a8a98d678988013e6e19c84ba9b6bcfd121",
              "blockNumber": "0xe50ef0",
              "transactionHash": "0x28d44a46294df973bcec8a07bc40e83cf6b61abf20d14710636d82cd3ef30bad",
              "transactionIndex": "0xb",
              "logIndex": "0x6",
              "removed": false
            }
          ],
          "logsBloom": "0x00000000000000000000000000000000000000000000000000000000000000000000000000000000000000000000000000000000000000000800000000000000000000000000000000000000000000000000000000002000000000000000000000000000000000000000000000000000000000000000000000000000000000000200000000000000000000000000000000000000000000000000000000000000000000000000000000000000000000000000000000000000000002000000000000000000000000000000000000000000000000000000004000040000000000000000000000000000000000000000000000000000000000000000000000000000",
          "type": "0x2",
          "transactionHash": "0x28d44a46294df973bcec8a07bc40e83cf6b61abf20d14710636d82cd3ef30bad",
          "transactionIndex": "0xb",
          "blockHash": "0xc542cd630138567cb73942189ee01a8a98d678988013e6e19c84ba9b6bcfd121",
          "blockNumber": "0xe50ef0",
          "gasUsed": "0xba4e",
          "effectiveGasPrice": "0x89078e",
          "from": "0x64a822f980dc5f126215d75d11dd8114ed0bdb5f",
          "to": "0x2875c0971817ebf19d2e1e0e35bb6a928ac958da",
          "contractAddress": null,
          "l1BaseFeeScalar": "0x44d",
          "l1BlobBaseFee": "0x1fb6961ce7",
          "l1BlobBaseFeeScalar": "0xa118b",
          "l1Fee": "0x82fd7100ea6",
          "l1GasPrice": "0x1d6c80ff2",
          "l1GasUsed": "0x640"
        },
        {
          "status": "0x1",
          "cumulativeGasUsed": "0x91671",
          "logs": [
            {
              "address": "0x2875c0971817ebf19d2e1e0e35bb6a928ac958da",
              "topics": [
                "0x238399d427b947898edb290f5ff0f9109849b1c3ba196a42e35f00c50a54b98b"
              ],
              "data": "0x0000000000000000000000000000000000000000000000000000000000009d270000000000000000000000002875c0971817ebf19d2e1e0e35bb6a928ac958da",
              "blockHash": "0xc542cd630138567cb73942189ee01a8a98d678988013e6e19c84ba9b6bcfd121",
              "blockNumber": "0xe50ef0",
              "transactionHash": "0x5727005c23ef57de1ae66294af1829603cfb6be589bfcfa445e1843664f07845",
              "transactionIndex": "0xc",
              "logIndex": "0x7",
              "removed": false
            }
          ],
          "logsBloom": "0x00000000000000000000000000000000000000000000000000000000000000000000000000000000000000000000000000000000000000000800000000000000000000000000000000000000000000000000000000002000000000000000000000000000000000000000000000000000000000000000000000000000000000000200000000000000000000000000000000000000000000000000000000000000000000000000000000000000000000000000000000000000000002000000000000000000000000000000000000000000000000000000004000040000000000000000000000000000000000000000000000000000000000000000000000000000",
          "type": "0x2",
          "transactionHash": "0x5727005c23ef57de1ae66294af1829603cfb6be589bfcfa445e1843664f07845",
          "transactionIndex": "0xc",
          "blockHash": "0xc542cd630138567cb73942189ee01a8a98d678988013e6e19c84ba9b6bcfd121",
          "blockNumber": "0xe50ef0",
          "gasUsed": "0xba4e",
          "effectiveGasPrice": "0x89078e",
          "from": "0x64a822f980dc5f126215d75d11dd8114ed0bdb5f",
          "to": "0x2875c0971817ebf19d2e1e0e35bb6a928ac958da",
          "contractAddress": null,
          "l1BaseFeeScalar": "0x44d",
          "l1BlobBaseFee": "0x1fb6961ce7",
          "l1BlobBaseFeeScalar": "0xa118b",
          "l1Fee": "0x82fd7100ea6",
          "l1GasPrice": "0x1d6c80ff2",
          "l1GasUsed": "0x640"
        },
        {
          "status": "0x1",
          "cumulativeGasUsed": "0x9d0bf",
          "logs": [
            {
              "address": "0x2875c0971817ebf19d2e1e0e35bb6a928ac958da",
              "topics": [
                "0x238399d427b947898edb290f5ff0f9109849b1c3ba196a42e35f00c50a54b98b"
              ],
              "data": "0x0000000000000000000000000000000000000000000000000000000000009d710000000000000000000000002875c0971817ebf19d2e1e0e35bb6a928ac958da",
              "blockHash": "0xc542cd630138567cb73942189ee01a8a98d678988013e6e19c84ba9b6bcfd121",
              "blockNumber": "0xe50ef0",
              "transactionHash": "0x4a2598b71ba270dcb9181dae28daea8896fe3a4bbb5c8f564bbf760af1a81c10",
              "transactionIndex": "0xd",
              "logIndex": "0x8",
              "removed": false
            }
          ],
          "logsBloom": "0x00000000000000000000000000000000000000000000000000000000000000000000000000000000000000000000000000000000000000000800000000000000000000000000000000000000000000000000000000002000000000000000000000000000000000000000000000000000000000000000000000000000000000000200000000000000000000000000000000000000000000000000000000000000000000000000000000000000000000000000000000000000000002000000000000000000000000000000000000000000000000000000004000040000000000000000000000000000000000000000000000000000000000000000000000000000",
          "type": "0x2",
          "transactionHash": "0x4a2598b71ba270dcb9181dae28daea8896fe3a4bbb5c8f564bbf760af1a81c10",
          "transactionIndex": "0xd",
          "blockHash": "0xc542cd630138567cb73942189ee01a8a98d678988013e6e19c84ba9b6bcfd121",
          "blockNumber": "0xe50ef0",
          "gasUsed": "0xba4e",
          "effectiveGasPrice": "0x89078e",
          "from": "0x64a822f980dc5f126215d75d11dd8114ed0bdb5f",
          "to": "0x2875c0971817ebf19d2e1e0e35bb6a928ac958da",
          "contractAddress": null,
          "l1BaseFeeScalar": "0x44d",
          "l1BlobBaseFee": "0x1fb6961ce7",
          "l1BlobBaseFeeScalar": "0xa118b",
          "l1Fee": "0x82fd7100ea6",
          "l1GasPrice": "0x1d6c80ff2",
          "l1GasUsed": "0x640"
        },
        {
          "status": "0x1",
          "cumulativeGasUsed": "0xa8b0d",
          "logs": [
            {
              "address": "0x2875c0971817ebf19d2e1e0e35bb6a928ac958da",
              "topics": [
                "0x238399d427b947898edb290f5ff0f9109849b1c3ba196a42e35f00c50a54b98b"
              ],
              "data": "0x0000000000000000000000000000000000000000000000000000000000009d5f0000000000000000000000002875c0971817ebf19d2e1e0e35bb6a928ac958da",
              "blockHash": "0xc542cd630138567cb73942189ee01a8a98d678988013e6e19c84ba9b6bcfd121",
              "blockNumber": "0xe50ef0",
              "transactionHash": "0xde21c3e9ca18cd9fea195694913b2a61d3b1777569ebaf684081590cfc95f04c",
              "transactionIndex": "0xe",
              "logIndex": "0x9",
              "removed": false
            }
          ],
          "logsBloom": "0x00000000000000000000000000000000000000000000000000000000000000000000000000000000000000000000000000000000000000000800000000000000000000000000000000000000000000000000000000002000000000000000000000000000000000000000000000000000000000000000000000000000000000000200000000000000000000000000000000000000000000000000000000000000000000000000000000000000000000000000000000000000000002000000000000000000000000000000000000000000000000000000004000040000000000000000000000000000000000000000000000000000000000000000000000000000",
          "type": "0x2",
          "transactionHash": "0xde21c3e9ca18cd9fea195694913b2a61d3b1777569ebaf684081590cfc95f04c",
          "transactionIndex": "0xe",
          "blockHash": "0xc542cd630138567cb73942189ee01a8a98d678988013e6e19c84ba9b6bcfd121",
          "blockNumber": "0xe50ef0",
          "gasUsed": "0xba4e",
          "effectiveGasPrice": "0x89078e",
          "from": "0x64a822f980dc5f126215d75d11dd8114ed0bdb5f",
          "to": "0x2875c0971817ebf19d2e1e0e35bb6a928ac958da",
          "contractAddress": null,
          "l1BaseFeeScalar": "0x44d",
          "l1BlobBaseFee": "0x1fb6961ce7",
          "l1BlobBaseFeeScalar": "0xa118b",
          "l1Fee": "0x82fd7100ea6",
          "l1GasPrice": "0x1d6c80ff2",
          "l1GasUsed": "0x640"
        },
        {
          "status": "0x1",
          "cumulativeGasUsed": "0xb455b",
          "logs": [
            {
              "address": "0x2875c0971817ebf19d2e1e0e35bb6a928ac958da",
              "topics": [
                "0x238399d427b947898edb290f5ff0f9109849b1c3ba196a42e35f00c50a54b98b"
              ],
              "data": "0x0000000000000000000000000000000000000000000000000000000000009ce10000000000000000000000002875c0971817ebf19d2e1e0e35bb6a928ac958da",
              "blockHash": "0xc542cd630138567cb73942189ee01a8a98d678988013e6e19c84ba9b6bcfd121",
              "blockNumber": "0xe50ef0",
              "transactionHash": "0xe9a87f44d357394f1457c811027108c07076482afd01fffd407e6f70211aeaf3",
              "transactionIndex": "0xf",
              "logIndex": "0xa",
              "removed": false
            }
          ],
          "logsBloom": "0x00000000000000000000000000000000000000000000000000000000000000000000000000000000000000000000000000000000000000000800000000000000000000000000000000000000000000000000000000002000000000000000000000000000000000000000000000000000000000000000000000000000000000000200000000000000000000000000000000000000000000000000000000000000000000000000000000000000000000000000000000000000000002000000000000000000000000000000000000000000000000000000004000040000000000000000000000000000000000000000000000000000000000000000000000000000",
          "type": "0x2",
          "transactionHash": "0xe9a87f44d357394f1457c811027108c07076482afd01fffd407e6f70211aeaf3",
          "transactionIndex": "0xf",
          "blockHash": "0xc542cd630138567cb73942189ee01a8a98d678988013e6e19c84ba9b6bcfd121",
          "blockNumber": "0xe50ef0",
          "gasUsed": "0xba4e",
          "effectiveGasPrice": "0x89078e",
          "from": "0x64a822f980dc5f126215d75d11dd8114ed0bdb5f",
          "to": "0x2875c0971817ebf19d2e1e0e35bb6a928ac958da",
          "contractAddress": null,
          "l1BaseFeeScalar": "0x44d",
          "l1BlobBaseFee": "0x1fb6961ce7",
          "l1BlobBaseFeeScalar": "0xa118b",
          "l1Fee": "0x82fd7100ea6",
          "l1GasPrice": "0x1d6c80ff2",
          "l1GasUsed": "0x640"
        },
        {
          "status": "0x1",
          "cumulativeGasUsed": "0xbb57e",
          "logs": [],
          "logsBloom": "0x00000000000000000000000000000000000000000000000000000000000000000000000000000000000000000000000000000000000000000000000000000000000000000000000000000000000000000000000000000000000000000000000000000000000000000000000000000000000000000000000000000000000000000000000000000000000000000000000000000000000000000000000000000000000000000000000000000000000000000000000000000000000000000000000000000000000000000000000000000000000000000000000000000000000000000000000000000000000000000000000000000000000000000000000000000000",
          "type": "0x2",
          "transactionHash": "0xe648086a7bbf0cd87d3667b8265216800a45e46479f52377222463540d85910b",
          "transactionIndex": "0x10",
          "blockHash": "0xc542cd630138567cb73942189ee01a8a98d678988013e6e19c84ba9b6bcfd121",
          "blockNumber": "0xe50ef0",
          "gasUsed": "0x7023",
          "effectiveGasPrice": "0x89078e",
          "from": "0x64a822f980dc5f126215d75d11dd8114ed0bdb5f",
          "to": "0x2875c0971817ebf19d2e1e0e35bb6a928ac958da",
          "contractAddress": null,
          "l1BaseFeeScalar": "0x44d",
          "l1BlobBaseFee": "0x1fb6961ce7",
          "l1BlobBaseFeeScalar": "0xa118b",
          "l1Fee": "0x82fd7100ea6",
          "l1GasPrice": "0x1d6c80ff2",
          "l1GasUsed": "0x640"
        }
      ],
      "libraries": [],
      "pending": [],
      "returns": {},
      "timestamp": 1725791414,
      "chain": 84532,
      "commit": "2af87c9"
    },
    {
      "transactions": [
        {
          "hash": "0x3edaf0eebc6c453cf5b6be09cd99ea61896053aa96f349080636647ddd4b2d53",
          "transactionType": "CALL",
          "contractName": null,
          "contractAddress": "0x2875c0971817ebf19d2e1e0e35bb6a928ac958da",
          "function": "setPeer(uint32,bytes32)",
          "arguments": [
            "40245",
            "0x0000000000000000000000002875c0971817ebf19d2e1e0e35bb6a928ac958da"
          ],
          "transaction": {
            "from": "0x64a822f980dc5f126215d75d11dd8114ed0bdb5f",
            "to": "0x2875c0971817ebf19d2e1e0e35bb6a928ac958da",
            "gas": "0x10154",
            "value": "0x0",
            "input": "0x3400288b0000000000000000000000000000000000000000000000000000000000009d350000000000000000000000002875c0971817ebf19d2e1e0e35bb6a928ac958da",
            "nonce": "0x1a4",
            "chainId": "0xaa37dc"
          },
          "additionalContracts": [],
          "isFixedGasLimit": false
        },
        {
          "hash": "0x0bcbc469a732927d78d18c05f8832ce07a46073c8765c98e5cedbfd4f1791ea8",
          "transactionType": "CALL",
          "contractName": null,
          "contractAddress": "0x2875c0971817ebf19d2e1e0e35bb6a928ac958da",
          "function": "setPeer(uint32,bytes32)",
          "arguments": [
            "40231",
            "0x0000000000000000000000002875c0971817ebf19d2e1e0e35bb6a928ac958da"
          ],
          "transaction": {
            "from": "0x64a822f980dc5f126215d75d11dd8114ed0bdb5f",
            "to": "0x2875c0971817ebf19d2e1e0e35bb6a928ac958da",
            "gas": "0x10154",
            "value": "0x0",
            "input": "0x3400288b0000000000000000000000000000000000000000000000000000000000009d270000000000000000000000002875c0971817ebf19d2e1e0e35bb6a928ac958da",
            "nonce": "0x1a5",
            "chainId": "0xaa37dc"
          },
          "additionalContracts": [],
          "isFixedGasLimit": false
        },
        {
          "hash": "0xc75097d45861a48ffff860b9de8212b176d3daa41689afc7c52f0434e7a7f5db",
          "transactionType": "CALL",
          "contractName": null,
          "contractAddress": "0x2875c0971817ebf19d2e1e0e35bb6a928ac958da",
          "function": "setPeer(uint32,bytes32)",
          "arguments": [
            "40305",
            "0x0000000000000000000000002875c0971817ebf19d2e1e0e35bb6a928ac958da"
          ],
          "transaction": {
            "from": "0x64a822f980dc5f126215d75d11dd8114ed0bdb5f",
            "to": "0x2875c0971817ebf19d2e1e0e35bb6a928ac958da",
            "gas": "0x10154",
            "value": "0x0",
            "input": "0x3400288b0000000000000000000000000000000000000000000000000000000000009d710000000000000000000000002875c0971817ebf19d2e1e0e35bb6a928ac958da",
            "nonce": "0x1a6",
            "chainId": "0xaa37dc"
          },
          "additionalContracts": [],
          "isFixedGasLimit": false
        },
        {
          "hash": "0xc7dc46b78c6c9c7ecc3cb35bde555c7457d975a4f1db298a5f70a02edaa2ef9e",
          "transactionType": "CALL",
          "contractName": null,
          "contractAddress": "0x2875c0971817ebf19d2e1e0e35bb6a928ac958da",
          "function": "setPeer(uint32,bytes32)",
          "arguments": [
            "40287",
            "0x0000000000000000000000002875c0971817ebf19d2e1e0e35bb6a928ac958da"
          ],
          "transaction": {
            "from": "0x64a822f980dc5f126215d75d11dd8114ed0bdb5f",
            "to": "0x2875c0971817ebf19d2e1e0e35bb6a928ac958da",
            "gas": "0x10154",
            "value": "0x0",
            "input": "0x3400288b0000000000000000000000000000000000000000000000000000000000009d5f0000000000000000000000002875c0971817ebf19d2e1e0e35bb6a928ac958da",
            "nonce": "0x1a7",
            "chainId": "0xaa37dc"
          },
          "additionalContracts": [],
          "isFixedGasLimit": false
        },
        {
          "hash": "0xe36c3294bc774ba5a523854ac919867467222495593a6ca549e56e406436c29b",
          "transactionType": "CALL",
          "contractName": null,
          "contractAddress": "0x2875c0971817ebf19d2e1e0e35bb6a928ac958da",
          "function": "setPeer(uint32,bytes32)",
          "arguments": [
            "40161",
            "0x0000000000000000000000002875c0971817ebf19d2e1e0e35bb6a928ac958da"
          ],
          "transaction": {
            "from": "0x64a822f980dc5f126215d75d11dd8114ed0bdb5f",
            "to": "0x2875c0971817ebf19d2e1e0e35bb6a928ac958da",
            "gas": "0x10154",
            "value": "0x0",
            "input": "0x3400288b0000000000000000000000000000000000000000000000000000000000009ce10000000000000000000000002875c0971817ebf19d2e1e0e35bb6a928ac958da",
            "nonce": "0x1a8",
            "chainId": "0xaa37dc"
          },
          "additionalContracts": [],
          "isFixedGasLimit": false
        },
        {
          "hash": "0x2f218672027c46838ed9b181a8984e8f8e47a97240402180a5fd8a032f1ca7d7",
          "transactionType": "CALL",
          "contractName": null,
          "contractAddress": "0x2875c0971817ebf19d2e1e0e35bb6a928ac958da",
          "function": "setDstEidOfHomeChain(uint32)",
          "arguments": [
            "40232"
          ],
          "transaction": {
            "from": "0x64a822f980dc5f126215d75d11dd8114ed0bdb5f",
            "to": "0x2875c0971817ebf19d2e1e0e35bb6a928ac958da",
            "gas": "0xa3ff",
            "value": "0x0",
            "input": "0x1cd24bd40000000000000000000000000000000000000000000000000000000000009d28",
            "nonce": "0x1a9",
            "chainId": "0xaa37dc"
          },
          "additionalContracts": [],
          "isFixedGasLimit": false
        }
      ],
      "receipts": [
        {
          "status": "0x1",
          "cumulativeGasUsed": "0x30216a",
          "logs": [
            {
              "address": "0x2875c0971817ebf19d2e1e0e35bb6a928ac958da",
              "topics": [
                "0x238399d427b947898edb290f5ff0f9109849b1c3ba196a42e35f00c50a54b98b"
              ],
              "data": "0x0000000000000000000000000000000000000000000000000000000000009d350000000000000000000000002875c0971817ebf19d2e1e0e35bb6a928ac958da",
              "blockHash": "0x6b2a184cd78c5ed1adb296968116d0902133fef2ffeb77eccf70637213a38f45",
              "blockNumber": "0x103508e",
              "transactionHash": "0x3edaf0eebc6c453cf5b6be09cd99ea61896053aa96f349080636647ddd4b2d53",
              "transactionIndex": "0x6",
              "logIndex": "0x30",
              "removed": false
            }
          ],
          "logsBloom": "0x00000000000000000000000000000000000000000000000000000000000000000000000000000000000000000000000000000000000000000800000000000000000000000000000000000000000000000000000000002000000000000000000000000000000000000000000000000000000000000000000000000000000000000200000000000000000000000000000000000000000000000000000000000000000000000000000000000000000000000000000000000000000002000000000000000000000000000000000000000000000000000000004000040000000000000000000000000000000000000000000000000000000000000000000000000000",
          "type": "0x2",
          "transactionHash": "0x3edaf0eebc6c453cf5b6be09cd99ea61896053aa96f349080636647ddd4b2d53",
          "transactionIndex": "0x6",
          "blockHash": "0x6b2a184cd78c5ed1adb296968116d0902133fef2ffeb77eccf70637213a38f45",
          "blockNumber": "0x103508e",
          "gasUsed": "0xba4e",
          "effectiveGasPrice": "0xf6ab7",
          "from": "0x64a822f980dc5f126215d75d11dd8114ed0bdb5f",
          "to": "0x2875c0971817ebf19d2e1e0e35bb6a928ac958da",
          "contractAddress": null,
          "l1BaseFeeScalar": "0x1db0",
          "l1BlobBaseFee": "0x29be853273",
          "l1BlobBaseFeeScalar": "0xd2730",
          "l1Fee": "0xe28c5f76cc0",
          "l1GasPrice": "0x22c3e3e44",
          "l1GasUsed": "0x640"
        },
        {
          "status": "0x1",
          "cumulativeGasUsed": "0x4111ea",
          "logs": [
            {
              "address": "0x2875c0971817ebf19d2e1e0e35bb6a928ac958da",
              "topics": [
                "0x238399d427b947898edb290f5ff0f9109849b1c3ba196a42e35f00c50a54b98b"
              ],
              "data": "0x0000000000000000000000000000000000000000000000000000000000009d270000000000000000000000002875c0971817ebf19d2e1e0e35bb6a928ac958da",
              "blockHash": "0x6b2a184cd78c5ed1adb296968116d0902133fef2ffeb77eccf70637213a38f45",
              "blockNumber": "0x103508e",
              "transactionHash": "0x0bcbc469a732927d78d18c05f8832ce07a46073c8765c98e5cedbfd4f1791ea8",
              "transactionIndex": "0x8",
              "logIndex": "0x41",
              "removed": false
            }
          ],
          "logsBloom": "0x00000000000000000000000000000000000000000000000000000000000000000000000000000000000000000000000000000000000000000800000000000000000000000000000000000000000000000000000000002000000000000000000000000000000000000000000000000000000000000000000000000000000000000200000000000000000000000000000000000000000000000000000000000000000000000000000000000000000000000000000000000000000002000000000000000000000000000000000000000000000000000000004000040000000000000000000000000000000000000000000000000000000000000000000000000000",
          "type": "0x2",
          "transactionHash": "0x0bcbc469a732927d78d18c05f8832ce07a46073c8765c98e5cedbfd4f1791ea8",
          "transactionIndex": "0x8",
          "blockHash": "0x6b2a184cd78c5ed1adb296968116d0902133fef2ffeb77eccf70637213a38f45",
          "blockNumber": "0x103508e",
          "gasUsed": "0xba4e",
          "effectiveGasPrice": "0xf6ab7",
          "from": "0x64a822f980dc5f126215d75d11dd8114ed0bdb5f",
          "to": "0x2875c0971817ebf19d2e1e0e35bb6a928ac958da",
          "contractAddress": null,
          "l1BaseFeeScalar": "0x1db0",
          "l1BlobBaseFee": "0x29be853273",
          "l1BlobBaseFeeScalar": "0xd2730",
          "l1Fee": "0xe28c5f76cc0",
          "l1GasPrice": "0x22c3e3e44",
          "l1GasUsed": "0x640"
        },
        {
          "status": "0x1",
          "cumulativeGasUsed": "0x41cc38",
          "logs": [
            {
              "address": "0x2875c0971817ebf19d2e1e0e35bb6a928ac958da",
              "topics": [
                "0x238399d427b947898edb290f5ff0f9109849b1c3ba196a42e35f00c50a54b98b"
              ],
              "data": "0x0000000000000000000000000000000000000000000000000000000000009d710000000000000000000000002875c0971817ebf19d2e1e0e35bb6a928ac958da",
              "blockHash": "0x6b2a184cd78c5ed1adb296968116d0902133fef2ffeb77eccf70637213a38f45",
              "blockNumber": "0x103508e",
              "transactionHash": "0xc75097d45861a48ffff860b9de8212b176d3daa41689afc7c52f0434e7a7f5db",
              "transactionIndex": "0x9",
              "logIndex": "0x42",
              "removed": false
            }
          ],
          "logsBloom": "0x00000000000000000000000000000000000000000000000000000000000000000000000000000000000000000000000000000000000000000800000000000000000000000000000000000000000000000000000000002000000000000000000000000000000000000000000000000000000000000000000000000000000000000200000000000000000000000000000000000000000000000000000000000000000000000000000000000000000000000000000000000000000002000000000000000000000000000000000000000000000000000000004000040000000000000000000000000000000000000000000000000000000000000000000000000000",
          "type": "0x2",
          "transactionHash": "0xc75097d45861a48ffff860b9de8212b176d3daa41689afc7c52f0434e7a7f5db",
          "transactionIndex": "0x9",
          "blockHash": "0x6b2a184cd78c5ed1adb296968116d0902133fef2ffeb77eccf70637213a38f45",
          "blockNumber": "0x103508e",
          "gasUsed": "0xba4e",
          "effectiveGasPrice": "0xf6ab7",
          "from": "0x64a822f980dc5f126215d75d11dd8114ed0bdb5f",
          "to": "0x2875c0971817ebf19d2e1e0e35bb6a928ac958da",
          "contractAddress": null,
          "l1BaseFeeScalar": "0x1db0",
          "l1BlobBaseFee": "0x29be853273",
          "l1BlobBaseFeeScalar": "0xd2730",
          "l1Fee": "0xe28c5f76cc0",
          "l1GasPrice": "0x22c3e3e44",
          "l1GasUsed": "0x640"
        },
        {
          "status": "0x1",
          "cumulativeGasUsed": "0x428686",
          "logs": [
            {
              "address": "0x2875c0971817ebf19d2e1e0e35bb6a928ac958da",
              "topics": [
                "0x238399d427b947898edb290f5ff0f9109849b1c3ba196a42e35f00c50a54b98b"
              ],
              "data": "0x0000000000000000000000000000000000000000000000000000000000009d5f0000000000000000000000002875c0971817ebf19d2e1e0e35bb6a928ac958da",
              "blockHash": "0x6b2a184cd78c5ed1adb296968116d0902133fef2ffeb77eccf70637213a38f45",
              "blockNumber": "0x103508e",
              "transactionHash": "0xc7dc46b78c6c9c7ecc3cb35bde555c7457d975a4f1db298a5f70a02edaa2ef9e",
              "transactionIndex": "0xa",
              "logIndex": "0x43",
              "removed": false
            }
          ],
          "logsBloom": "0x00000000000000000000000000000000000000000000000000000000000000000000000000000000000000000000000000000000000000000800000000000000000000000000000000000000000000000000000000002000000000000000000000000000000000000000000000000000000000000000000000000000000000000200000000000000000000000000000000000000000000000000000000000000000000000000000000000000000000000000000000000000000002000000000000000000000000000000000000000000000000000000004000040000000000000000000000000000000000000000000000000000000000000000000000000000",
          "type": "0x2",
          "transactionHash": "0xc7dc46b78c6c9c7ecc3cb35bde555c7457d975a4f1db298a5f70a02edaa2ef9e",
          "transactionIndex": "0xa",
          "blockHash": "0x6b2a184cd78c5ed1adb296968116d0902133fef2ffeb77eccf70637213a38f45",
          "blockNumber": "0x103508e",
          "gasUsed": "0xba4e",
          "effectiveGasPrice": "0xf6ab7",
          "from": "0x64a822f980dc5f126215d75d11dd8114ed0bdb5f",
          "to": "0x2875c0971817ebf19d2e1e0e35bb6a928ac958da",
          "contractAddress": null,
          "l1BaseFeeScalar": "0x1db0",
          "l1BlobBaseFee": "0x29be853273",
          "l1BlobBaseFeeScalar": "0xd2730",
          "l1Fee": "0xe28c5f76cc0",
          "l1GasPrice": "0x22c3e3e44",
          "l1GasUsed": "0x640"
        },
        {
          "status": "0x1",
          "cumulativeGasUsed": "0x4340d4",
          "logs": [
            {
              "address": "0x2875c0971817ebf19d2e1e0e35bb6a928ac958da",
              "topics": [
                "0x238399d427b947898edb290f5ff0f9109849b1c3ba196a42e35f00c50a54b98b"
              ],
              "data": "0x0000000000000000000000000000000000000000000000000000000000009ce10000000000000000000000002875c0971817ebf19d2e1e0e35bb6a928ac958da",
              "blockHash": "0x6b2a184cd78c5ed1adb296968116d0902133fef2ffeb77eccf70637213a38f45",
              "blockNumber": "0x103508e",
              "transactionHash": "0xe36c3294bc774ba5a523854ac919867467222495593a6ca549e56e406436c29b",
              "transactionIndex": "0xb",
              "logIndex": "0x44",
              "removed": false
            }
          ],
          "logsBloom": "0x00000000000000000000000000000000000000000000000000000000000000000000000000000000000000000000000000000000000000000800000000000000000000000000000000000000000000000000000000002000000000000000000000000000000000000000000000000000000000000000000000000000000000000200000000000000000000000000000000000000000000000000000000000000000000000000000000000000000000000000000000000000000002000000000000000000000000000000000000000000000000000000004000040000000000000000000000000000000000000000000000000000000000000000000000000000",
          "type": "0x2",
          "transactionHash": "0xe36c3294bc774ba5a523854ac919867467222495593a6ca549e56e406436c29b",
          "transactionIndex": "0xb",
          "blockHash": "0x6b2a184cd78c5ed1adb296968116d0902133fef2ffeb77eccf70637213a38f45",
          "blockNumber": "0x103508e",
          "gasUsed": "0xba4e",
          "effectiveGasPrice": "0xf6ab7",
          "from": "0x64a822f980dc5f126215d75d11dd8114ed0bdb5f",
          "to": "0x2875c0971817ebf19d2e1e0e35bb6a928ac958da",
          "contractAddress": null,
          "l1BaseFeeScalar": "0x1db0",
          "l1BlobBaseFee": "0x29be853273",
          "l1BlobBaseFeeScalar": "0xd2730",
          "l1Fee": "0xe28c5f76cc0",
          "l1GasPrice": "0x22c3e3e44",
          "l1GasUsed": "0x640"
        },
        {
          "status": "0x1",
          "cumulativeGasUsed": "0x43b0f7",
          "logs": [],
          "logsBloom": "0x00000000000000000000000000000000000000000000000000000000000000000000000000000000000000000000000000000000000000000000000000000000000000000000000000000000000000000000000000000000000000000000000000000000000000000000000000000000000000000000000000000000000000000000000000000000000000000000000000000000000000000000000000000000000000000000000000000000000000000000000000000000000000000000000000000000000000000000000000000000000000000000000000000000000000000000000000000000000000000000000000000000000000000000000000000000",
          "type": "0x2",
          "transactionHash": "0x2f218672027c46838ed9b181a8984e8f8e47a97240402180a5fd8a032f1ca7d7",
          "transactionIndex": "0xc",
          "blockHash": "0x6b2a184cd78c5ed1adb296968116d0902133fef2ffeb77eccf70637213a38f45",
          "blockNumber": "0x103508e",
          "gasUsed": "0x7023",
          "effectiveGasPrice": "0xf6ab7",
          "from": "0x64a822f980dc5f126215d75d11dd8114ed0bdb5f",
          "to": "0x2875c0971817ebf19d2e1e0e35bb6a928ac958da",
          "contractAddress": null,
          "l1BaseFeeScalar": "0x1db0",
          "l1BlobBaseFee": "0x29be853273",
          "l1BlobBaseFeeScalar": "0xd2730",
          "l1Fee": "0xe28c5f76cc0",
          "l1GasPrice": "0x22c3e3e44",
          "l1GasUsed": "0x640"
        }
      ],
      "libraries": [],
      "pending": [],
      "returns": {},
      "timestamp": 1725791414,
      "chain": 11155420,
      "commit": "2af87c9"
    },
    {
      "transactions": [
        {
          "hash": "0x859a162d203994b9e118450d81a784fc76353251f0641db6c0e28b97df868274",
          "transactionType": "CALL",
          "contractName": null,
          "contractAddress": "0x2875c0971817ebf19d2e1e0e35bb6a928ac958da",
          "function": "setPeer(uint32,bytes32)",
          "arguments": [
            "40245",
            "0x0000000000000000000000002875c0971817ebf19d2e1e0e35bb6a928ac958da"
          ],
          "transaction": {
            "from": "0x64a822f980dc5f126215d75d11dd8114ed0bdb5f",
            "to": "0x2875c0971817ebf19d2e1e0e35bb6a928ac958da",
            "gas": "0x558b5",
            "value": "0x0",
            "input": "0x3400288b0000000000000000000000000000000000000000000000000000000000009d350000000000000000000000002875c0971817ebf19d2e1e0e35bb6a928ac958da",
            "nonce": "0xc0",
            "chainId": "0x66eee"
          },
          "additionalContracts": [],
          "isFixedGasLimit": false
        },
        {
          "hash": "0xecef0d93a4840cfa550ab7cfd72134633cccab76766f800f53e53ac44f8dd48a",
          "transactionType": "CALL",
          "contractName": null,
          "contractAddress": "0x2875c0971817ebf19d2e1e0e35bb6a928ac958da",
          "function": "setPeer(uint32,bytes32)",
          "arguments": [
            "40232",
            "0x0000000000000000000000002875c0971817ebf19d2e1e0e35bb6a928ac958da"
          ],
          "transaction": {
            "from": "0x64a822f980dc5f126215d75d11dd8114ed0bdb5f",
            "to": "0x2875c0971817ebf19d2e1e0e35bb6a928ac958da",
            "gas": "0x558b5",
            "value": "0x0",
            "input": "0x3400288b0000000000000000000000000000000000000000000000000000000000009d280000000000000000000000002875c0971817ebf19d2e1e0e35bb6a928ac958da",
            "nonce": "0xc1",
            "chainId": "0x66eee"
          },
          "additionalContracts": [],
          "isFixedGasLimit": false
        },
        {
          "hash": "0xc6f17c02b0f5a4e7b162c63ec7fd9994cc1118758263a8ec6ac6df8847ea21c3",
          "transactionType": "CALL",
          "contractName": null,
          "contractAddress": "0x2875c0971817ebf19d2e1e0e35bb6a928ac958da",
          "function": "setPeer(uint32,bytes32)",
          "arguments": [
            "40305",
            "0x0000000000000000000000002875c0971817ebf19d2e1e0e35bb6a928ac958da"
          ],
          "transaction": {
            "from": "0x64a822f980dc5f126215d75d11dd8114ed0bdb5f",
            "to": "0x2875c0971817ebf19d2e1e0e35bb6a928ac958da",
            "gas": "0x558b5",
            "value": "0x0",
            "input": "0x3400288b0000000000000000000000000000000000000000000000000000000000009d710000000000000000000000002875c0971817ebf19d2e1e0e35bb6a928ac958da",
            "nonce": "0xc2",
            "chainId": "0x66eee"
          },
          "additionalContracts": [],
          "isFixedGasLimit": false
        },
        {
          "hash": "0xea900230ce13b0de8adf4b0d6cd0933c6649a345340e9c0a1ef3e3c4b1023c12",
          "transactionType": "CALL",
          "contractName": null,
          "contractAddress": "0x2875c0971817ebf19d2e1e0e35bb6a928ac958da",
          "function": "setPeer(uint32,bytes32)",
          "arguments": [
            "40287",
            "0x0000000000000000000000002875c0971817ebf19d2e1e0e35bb6a928ac958da"
          ],
          "transaction": {
            "from": "0x64a822f980dc5f126215d75d11dd8114ed0bdb5f",
            "to": "0x2875c0971817ebf19d2e1e0e35bb6a928ac958da",
            "gas": "0x558b5",
            "value": "0x0",
            "input": "0x3400288b0000000000000000000000000000000000000000000000000000000000009d5f0000000000000000000000002875c0971817ebf19d2e1e0e35bb6a928ac958da",
            "nonce": "0xc3",
            "chainId": "0x66eee"
          },
          "additionalContracts": [],
          "isFixedGasLimit": false
        },
        {
          "hash": "0x4133248ee0064acc7e5c8a05aec58a0d4182ff5ff1bf176adebfb5305693538a",
          "transactionType": "CALL",
          "contractName": null,
          "contractAddress": "0x2875c0971817ebf19d2e1e0e35bb6a928ac958da",
          "function": "setPeer(uint32,bytes32)",
          "arguments": [
            "40161",
            "0x0000000000000000000000002875c0971817ebf19d2e1e0e35bb6a928ac958da"
          ],
          "transaction": {
            "from": "0x64a822f980dc5f126215d75d11dd8114ed0bdb5f",
            "to": "0x2875c0971817ebf19d2e1e0e35bb6a928ac958da",
            "gas": "0x558b5",
            "value": "0x0",
            "input": "0x3400288b0000000000000000000000000000000000000000000000000000000000009ce10000000000000000000000002875c0971817ebf19d2e1e0e35bb6a928ac958da",
            "nonce": "0xc4",
            "chainId": "0x66eee"
          },
          "additionalContracts": [],
          "isFixedGasLimit": false
        },
        {
          "hash": "0x41a5f6b42d88d6956320a7fdb6150579435434d231408032169a063182608e6d",
          "transactionType": "CALL",
          "contractName": null,
          "contractAddress": "0x2875c0971817ebf19d2e1e0e35bb6a928ac958da",
          "function": "setDstEidOfHomeChain(uint32)",
          "arguments": [
            "40231"
          ],
          "transaction": {
            "from": "0x64a822f980dc5f126215d75d11dd8114ed0bdb5f",
            "to": "0x2875c0971817ebf19d2e1e0e35bb6a928ac958da",
            "gas": "0x4489d",
            "value": "0x0",
            "input": "0x1cd24bd40000000000000000000000000000000000000000000000000000000000009d27",
            "nonce": "0xc5",
            "chainId": "0x66eee"
          },
          "additionalContracts": [],
          "isFixedGasLimit": false
        }
      ],
      "receipts": [
        {
          "status": "0x1",
          "cumulativeGasUsed": "0x354eb",
          "logs": [
            {
              "address": "0x2875c0971817ebf19d2e1e0e35bb6a928ac958da",
              "topics": [
                "0x238399d427b947898edb290f5ff0f9109849b1c3ba196a42e35f00c50a54b98b"
              ],
              "data": "0x0000000000000000000000000000000000000000000000000000000000009d350000000000000000000000002875c0971817ebf19d2e1e0e35bb6a928ac958da",
              "blockHash": "0x2ce0241b2b73040432093579e5f07cfd633117b6368f2e1dc874107d70f1028d",
              "blockNumber": "0x4ada44d",
              "transactionHash": "0x859a162d203994b9e118450d81a784fc76353251f0641db6c0e28b97df868274",
              "transactionIndex": "0x1",
              "logIndex": "0x0",
              "removed": false
            }
          ],
          "logsBloom": "0x00000000000000000000000000000000000000000000000000000000000000000000000000000000000000000000000000000000000000000800000000000000000000000000000000000000000000000000000000002000000000000000000000000000000000000000000000000000000000000000000000000000000000000200000000000000000000000000000000000000000000000000000000000000000000000000000000000000000000000000000000000000000002000000000000000000000000000000000000000000000000000000004000040000000000000000000000000000000000000000000000000000000000000000000000000000",
          "type": "0x2",
          "transactionHash": "0x859a162d203994b9e118450d81a784fc76353251f0641db6c0e28b97df868274",
          "transactionIndex": "0x1",
          "blockHash": "0x2ce0241b2b73040432093579e5f07cfd633117b6368f2e1dc874107d70f1028d",
          "blockNumber": "0x4ada44d",
          "gasUsed": "0x354eb",
          "effectiveGasPrice": "0x5f5e100",
          "from": "0x64a822f980dc5f126215d75d11dd8114ed0bdb5f",
          "to": "0x2875c0971817ebf19d2e1e0e35bb6a928ac958da",
          "contractAddress": null,
          "gasUsedForL1": "0x29a9d",
          "l1BlockNumber": "0x658aca"
        },
        {
          "status": "0x1",
          "cumulativeGasUsed": "0x354eb",
          "logs": [
            {
              "address": "0x2875c0971817ebf19d2e1e0e35bb6a928ac958da",
              "topics": [
                "0x238399d427b947898edb290f5ff0f9109849b1c3ba196a42e35f00c50a54b98b"
              ],
              "data": "0x0000000000000000000000000000000000000000000000000000000000009d280000000000000000000000002875c0971817ebf19d2e1e0e35bb6a928ac958da",
              "blockHash": "0x2a51c9e778d35b9310d9845bb8ed3739dc49c44028581f8ddb8f1114cf4dd389",
              "blockNumber": "0x4ada451",
              "transactionHash": "0xecef0d93a4840cfa550ab7cfd72134633cccab76766f800f53e53ac44f8dd48a",
              "transactionIndex": "0x1",
              "logIndex": "0x0",
              "removed": false
            }
          ],
          "logsBloom": "0x00000000000000000000000000000000000000000000000000000000000000000000000000000000000000000000000000000000000000000800000000000000000000000000000000000000000000000000000000002000000000000000000000000000000000000000000000000000000000000000000000000000000000000200000000000000000000000000000000000000000000000000000000000000000000000000000000000000000000000000000000000000000002000000000000000000000000000000000000000000000000000000004000040000000000000000000000000000000000000000000000000000000000000000000000000000",
          "type": "0x2",
          "transactionHash": "0xecef0d93a4840cfa550ab7cfd72134633cccab76766f800f53e53ac44f8dd48a",
          "transactionIndex": "0x1",
          "blockHash": "0x2a51c9e778d35b9310d9845bb8ed3739dc49c44028581f8ddb8f1114cf4dd389",
          "blockNumber": "0x4ada451",
          "gasUsed": "0x354eb",
          "effectiveGasPrice": "0x5f5e100",
          "from": "0x64a822f980dc5f126215d75d11dd8114ed0bdb5f",
          "to": "0x2875c0971817ebf19d2e1e0e35bb6a928ac958da",
          "contractAddress": null,
          "gasUsedForL1": "0x29a9d",
          "l1BlockNumber": "0x658aca"
        },
        {
          "status": "0x1",
          "cumulativeGasUsed": "0x354eb",
          "logs": [
            {
              "address": "0x2875c0971817ebf19d2e1e0e35bb6a928ac958da",
              "topics": [
                "0x238399d427b947898edb290f5ff0f9109849b1c3ba196a42e35f00c50a54b98b"
              ],
              "data": "0x0000000000000000000000000000000000000000000000000000000000009d710000000000000000000000002875c0971817ebf19d2e1e0e35bb6a928ac958da",
              "blockHash": "0xd89e3a808066480bdfcec1914d8cff8368cf8f29839afe0ecec104dafbfd9ce1",
              "blockNumber": "0x4ada456",
              "transactionHash": "0xc6f17c02b0f5a4e7b162c63ec7fd9994cc1118758263a8ec6ac6df8847ea21c3",
              "transactionIndex": "0x1",
              "logIndex": "0x0",
              "removed": false
            }
          ],
          "logsBloom": "0x00000000000000000000000000000000000000000000000000000000000000000000000000000000000000000000000000000000000000000800000000000000000000000000000000000000000000000000000000002000000000000000000000000000000000000000000000000000000000000000000000000000000000000200000000000000000000000000000000000000000000000000000000000000000000000000000000000000000000000000000000000000000002000000000000000000000000000000000000000000000000000000004000040000000000000000000000000000000000000000000000000000000000000000000000000000",
          "type": "0x2",
          "transactionHash": "0xc6f17c02b0f5a4e7b162c63ec7fd9994cc1118758263a8ec6ac6df8847ea21c3",
          "transactionIndex": "0x1",
          "blockHash": "0xd89e3a808066480bdfcec1914d8cff8368cf8f29839afe0ecec104dafbfd9ce1",
          "blockNumber": "0x4ada456",
          "gasUsed": "0x354eb",
          "effectiveGasPrice": "0x5f5e100",
          "from": "0x64a822f980dc5f126215d75d11dd8114ed0bdb5f",
          "to": "0x2875c0971817ebf19d2e1e0e35bb6a928ac958da",
          "contractAddress": null,
          "gasUsedForL1": "0x29a9d",
          "l1BlockNumber": "0x658aca"
        },
        {
          "status": "0x1",
          "cumulativeGasUsed": "0x10d197",
          "logs": [
            {
              "address": "0x2875c0971817ebf19d2e1e0e35bb6a928ac958da",
              "topics": [
                "0x238399d427b947898edb290f5ff0f9109849b1c3ba196a42e35f00c50a54b98b"
              ],
              "data": "0x0000000000000000000000000000000000000000000000000000000000009d5f0000000000000000000000002875c0971817ebf19d2e1e0e35bb6a928ac958da",
              "blockHash": "0x46d5e001f4252c8b47df5c2e56da3db25b9f9b767206cb47f7525ad78993fbcc",
              "blockNumber": "0x4ada459",
              "transactionHash": "0xea900230ce13b0de8adf4b0d6cd0933c6649a345340e9c0a1ef3e3c4b1023c12",
              "transactionIndex": "0x4",
              "logIndex": "0x0",
              "removed": false
            }
          ],
          "logsBloom": "0x00000000000000000000000000000000000000000000000000000000000000000000000000000000000000000000000000000000000000000800000000000000000000000000000000000000000000000000000000002000000000000000000000000000000000000000000000000000000000000000000000000000000000000200000000000000000000000000000000000000000000000000000000000000000000000000000000000000000000000000000000000000000002000000000000000000000000000000000000000000000000000000004000040000000000000000000000000000000000000000000000000000000000000000000000000000",
          "type": "0x2",
          "transactionHash": "0xea900230ce13b0de8adf4b0d6cd0933c6649a345340e9c0a1ef3e3c4b1023c12",
          "transactionIndex": "0x4",
          "blockHash": "0x46d5e001f4252c8b47df5c2e56da3db25b9f9b767206cb47f7525ad78993fbcc",
          "blockNumber": "0x4ada459",
          "gasUsed": "0x354eb",
          "effectiveGasPrice": "0x5f5e100",
          "from": "0x64a822f980dc5f126215d75d11dd8114ed0bdb5f",
          "to": "0x2875c0971817ebf19d2e1e0e35bb6a928ac958da",
          "contractAddress": null,
          "gasUsedForL1": "0x29a9d",
          "l1BlockNumber": "0x658aca"
        },
        {
          "status": "0x1",
          "cumulativeGasUsed": "0x354eb",
          "logs": [
            {
              "address": "0x2875c0971817ebf19d2e1e0e35bb6a928ac958da",
              "topics": [
                "0x238399d427b947898edb290f5ff0f9109849b1c3ba196a42e35f00c50a54b98b"
              ],
              "data": "0x0000000000000000000000000000000000000000000000000000000000009ce10000000000000000000000002875c0971817ebf19d2e1e0e35bb6a928ac958da",
              "blockHash": "0x0654877346fa0f22e1c12fddf198fcc392d835762a97f38d2bd3b45df02d9dc7",
              "blockNumber": "0x4ada45c",
              "transactionHash": "0x4133248ee0064acc7e5c8a05aec58a0d4182ff5ff1bf176adebfb5305693538a",
              "transactionIndex": "0x1",
              "logIndex": "0x0",
              "removed": false
            }
          ],
          "logsBloom": "0x00000000000000000000000000000000000000000000000000000000000000000000000000000000000000000000000000000000000000000800000000000000000000000000000000000000000000000000000000002000000000000000000000000000000000000000000000000000000000000000000000000000000000000200000000000000000000000000000000000000000000000000000000000000000000000000000000000000000000000000000000000000000002000000000000000000000000000000000000000000000000000000004000040000000000000000000000000000000000000000000000000000000000000000000000000000",
          "type": "0x2",
          "transactionHash": "0x4133248ee0064acc7e5c8a05aec58a0d4182ff5ff1bf176adebfb5305693538a",
          "transactionIndex": "0x1",
          "blockHash": "0x0654877346fa0f22e1c12fddf198fcc392d835762a97f38d2bd3b45df02d9dc7",
          "blockNumber": "0x4ada45c",
          "gasUsed": "0x354eb",
          "effectiveGasPrice": "0x5f5e100",
          "from": "0x64a822f980dc5f126215d75d11dd8114ed0bdb5f",
          "to": "0x2875c0971817ebf19d2e1e0e35bb6a928ac958da",
          "contractAddress": null,
          "gasUsedForL1": "0x29a9d",
          "l1BlockNumber": "0x658aca"
        },
        {
          "status": "0x1",
          "cumulativeGasUsed": "0x2928a",
          "logs": [],
          "logsBloom": "0x00000000000000000000000000000000000000000000000000000000000000000000000000000000000000000000000000000000000000000000000000000000000000000000000000000000000000000000000000000000000000000000000000000000000000000000000000000000000000000000000000000000000000000000000000000000000000000000000000000000000000000000000000000000000000000000000000000000000000000000000000000000000000000000000000000000000000000000000000000000000000000000000000000000000000000000000000000000000000000000000000000000000000000000000000000000",
          "type": "0x2",
          "transactionHash": "0x41a5f6b42d88d6956320a7fdb6150579435434d231408032169a063182608e6d",
          "transactionIndex": "0x1",
          "blockHash": "0xf119b97389c9189024a2862e24e7309a1e90e33784a782a71cdc7bc7187e4560",
          "blockNumber": "0x4ada45f",
          "gasUsed": "0x2928a",
          "effectiveGasPrice": "0x5f5e100",
          "from": "0x64a822f980dc5f126215d75d11dd8114ed0bdb5f",
          "to": "0x2875c0971817ebf19d2e1e0e35bb6a928ac958da",
          "contractAddress": null,
          "gasUsedForL1": "0x22267",
          "l1BlockNumber": "0x658aca"
        }
      ],
      "libraries": [],
      "pending": [],
      "returns": {},
      "timestamp": 1725791415,
      "chain": 421614,
      "commit": "2af87c9"
    },
    {
      "transactions": [
        {
          "hash": "0x85c62c135f8e94889007e5d3afdbb4a2ba0a1748559f09fa07282c376778109b",
          "transactionType": "CALL",
          "contractName": null,
          "contractAddress": "0x2875c0971817ebf19d2e1e0e35bb6a928ac958da",
          "function": "setPeer(uint32,bytes32)",
          "arguments": [
            "40245",
            "0x0000000000000000000000002875c0971817ebf19d2e1e0e35bb6a928ac958da"
          ],
          "transaction": {
            "from": "0x64a822f980dc5f126215d75d11dd8114ed0bdb5f",
            "to": "0x2875c0971817ebf19d2e1e0e35bb6a928ac958da",
            "gas": "0x10154",
            "value": "0x0",
            "input": "0x3400288b0000000000000000000000000000000000000000000000000000000000009d350000000000000000000000002875c0971817ebf19d2e1e0e35bb6a928ac958da",
            "nonce": "0x7e",
            "chainId": "0xe705"
          },
          "additionalContracts": [],
          "isFixedGasLimit": false
        },
        {
          "hash": "0xf31f818326dbcc18f9da2c52b29e043049f9f1ea0630c5e2316716fc9c8a21a6",
          "transactionType": "CALL",
          "contractName": null,
          "contractAddress": "0x2875c0971817ebf19d2e1e0e35bb6a928ac958da",
          "function": "setPeer(uint32,bytes32)",
          "arguments": [
            "40232",
            "0x0000000000000000000000002875c0971817ebf19d2e1e0e35bb6a928ac958da"
          ],
          "transaction": {
            "from": "0x64a822f980dc5f126215d75d11dd8114ed0bdb5f",
            "to": "0x2875c0971817ebf19d2e1e0e35bb6a928ac958da",
            "gas": "0x10154",
            "value": "0x0",
            "input": "0x3400288b0000000000000000000000000000000000000000000000000000000000009d280000000000000000000000002875c0971817ebf19d2e1e0e35bb6a928ac958da",
            "nonce": "0x7f",
            "chainId": "0xe705"
          },
          "additionalContracts": [],
          "isFixedGasLimit": false
        },
        {
          "hash": "0x660d86be952e130a8e751ac0f7bef3cbc6c3a8e9efe66a8e13d7234f3289a38f",
          "transactionType": "CALL",
          "contractName": null,
          "contractAddress": "0x2875c0971817ebf19d2e1e0e35bb6a928ac958da",
          "function": "setPeer(uint32,bytes32)",
          "arguments": [
            "40231",
            "0x0000000000000000000000002875c0971817ebf19d2e1e0e35bb6a928ac958da"
          ],
          "transaction": {
            "from": "0x64a822f980dc5f126215d75d11dd8114ed0bdb5f",
            "to": "0x2875c0971817ebf19d2e1e0e35bb6a928ac958da",
            "gas": "0x10154",
            "value": "0x0",
            "input": "0x3400288b0000000000000000000000000000000000000000000000000000000000009d270000000000000000000000002875c0971817ebf19d2e1e0e35bb6a928ac958da",
            "nonce": "0x80",
            "chainId": "0xe705"
          },
          "additionalContracts": [],
          "isFixedGasLimit": false
        },
        {
          "hash": "0x70deeca5c402b75aaa519c47bba8fdfe2c36406117e16299887e174a1593a874",
          "transactionType": "CALL",
          "contractName": null,
          "contractAddress": "0x2875c0971817ebf19d2e1e0e35bb6a928ac958da",
          "function": "setPeer(uint32,bytes32)",
          "arguments": [
            "40305",
            "0x0000000000000000000000002875c0971817ebf19d2e1e0e35bb6a928ac958da"
          ],
          "transaction": {
            "from": "0x64a822f980dc5f126215d75d11dd8114ed0bdb5f",
            "to": "0x2875c0971817ebf19d2e1e0e35bb6a928ac958da",
            "gas": "0x10154",
            "value": "0x0",
            "input": "0x3400288b0000000000000000000000000000000000000000000000000000000000009d710000000000000000000000002875c0971817ebf19d2e1e0e35bb6a928ac958da",
            "nonce": "0x81",
            "chainId": "0xe705"
          },
          "additionalContracts": [],
          "isFixedGasLimit": false
        },
        {
          "hash": "0x057c9a507bec0ccd2be1b23d9d131e1a5dd47ab2d1836afbd35a8d90e5e08f58",
          "transactionType": "CALL",
          "contractName": null,
          "contractAddress": "0x2875c0971817ebf19d2e1e0e35bb6a928ac958da",
          "function": "setPeer(uint32,bytes32)",
          "arguments": [
            "40161",
            "0x0000000000000000000000002875c0971817ebf19d2e1e0e35bb6a928ac958da"
          ],
          "transaction": {
            "from": "0x64a822f980dc5f126215d75d11dd8114ed0bdb5f",
            "to": "0x2875c0971817ebf19d2e1e0e35bb6a928ac958da",
            "gas": "0x10154",
            "value": "0x0",
            "input": "0x3400288b0000000000000000000000000000000000000000000000000000000000009ce10000000000000000000000002875c0971817ebf19d2e1e0e35bb6a928ac958da",
            "nonce": "0x82",
            "chainId": "0xe705"
          },
          "additionalContracts": [],
          "isFixedGasLimit": false
        },
        {
          "hash": "0x6f82a9fa159d08caa0a4b60a64837bd402658667bc4ce84c79da62d81b78b20a",
          "transactionType": "CALL",
          "contractName": null,
          "contractAddress": "0x2875c0971817ebf19d2e1e0e35bb6a928ac958da",
          "function": "setDstEidOfHomeChain(uint32)",
          "arguments": [
            "40287"
          ],
          "transaction": {
            "from": "0x64a822f980dc5f126215d75d11dd8114ed0bdb5f",
            "to": "0x2875c0971817ebf19d2e1e0e35bb6a928ac958da",
            "gas": "0xa3ff",
            "value": "0x0",
            "input": "0x1cd24bd40000000000000000000000000000000000000000000000000000000000009d5f",
            "nonce": "0x83",
            "chainId": "0xe705"
          },
          "additionalContracts": [],
          "isFixedGasLimit": false
        }
      ],
      "receipts": [
        {
          "status": "0x1",
          "cumulativeGasUsed": "0xba4e",
          "logs": [
            {
              "address": "0x2875c0971817ebf19d2e1e0e35bb6a928ac958da",
              "topics": [
                "0x238399d427b947898edb290f5ff0f9109849b1c3ba196a42e35f00c50a54b98b"
              ],
              "data": "0x0000000000000000000000000000000000000000000000000000000000009d350000000000000000000000002875c0971817ebf19d2e1e0e35bb6a928ac958da",
              "blockHash": "0xe8bb3846fe088ae82177151b50e4cb06e39d751752980c51b1596aca46658ff0",
              "blockNumber": "0x397a07",
              "transactionHash": "0x85c62c135f8e94889007e5d3afdbb4a2ba0a1748559f09fa07282c376778109b",
              "transactionIndex": "0x0",
              "logIndex": "0x0",
              "removed": false
            }
          ],
          "logsBloom": "0x00000000000000000000000000000000000000000000000000000000000000000000000000000000000000000000000000000000000000000800000000000000000000000000000000000000000000000000000000002000000000000000000000000000000000000000000000000000000000000000000000000000000000000200000000000000000000000000000000000000000000000000000000000000000000000000000000000000000000000000000000000000000002000000000000000000000000000000000000000000000000000000004000040000000000000000000000000000000000000000000000000000000000000000000000000000",
          "type": "0x2",
          "transactionHash": "0x85c62c135f8e94889007e5d3afdbb4a2ba0a1748559f09fa07282c376778109b",
          "transactionIndex": "0x0",
          "blockHash": "0xe8bb3846fe088ae82177151b50e4cb06e39d751752980c51b1596aca46658ff0",
          "blockNumber": "0x397a07",
          "gasUsed": "0xba4e",
          "effectiveGasPrice": "0x67d3760f",
          "from": "0x64a822f980dc5f126215d75d11dd8114ed0bdb5f",
          "to": "0x2875c0971817ebf19d2e1e0e35bb6a928ac958da",
          "contractAddress": null
        },
        {
          "status": "0x1",
          "cumulativeGasUsed": "0x1749c",
          "logs": [
            {
              "address": "0x2875c0971817ebf19d2e1e0e35bb6a928ac958da",
              "topics": [
                "0x238399d427b947898edb290f5ff0f9109849b1c3ba196a42e35f00c50a54b98b"
              ],
              "data": "0x0000000000000000000000000000000000000000000000000000000000009d280000000000000000000000002875c0971817ebf19d2e1e0e35bb6a928ac958da",
              "blockHash": "0xe8bb3846fe088ae82177151b50e4cb06e39d751752980c51b1596aca46658ff0",
              "blockNumber": "0x397a07",
              "transactionHash": "0xf31f818326dbcc18f9da2c52b29e043049f9f1ea0630c5e2316716fc9c8a21a6",
              "transactionIndex": "0x1",
              "logIndex": "0x1",
              "removed": false
            }
          ],
          "logsBloom": "0x00000000000000000000000000000000000000000000000000000000000000000000000000000000000000000000000000000000000000000800000000000000000000000000000000000000000000000000000000002000000000000000000000000000000000000000000000000000000000000000000000000000000000000200000000000000000000000000000000000000000000000000000000000000000000000000000000000000000000000000000000000000000002000000000000000000000000000000000000000000000000000000004000040000000000000000000000000000000000000000000000000000000000000000000000000000",
          "type": "0x2",
          "transactionHash": "0xf31f818326dbcc18f9da2c52b29e043049f9f1ea0630c5e2316716fc9c8a21a6",
          "transactionIndex": "0x1",
          "blockHash": "0xe8bb3846fe088ae82177151b50e4cb06e39d751752980c51b1596aca46658ff0",
          "blockNumber": "0x397a07",
          "gasUsed": "0xba4e",
          "effectiveGasPrice": "0x67d3760f",
          "from": "0x64a822f980dc5f126215d75d11dd8114ed0bdb5f",
          "to": "0x2875c0971817ebf19d2e1e0e35bb6a928ac958da",
          "contractAddress": null
        },
        {
          "status": "0x1",
          "cumulativeGasUsed": "0x22eea",
          "logs": [
            {
              "address": "0x2875c0971817ebf19d2e1e0e35bb6a928ac958da",
              "topics": [
                "0x238399d427b947898edb290f5ff0f9109849b1c3ba196a42e35f00c50a54b98b"
              ],
              "data": "0x0000000000000000000000000000000000000000000000000000000000009d270000000000000000000000002875c0971817ebf19d2e1e0e35bb6a928ac958da",
              "blockHash": "0xe8bb3846fe088ae82177151b50e4cb06e39d751752980c51b1596aca46658ff0",
              "blockNumber": "0x397a07",
              "transactionHash": "0x660d86be952e130a8e751ac0f7bef3cbc6c3a8e9efe66a8e13d7234f3289a38f",
              "transactionIndex": "0x2",
              "logIndex": "0x2",
              "removed": false
            }
          ],
          "logsBloom": "0x00000000000000000000000000000000000000000000000000000000000000000000000000000000000000000000000000000000000000000800000000000000000000000000000000000000000000000000000000002000000000000000000000000000000000000000000000000000000000000000000000000000000000000200000000000000000000000000000000000000000000000000000000000000000000000000000000000000000000000000000000000000000002000000000000000000000000000000000000000000000000000000004000040000000000000000000000000000000000000000000000000000000000000000000000000000",
          "type": "0x2",
          "transactionHash": "0x660d86be952e130a8e751ac0f7bef3cbc6c3a8e9efe66a8e13d7234f3289a38f",
          "transactionIndex": "0x2",
          "blockHash": "0xe8bb3846fe088ae82177151b50e4cb06e39d751752980c51b1596aca46658ff0",
          "blockNumber": "0x397a07",
          "gasUsed": "0xba4e",
          "effectiveGasPrice": "0x67d3760f",
          "from": "0x64a822f980dc5f126215d75d11dd8114ed0bdb5f",
          "to": "0x2875c0971817ebf19d2e1e0e35bb6a928ac958da",
          "contractAddress": null
        },
        {
          "status": "0x1",
          "cumulativeGasUsed": "0x2e938",
          "logs": [
            {
              "address": "0x2875c0971817ebf19d2e1e0e35bb6a928ac958da",
              "topics": [
                "0x238399d427b947898edb290f5ff0f9109849b1c3ba196a42e35f00c50a54b98b"
              ],
              "data": "0x0000000000000000000000000000000000000000000000000000000000009d710000000000000000000000002875c0971817ebf19d2e1e0e35bb6a928ac958da",
              "blockHash": "0xe8bb3846fe088ae82177151b50e4cb06e39d751752980c51b1596aca46658ff0",
              "blockNumber": "0x397a07",
              "transactionHash": "0x70deeca5c402b75aaa519c47bba8fdfe2c36406117e16299887e174a1593a874",
              "transactionIndex": "0x3",
              "logIndex": "0x3",
              "removed": false
            }
          ],
          "logsBloom": "0x00000000000000000000000000000000000000000000000000000000000000000000000000000000000000000000000000000000000000000800000000000000000000000000000000000000000000000000000000002000000000000000000000000000000000000000000000000000000000000000000000000000000000000200000000000000000000000000000000000000000000000000000000000000000000000000000000000000000000000000000000000000000002000000000000000000000000000000000000000000000000000000004000040000000000000000000000000000000000000000000000000000000000000000000000000000",
          "type": "0x2",
          "transactionHash": "0x70deeca5c402b75aaa519c47bba8fdfe2c36406117e16299887e174a1593a874",
          "transactionIndex": "0x3",
          "blockHash": "0xe8bb3846fe088ae82177151b50e4cb06e39d751752980c51b1596aca46658ff0",
          "blockNumber": "0x397a07",
          "gasUsed": "0xba4e",
          "effectiveGasPrice": "0x67d3760f",
          "from": "0x64a822f980dc5f126215d75d11dd8114ed0bdb5f",
          "to": "0x2875c0971817ebf19d2e1e0e35bb6a928ac958da",
          "contractAddress": null
        },
        {
          "status": "0x1",
          "cumulativeGasUsed": "0x3a386",
          "logs": [
            {
              "address": "0x2875c0971817ebf19d2e1e0e35bb6a928ac958da",
              "topics": [
                "0x238399d427b947898edb290f5ff0f9109849b1c3ba196a42e35f00c50a54b98b"
              ],
              "data": "0x0000000000000000000000000000000000000000000000000000000000009ce10000000000000000000000002875c0971817ebf19d2e1e0e35bb6a928ac958da",
              "blockHash": "0xe8bb3846fe088ae82177151b50e4cb06e39d751752980c51b1596aca46658ff0",
              "blockNumber": "0x397a07",
              "transactionHash": "0x057c9a507bec0ccd2be1b23d9d131e1a5dd47ab2d1836afbd35a8d90e5e08f58",
              "transactionIndex": "0x4",
              "logIndex": "0x4",
              "removed": false
            }
          ],
          "logsBloom": "0x00000000000000000000000000000000000000000000000000000000000000000000000000000000000000000000000000000000000000000800000000000000000000000000000000000000000000000000000000002000000000000000000000000000000000000000000000000000000000000000000000000000000000000200000000000000000000000000000000000000000000000000000000000000000000000000000000000000000000000000000000000000000002000000000000000000000000000000000000000000000000000000004000040000000000000000000000000000000000000000000000000000000000000000000000000000",
          "type": "0x2",
          "transactionHash": "0x057c9a507bec0ccd2be1b23d9d131e1a5dd47ab2d1836afbd35a8d90e5e08f58",
          "transactionIndex": "0x4",
          "blockHash": "0xe8bb3846fe088ae82177151b50e4cb06e39d751752980c51b1596aca46658ff0",
          "blockNumber": "0x397a07",
          "gasUsed": "0xba4e",
          "effectiveGasPrice": "0x67d3760f",
          "from": "0x64a822f980dc5f126215d75d11dd8114ed0bdb5f",
          "to": "0x2875c0971817ebf19d2e1e0e35bb6a928ac958da",
          "contractAddress": null
        },
        {
          "status": "0x1",
          "cumulativeGasUsed": "0x413a9",
          "logs": [],
          "logsBloom": "0x00000000000000000000000000000000000000000000000000000000000000000000000000000000000000000000000000000000000000000000000000000000000000000000000000000000000000000000000000000000000000000000000000000000000000000000000000000000000000000000000000000000000000000000000000000000000000000000000000000000000000000000000000000000000000000000000000000000000000000000000000000000000000000000000000000000000000000000000000000000000000000000000000000000000000000000000000000000000000000000000000000000000000000000000000000000",
          "type": "0x2",
          "transactionHash": "0x6f82a9fa159d08caa0a4b60a64837bd402658667bc4ce84c79da62d81b78b20a",
          "transactionIndex": "0x5",
          "blockHash": "0xe8bb3846fe088ae82177151b50e4cb06e39d751752980c51b1596aca46658ff0",
          "blockNumber": "0x397a07",
          "gasUsed": "0x7023",
          "effectiveGasPrice": "0x67d3760f",
          "from": "0x64a822f980dc5f126215d75d11dd8114ed0bdb5f",
          "to": "0x2875c0971817ebf19d2e1e0e35bb6a928ac958da",
          "contractAddress": null
        }
      ],
      "libraries": [],
      "pending": [],
      "returns": {},
      "timestamp": 1725791416,
      "chain": 59141,
      "commit": "2af87c9"
    }
  ],
  "timestamp": 1725791446
}