{
  "deployments": [
    {
      "transactions": [
        {
          "hash": "0x546e987357460c93108bc30578e36219bbc9acfd062bfb1b8a2771c30d0992b9",
          "transactionType": "CALL",
          "contractName": null,
          "contractAddress": "0x9ccd0a438e7938e3539d83c0e29326353f50338d",
          "function": "setPeer(uint32,bytes32)",
          "arguments": [
            "40232",
            "0x00000000000000000000000007040be54ddbd74b0f4cf4a40a4b3ef4ca5217fe"
          ],
          "transaction": {
            "from": "0x64a822f980dc5f126215d75d11dd8114ed0bdb5f",
            "to": "0x9ccd0a438e7938e3539d83c0e29326353f50338d",
            "gas": "0xae5c",
            "value": "0x0",
            "input": "0x3400288b0000000000000000000000000000000000000000000000000000000000009d2800000000000000000000000007040be54ddbd74b0f4cf4a40a4b3ef4ca5217fe",
            "nonce": "0xd8",
            "chainId": "0x14a34"
          },
          "additionalContracts": [],
          "isFixedGasLimit": false
        }
      ],
      "receipts": [
        {
          "status": "0x1",
          "cumulativeGasUsed": "0x1c4e84",
          "logs": [
            {
              "address": "0x9ccd0a438e7938e3539d83c0e29326353f50338d",
              "topics": [
                "0x238399d427b947898edb290f5ff0f9109849b1c3ba196a42e35f00c50a54b98b"
              ],
              "data": "0x0000000000000000000000000000000000000000000000000000000000009d2800000000000000000000000007040be54ddbd74b0f4cf4a40a4b3ef4ca5217fe",
              "blockHash": "0x57f1263222d5785b73429aa2b2b7dc4b9d3a2f4d3d3404e2264878f6381503ff",
              "blockNumber": "0xdf4822",
              "transactionHash": "0x546e987357460c93108bc30578e36219bbc9acfd062bfb1b8a2771c30d0992b9",
              "transactionIndex": "0x6",
              "logIndex": "0x19",
              "removed": false
            }
          ],
          "logsBloom": "0x00000000000000000000000000000000000000000000000000000000000000000000000000000000000000000000000000000000000000000800000000000000000000000000000000000000000000000000000000000000000000000000000000000000000000000000004000000000000000000000000000000010000000000000000000000000000000000000000000000000000000000000000000000000000000000000000000000000000000000000000000000000000002000000000000000000000000000000000000000000000000000000000000040000000000000000000000000000000000000000020000000000000000000000000000000000",
          "type": "0x2",
          "transactionHash": "0x546e987357460c93108bc30578e36219bbc9acfd062bfb1b8a2771c30d0992b9",
          "transactionIndex": "0x6",
          "blockHash": "0x57f1263222d5785b73429aa2b2b7dc4b9d3a2f4d3d3404e2264878f6381503ff",
          "blockNumber": "0xdf4822",
          "gasUsed": "0x7739",
          "effectiveGasPrice": "0x3c871b",
          "from": "0x64a822f980dc5f126215d75d11dd8114ed0bdb5f",
          "to": "0x9ccd0a438e7938e3539d83c0e29326353f50338d",
          "contractAddress": null,
          "l1BaseFeeScalar": "0x44d",
          "l1BlobBaseFee": "0x1",
          "l1BlobBaseFeeScalar": "0xa118b",
          "l1Fee": "0x5c709e0c0",
          "l1GasPrice": "0x347997ca6",
          "l1GasUsed": "0x640"
        }
      ],
      "libraries": [],
      "pending": [],
      "returns": {},
      "timestamp": 1725034271,
      "chain": 84532,
      "commit": "be31092"
    },
    {
      "transactions": [
        {
          "hash": "0x3f37fd7fe873ce360499f01d002d87fb7c73f7b1c34fa78372159f939f9a5207",
          "transactionType": "CALL",
          "contractName": null,
          "contractAddress": "0x07040be54ddbd74b0f4cf4a40a4b3ef4ca5217fe",
          "function": "setPeer(uint32,bytes32)",
          "arguments": [
            "40245",
            "0x0000000000000000000000009ccd0a438e7938e3539d83c0e29326353f50338d"
          ],
          "transaction": {
            "from": "0x64a822f980dc5f126215d75d11dd8114ed0bdb5f",
            "to": "0x07040be54ddbd74b0f4cf4a40a4b3ef4ca5217fe",
            "gas": "0xae5c",
            "value": "0x0",
            "input": "0x3400288b0000000000000000000000000000000000000000000000000000000000009d350000000000000000000000009ccd0a438e7938e3539d83c0e29326353f50338d",
            "nonce": "0x60",
            "chainId": "0xaa37dc"
          },
          "additionalContracts": [],
          "isFixedGasLimit": false
        }
      ],
      "receipts": [
        {
          "status": "0x1",
          "cumulativeGasUsed": "0x11bdde",
          "logs": [
            {
              "address": "0x07040be54ddbd74b0f4cf4a40a4b3ef4ca5217fe",
              "topics": [
                "0x238399d427b947898edb290f5ff0f9109849b1c3ba196a42e35f00c50a54b98b"
              ],
              "data": "0x0000000000000000000000000000000000000000000000000000000000009d350000000000000000000000009ccd0a438e7938e3539d83c0e29326353f50338d",
              "blockHash": "0x8def6470394d54f5b84a0b43cc4353bcbf93c7d42a03965efbc38b01e80e9e29",
              "blockNumber": "0xfd89c0",
              "transactionHash": "0x3f37fd7fe873ce360499f01d002d87fb7c73f7b1c34fa78372159f939f9a5207",
              "transactionIndex": "0x3",
              "logIndex": "0x18",
              "removed": false
            }
          ],
          "logsBloom": "0x00000000000000000000000000000000000000000000000000000000000000000000000000000000000000000000000000000800000000000800000000000000000000000000000000000000000000000000000000000000000000000000000002000000000000000000000000000000000000000000000000000000000000000000000000000000000000000000000000000000000000000000000000000000000000000000000000000000000000000000000000000000000002000000000000000000000000000000000000000000000000000800000000040000000000000000000000000000000000000000000000000000000000000000000000000000",
          "type": "0x2",
          "transactionHash": "0x3f37fd7fe873ce360499f01d002d87fb7c73f7b1c34fa78372159f939f9a5207",
          "transactionIndex": "0x3",
          "blockHash": "0x8def6470394d54f5b84a0b43cc4353bcbf93c7d42a03965efbc38b01e80e9e29",
          "blockNumber": "0xfd89c0",
          "gasUsed": "0x7739",
          "effectiveGasPrice": "0x68e78b1",
          "from": "0x64a822f980dc5f126215d75d11dd8114ed0bdb5f",
          "to": "0x07040be54ddbd74b0f4cf4a40a4b3ef4ca5217fe",
          "contractAddress": null,
          "l1BaseFeeScalar": "0x1db0",
          "l1BlobBaseFee": "0x1",
          "l1BlobBaseFeeScalar": "0xd2730",
          "l1Fee": "0x2cbf7e035e",
          "l1GasPrice": "0x3ae1041ef",
          "l1GasUsed": "0x640"
        }
      ],
      "libraries": [],
      "pending": [],
      "returns": {},
      "timestamp": 1725034272,
      "chain": 11155420,
      "commit": "be31092"
    }
  ],
  "timestamp": 1725034290
}