{
  "deployments": [
    {
      "transactions": [
        {
          "hash": "0x038803d87c2aecf8209a439eea3268a0820dedb90ef6d5a768b9252bef745565",
          "transactionType": "CALL",
          "contractName": null,
          "contractAddress": "0x75057e6fbf35dfa697809fb34b5f3dfc8c1d6745",
          "function": "setPeer(uint32,bytes32)",
          "arguments": [
            "40232",
            "0x00000000000000000000000075057e6fbf35dfa697809fb34b5f3dfc8c1d6745"
          ],
          "transaction": {
            "from": "0x64a822f980dc5f126215d75d11dd8114ed0bdb5f",
            "to": "0x75057e6fbf35dfa697809fb34b5f3dfc8c1d6745",
            "gas": "0x1014c",
            "value": "0x0",
            "input": "0x3400288b0000000000000000000000000000000000000000000000000000000000009d2800000000000000000000000075057e6fbf35dfa697809fb34b5f3dfc8c1d6745",
            "nonce": "0x1c3",
            "chainId": "0x14a34"
          },
          "additionalContracts": [],
          "isFixedGasLimit": false
        }
      ],
      "receipts": [
        {
          "status": "0x1",
          "cumulativeGasUsed": "0xdba75",
          "logs": [
            {
              "address": "0x75057e6fbf35dfa697809fb34b5f3dfc8c1d6745",
              "topics": [
                "0x238399d427b947898edb290f5ff0f9109849b1c3ba196a42e35f00c50a54b98b"
              ],
              "data": "0x0000000000000000000000000000000000000000000000000000000000009d2800000000000000000000000075057e6fbf35dfa697809fb34b5f3dfc8c1d6745",
              "blockHash": "0xcb2cc5ff125200fc9dcb187720acd52e2323ec9a54677afa1c3081482a971880",
              "blockNumber": "0xe2bcc6",
              "transactionHash": "0x038803d87c2aecf8209a439eea3268a0820dedb90ef6d5a768b9252bef745565",
              "transactionIndex": "0x9",
              "logIndex": "0xc",
              "removed": false
            }
          ],
          "logsBloom": "0x00000000000000000000000000000000000000000000000000000000000000000000000000000000000000000000000000000000000000000800000000000000000000000400000000000000000000000000000000000000000000000000000000000000000000000000000000000000000000000000000000000000000000000000000000000008000000000000002000000000000000000000000000000000000000000000000000000000000000000000000000000000000002000000000000000000000000000000000000000000000000000000000000040000000000000000000000000000000000000000000000000000000000000000000000000000",
          "type": "0x2",
          "transactionHash": "0x038803d87c2aecf8209a439eea3268a0820dedb90ef6d5a768b9252bef745565",
          "transactionIndex": "0x9",
          "blockHash": "0xcb2cc5ff125200fc9dcb187720acd52e2323ec9a54677afa1c3081482a971880",
          "blockNumber": "0xe2bcc6",
          "gasUsed": "0xba48",
          "effectiveGasPrice": "0xc743",
          "from": "0x64a822f980dc5f126215d75d11dd8114ed0bdb5f",
          "to": "0x75057e6fbf35dfa697809fb34b5f3dfc8c1d6745",
          "contractAddress": null,
          "l1BaseFeeScalar": "0x44d",
          "l1BlobBaseFee": "0xb6d3844c0",
          "l1BlobBaseFeeScalar": "0xa118b",
          "l1Fee": "0x2f4217f99d8",
          "l1GasPrice": "0x137689d59",
          "l1GasUsed": "0x640"
        }
      ],
      "libraries": [],
      "pending": [],
      "returns": {},
      "timestamp": 1725487205,
      "chain": 84532,
      "commit": "3db11dc"
    },
    {
      "transactions": [
        {
          "hash": "0xb43d69590cd51565624bab77600b2e91877fb510a080375ced20b7591ca7a775",
          "transactionType": "CALL",
          "contractName": null,
          "contractAddress": "0x75057e6fbf35dfa697809fb34b5f3dfc8c1d6745",
          "function": "setPeer(uint32,bytes32)",
          "arguments": [
            "40245",
            "0x00000000000000000000000075057e6fbf35dfa697809fb34b5f3dfc8c1d6745"
          ],
          "transaction": {
            "from": "0x64a822f980dc5f126215d75d11dd8114ed0bdb5f",
            "to": "0x75057e6fbf35dfa697809fb34b5f3dfc8c1d6745",
            "gas": "0x1014c",
            "value": "0x0",
            "input": "0x3400288b0000000000000000000000000000000000000000000000000000000000009d3500000000000000000000000075057e6fbf35dfa697809fb34b5f3dfc8c1d6745",
            "nonce": "0x101",
            "chainId": "0xaa37dc"
          },
          "additionalContracts": [],
          "isFixedGasLimit": false
        }
      ],
      "receipts": [
        {
          "status": "0x1",
          "cumulativeGasUsed": "0x165b7",
          "logs": [
            {
              "address": "0x75057e6fbf35dfa697809fb34b5f3dfc8c1d6745",
              "topics": [
                "0x238399d427b947898edb290f5ff0f9109849b1c3ba196a42e35f00c50a54b98b"
              ],
              "data": "0x0000000000000000000000000000000000000000000000000000000000009d3500000000000000000000000075057e6fbf35dfa697809fb34b5f3dfc8c1d6745",
              "blockHash": "0x69d25fbdafb0b23774e7862a73de1555bd33bf69a17a502971e2ac20abe75599",
              "blockNumber": "0x100fe65",
              "transactionHash": "0xb43d69590cd51565624bab77600b2e91877fb510a080375ced20b7591ca7a775",
              "transactionIndex": "0x1",
              "logIndex": "0x0",
              "removed": false
            }
          ],
          "logsBloom": "0x00000000000000000000000000000000000000000000000000000000000000000000000000000000000000000000000000000000000000000800000000000000000000000400000000000000000000000000000000000000000000000000000000000000000000000000000000000000000000000000000000000000000000000000000000000008000000000000002000000000000000000000000000000000000000000000000000000000000000000000000000000000000002000000000000000000000000000000000000000000000000000000000000040000000000000000000000000000000000000000000000000000000000000000000000000000",
          "type": "0x2",
          "transactionHash": "0xb43d69590cd51565624bab77600b2e91877fb510a080375ced20b7591ca7a775",
          "transactionIndex": "0x1",
          "blockHash": "0x69d25fbdafb0b23774e7862a73de1555bd33bf69a17a502971e2ac20abe75599",
          "blockNumber": "0x100fe65",
          "gasUsed": "0xba48",
          "effectiveGasPrice": "0x30e044d",
          "from": "0x64a822f980dc5f126215d75d11dd8114ed0bdb5f",
          "to": "0x75057e6fbf35dfa697809fb34b5f3dfc8c1d6745",
          "contractAddress": null,
          "l1BaseFeeScalar": "0x1db0",
          "l1BlobBaseFee": "0xde7b1c5a8",
          "l1BlobBaseFeeScalar": "0xd2730",
          "l1Fee": "0x4c06ca3166f",
          "l1GasPrice": "0x176ea7b39",
          "l1GasUsed": "0x640"
        }
      ],
      "libraries": [],
      "pending": [],
      "returns": {},
      "timestamp": 1725487205,
      "chain": 11155420,
      "commit": "3db11dc"
    }
  ],
  "timestamp": 1725487224
}