{
  "deployments": [
    {
      "transactions": [
        {
          "hash": "0xef8b743a22bddcbfa481c8a0720f0ef6917f5b018f1ba200f6a81c28bfcbd7b6",
          "transactionType": "CALL",
          "contractName": null,
          "contractAddress": "0xad9fc4039bec75d97cfd385a7ecddd4bce4b7854",
          "function": "setPeer(uint32,bytes32)",
          "arguments": [
            "40232",
            "0x000000000000000000000000ad9fc4039bec75d97cfd385a7ecddd4bce4b7854"
          ],
          "transaction": {
            "from": "0x64a822f980dc5f126215d75d11dd8114ed0bdb5f",
            "to": "0xad9fc4039bec75d97cfd385a7ecddd4bce4b7854",
            "gas": "0x1016a",
            "value": "0x0",
            "input": "0x3400288b0000000000000000000000000000000000000000000000000000000000009d28000000000000000000000000ad9fc4039bec75d97cfd385a7ecddd4bce4b7854",
            "nonce": "0x223",
            "chainId": "0x14a34"
          },
          "additionalContracts": [],
          "isFixedGasLimit": false
        },
        {
          "hash": "0x52e5e680ee85d6537b9008d9cdf919fdb68a319ba8eda4ea5b4b805357ef754f",
          "transactionType": "CALL",
          "contractName": null,
          "contractAddress": "0xad9fc4039bec75d97cfd385a7ecddd4bce4b7854",
          "function": "setPeer(uint32,bytes32)",
          "arguments": [
            "40231",
            "0x000000000000000000000000ad9fc4039bec75d97cfd385a7ecddd4bce4b7854"
          ],
          "transaction": {
            "from": "0x64a822f980dc5f126215d75d11dd8114ed0bdb5f",
            "to": "0xad9fc4039bec75d97cfd385a7ecddd4bce4b7854",
            "gas": "0x1016a",
            "value": "0x0",
            "input": "0x3400288b0000000000000000000000000000000000000000000000000000000000009d27000000000000000000000000ad9fc4039bec75d97cfd385a7ecddd4bce4b7854",
            "nonce": "0x224",
            "chainId": "0x14a34"
          },
          "additionalContracts": [],
          "isFixedGasLimit": false
        },
        {
          "hash": "0x8352678634be6e122f2c8f822375cff91a4c7a09b6a0c1b9af789150a4e6d1e9",
          "transactionType": "CALL",
          "contractName": null,
          "contractAddress": "0xad9fc4039bec75d97cfd385a7ecddd4bce4b7854",
          "function": "setPeer(uint32,bytes32)",
          "arguments": [
            "40305",
            "0x000000000000000000000000ad9fc4039bec75d97cfd385a7ecddd4bce4b7854"
          ],
          "transaction": {
            "from": "0x64a822f980dc5f126215d75d11dd8114ed0bdb5f",
            "to": "0xad9fc4039bec75d97cfd385a7ecddd4bce4b7854",
            "gas": "0x1016a",
            "value": "0x0",
            "input": "0x3400288b0000000000000000000000000000000000000000000000000000000000009d71000000000000000000000000ad9fc4039bec75d97cfd385a7ecddd4bce4b7854",
            "nonce": "0x225",
            "chainId": "0x14a34"
          },
          "additionalContracts": [],
          "isFixedGasLimit": false
        },
        {
          "hash": "0x58908b866a641f6339cbeb92dd240fd55b1d979118f98732fb839ae9ee28dcf6",
          "transactionType": "CALL",
          "contractName": null,
          "contractAddress": "0xad9fc4039bec75d97cfd385a7ecddd4bce4b7854",
          "function": "setPeer(uint32,bytes32)",
          "arguments": [
            "40287",
            "0x000000000000000000000000ad9fc4039bec75d97cfd385a7ecddd4bce4b7854"
          ],
          "transaction": {
            "from": "0x64a822f980dc5f126215d75d11dd8114ed0bdb5f",
            "to": "0xad9fc4039bec75d97cfd385a7ecddd4bce4b7854",
            "gas": "0x1016a",
            "value": "0x0",
            "input": "0x3400288b0000000000000000000000000000000000000000000000000000000000009d5f000000000000000000000000ad9fc4039bec75d97cfd385a7ecddd4bce4b7854",
            "nonce": "0x226",
            "chainId": "0x14a34"
          },
          "additionalContracts": [],
          "isFixedGasLimit": false
        },
        {
          "hash": "0x9bdc8c971b502e28e39bc9c249184ad6e8b90d2ddc33a043d43a227f173530f6",
          "transactionType": "CALL",
          "contractName": null,
          "contractAddress": "0xad9fc4039bec75d97cfd385a7ecddd4bce4b7854",
          "function": "setPeer(uint32,bytes32)",
          "arguments": [
            "40161",
            "0x000000000000000000000000ad9fc4039bec75d97cfd385a7ecddd4bce4b7854"
          ],
          "transaction": {
            "from": "0x64a822f980dc5f126215d75d11dd8114ed0bdb5f",
            "to": "0xad9fc4039bec75d97cfd385a7ecddd4bce4b7854",
            "gas": "0x1016a",
            "value": "0x0",
            "input": "0x3400288b0000000000000000000000000000000000000000000000000000000000009ce1000000000000000000000000ad9fc4039bec75d97cfd385a7ecddd4bce4b7854",
            "nonce": "0x227",
            "chainId": "0x14a34"
          },
          "additionalContracts": [],
          "isFixedGasLimit": false
        },
        {
          "hash": "0xf6da691fbf7d036995e7bf2974bc8be5dd671a6b3d312cf729fe4decee318b03",
          "transactionType": "CALL",
          "contractName": null,
          "contractAddress": "0xad9fc4039bec75d97cfd385a7ecddd4bce4b7854",
          "function": "setDstEidOfHomeChain(uint32)",
          "arguments": [
            "40245"
          ],
          "transaction": {
            "from": "0x64a822f980dc5f126215d75d11dd8114ed0bdb5f",
            "to": "0xad9fc4039bec75d97cfd385a7ecddd4bce4b7854",
            "gas": "0xa4d0",
            "value": "0x0",
            "input": "0x1cd24bd40000000000000000000000000000000000000000000000000000000000009d35",
            "nonce": "0x228",
            "chainId": "0x14a34"
          },
          "additionalContracts": [],
          "isFixedGasLimit": false
        }
      ],
      "receipts": [
        {
          "status": "0x1",
          "cumulativeGasUsed": "0x18509e",
          "logs": [
            {
              "address": "0xad9fc4039bec75d97cfd385a7ecddd4bce4b7854",
              "topics": [
                "0x238399d427b947898edb290f5ff0f9109849b1c3ba196a42e35f00c50a54b98b"
              ],
              "data": "0x0000000000000000000000000000000000000000000000000000000000009d28000000000000000000000000ad9fc4039bec75d97cfd385a7ecddd4bce4b7854",
              "blockHash": "0xe29f5bec103ab294d4003c3ed6c155ad43ee4d00b4d8ea4586613a1270109153",
              "blockNumber": "0xe3b511",
              "transactionHash": "0xef8b743a22bddcbfa481c8a0720f0ef6917f5b018f1ba200f6a81c28bfcbd7b6",
              "transactionIndex": "0x5",
              "logIndex": "0xc",
              "removed": false
            }
          ],
          "logsBloom": "0x00000000000000000000000000000000000000000000000000000000000000000000000000000000000000000000000000000000000000000800000000000000000000000000000000000000000000000400000000000000000000000000000000000000000000000000000000000000000000000000000000000000000000000000000000000000000000000000000000000008000000000000000000000000000000000000000000000000000000000000000000000000000002000000000000000000000000000000000000000000000000000000000800040000000000000000000000000000000000000000000000000000000000000000000000000000",
          "type": "0x2",
          "transactionHash": "0xef8b743a22bddcbfa481c8a0720f0ef6917f5b018f1ba200f6a81c28bfcbd7b6",
          "transactionIndex": "0x5",
          "blockHash": "0xe29f5bec103ab294d4003c3ed6c155ad43ee4d00b4d8ea4586613a1270109153",
          "blockNumber": "0xe3b511",
          "gasUsed": "0xba5e",
          "effectiveGasPrice": "0x971935",
          "from": "0x64a822f980dc5f126215d75d11dd8114ed0bdb5f",
          "to": "0xad9fc4039bec75d97cfd385a7ecddd4bce4b7854",
          "contractAddress": null,
          "l1BaseFeeScalar": "0x44d",
          "l1BlobBaseFee": "0x825681fe2d",
          "l1BlobBaseFeeScalar": "0xa118b",
          "l1Fee": "0x21a4dcbebf70",
          "l1GasPrice": "0x718c0cc1f",
          "l1GasUsed": "0x640"
        },
        {
          "status": "0x1",
          "cumulativeGasUsed": "0x190afc",
          "logs": [
            {
              "address": "0xad9fc4039bec75d97cfd385a7ecddd4bce4b7854",
              "topics": [
                "0x238399d427b947898edb290f5ff0f9109849b1c3ba196a42e35f00c50a54b98b"
              ],
              "data": "0x0000000000000000000000000000000000000000000000000000000000009d27000000000000000000000000ad9fc4039bec75d97cfd385a7ecddd4bce4b7854",
              "blockHash": "0xe29f5bec103ab294d4003c3ed6c155ad43ee4d00b4d8ea4586613a1270109153",
              "blockNumber": "0xe3b511",
              "transactionHash": "0x52e5e680ee85d6537b9008d9cdf919fdb68a319ba8eda4ea5b4b805357ef754f",
              "transactionIndex": "0x6",
              "logIndex": "0xd",
              "removed": false
            }
          ],
          "logsBloom": "0x00000000000000000000000000000000000000000000000000000000000000000000000000000000000000000000000000000000000000000800000000000000000000000000000000000000000000000400000000000000000000000000000000000000000000000000000000000000000000000000000000000000000000000000000000000000000000000000000000000008000000000000000000000000000000000000000000000000000000000000000000000000000002000000000000000000000000000000000000000000000000000000000800040000000000000000000000000000000000000000000000000000000000000000000000000000",
          "type": "0x2",
          "transactionHash": "0x52e5e680ee85d6537b9008d9cdf919fdb68a319ba8eda4ea5b4b805357ef754f",
          "transactionIndex": "0x6",
          "blockHash": "0xe29f5bec103ab294d4003c3ed6c155ad43ee4d00b4d8ea4586613a1270109153",
          "blockNumber": "0xe3b511",
          "gasUsed": "0xba5e",
          "effectiveGasPrice": "0x971935",
          "from": "0x64a822f980dc5f126215d75d11dd8114ed0bdb5f",
          "to": "0xad9fc4039bec75d97cfd385a7ecddd4bce4b7854",
          "contractAddress": null,
          "l1BaseFeeScalar": "0x44d",
          "l1BlobBaseFee": "0x825681fe2d",
          "l1BlobBaseFeeScalar": "0xa118b",
          "l1Fee": "0x21a4dcbebf70",
          "l1GasPrice": "0x718c0cc1f",
          "l1GasUsed": "0x640"
        },
        {
          "status": "0x1",
          "cumulativeGasUsed": "0x19c55a",
          "logs": [
            {
              "address": "0xad9fc4039bec75d97cfd385a7ecddd4bce4b7854",
              "topics": [
                "0x238399d427b947898edb290f5ff0f9109849b1c3ba196a42e35f00c50a54b98b"
              ],
              "data": "0x0000000000000000000000000000000000000000000000000000000000009d71000000000000000000000000ad9fc4039bec75d97cfd385a7ecddd4bce4b7854",
              "blockHash": "0xe29f5bec103ab294d4003c3ed6c155ad43ee4d00b4d8ea4586613a1270109153",
              "blockNumber": "0xe3b511",
              "transactionHash": "0x8352678634be6e122f2c8f822375cff91a4c7a09b6a0c1b9af789150a4e6d1e9",
              "transactionIndex": "0x7",
              "logIndex": "0xe",
              "removed": false
            }
          ],
          "logsBloom": "0x00000000000000000000000000000000000000000000000000000000000000000000000000000000000000000000000000000000000000000800000000000000000000000000000000000000000000000400000000000000000000000000000000000000000000000000000000000000000000000000000000000000000000000000000000000000000000000000000000000008000000000000000000000000000000000000000000000000000000000000000000000000000002000000000000000000000000000000000000000000000000000000000800040000000000000000000000000000000000000000000000000000000000000000000000000000",
          "type": "0x2",
          "transactionHash": "0x8352678634be6e122f2c8f822375cff91a4c7a09b6a0c1b9af789150a4e6d1e9",
          "transactionIndex": "0x7",
          "blockHash": "0xe29f5bec103ab294d4003c3ed6c155ad43ee4d00b4d8ea4586613a1270109153",
          "blockNumber": "0xe3b511",
          "gasUsed": "0xba5e",
          "effectiveGasPrice": "0x971935",
          "from": "0x64a822f980dc5f126215d75d11dd8114ed0bdb5f",
          "to": "0xad9fc4039bec75d97cfd385a7ecddd4bce4b7854",
          "contractAddress": null,
          "l1BaseFeeScalar": "0x44d",
          "l1BlobBaseFee": "0x825681fe2d",
          "l1BlobBaseFeeScalar": "0xa118b",
          "l1Fee": "0x21a4dcbebf70",
          "l1GasPrice": "0x718c0cc1f",
          "l1GasUsed": "0x640"
        },
        {
          "status": "0x1",
          "cumulativeGasUsed": "0x1a7fb8",
          "logs": [
            {
              "address": "0xad9fc4039bec75d97cfd385a7ecddd4bce4b7854",
              "topics": [
                "0x238399d427b947898edb290f5ff0f9109849b1c3ba196a42e35f00c50a54b98b"
              ],
              "data": "0x0000000000000000000000000000000000000000000000000000000000009d5f000000000000000000000000ad9fc4039bec75d97cfd385a7ecddd4bce4b7854",
              "blockHash": "0xe29f5bec103ab294d4003c3ed6c155ad43ee4d00b4d8ea4586613a1270109153",
              "blockNumber": "0xe3b511",
              "transactionHash": "0x58908b866a641f6339cbeb92dd240fd55b1d979118f98732fb839ae9ee28dcf6",
              "transactionIndex": "0x8",
              "logIndex": "0xf",
              "removed": false
            }
          ],
          "logsBloom": "0x00000000000000000000000000000000000000000000000000000000000000000000000000000000000000000000000000000000000000000800000000000000000000000000000000000000000000000400000000000000000000000000000000000000000000000000000000000000000000000000000000000000000000000000000000000000000000000000000000000008000000000000000000000000000000000000000000000000000000000000000000000000000002000000000000000000000000000000000000000000000000000000000800040000000000000000000000000000000000000000000000000000000000000000000000000000",
          "type": "0x2",
          "transactionHash": "0x58908b866a641f6339cbeb92dd240fd55b1d979118f98732fb839ae9ee28dcf6",
          "transactionIndex": "0x8",
          "blockHash": "0xe29f5bec103ab294d4003c3ed6c155ad43ee4d00b4d8ea4586613a1270109153",
          "blockNumber": "0xe3b511",
          "gasUsed": "0xba5e",
          "effectiveGasPrice": "0x971935",
          "from": "0x64a822f980dc5f126215d75d11dd8114ed0bdb5f",
          "to": "0xad9fc4039bec75d97cfd385a7ecddd4bce4b7854",
          "contractAddress": null,
          "l1BaseFeeScalar": "0x44d",
          "l1BlobBaseFee": "0x825681fe2d",
          "l1BlobBaseFeeScalar": "0xa118b",
          "l1Fee": "0x21a4dcbebf70",
          "l1GasPrice": "0x718c0cc1f",
          "l1GasUsed": "0x640"
        },
        {
          "status": "0x1",
          "cumulativeGasUsed": "0x1b3a16",
          "logs": [
            {
              "address": "0xad9fc4039bec75d97cfd385a7ecddd4bce4b7854",
              "topics": [
                "0x238399d427b947898edb290f5ff0f9109849b1c3ba196a42e35f00c50a54b98b"
              ],
              "data": "0x0000000000000000000000000000000000000000000000000000000000009ce1000000000000000000000000ad9fc4039bec75d97cfd385a7ecddd4bce4b7854",
              "blockHash": "0xe29f5bec103ab294d4003c3ed6c155ad43ee4d00b4d8ea4586613a1270109153",
              "blockNumber": "0xe3b511",
              "transactionHash": "0x9bdc8c971b502e28e39bc9c249184ad6e8b90d2ddc33a043d43a227f173530f6",
              "transactionIndex": "0x9",
              "logIndex": "0x10",
              "removed": false
            }
          ],
          "logsBloom": "0x00000000000000000000000000000000000000000000000000000000000000000000000000000000000000000000000000000000000000000800000000000000000000000000000000000000000000000400000000000000000000000000000000000000000000000000000000000000000000000000000000000000000000000000000000000000000000000000000000000008000000000000000000000000000000000000000000000000000000000000000000000000000002000000000000000000000000000000000000000000000000000000000800040000000000000000000000000000000000000000000000000000000000000000000000000000",
          "type": "0x2",
          "transactionHash": "0x9bdc8c971b502e28e39bc9c249184ad6e8b90d2ddc33a043d43a227f173530f6",
          "transactionIndex": "0x9",
          "blockHash": "0xe29f5bec103ab294d4003c3ed6c155ad43ee4d00b4d8ea4586613a1270109153",
          "blockNumber": "0xe3b511",
          "gasUsed": "0xba5e",
          "effectiveGasPrice": "0x971935",
          "from": "0x64a822f980dc5f126215d75d11dd8114ed0bdb5f",
          "to": "0xad9fc4039bec75d97cfd385a7ecddd4bce4b7854",
          "contractAddress": null,
          "l1BaseFeeScalar": "0x44d",
          "l1BlobBaseFee": "0x825681fe2d",
          "l1BlobBaseFeeScalar": "0xa118b",
          "l1Fee": "0x21a4dcbebf70",
          "l1GasPrice": "0x718c0cc1f",
          "l1GasUsed": "0x640"
        },
        {
          "status": "0x1",
          "cumulativeGasUsed": "0x1baac8",
          "logs": [],
          "logsBloom": "0x00000000000000000000000000000000000000000000000000000000000000000000000000000000000000000000000000000000000000000000000000000000000000000000000000000000000000000000000000000000000000000000000000000000000000000000000000000000000000000000000000000000000000000000000000000000000000000000000000000000000000000000000000000000000000000000000000000000000000000000000000000000000000000000000000000000000000000000000000000000000000000000000000000000000000000000000000000000000000000000000000000000000000000000000000000000",
          "type": "0x2",
          "transactionHash": "0xf6da691fbf7d036995e7bf2974bc8be5dd671a6b3d312cf729fe4decee318b03",
          "transactionIndex": "0xa",
          "blockHash": "0xe29f5bec103ab294d4003c3ed6c155ad43ee4d00b4d8ea4586613a1270109153",
          "blockNumber": "0xe3b511",
          "gasUsed": "0x70b2",
          "effectiveGasPrice": "0x971935",
          "from": "0x64a822f980dc5f126215d75d11dd8114ed0bdb5f",
          "to": "0xad9fc4039bec75d97cfd385a7ecddd4bce4b7854",
          "contractAddress": null,
          "l1BaseFeeScalar": "0x44d",
          "l1BlobBaseFee": "0x825681fe2d",
          "l1BlobBaseFeeScalar": "0xa118b",
          "l1Fee": "0x21a4dcbebf70",
          "l1GasPrice": "0x718c0cc1f",
          "l1GasUsed": "0x640"
        }
      ],
      "libraries": [],
      "pending": [],
      "returns": {},
      "timestamp": 1725614331,
      "chain": 84532,
      "commit": "1d1fc8c"
    },
    {
      "transactions": [
        {
          "hash": "0x18e20eb05d7b3b4082f7dad3b9437a48843ff4b1c6337e486d84b6adf3e6f17c",
          "transactionType": "CALL",
          "contractName": null,
          "contractAddress": "0xad9fc4039bec75d97cfd385a7ecddd4bce4b7854",
          "function": "setPeer(uint32,bytes32)",
          "arguments": [
            "40245",
            "0x000000000000000000000000ad9fc4039bec75d97cfd385a7ecddd4bce4b7854"
          ],
          "transaction": {
            "from": "0x64a822f980dc5f126215d75d11dd8114ed0bdb5f",
            "to": "0xad9fc4039bec75d97cfd385a7ecddd4bce4b7854",
            "gas": "0x1016a",
            "value": "0x0",
            "input": "0x3400288b0000000000000000000000000000000000000000000000000000000000009d35000000000000000000000000ad9fc4039bec75d97cfd385a7ecddd4bce4b7854",
            "nonce": "0x149",
            "chainId": "0xaa37dc"
          },
          "additionalContracts": [],
          "isFixedGasLimit": false
        },
        {
          "hash": "0x083f1f8831d1e4b6558334f0d12690631ea1765aa638e65370c38cf7adc98cb1",
          "transactionType": "CALL",
          "contractName": null,
          "contractAddress": "0xad9fc4039bec75d97cfd385a7ecddd4bce4b7854",
          "function": "setPeer(uint32,bytes32)",
          "arguments": [
            "40231",
            "0x000000000000000000000000ad9fc4039bec75d97cfd385a7ecddd4bce4b7854"
          ],
          "transaction": {
            "from": "0x64a822f980dc5f126215d75d11dd8114ed0bdb5f",
            "to": "0xad9fc4039bec75d97cfd385a7ecddd4bce4b7854",
            "gas": "0x1016a",
            "value": "0x0",
            "input": "0x3400288b0000000000000000000000000000000000000000000000000000000000009d27000000000000000000000000ad9fc4039bec75d97cfd385a7ecddd4bce4b7854",
            "nonce": "0x14a",
            "chainId": "0xaa37dc"
          },
          "additionalContracts": [],
          "isFixedGasLimit": false
        },
        {
          "hash": "0x1429be881f76ef3df023645d852436895a36d8d7fd1db8351c25bb6b59e03661",
          "transactionType": "CALL",
          "contractName": null,
          "contractAddress": "0xad9fc4039bec75d97cfd385a7ecddd4bce4b7854",
          "function": "setPeer(uint32,bytes32)",
          "arguments": [
            "40305",
            "0x000000000000000000000000ad9fc4039bec75d97cfd385a7ecddd4bce4b7854"
          ],
          "transaction": {
            "from": "0x64a822f980dc5f126215d75d11dd8114ed0bdb5f",
            "to": "0xad9fc4039bec75d97cfd385a7ecddd4bce4b7854",
            "gas": "0x1016a",
            "value": "0x0",
            "input": "0x3400288b0000000000000000000000000000000000000000000000000000000000009d71000000000000000000000000ad9fc4039bec75d97cfd385a7ecddd4bce4b7854",
            "nonce": "0x14b",
            "chainId": "0xaa37dc"
          },
          "additionalContracts": [],
          "isFixedGasLimit": false
        },
        {
          "hash": "0xa84be422396e35f9fdb18bf7ae7cf2547d0b4ed3b1716f948a9b97d537ea4b4f",
          "transactionType": "CALL",
          "contractName": null,
          "contractAddress": "0xad9fc4039bec75d97cfd385a7ecddd4bce4b7854",
          "function": "setPeer(uint32,bytes32)",
          "arguments": [
            "40287",
            "0x000000000000000000000000ad9fc4039bec75d97cfd385a7ecddd4bce4b7854"
          ],
          "transaction": {
            "from": "0x64a822f980dc5f126215d75d11dd8114ed0bdb5f",
            "to": "0xad9fc4039bec75d97cfd385a7ecddd4bce4b7854",
            "gas": "0x1016a",
            "value": "0x0",
            "input": "0x3400288b0000000000000000000000000000000000000000000000000000000000009d5f000000000000000000000000ad9fc4039bec75d97cfd385a7ecddd4bce4b7854",
            "nonce": "0x14c",
            "chainId": "0xaa37dc"
          },
          "additionalContracts": [],
          "isFixedGasLimit": false
        },
        {
          "hash": "0xb73cb209d26999c59283c3839489ab80d0e310a9c7e5f333e30c004ce11f5d4e",
          "transactionType": "CALL",
          "contractName": null,
          "contractAddress": "0xad9fc4039bec75d97cfd385a7ecddd4bce4b7854",
          "function": "setPeer(uint32,bytes32)",
          "arguments": [
            "40161",
            "0x000000000000000000000000ad9fc4039bec75d97cfd385a7ecddd4bce4b7854"
          ],
          "transaction": {
            "from": "0x64a822f980dc5f126215d75d11dd8114ed0bdb5f",
            "to": "0xad9fc4039bec75d97cfd385a7ecddd4bce4b7854",
            "gas": "0x1016a",
            "value": "0x0",
            "input": "0x3400288b0000000000000000000000000000000000000000000000000000000000009ce1000000000000000000000000ad9fc4039bec75d97cfd385a7ecddd4bce4b7854",
            "nonce": "0x14d",
            "chainId": "0xaa37dc"
          },
          "additionalContracts": [],
          "isFixedGasLimit": false
        },
        {
          "hash": "0x0ebd89505b3b79d8f0a297b84ba955db7628c935d646d6dc820766a836c8ec1f",
          "transactionType": "CALL",
          "contractName": null,
          "contractAddress": "0xad9fc4039bec75d97cfd385a7ecddd4bce4b7854",
          "function": "setDstEidOfHomeChain(uint32)",
          "arguments": [
            "40232"
          ],
          "transaction": {
            "from": "0x64a822f980dc5f126215d75d11dd8114ed0bdb5f",
            "to": "0xad9fc4039bec75d97cfd385a7ecddd4bce4b7854",
            "gas": "0xa4d0",
            "value": "0x0",
            "input": "0x1cd24bd40000000000000000000000000000000000000000000000000000000000009d28",
            "nonce": "0x14e",
            "chainId": "0xaa37dc"
          },
          "additionalContracts": [],
          "isFixedGasLimit": false
        }
      ],
      "receipts": [
        {
          "status": "0x1",
          "cumulativeGasUsed": "0x165cd",
          "logs": [
            {
              "address": "0xad9fc4039bec75d97cfd385a7ecddd4bce4b7854",
              "topics": [
                "0x238399d427b947898edb290f5ff0f9109849b1c3ba196a42e35f00c50a54b98b"
              ],
              "data": "0x0000000000000000000000000000000000000000000000000000000000009d35000000000000000000000000ad9fc4039bec75d97cfd385a7ecddd4bce4b7854",
              "blockHash": "0xec5633d5c9e9a2c01f195c75c07db74e196d18647e1f82f59487671e791b5f5e",
              "blockNumber": "0x101f6b0",
              "transactionHash": "0x18e20eb05d7b3b4082f7dad3b9437a48843ff4b1c6337e486d84b6adf3e6f17c",
              "transactionIndex": "0x1",
              "logIndex": "0x0",
              "removed": false
            }
          ],
          "logsBloom": "0x00000000000000000000000000000000000000000000000000000000000000000000000000000000000000000000000000000000000000000800000000000000000000000000000000000000000000000400000000000000000000000000000000000000000000000000000000000000000000000000000000000000000000000000000000000000000000000000000000000008000000000000000000000000000000000000000000000000000000000000000000000000000002000000000000000000000000000000000000000000000000000000000800040000000000000000000000000000000000000000000000000000000000000000000000000000",
          "type": "0x2",
          "transactionHash": "0x18e20eb05d7b3b4082f7dad3b9437a48843ff4b1c6337e486d84b6adf3e6f17c",
          "transactionIndex": "0x1",
          "blockHash": "0xec5633d5c9e9a2c01f195c75c07db74e196d18647e1f82f59487671e791b5f5e",
          "blockNumber": "0x101f6b0",
          "gasUsed": "0xba5e",
          "effectiveGasPrice": "0x68e7898",
          "from": "0x64a822f980dc5f126215d75d11dd8114ed0bdb5f",
          "to": "0xad9fc4039bec75d97cfd385a7ecddd4bce4b7854",
          "contractAddress": null,
          "l1BaseFeeScalar": "0x1db0",
          "l1BlobBaseFee": "0x787eb9bbc3",
          "l1BlobBaseFeeScalar": "0xd2730",
          "l1Fee": "0x28cae92aee71",
          "l1GasPrice": "0x49fffbe13",
          "l1GasUsed": "0x640"
        },
        {
          "status": "0x1",
          "cumulativeGasUsed": "0x2202b",
          "logs": [
            {
              "address": "0xad9fc4039bec75d97cfd385a7ecddd4bce4b7854",
              "topics": [
                "0x238399d427b947898edb290f5ff0f9109849b1c3ba196a42e35f00c50a54b98b"
              ],
              "data": "0x0000000000000000000000000000000000000000000000000000000000009d27000000000000000000000000ad9fc4039bec75d97cfd385a7ecddd4bce4b7854",
              "blockHash": "0xec5633d5c9e9a2c01f195c75c07db74e196d18647e1f82f59487671e791b5f5e",
              "blockNumber": "0x101f6b0",
              "transactionHash": "0x083f1f8831d1e4b6558334f0d12690631ea1765aa638e65370c38cf7adc98cb1",
              "transactionIndex": "0x2",
              "logIndex": "0x1",
              "removed": false
            }
          ],
          "logsBloom": "0x00000000000000000000000000000000000000000000000000000000000000000000000000000000000000000000000000000000000000000800000000000000000000000000000000000000000000000400000000000000000000000000000000000000000000000000000000000000000000000000000000000000000000000000000000000000000000000000000000000008000000000000000000000000000000000000000000000000000000000000000000000000000002000000000000000000000000000000000000000000000000000000000800040000000000000000000000000000000000000000000000000000000000000000000000000000",
          "type": "0x2",
          "transactionHash": "0x083f1f8831d1e4b6558334f0d12690631ea1765aa638e65370c38cf7adc98cb1",
          "transactionIndex": "0x2",
          "blockHash": "0xec5633d5c9e9a2c01f195c75c07db74e196d18647e1f82f59487671e791b5f5e",
          "blockNumber": "0x101f6b0",
          "gasUsed": "0xba5e",
          "effectiveGasPrice": "0x68e7898",
          "from": "0x64a822f980dc5f126215d75d11dd8114ed0bdb5f",
          "to": "0xad9fc4039bec75d97cfd385a7ecddd4bce4b7854",
          "contractAddress": null,
          "l1BaseFeeScalar": "0x1db0",
          "l1BlobBaseFee": "0x787eb9bbc3",
          "l1BlobBaseFeeScalar": "0xd2730",
          "l1Fee": "0x28cae92aee71",
          "l1GasPrice": "0x49fffbe13",
          "l1GasUsed": "0x640"
        },
        {
          "status": "0x1",
          "cumulativeGasUsed": "0x165cd",
          "logs": [
            {
              "address": "0xad9fc4039bec75d97cfd385a7ecddd4bce4b7854",
              "topics": [
                "0x238399d427b947898edb290f5ff0f9109849b1c3ba196a42e35f00c50a54b98b"
              ],
              "data": "0x0000000000000000000000000000000000000000000000000000000000009d71000000000000000000000000ad9fc4039bec75d97cfd385a7ecddd4bce4b7854",
              "blockHash": "0x927357a6b91975f91b8a112ea257db1a400fc0cb6f20302c34eeafa6d69293e2",
              "blockNumber": "0x101f6b1",
              "transactionHash": "0x1429be881f76ef3df023645d852436895a36d8d7fd1db8351c25bb6b59e03661",
              "transactionIndex": "0x1",
              "logIndex": "0x0",
              "removed": false
            }
          ],
          "logsBloom": "0x00000000000000000000000000000000000000000000000000000000000000000000000000000000000000000000000000000000000000000800000000000000000000000000000000000000000000000400000000000000000000000000000000000000000000000000000000000000000000000000000000000000000000000000000000000000000000000000000000000008000000000000000000000000000000000000000000000000000000000000000000000000000002000000000000000000000000000000000000000000000000000000000800040000000000000000000000000000000000000000000000000000000000000000000000000000",
          "type": "0x2",
          "transactionHash": "0x1429be881f76ef3df023645d852436895a36d8d7fd1db8351c25bb6b59e03661",
          "transactionIndex": "0x1",
          "blockHash": "0x927357a6b91975f91b8a112ea257db1a400fc0cb6f20302c34eeafa6d69293e2",
          "blockNumber": "0x101f6b1",
          "gasUsed": "0xba5e",
          "effectiveGasPrice": "0x68e7898",
          "from": "0x64a822f980dc5f126215d75d11dd8114ed0bdb5f",
          "to": "0xad9fc4039bec75d97cfd385a7ecddd4bce4b7854",
          "contractAddress": null,
          "l1BaseFeeScalar": "0x1db0",
          "l1BlobBaseFee": "0x787eb9bbc3",
          "l1BlobBaseFeeScalar": "0xd2730",
          "l1Fee": "0x28cae92aee71",
          "l1GasPrice": "0x49fffbe13",
          "l1GasUsed": "0x640"
        },
        {
          "status": "0x1",
          "cumulativeGasUsed": "0x2202b",
          "logs": [
            {
              "address": "0xad9fc4039bec75d97cfd385a7ecddd4bce4b7854",
              "topics": [
                "0x238399d427b947898edb290f5ff0f9109849b1c3ba196a42e35f00c50a54b98b"
              ],
              "data": "0x0000000000000000000000000000000000000000000000000000000000009d5f000000000000000000000000ad9fc4039bec75d97cfd385a7ecddd4bce4b7854",
              "blockHash": "0x927357a6b91975f91b8a112ea257db1a400fc0cb6f20302c34eeafa6d69293e2",
              "blockNumber": "0x101f6b1",
              "transactionHash": "0xa84be422396e35f9fdb18bf7ae7cf2547d0b4ed3b1716f948a9b97d537ea4b4f",
              "transactionIndex": "0x2",
              "logIndex": "0x1",
              "removed": false
            }
          ],
          "logsBloom": "0x00000000000000000000000000000000000000000000000000000000000000000000000000000000000000000000000000000000000000000800000000000000000000000000000000000000000000000400000000000000000000000000000000000000000000000000000000000000000000000000000000000000000000000000000000000000000000000000000000000008000000000000000000000000000000000000000000000000000000000000000000000000000002000000000000000000000000000000000000000000000000000000000800040000000000000000000000000000000000000000000000000000000000000000000000000000",
          "type": "0x2",
          "transactionHash": "0xa84be422396e35f9fdb18bf7ae7cf2547d0b4ed3b1716f948a9b97d537ea4b4f",
          "transactionIndex": "0x2",
          "blockHash": "0x927357a6b91975f91b8a112ea257db1a400fc0cb6f20302c34eeafa6d69293e2",
          "blockNumber": "0x101f6b1",
          "gasUsed": "0xba5e",
          "effectiveGasPrice": "0x68e7898",
          "from": "0x64a822f980dc5f126215d75d11dd8114ed0bdb5f",
          "to": "0xad9fc4039bec75d97cfd385a7ecddd4bce4b7854",
          "contractAddress": null,
          "l1BaseFeeScalar": "0x1db0",
          "l1BlobBaseFee": "0x787eb9bbc3",
          "l1BlobBaseFeeScalar": "0xd2730",
          "l1Fee": "0x28cae92aee71",
          "l1GasPrice": "0x49fffbe13",
          "l1GasUsed": "0x640"
        },
        {
          "status": "0x1",
          "cumulativeGasUsed": "0x2da89",
          "logs": [
            {
              "address": "0xad9fc4039bec75d97cfd385a7ecddd4bce4b7854",
              "topics": [
                "0x238399d427b947898edb290f5ff0f9109849b1c3ba196a42e35f00c50a54b98b"
              ],
              "data": "0x0000000000000000000000000000000000000000000000000000000000009ce1000000000000000000000000ad9fc4039bec75d97cfd385a7ecddd4bce4b7854",
              "blockHash": "0x927357a6b91975f91b8a112ea257db1a400fc0cb6f20302c34eeafa6d69293e2",
              "blockNumber": "0x101f6b1",
              "transactionHash": "0xb73cb209d26999c59283c3839489ab80d0e310a9c7e5f333e30c004ce11f5d4e",
              "transactionIndex": "0x3",
              "logIndex": "0x2",
              "removed": false
            }
          ],
          "logsBloom": "0x00000000000000000000000000000000000000000000000000000000000000000000000000000000000000000000000000000000000000000800000000000000000000000000000000000000000000000400000000000000000000000000000000000000000000000000000000000000000000000000000000000000000000000000000000000000000000000000000000000008000000000000000000000000000000000000000000000000000000000000000000000000000002000000000000000000000000000000000000000000000000000000000800040000000000000000000000000000000000000000000000000000000000000000000000000000",
          "type": "0x2",
          "transactionHash": "0xb73cb209d26999c59283c3839489ab80d0e310a9c7e5f333e30c004ce11f5d4e",
          "transactionIndex": "0x3",
          "blockHash": "0x927357a6b91975f91b8a112ea257db1a400fc0cb6f20302c34eeafa6d69293e2",
          "blockNumber": "0x101f6b1",
          "gasUsed": "0xba5e",
          "effectiveGasPrice": "0x68e7898",
          "from": "0x64a822f980dc5f126215d75d11dd8114ed0bdb5f",
          "to": "0xad9fc4039bec75d97cfd385a7ecddd4bce4b7854",
          "contractAddress": null,
          "l1BaseFeeScalar": "0x1db0",
          "l1BlobBaseFee": "0x787eb9bbc3",
          "l1BlobBaseFeeScalar": "0xd2730",
          "l1Fee": "0x28cae92aee71",
          "l1GasPrice": "0x49fffbe13",
          "l1GasUsed": "0x640"
        },
        {
          "status": "0x1",
          "cumulativeGasUsed": "0x34b3b",
          "logs": [],
          "logsBloom": "0x00000000000000000000000000000000000000000000000000000000000000000000000000000000000000000000000000000000000000000000000000000000000000000000000000000000000000000000000000000000000000000000000000000000000000000000000000000000000000000000000000000000000000000000000000000000000000000000000000000000000000000000000000000000000000000000000000000000000000000000000000000000000000000000000000000000000000000000000000000000000000000000000000000000000000000000000000000000000000000000000000000000000000000000000000000000",
          "type": "0x2",
          "transactionHash": "0x0ebd89505b3b79d8f0a297b84ba955db7628c935d646d6dc820766a836c8ec1f",
          "transactionIndex": "0x4",
          "blockHash": "0x927357a6b91975f91b8a112ea257db1a400fc0cb6f20302c34eeafa6d69293e2",
          "blockNumber": "0x101f6b1",
          "gasUsed": "0x70b2",
          "effectiveGasPrice": "0x68e7898",
          "from": "0x64a822f980dc5f126215d75d11dd8114ed0bdb5f",
          "to": "0xad9fc4039bec75d97cfd385a7ecddd4bce4b7854",
          "contractAddress": null,
          "l1BaseFeeScalar": "0x1db0",
          "l1BlobBaseFee": "0x787eb9bbc3",
          "l1BlobBaseFeeScalar": "0xd2730",
          "l1Fee": "0x28cae92aee71",
          "l1GasPrice": "0x49fffbe13",
          "l1GasUsed": "0x640"
        }
      ],
      "libraries": [],
      "pending": [],
      "returns": {},
      "timestamp": 1725614332,
      "chain": 11155420,
      "commit": "1d1fc8c"
    },
    {
      "transactions": [
        {
          "hash": "0xdfe16a2555c91e6916e33fa134c0092bae1a456039ae8da50c753d2e9b5476be",
          "transactionType": "CALL",
          "contractName": null,
          "contractAddress": "0xad9fc4039bec75d97cfd385a7ecddd4bce4b7854",
          "function": "setPeer(uint32,bytes32)",
          "arguments": [
            "40245",
            "0x000000000000000000000000ad9fc4039bec75d97cfd385a7ecddd4bce4b7854"
          ],
          "transaction": {
            "from": "0x64a822f980dc5f126215d75d11dd8114ed0bdb5f",
            "to": "0xad9fc4039bec75d97cfd385a7ecddd4bce4b7854",
            "gas": "0x2cf202",
            "value": "0x0",
            "input": "0x3400288b0000000000000000000000000000000000000000000000000000000000009d35000000000000000000000000ad9fc4039bec75d97cfd385a7ecddd4bce4b7854",
            "nonce": "0x6e",
            "chainId": "0x66eee"
          },
          "additionalContracts": [],
          "isFixedGasLimit": false
        },
        {
          "hash": "0x23d8c2bfebea52fe92dd1b38baf427b7913c4e4ebc9b54f9d9d9632cf55fcba7",
          "transactionType": "CALL",
          "contractName": null,
          "contractAddress": "0xad9fc4039bec75d97cfd385a7ecddd4bce4b7854",
          "function": "setPeer(uint32,bytes32)",
          "arguments": [
            "40232",
            "0x000000000000000000000000ad9fc4039bec75d97cfd385a7ecddd4bce4b7854"
          ],
          "transaction": {
            "from": "0x64a822f980dc5f126215d75d11dd8114ed0bdb5f",
            "to": "0xad9fc4039bec75d97cfd385a7ecddd4bce4b7854",
            "gas": "0x2cf202",
            "value": "0x0",
            "input": "0x3400288b0000000000000000000000000000000000000000000000000000000000009d28000000000000000000000000ad9fc4039bec75d97cfd385a7ecddd4bce4b7854",
            "nonce": "0x6f",
            "chainId": "0x66eee"
          },
          "additionalContracts": [],
          "isFixedGasLimit": false
        },
        {
          "hash": "0xea410f85bcc29f792a6f8de21686ae27921831486de5b06c5269dc16707aed64",
          "transactionType": "CALL",
          "contractName": null,
          "contractAddress": "0xad9fc4039bec75d97cfd385a7ecddd4bce4b7854",
          "function": "setPeer(uint32,bytes32)",
          "arguments": [
            "40305",
            "0x000000000000000000000000ad9fc4039bec75d97cfd385a7ecddd4bce4b7854"
          ],
          "transaction": {
            "from": "0x64a822f980dc5f126215d75d11dd8114ed0bdb5f",
            "to": "0xad9fc4039bec75d97cfd385a7ecddd4bce4b7854",
            "gas": "0x2cf202",
            "value": "0x0",
            "input": "0x3400288b0000000000000000000000000000000000000000000000000000000000009d71000000000000000000000000ad9fc4039bec75d97cfd385a7ecddd4bce4b7854",
            "nonce": "0x70",
            "chainId": "0x66eee"
          },
          "additionalContracts": [],
          "isFixedGasLimit": false
        },
        {
          "hash": "0x7262c493a41536ce8397752a92c485c28f089eef5f09dc24b48ed1b2f62442b8",
          "transactionType": "CALL",
          "contractName": null,
          "contractAddress": "0xad9fc4039bec75d97cfd385a7ecddd4bce4b7854",
          "function": "setPeer(uint32,bytes32)",
          "arguments": [
            "40287",
            "0x000000000000000000000000ad9fc4039bec75d97cfd385a7ecddd4bce4b7854"
          ],
          "transaction": {
            "from": "0x64a822f980dc5f126215d75d11dd8114ed0bdb5f",
            "to": "0xad9fc4039bec75d97cfd385a7ecddd4bce4b7854",
            "gas": "0x2cf202",
            "value": "0x0",
            "input": "0x3400288b0000000000000000000000000000000000000000000000000000000000009d5f000000000000000000000000ad9fc4039bec75d97cfd385a7ecddd4bce4b7854",
            "nonce": "0x71",
            "chainId": "0x66eee"
          },
          "additionalContracts": [],
          "isFixedGasLimit": false
        },
        {
          "hash": "0xa7c90060637017bc8bdb9364b4280da456b99957bedb26dd60955e187b18acb4",
          "transactionType": "CALL",
          "contractName": null,
          "contractAddress": "0xad9fc4039bec75d97cfd385a7ecddd4bce4b7854",
          "function": "setPeer(uint32,bytes32)",
          "arguments": [
            "40161",
            "0x000000000000000000000000ad9fc4039bec75d97cfd385a7ecddd4bce4b7854"
          ],
          "transaction": {
            "from": "0x64a822f980dc5f126215d75d11dd8114ed0bdb5f",
            "to": "0xad9fc4039bec75d97cfd385a7ecddd4bce4b7854",
            "gas": "0x2cf202",
            "value": "0x0",
            "input": "0x3400288b0000000000000000000000000000000000000000000000000000000000009ce1000000000000000000000000ad9fc4039bec75d97cfd385a7ecddd4bce4b7854",
            "nonce": "0x72",
            "chainId": "0x66eee"
          },
          "additionalContracts": [],
          "isFixedGasLimit": false
        },
        {
          "hash": "0x3da53d5d5eb0bdb9fb89bdf0c62a15ed9cb86f8bd4039572808dec12adba86ed",
          "transactionType": "CALL",
          "contractName": null,
          "contractAddress": "0xad9fc4039bec75d97cfd385a7ecddd4bce4b7854",
          "function": "setDstEidOfHomeChain(uint32)",
          "arguments": [
            "40231"
          ],
          "transaction": {
            "from": "0x64a822f980dc5f126215d75d11dd8114ed0bdb5f",
            "to": "0xad9fc4039bec75d97cfd385a7ecddd4bce4b7854",
            "gas": "0x25b19d",
            "value": "0x0",
            "input": "0x1cd24bd40000000000000000000000000000000000000000000000000000000000009d27",
            "nonce": "0x73",
            "chainId": "0x66eee"
          },
          "additionalContracts": [],
          "isFixedGasLimit": false
        }
      ],
      "receipts": [
        {
          "status": "0x1",
          "cumulativeGasUsed": "0x1ac91e",
          "logs": [
            {
              "address": "0xad9fc4039bec75d97cfd385a7ecddd4bce4b7854",
              "topics": [
                "0x238399d427b947898edb290f5ff0f9109849b1c3ba196a42e35f00c50a54b98b"
              ],
              "data": "0x0000000000000000000000000000000000000000000000000000000000009d35000000000000000000000000ad9fc4039bec75d97cfd385a7ecddd4bce4b7854",
              "blockHash": "0xc82abb5300f47a5ba9888cb7af3f4bb48fcdc3f6ab48b54ebcd86ad769f593e2",
              "blockNumber": "0x4a2f379",
              "transactionHash": "0xdfe16a2555c91e6916e33fa134c0092bae1a456039ae8da50c753d2e9b5476be",
              "transactionIndex": "0x1",
              "logIndex": "0x0",
              "removed": false
            }
          ],
          "logsBloom": "0x00000000000000000000000000000000000000000000000000000000000000000000000000000000000000000000000000000000000000000800000000000000000000000000000000000000000000000400000000000000000000000000000000000000000000000000000000000000000000000000000000000000000000000000000000000000000000000000000000000008000000000000000000000000000000000000000000000000000000000000000000000000000002000000000000000000000000000000000000000000000000000000000800040000000000000000000000000000000000000000000000000000000000000000000000000000",
          "type": "0x2",
          "transactionHash": "0xdfe16a2555c91e6916e33fa134c0092bae1a456039ae8da50c753d2e9b5476be",
          "transactionIndex": "0x1",
          "blockHash": "0xc82abb5300f47a5ba9888cb7af3f4bb48fcdc3f6ab48b54ebcd86ad769f593e2",
          "blockNumber": "0x4a2f379",
          "gasUsed": "0x1ac91e",
          "effectiveGasPrice": "0x5f5e100",
          "from": "0x64a822f980dc5f126215d75d11dd8114ed0bdb5f",
          "to": "0xad9fc4039bec75d97cfd385a7ecddd4bce4b7854",
          "contractAddress": null,
          "gasUsedForL1": "0x1a0ec0",
          "l1BlockNumber": "0x655ad7"
        },
        {
          "status": "0x1",
          "cumulativeGasUsed": "0x1ac91e",
          "logs": [
            {
              "address": "0xad9fc4039bec75d97cfd385a7ecddd4bce4b7854",
              "topics": [
                "0x238399d427b947898edb290f5ff0f9109849b1c3ba196a42e35f00c50a54b98b"
              ],
              "data": "0x0000000000000000000000000000000000000000000000000000000000009d28000000000000000000000000ad9fc4039bec75d97cfd385a7ecddd4bce4b7854",
              "blockHash": "0x5388f9db086aee236e44b49dff46e027e1ed0d8ad40561de196313829a9c17c5",
              "blockNumber": "0x4a2f37d",
              "transactionHash": "0x23d8c2bfebea52fe92dd1b38baf427b7913c4e4ebc9b54f9d9d9632cf55fcba7",
              "transactionIndex": "0x1",
              "logIndex": "0x0",
              "removed": false
            }
          ],
          "logsBloom": "0x00000000000000000000000000000000000000000000000000000000000000000000000000000000000000000000000000000000000000000800000000000000000000000000000000000000000000000400000000000000000000000000000000000000000000000000000000000000000000000000000000000000000000000000000000000000000000000000000000000008000000000000000000000000000000000000000000000000000000000000000000000000000002000000000000000000000000000000000000000000000000000000000800040000000000000000000000000000000000000000000000000000000000000000000000000000",
          "type": "0x2",
          "transactionHash": "0x23d8c2bfebea52fe92dd1b38baf427b7913c4e4ebc9b54f9d9d9632cf55fcba7",
          "transactionIndex": "0x1",
          "blockHash": "0x5388f9db086aee236e44b49dff46e027e1ed0d8ad40561de196313829a9c17c5",
          "blockNumber": "0x4a2f37d",
          "gasUsed": "0x1ac91e",
          "effectiveGasPrice": "0x5f5e100",
          "from": "0x64a822f980dc5f126215d75d11dd8114ed0bdb5f",
          "to": "0xad9fc4039bec75d97cfd385a7ecddd4bce4b7854",
          "contractAddress": null,
          "gasUsedForL1": "0x1a0ec0",
          "l1BlockNumber": "0x655ad7"
        },
        {
          "status": "0x1",
          "cumulativeGasUsed": "0x1ac91e",
          "logs": [
            {
              "address": "0xad9fc4039bec75d97cfd385a7ecddd4bce4b7854",
              "topics": [
                "0x238399d427b947898edb290f5ff0f9109849b1c3ba196a42e35f00c50a54b98b"
              ],
              "data": "0x0000000000000000000000000000000000000000000000000000000000009d71000000000000000000000000ad9fc4039bec75d97cfd385a7ecddd4bce4b7854",
              "blockHash": "0x3a99b14c098ef79a1f0411bddca894f57a1fb2dfa0736de43347e2a9335ca8f1",
              "blockNumber": "0x4a2f380",
              "transactionHash": "0xea410f85bcc29f792a6f8de21686ae27921831486de5b06c5269dc16707aed64",
              "transactionIndex": "0x1",
              "logIndex": "0x0",
              "removed": false
            }
          ],
          "logsBloom": "0x00000000000000000000000000000000000000000000000000000000000000000000000000000000000000000000000000000000000000000800000000000000000000000000000000000000000000000400000000000000000000000000000000000000000000000000000000000000000000000000000000000000000000000000000000000000000000000000000000000008000000000000000000000000000000000000000000000000000000000000000000000000000002000000000000000000000000000000000000000000000000000000000800040000000000000000000000000000000000000000000000000000000000000000000000000000",
          "type": "0x2",
          "transactionHash": "0xea410f85bcc29f792a6f8de21686ae27921831486de5b06c5269dc16707aed64",
          "transactionIndex": "0x1",
          "blockHash": "0x3a99b14c098ef79a1f0411bddca894f57a1fb2dfa0736de43347e2a9335ca8f1",
          "blockNumber": "0x4a2f380",
          "gasUsed": "0x1ac91e",
          "effectiveGasPrice": "0x5f5e100",
          "from": "0x64a822f980dc5f126215d75d11dd8114ed0bdb5f",
          "to": "0xad9fc4039bec75d97cfd385a7ecddd4bce4b7854",
          "contractAddress": null,
          "gasUsedForL1": "0x1a0ec0",
          "l1BlockNumber": "0x655ad7"
        },
        {
          "status": "0x1",
          "cumulativeGasUsed": "0x43a4a3",
          "logs": [
            {
              "address": "0xad9fc4039bec75d97cfd385a7ecddd4bce4b7854",
              "topics": [
                "0x238399d427b947898edb290f5ff0f9109849b1c3ba196a42e35f00c50a54b98b"
              ],
              "data": "0x0000000000000000000000000000000000000000000000000000000000009d5f000000000000000000000000ad9fc4039bec75d97cfd385a7ecddd4bce4b7854",
              "blockHash": "0x55f28dd91cd95fe8d8d2eb122218d98c7846f7bf02da0b62e54180dceca42400",
              "blockNumber": "0x4a2f383",
              "transactionHash": "0x7262c493a41536ce8397752a92c485c28f089eef5f09dc24b48ed1b2f62442b8",
              "transactionIndex": "0x2",
              "logIndex": "0x2",
              "removed": false
            }
          ],
          "logsBloom": "0x00000000000000000000000000000000000000000000000000000000000000000000000000000000000000000000000000000000000000000800000000000000000000000000000000000000000000000400000000000000000000000000000000000000000000000000000000000000000000000000000000000000000000000000000000000000000000000000000000000008000000000000000000000000000000000000000000000000000000000000000000000000000002000000000000000000000000000000000000000000000000000000000800040000000000000000000000000000000000000000000000000000000000000000000000000000",
          "type": "0x2",
          "transactionHash": "0x7262c493a41536ce8397752a92c485c28f089eef5f09dc24b48ed1b2f62442b8",
          "transactionIndex": "0x2",
          "blockHash": "0x55f28dd91cd95fe8d8d2eb122218d98c7846f7bf02da0b62e54180dceca42400",
          "blockNumber": "0x4a2f383",
          "gasUsed": "0x1ac91e",
          "effectiveGasPrice": "0x5f5e100",
          "from": "0x64a822f980dc5f126215d75d11dd8114ed0bdb5f",
          "to": "0xad9fc4039bec75d97cfd385a7ecddd4bce4b7854",
          "contractAddress": null,
          "gasUsedForL1": "0x1a0ec0",
          "l1BlockNumber": "0x655ad7"
        },
        {
          "status": "0x1",
          "cumulativeGasUsed": "0x1ac91e",
          "logs": [
            {
              "address": "0xad9fc4039bec75d97cfd385a7ecddd4bce4b7854",
              "topics": [
                "0x238399d427b947898edb290f5ff0f9109849b1c3ba196a42e35f00c50a54b98b"
              ],
              "data": "0x0000000000000000000000000000000000000000000000000000000000009ce1000000000000000000000000ad9fc4039bec75d97cfd385a7ecddd4bce4b7854",
              "blockHash": "0xf1c36ef2a9df026bd26a5b5af4c5eeacfe9729c7494fc645f70004b032013bf5",
              "blockNumber": "0x4a2f385",
              "transactionHash": "0xa7c90060637017bc8bdb9364b4280da456b99957bedb26dd60955e187b18acb4",
              "transactionIndex": "0x1",
              "logIndex": "0x0",
              "removed": false
            }
          ],
          "logsBloom": "0x00000000000000000000000000000000000000000000000000000000000000000000000000000000000000000000000000000000000000000800000000000000000000000000000000000000000000000400000000000000000000000000000000000000000000000000000000000000000000000000000000000000000000000000000000000000000000000000000000000008000000000000000000000000000000000000000000000000000000000000000000000000000002000000000000000000000000000000000000000000000000000000000800040000000000000000000000000000000000000000000000000000000000000000000000000000",
          "type": "0x2",
          "transactionHash": "0xa7c90060637017bc8bdb9364b4280da456b99957bedb26dd60955e187b18acb4",
          "transactionIndex": "0x1",
          "blockHash": "0xf1c36ef2a9df026bd26a5b5af4c5eeacfe9729c7494fc645f70004b032013bf5",
          "blockNumber": "0x4a2f385",
          "gasUsed": "0x1ac91e",
          "effectiveGasPrice": "0x5f5e100",
          "from": "0x64a822f980dc5f126215d75d11dd8114ed0bdb5f",
          "to": "0xad9fc4039bec75d97cfd385a7ecddd4bce4b7854",
          "contractAddress": null,
          "gasUsedForL1": "0x1a0ec0",
          "l1BlockNumber": "0x655ad7"
        },
        {
          "status": "0x1",
          "cumulativeGasUsed": "0x15c5ea",
          "logs": [],
          "logsBloom": "0x00000000000000000000000000000000000000000000000000000000000000000000000000000000000000000000000000000000000000000000000000000000000000000000000000000000000000000000000000000000000000000000000000000000000000000000000000000000000000000000000000000000000000000000000000000000000000000000000000000000000000000000000000000000000000000000000000000000000000000000000000000000000000000000000000000000000000000000000000000000000000000000000000000000000000000000000000000000000000000000000000000000000000000000000000000000",
          "type": "0x2",
          "transactionHash": "0x3da53d5d5eb0bdb9fb89bdf0c62a15ed9cb86f8bd4039572808dec12adba86ed",
          "transactionIndex": "0x1",
          "blockHash": "0x0fc0a67c163f8f6942185452dc998cb623f768a930f7b655fe0f815e0c5c6a78",
          "blockNumber": "0x4a2f38a",
          "gasUsed": "0x15c5ea",
          "effectiveGasPrice": "0x5f5e100",
          "from": "0x64a822f980dc5f126215d75d11dd8114ed0bdb5f",
          "to": "0xad9fc4039bec75d97cfd385a7ecddd4bce4b7854",
          "contractAddress": null,
          "gasUsedForL1": "0x155538",
          "l1BlockNumber": "0x655ad8"
        }
      ],
      "libraries": [],
      "pending": [],
      "returns": {},
      "timestamp": 1725614333,
      "chain": 421614,
      "commit": "1d1fc8c"
    },
    {
      "transactions": [
        {
          "hash": "0x5b5fbb92a61b0cea919021bd3312abb1971476c4d13a22d678008fa9b9d99e2c",
          "transactionType": "CALL",
          "contractName": null,
          "contractAddress": "0xad9fc4039bec75d97cfd385a7ecddd4bce4b7854",
          "function": "setPeer(uint32,bytes32)",
          "arguments": [
            "40245",
            "0x000000000000000000000000ad9fc4039bec75d97cfd385a7ecddd4bce4b7854"
          ],
          "transaction": {
            "from": "0x64a822f980dc5f126215d75d11dd8114ed0bdb5f",
            "to": "0xad9fc4039bec75d97cfd385a7ecddd4bce4b7854",
            "gas": "0x1016a",
            "value": "0x0",
            "input": "0x3400288b0000000000000000000000000000000000000000000000000000000000009d35000000000000000000000000ad9fc4039bec75d97cfd385a7ecddd4bce4b7854",
            "nonce": "0x38",
            "chainId": "0xe705"
          },
          "additionalContracts": [],
          "isFixedGasLimit": false
        },
        {
          "hash": "0xa9b9113e520f21ba7f70caf5e64db767f17d148eda0e3d74ee2dc8fcca6dc6f1",
          "transactionType": "CALL",
          "contractName": null,
          "contractAddress": "0xad9fc4039bec75d97cfd385a7ecddd4bce4b7854",
          "function": "setPeer(uint32,bytes32)",
          "arguments": [
            "40232",
            "0x000000000000000000000000ad9fc4039bec75d97cfd385a7ecddd4bce4b7854"
          ],
          "transaction": {
            "from": "0x64a822f980dc5f126215d75d11dd8114ed0bdb5f",
            "to": "0xad9fc4039bec75d97cfd385a7ecddd4bce4b7854",
            "gas": "0x1016a",
            "value": "0x0",
            "input": "0x3400288b0000000000000000000000000000000000000000000000000000000000009d28000000000000000000000000ad9fc4039bec75d97cfd385a7ecddd4bce4b7854",
            "nonce": "0x39",
            "chainId": "0xe705"
          },
          "additionalContracts": [],
          "isFixedGasLimit": false
        },
        {
          "hash": "0x226228a9f76c8630c9ae1ac446c98a905672e3d941a8544c984f599663f2b8a5",
          "transactionType": "CALL",
          "contractName": null,
          "contractAddress": "0xad9fc4039bec75d97cfd385a7ecddd4bce4b7854",
          "function": "setPeer(uint32,bytes32)",
          "arguments": [
            "40231",
            "0x000000000000000000000000ad9fc4039bec75d97cfd385a7ecddd4bce4b7854"
          ],
          "transaction": {
            "from": "0x64a822f980dc5f126215d75d11dd8114ed0bdb5f",
            "to": "0xad9fc4039bec75d97cfd385a7ecddd4bce4b7854",
            "gas": "0x1016a",
            "value": "0x0",
            "input": "0x3400288b0000000000000000000000000000000000000000000000000000000000009d27000000000000000000000000ad9fc4039bec75d97cfd385a7ecddd4bce4b7854",
            "nonce": "0x3a",
            "chainId": "0xe705"
          },
          "additionalContracts": [],
          "isFixedGasLimit": false
        },
        {
          "hash": "0x70669e4bd25b29aeee394065eb2f234f5de4247d152449635533e27bc1a83a42",
          "transactionType": "CALL",
          "contractName": null,
          "contractAddress": "0xad9fc4039bec75d97cfd385a7ecddd4bce4b7854",
          "function": "setPeer(uint32,bytes32)",
          "arguments": [
            "40305",
            "0x000000000000000000000000ad9fc4039bec75d97cfd385a7ecddd4bce4b7854"
          ],
          "transaction": {
            "from": "0x64a822f980dc5f126215d75d11dd8114ed0bdb5f",
            "to": "0xad9fc4039bec75d97cfd385a7ecddd4bce4b7854",
            "gas": "0x1016a",
            "value": "0x0",
            "input": "0x3400288b0000000000000000000000000000000000000000000000000000000000009d71000000000000000000000000ad9fc4039bec75d97cfd385a7ecddd4bce4b7854",
            "nonce": "0x3b",
            "chainId": "0xe705"
          },
          "additionalContracts": [],
          "isFixedGasLimit": false
        },
        {
          "hash": "0x6b8bd91fbc52bfb5ab860b7bde9a422dd79a07153ba768ee00929dbd8bc4e537",
          "transactionType": "CALL",
          "contractName": null,
          "contractAddress": "0xad9fc4039bec75d97cfd385a7ecddd4bce4b7854",
          "function": "setPeer(uint32,bytes32)",
          "arguments": [
            "40161",
            "0x000000000000000000000000ad9fc4039bec75d97cfd385a7ecddd4bce4b7854"
          ],
          "transaction": {
            "from": "0x64a822f980dc5f126215d75d11dd8114ed0bdb5f",
            "to": "0xad9fc4039bec75d97cfd385a7ecddd4bce4b7854",
            "gas": "0x1016a",
            "value": "0x0",
            "input": "0x3400288b0000000000000000000000000000000000000000000000000000000000009ce1000000000000000000000000ad9fc4039bec75d97cfd385a7ecddd4bce4b7854",
            "nonce": "0x3c",
            "chainId": "0xe705"
          },
          "additionalContracts": [],
          "isFixedGasLimit": false
        },
        {
          "hash": "0xb733f33e22df39753d5eef322d9c6f92c204ff9a26051e503d1cd89eae8db73d",
          "transactionType": "CALL",
          "contractName": null,
          "contractAddress": "0xad9fc4039bec75d97cfd385a7ecddd4bce4b7854",
          "function": "setDstEidOfHomeChain(uint32)",
          "arguments": [
            "40287"
          ],
          "transaction": {
            "from": "0x64a822f980dc5f126215d75d11dd8114ed0bdb5f",
            "to": "0xad9fc4039bec75d97cfd385a7ecddd4bce4b7854",
            "gas": "0xa4d0",
            "value": "0x0",
            "input": "0x1cd24bd40000000000000000000000000000000000000000000000000000000000009d5f",
            "nonce": "0x3d",
            "chainId": "0xe705"
          },
          "additionalContracts": [],
          "isFixedGasLimit": false
        }
      ],
      "receipts": [
        {
          "status": "0x1",
          "cumulativeGasUsed": "0xba5e",
          "logs": [
            {
              "address": "0xad9fc4039bec75d97cfd385a7ecddd4bce4b7854",
              "topics": [
                "0x238399d427b947898edb290f5ff0f9109849b1c3ba196a42e35f00c50a54b98b"
              ],
              "data": "0x0000000000000000000000000000000000000000000000000000000000009d35000000000000000000000000ad9fc4039bec75d97cfd385a7ecddd4bce4b7854",
              "blockHash": "0xb29477508c3349cc655dbf239b884cc488bfae7bff31f3006ca122d6d5e83b36",
              "blockNumber": "0x395eda",
              "transactionHash": "0x5b5fbb92a61b0cea919021bd3312abb1971476c4d13a22d678008fa9b9d99e2c",
              "transactionIndex": "0x0",
              "logIndex": "0x0",
              "removed": false
            }
          ],
          "logsBloom": "0x00000000000000000000000000000000000000000000000000000000000000000000000000000000000000000000000000000000000000000800000000000000000000000000000000000000000000000400000000000000000000000000000000000000000000000000000000000000000000000000000000000000000000000000000000000000000000000000000000000008000000000000000000000000000000000000000000000000000000000000000000000000000002000000000000000000000000000000000000000000000000000000000800040000000000000000000000000000000000000000000000000000000000000000000000000000",
          "type": "0x2",
          "transactionHash": "0x5b5fbb92a61b0cea919021bd3312abb1971476c4d13a22d678008fa9b9d99e2c",
          "transactionIndex": "0x0",
          "blockHash": "0xb29477508c3349cc655dbf239b884cc488bfae7bff31f3006ca122d6d5e83b36",
          "blockNumber": "0x395eda",
          "gasUsed": "0xba5e",
          "effectiveGasPrice": "0x1dcd65000",
          "from": "0x64a822f980dc5f126215d75d11dd8114ed0bdb5f",
          "to": "0xad9fc4039bec75d97cfd385a7ecddd4bce4b7854",
          "contractAddress": null
        },
        {
          "status": "0x1",
          "cumulativeGasUsed": "0x174bc",
          "logs": [
            {
              "address": "0xad9fc4039bec75d97cfd385a7ecddd4bce4b7854",
              "topics": [
                "0x238399d427b947898edb290f5ff0f9109849b1c3ba196a42e35f00c50a54b98b"
              ],
              "data": "0x0000000000000000000000000000000000000000000000000000000000009d28000000000000000000000000ad9fc4039bec75d97cfd385a7ecddd4bce4b7854",
              "blockHash": "0xb29477508c3349cc655dbf239b884cc488bfae7bff31f3006ca122d6d5e83b36",
              "blockNumber": "0x395eda",
              "transactionHash": "0xa9b9113e520f21ba7f70caf5e64db767f17d148eda0e3d74ee2dc8fcca6dc6f1",
              "transactionIndex": "0x1",
              "logIndex": "0x1",
              "removed": false
            }
          ],
          "logsBloom": "0x00000000000000000000000000000000000000000000000000000000000000000000000000000000000000000000000000000000000000000800000000000000000000000000000000000000000000000400000000000000000000000000000000000000000000000000000000000000000000000000000000000000000000000000000000000000000000000000000000000008000000000000000000000000000000000000000000000000000000000000000000000000000002000000000000000000000000000000000000000000000000000000000800040000000000000000000000000000000000000000000000000000000000000000000000000000",
          "type": "0x2",
          "transactionHash": "0xa9b9113e520f21ba7f70caf5e64db767f17d148eda0e3d74ee2dc8fcca6dc6f1",
          "transactionIndex": "0x1",
          "blockHash": "0xb29477508c3349cc655dbf239b884cc488bfae7bff31f3006ca122d6d5e83b36",
          "blockNumber": "0x395eda",
          "gasUsed": "0xba5e",
          "effectiveGasPrice": "0x1dcd65000",
          "from": "0x64a822f980dc5f126215d75d11dd8114ed0bdb5f",
          "to": "0xad9fc4039bec75d97cfd385a7ecddd4bce4b7854",
          "contractAddress": null
        },
        {
          "status": "0x1",
          "cumulativeGasUsed": "0x22f1a",
          "logs": [
            {
              "address": "0xad9fc4039bec75d97cfd385a7ecddd4bce4b7854",
              "topics": [
                "0x238399d427b947898edb290f5ff0f9109849b1c3ba196a42e35f00c50a54b98b"
              ],
              "data": "0x0000000000000000000000000000000000000000000000000000000000009d27000000000000000000000000ad9fc4039bec75d97cfd385a7ecddd4bce4b7854",
              "blockHash": "0xb29477508c3349cc655dbf239b884cc488bfae7bff31f3006ca122d6d5e83b36",
              "blockNumber": "0x395eda",
              "transactionHash": "0x226228a9f76c8630c9ae1ac446c98a905672e3d941a8544c984f599663f2b8a5",
              "transactionIndex": "0x2",
              "logIndex": "0x2",
              "removed": false
            }
          ],
          "logsBloom": "0x00000000000000000000000000000000000000000000000000000000000000000000000000000000000000000000000000000000000000000800000000000000000000000000000000000000000000000400000000000000000000000000000000000000000000000000000000000000000000000000000000000000000000000000000000000000000000000000000000000008000000000000000000000000000000000000000000000000000000000000000000000000000002000000000000000000000000000000000000000000000000000000000800040000000000000000000000000000000000000000000000000000000000000000000000000000",
          "type": "0x2",
          "transactionHash": "0x226228a9f76c8630c9ae1ac446c98a905672e3d941a8544c984f599663f2b8a5",
          "transactionIndex": "0x2",
          "blockHash": "0xb29477508c3349cc655dbf239b884cc488bfae7bff31f3006ca122d6d5e83b36",
          "blockNumber": "0x395eda",
          "gasUsed": "0xba5e",
          "effectiveGasPrice": "0x1dcd65000",
          "from": "0x64a822f980dc5f126215d75d11dd8114ed0bdb5f",
          "to": "0xad9fc4039bec75d97cfd385a7ecddd4bce4b7854",
          "contractAddress": null
        },
        {
          "status": "0x1",
          "cumulativeGasUsed": "0x2e978",
          "logs": [
            {
              "address": "0xad9fc4039bec75d97cfd385a7ecddd4bce4b7854",
              "topics": [
                "0x238399d427b947898edb290f5ff0f9109849b1c3ba196a42e35f00c50a54b98b"
              ],
              "data": "0x0000000000000000000000000000000000000000000000000000000000009d71000000000000000000000000ad9fc4039bec75d97cfd385a7ecddd4bce4b7854",
              "blockHash": "0xb29477508c3349cc655dbf239b884cc488bfae7bff31f3006ca122d6d5e83b36",
              "blockNumber": "0x395eda",
              "transactionHash": "0x70669e4bd25b29aeee394065eb2f234f5de4247d152449635533e27bc1a83a42",
              "transactionIndex": "0x3",
              "logIndex": "0x3",
              "removed": false
            }
          ],
          "logsBloom": "0x00000000000000000000000000000000000000000000000000000000000000000000000000000000000000000000000000000000000000000800000000000000000000000000000000000000000000000400000000000000000000000000000000000000000000000000000000000000000000000000000000000000000000000000000000000000000000000000000000000008000000000000000000000000000000000000000000000000000000000000000000000000000002000000000000000000000000000000000000000000000000000000000800040000000000000000000000000000000000000000000000000000000000000000000000000000",
          "type": "0x2",
          "transactionHash": "0x70669e4bd25b29aeee394065eb2f234f5de4247d152449635533e27bc1a83a42",
          "transactionIndex": "0x3",
          "blockHash": "0xb29477508c3349cc655dbf239b884cc488bfae7bff31f3006ca122d6d5e83b36",
          "blockNumber": "0x395eda",
          "gasUsed": "0xba5e",
          "effectiveGasPrice": "0x1dcd65000",
          "from": "0x64a822f980dc5f126215d75d11dd8114ed0bdb5f",
          "to": "0xad9fc4039bec75d97cfd385a7ecddd4bce4b7854",
          "contractAddress": null
        },
        {
          "status": "0x1",
          "cumulativeGasUsed": "0x3a3d6",
          "logs": [
            {
              "address": "0xad9fc4039bec75d97cfd385a7ecddd4bce4b7854",
              "topics": [
                "0x238399d427b947898edb290f5ff0f9109849b1c3ba196a42e35f00c50a54b98b"
              ],
              "data": "0x0000000000000000000000000000000000000000000000000000000000009ce1000000000000000000000000ad9fc4039bec75d97cfd385a7ecddd4bce4b7854",
              "blockHash": "0xb29477508c3349cc655dbf239b884cc488bfae7bff31f3006ca122d6d5e83b36",
              "blockNumber": "0x395eda",
              "transactionHash": "0x6b8bd91fbc52bfb5ab860b7bde9a422dd79a07153ba768ee00929dbd8bc4e537",
              "transactionIndex": "0x4",
              "logIndex": "0x4",
              "removed": false
            }
          ],
          "logsBloom": "0x00000000000000000000000000000000000000000000000000000000000000000000000000000000000000000000000000000000000000000800000000000000000000000000000000000000000000000400000000000000000000000000000000000000000000000000000000000000000000000000000000000000000000000000000000000000000000000000000000000008000000000000000000000000000000000000000000000000000000000000000000000000000002000000000000000000000000000000000000000000000000000000000800040000000000000000000000000000000000000000000000000000000000000000000000000000",
          "type": "0x2",
          "transactionHash": "0x6b8bd91fbc52bfb5ab860b7bde9a422dd79a07153ba768ee00929dbd8bc4e537",
          "transactionIndex": "0x4",
          "blockHash": "0xb29477508c3349cc655dbf239b884cc488bfae7bff31f3006ca122d6d5e83b36",
          "blockNumber": "0x395eda",
          "gasUsed": "0xba5e",
          "effectiveGasPrice": "0x1dcd65000",
          "from": "0x64a822f980dc5f126215d75d11dd8114ed0bdb5f",
          "to": "0xad9fc4039bec75d97cfd385a7ecddd4bce4b7854",
          "contractAddress": null
        },
        {
          "status": "0x1",
          "cumulativeGasUsed": "0x70b2",
          "logs": [],
          "logsBloom": "0x00000000000000000000000000000000000000000000000000000000000000000000000000000000000000000000000000000000000000000000000000000000000000000000000000000000000000000000000000000000000000000000000000000000000000000000000000000000000000000000000000000000000000000000000000000000000000000000000000000000000000000000000000000000000000000000000000000000000000000000000000000000000000000000000000000000000000000000000000000000000000000000000000000000000000000000000000000000000000000000000000000000000000000000000000000000",
          "type": "0x2",
          "transactionHash": "0xb733f33e22df39753d5eef322d9c6f92c204ff9a26051e503d1cd89eae8db73d",
          "transactionIndex": "0x0",
          "blockHash": "0xfdfd0ae1037dcb32524f6e8785e9670bed19034d2c47d052f7a9c5f0a3a068e4",
          "blockNumber": "0x395edb",
          "gasUsed": "0x70b2",
          "effectiveGasPrice": "0x1dcd65000",
          "from": "0x64a822f980dc5f126215d75d11dd8114ed0bdb5f",
          "to": "0xad9fc4039bec75d97cfd385a7ecddd4bce4b7854",
          "contractAddress": null
        }
      ],
      "libraries": [],
      "pending": [],
      "returns": {},
      "timestamp": 1725614334,
      "chain": 59141,
      "commit": "1d1fc8c"
    }
  ],
  "timestamp": 1725614370
}