{
  "deployments": [
    {
      "transactions": [
        {
          "hash": "0xd18713ba6f15d810ae33e22e16e26a21efad980073c4ed715bd681c59fd3ccb9",
          "transactionType": "CALL",
          "contractName": null,
          "contractAddress": "0x9ccd0a438e7938e3539d83c0e29326353f50338d",
          "function": "setPeer(uint32,bytes32)",
          "arguments": [
            "40232",
            "0x00000000000000000000000007040be54ddbd74b0f4cf4a40a4b3ef4ca5217fe"
          ],
          "transaction": {
            "from": "0x64a822f980dc5f126215d75d11dd8114ed0bdb5f",
            "to": "0x9ccd0a438e7938e3539d83c0e29326353f50338d",
            "gas": "0x9e5d",
            "value": "0x0",
            "input": "0x3400288b0000000000000000000000000000000000000000000000000000000000009d2800000000000000000000000007040be54ddbd74b0f4cf4a40a4b3ef4ca5217fe",
            "nonce": "0xea",
            "chainId": "0x14a34"
          },
          "additionalContracts": [],
          "isFixedGasLimit": false
        }
      ],
      "receipts": [
        {
          "status": "0x1",
          "cumulativeGasUsed": "0x22b82a",
          "logs": [
            {
              "address": "0x9ccd0a438e7938e3539d83c0e29326353f50338d",
              "topics": [
                "0x238399d427b947898edb290f5ff0f9109849b1c3ba196a42e35f00c50a54b98b"
              ],
              "data": "0x0000000000000000000000000000000000000000000000000000000000009d2800000000000000000000000007040be54ddbd74b0f4cf4a40a4b3ef4ca5217fe",
              "blockHash": "0xdbc0e0d54a20e84a976eafe32172e9748890baeb55f3f1ed1abb9562c37f8807",
              "blockNumber": "0xdfd6b9",
              "transactionHash": "0xd18713ba6f15d810ae33e22e16e26a21efad980073c4ed715bd681c59fd3ccb9",
              "transactionIndex": "0x8",
              "logIndex": "0x2d",
              "removed": false
            }
          ],
          "logsBloom": "0x00000000000000000000000000000000000000000000000000000000000000000000000000000000000000000000000000000000000000000800000000000000000000000000000000000000000000000000000000000000000000000000000000000000000000000000004000000000000000000000000000000010000000000000000000000000000000000000000000000000000000000000000000000000000000000000000000000000000000000000000000000000000002000000000000000000000000000000000000000000000000000000000000040000000000000000000000000000000000000000020000000000000000000000000000000000",
          "type": "0x2",
          "transactionHash": "0xd18713ba6f15d810ae33e22e16e26a21efad980073c4ed715bd681c59fd3ccb9",
          "transactionIndex": "0x8",
          "blockHash": "0xdbc0e0d54a20e84a976eafe32172e9748890baeb55f3f1ed1abb9562c37f8807",
          "blockNumber": "0xdfd6b9",
          "gasUsed": "0x6c49",
          "effectiveGasPrice": "0x676",
          "from": "0x64a822f980dc5f126215d75d11dd8114ed0bdb5f",
          "to": "0x9ccd0a438e7938e3539d83c0e29326353f50338d",
          "contractAddress": null,
          "l1BaseFeeScalar": "0x44d",
          "l1BlobBaseFee": "0x10ebc90eff",
          "l1BlobBaseFeeScalar": "0xa118b",
          "l1Fee": "0x45e39f7262e",
          "l1GasPrice": "0xf59d2ec9",
          "l1GasUsed": "0x640"
        }
      ],
      "libraries": [],
      "pending": [],
      "returns": {},
      "timestamp": 1725107277,
      "chain": 84532,
      "commit": "ef3e872"
    },
    {
      "transactions": [
        {
          "hash": "0x4708920e5028dc1fd9b638b1bc5799938b9063780925e0b93300a54f3a5150a1",
          "transactionType": "CALL",
          "contractName": null,
          "contractAddress": "0x07040be54ddbd74b0f4cf4a40a4b3ef4ca5217fe",
          "function": "setPeer(uint32,bytes32)",
          "arguments": [
            "40245",
            "0x0000000000000000000000009ccd0a438e7938e3539d83c0e29326353f50338d"
          ],
          "transaction": {
            "from": "0x64a822f980dc5f126215d75d11dd8114ed0bdb5f",
            "to": "0x07040be54ddbd74b0f4cf4a40a4b3ef4ca5217fe",
            "gas": "0x9e5d",
            "value": "0x0",
            "input": "0x3400288b0000000000000000000000000000000000000000000000000000000000009d350000000000000000000000009ccd0a438e7938e3539d83c0e29326353f50338d",
            "nonce": "0x70",
            "chainId": "0xaa37dc"
          },
          "additionalContracts": [],
          "isFixedGasLimit": false
        }
      ],
      "receipts": [
        {
          "status": "0x1",
          "cumulativeGasUsed": "0x26cac3",
          "logs": [
            {
              "address": "0x07040be54ddbd74b0f4cf4a40a4b3ef4ca5217fe",
              "topics": [
                "0x238399d427b947898edb290f5ff0f9109849b1c3ba196a42e35f00c50a54b98b"
              ],
              "data": "0x0000000000000000000000000000000000000000000000000000000000009d350000000000000000000000009ccd0a438e7938e3539d83c0e29326353f50338d",
              "blockHash": "0xc455578a9ec6b363576f4caa059fac043ba2f9f749f12fe5fedacf5e5100fc8b",
              "blockNumber": "0xfe1857",
              "transactionHash": "0x4708920e5028dc1fd9b638b1bc5799938b9063780925e0b93300a54f3a5150a1",
              "transactionIndex": "0x4",
              "logIndex": "0x34",
              "removed": false
            }
          ],
          "logsBloom": "0x00000000000000000000000000000000000000000000000000000000000000000000000000000000000000000000000000000800000000000800000000000000000000000000000000000000000000000000000000000000000000000000000002000000000000000000000000000000000000000000000000000000000000000000000000000000000000000000000000000000000000000000000000000000000000000000000000000000000000000000000000000000000002000000000000000000000000000000000000000000000000000800000000040000000000000000000000000000000000000000000000000000000000000000000000000000",
          "type": "0x2",
          "transactionHash": "0x4708920e5028dc1fd9b638b1bc5799938b9063780925e0b93300a54f3a5150a1",
          "transactionIndex": "0x4",
          "blockHash": "0xc455578a9ec6b363576f4caa059fac043ba2f9f749f12fe5fedacf5e5100fc8b",
          "blockNumber": "0xfe1857",
          "gasUsed": "0x6c49",
          "effectiveGasPrice": "0xf6aa8",
          "from": "0x64a822f980dc5f126215d75d11dd8114ed0bdb5f",
          "to": "0x07040be54ddbd74b0f4cf4a40a4b3ef4ca5217fe",
          "contractAddress": null,
          "l1BaseFeeScalar": "0x1db0",
          "l1BlobBaseFee": "0x156a6a80b8",
          "l1BlobBaseFeeScalar": "0xd2730",
          "l1Fee": "0x74279a27097",
          "l1GasPrice": "0x105f47c2a",
          "l1GasUsed": "0x640"
        }
      ],
      "libraries": [],
      "pending": [],
      "returns": {},
      "timestamp": 1725107278,
      "chain": 11155420,
      "commit": "ef3e872"
    }
  ],
  "timestamp": 1725107297
}