{
  "deployments": [
    {
      "transactions": [
        {
          "hash": "0xc8a68526f6ac06fc0fe4d2a5462e0445bd9f1d930423b9b6d0584e1354bd3945",
          "transactionType": "CALL",
          "contractName": null,
          "contractAddress": "0x57e56f6902c0273ef0694391998a860ea56cd7af",
          "function": "setPeer(uint32,bytes32)",
          "arguments": [
            "40232",
            "0x00000000000000000000000057e56f6902c0273ef0694391998a860ea56cd7af"
          ],
          "transaction": {
            "from": "0x64a822f980dc5f126215d75d11dd8114ed0bdb5f",
            "to": "0x57e56f6902c0273ef0694391998a860ea56cd7af",
            "gas": "0x1014c",
            "value": "0x0",
            "input": "0x3400288b0000000000000000000000000000000000000000000000000000000000009d2800000000000000000000000057e56f6902c0273ef0694391998a860ea56cd7af",
            "nonce": "0x1dc",
            "chainId": "0x14a34"
          },
          "additionalContracts": [],
          "isFixedGasLimit": false
        },
        {
          "hash": "0xde4f4bfd4e9e5043f7f334942af16485ae1e4bbe3c08fefa7f2f29973ef550ce",
          "transactionType": "CALL",
          "contractName": null,
          "contractAddress": "0x57e56f6902c0273ef0694391998a860ea56cd7af",
          "function": "setPeer(uint32,bytes32)",
          "arguments": [
            "40231",
            "0x00000000000000000000000057e56f6902c0273ef0694391998a860ea56cd7af"
          ],
          "transaction": {
            "from": "0x64a822f980dc5f126215d75d11dd8114ed0bdb5f",
            "to": "0x57e56f6902c0273ef0694391998a860ea56cd7af",
            "gas": "0x1014c",
            "value": "0x0",
            "input": "0x3400288b0000000000000000000000000000000000000000000000000000000000009d2700000000000000000000000057e56f6902c0273ef0694391998a860ea56cd7af",
            "nonce": "0x1dd",
            "chainId": "0x14a34"
          },
          "additionalContracts": [],
          "isFixedGasLimit": false
        },
        {
          "hash": "0x07688c952a4d195526cbda111450b590cc2fa689ac8d88e99faa76313ef82f4a",
          "transactionType": "CALL",
          "contractName": null,
          "contractAddress": "0x57e56f6902c0273ef0694391998a860ea56cd7af",
          "function": "setPeer(uint32,bytes32)",
          "arguments": [
            "40305",
            "0x00000000000000000000000057e56f6902c0273ef0694391998a860ea56cd7af"
          ],
          "transaction": {
            "from": "0x64a822f980dc5f126215d75d11dd8114ed0bdb5f",
            "to": "0x57e56f6902c0273ef0694391998a860ea56cd7af",
            "gas": "0x1014c",
            "value": "0x0",
            "input": "0x3400288b0000000000000000000000000000000000000000000000000000000000009d7100000000000000000000000057e56f6902c0273ef0694391998a860ea56cd7af",
            "nonce": "0x1de",
            "chainId": "0x14a34"
          },
          "additionalContracts": [],
          "isFixedGasLimit": false
        },
        {
          "hash": "0x8453726b30aaff26e807121fea80b2fbce12071dbbab272a72dc03ad7005a7b8",
          "transactionType": "CALL",
          "contractName": null,
          "contractAddress": "0x57e56f6902c0273ef0694391998a860ea56cd7af",
          "function": "setPeer(uint32,bytes32)",
          "arguments": [
            "40287",
            "0x00000000000000000000000057e56f6902c0273ef0694391998a860ea56cd7af"
          ],
          "transaction": {
            "from": "0x64a822f980dc5f126215d75d11dd8114ed0bdb5f",
            "to": "0x57e56f6902c0273ef0694391998a860ea56cd7af",
            "gas": "0x1014c",
            "value": "0x0",
            "input": "0x3400288b0000000000000000000000000000000000000000000000000000000000009d5f00000000000000000000000057e56f6902c0273ef0694391998a860ea56cd7af",
            "nonce": "0x1df",
            "chainId": "0x14a34"
          },
          "additionalContracts": [],
          "isFixedGasLimit": false
        },
        {
          "hash": "0x81345d5afaca540f022bc4e70d500e8de8bbc76336d9c64ca26cba107f2ea4c2",
          "transactionType": "CALL",
          "contractName": null,
          "contractAddress": "0x57e56f6902c0273ef0694391998a860ea56cd7af",
          "function": "setPeer(uint32,bytes32)",
          "arguments": [
            "40161",
            "0x00000000000000000000000057e56f6902c0273ef0694391998a860ea56cd7af"
          ],
          "transaction": {
            "from": "0x64a822f980dc5f126215d75d11dd8114ed0bdb5f",
            "to": "0x57e56f6902c0273ef0694391998a860ea56cd7af",
            "gas": "0x1014c",
            "value": "0x0",
            "input": "0x3400288b0000000000000000000000000000000000000000000000000000000000009ce100000000000000000000000057e56f6902c0273ef0694391998a860ea56cd7af",
            "nonce": "0x1e0",
            "chainId": "0x14a34"
          },
          "additionalContracts": [],
          "isFixedGasLimit": false
        }
      ],
      "receipts": [
        {
          "status": "0x1",
          "cumulativeGasUsed": "0x145588",
          "logs": [
            {
              "address": "0x57e56f6902c0273ef0694391998a860ea56cd7af",
              "topics": [
                "0x238399d427b947898edb290f5ff0f9109849b1c3ba196a42e35f00c50a54b98b"
              ],
              "data": "0x0000000000000000000000000000000000000000000000000000000000009d2800000000000000000000000057e56f6902c0273ef0694391998a860ea56cd7af",
              "blockHash": "0x6290f78eb17debdc04cf1dfc1ff73e7bf8515055dc57e1017c91883a451ad587",
              "blockNumber": "0xe31de0",
              "transactionHash": "0xc8a68526f6ac06fc0fe4d2a5462e0445bd9f1d930423b9b6d0584e1354bd3945",
              "transactionIndex": "0x9",
              "logIndex": "0x1d",
              "removed": false
            }
          ],
          "logsBloom": "0x00000000000000000000000000000000000000000000000000000000000000000000000000000000000000000000000000000000000000000800000000000000000000000000000000000000000000000000000000000000000000000000000000000000000000000000000000000000000000000000000000000000000000000000000000000000000000000000000000000000000000000000000000000004000000000000000000000000000000000000000000000000200002000000000000000000000000800000000000000000000000000000000000040000000000000000000000000000000000000000000000000000000000000000000000000000",
          "type": "0x2",
          "transactionHash": "0xc8a68526f6ac06fc0fe4d2a5462e0445bd9f1d930423b9b6d0584e1354bd3945",
          "transactionIndex": "0x9",
          "blockHash": "0x6290f78eb17debdc04cf1dfc1ff73e7bf8515055dc57e1017c91883a451ad587",
          "blockNumber": "0xe31de0",
          "gasUsed": "0xba48",
          "effectiveGasPrice": "0x86582",
          "from": "0x64a822f980dc5f126215d75d11dd8114ed0bdb5f",
          "to": "0x57e56f6902c0273ef0694391998a860ea56cd7af",
          "contractAddress": null,
          "l1BaseFeeScalar": "0x44d",
          "l1BlobBaseFee": "0x11dd11520ad",
          "l1BlobBaseFeeScalar": "0xa118b",
          "l1Fee": "0x49c3ee8dc032",
          "l1GasPrice": "0xdc95cf580",
          "l1GasUsed": "0x640"
        },
        {
          "status": "0x1",
          "cumulativeGasUsed": "0xe13e3",
          "logs": [
            {
              "address": "0x57e56f6902c0273ef0694391998a860ea56cd7af",
              "topics": [
                "0x238399d427b947898edb290f5ff0f9109849b1c3ba196a42e35f00c50a54b98b"
              ],
              "data": "0x0000000000000000000000000000000000000000000000000000000000009d2700000000000000000000000057e56f6902c0273ef0694391998a860ea56cd7af",
              "blockHash": "0x3bdb7d436ea119fbb8fe8912653f5fecc311403a3dd8098811b10cf7ee8e3e70",
              "blockNumber": "0xe31de1",
              "transactionHash": "0xde4f4bfd4e9e5043f7f334942af16485ae1e4bbe3c08fefa7f2f29973ef550ce",
              "transactionIndex": "0x6",
              "logIndex": "0xa",
              "removed": false
            }
          ],
          "logsBloom": "0x00000000000000000000000000000000000000000000000000000000000000000000000000000000000000000000000000000000000000000800000000000000000000000000000000000000000000000000000000000000000000000000000000000000000000000000000000000000000000000000000000000000000000000000000000000000000000000000000000000000000000000000000000000004000000000000000000000000000000000000000000000000200002000000000000000000000000800000000000000000000000000000000000040000000000000000000000000000000000000000000000000000000000000000000000000000",
          "type": "0x2",
          "transactionHash": "0xde4f4bfd4e9e5043f7f334942af16485ae1e4bbe3c08fefa7f2f29973ef550ce",
          "transactionIndex": "0x6",
          "blockHash": "0x3bdb7d436ea119fbb8fe8912653f5fecc311403a3dd8098811b10cf7ee8e3e70",
          "blockNumber": "0xe31de1",
          "gasUsed": "0xba48",
          "effectiveGasPrice": "0x86582",
          "from": "0x64a822f980dc5f126215d75d11dd8114ed0bdb5f",
          "to": "0x57e56f6902c0273ef0694391998a860ea56cd7af",
          "contractAddress": null,
          "l1BaseFeeScalar": "0x44d",
          "l1BlobBaseFee": "0x11dd11520ad",
          "l1BlobBaseFeeScalar": "0xa118b",
          "l1Fee": "0x49c3ee8dc032",
          "l1GasPrice": "0xdc95cf580",
          "l1GasUsed": "0x640"
        },
        {
          "status": "0x1",
          "cumulativeGasUsed": "0xece2b",
          "logs": [
            {
              "address": "0x57e56f6902c0273ef0694391998a860ea56cd7af",
              "topics": [
                "0x238399d427b947898edb290f5ff0f9109849b1c3ba196a42e35f00c50a54b98b"
              ],
              "data": "0x0000000000000000000000000000000000000000000000000000000000009d7100000000000000000000000057e56f6902c0273ef0694391998a860ea56cd7af",
              "blockHash": "0x3bdb7d436ea119fbb8fe8912653f5fecc311403a3dd8098811b10cf7ee8e3e70",
              "blockNumber": "0xe31de1",
              "transactionHash": "0x07688c952a4d195526cbda111450b590cc2fa689ac8d88e99faa76313ef82f4a",
              "transactionIndex": "0x7",
              "logIndex": "0xb",
              "removed": false
            }
          ],
          "logsBloom": "0x00000000000000000000000000000000000000000000000000000000000000000000000000000000000000000000000000000000000000000800000000000000000000000000000000000000000000000000000000000000000000000000000000000000000000000000000000000000000000000000000000000000000000000000000000000000000000000000000000000000000000000000000000000004000000000000000000000000000000000000000000000000200002000000000000000000000000800000000000000000000000000000000000040000000000000000000000000000000000000000000000000000000000000000000000000000",
          "type": "0x2",
          "transactionHash": "0x07688c952a4d195526cbda111450b590cc2fa689ac8d88e99faa76313ef82f4a",
          "transactionIndex": "0x7",
          "blockHash": "0x3bdb7d436ea119fbb8fe8912653f5fecc311403a3dd8098811b10cf7ee8e3e70",
          "blockNumber": "0xe31de1",
          "gasUsed": "0xba48",
          "effectiveGasPrice": "0x86582",
          "from": "0x64a822f980dc5f126215d75d11dd8114ed0bdb5f",
          "to": "0x57e56f6902c0273ef0694391998a860ea56cd7af",
          "contractAddress": null,
          "l1BaseFeeScalar": "0x44d",
          "l1BlobBaseFee": "0x11dd11520ad",
          "l1BlobBaseFeeScalar": "0xa118b",
          "l1Fee": "0x49c3ee8dc032",
          "l1GasPrice": "0xdc95cf580",
          "l1GasUsed": "0x640"
        },
        {
          "status": "0x1",
          "cumulativeGasUsed": "0xf8873",
          "logs": [
            {
              "address": "0x57e56f6902c0273ef0694391998a860ea56cd7af",
              "topics": [
                "0x238399d427b947898edb290f5ff0f9109849b1c3ba196a42e35f00c50a54b98b"
              ],
              "data": "0x0000000000000000000000000000000000000000000000000000000000009d5f00000000000000000000000057e56f6902c0273ef0694391998a860ea56cd7af",
              "blockHash": "0x3bdb7d436ea119fbb8fe8912653f5fecc311403a3dd8098811b10cf7ee8e3e70",
              "blockNumber": "0xe31de1",
              "transactionHash": "0x8453726b30aaff26e807121fea80b2fbce12071dbbab272a72dc03ad7005a7b8",
              "transactionIndex": "0x8",
              "logIndex": "0xc",
              "removed": false
            }
          ],
          "logsBloom": "0x00000000000000000000000000000000000000000000000000000000000000000000000000000000000000000000000000000000000000000800000000000000000000000000000000000000000000000000000000000000000000000000000000000000000000000000000000000000000000000000000000000000000000000000000000000000000000000000000000000000000000000000000000000004000000000000000000000000000000000000000000000000200002000000000000000000000000800000000000000000000000000000000000040000000000000000000000000000000000000000000000000000000000000000000000000000",
          "type": "0x2",
          "transactionHash": "0x8453726b30aaff26e807121fea80b2fbce12071dbbab272a72dc03ad7005a7b8",
          "transactionIndex": "0x8",
          "blockHash": "0x3bdb7d436ea119fbb8fe8912653f5fecc311403a3dd8098811b10cf7ee8e3e70",
          "blockNumber": "0xe31de1",
          "gasUsed": "0xba48",
          "effectiveGasPrice": "0x86582",
          "from": "0x64a822f980dc5f126215d75d11dd8114ed0bdb5f",
          "to": "0x57e56f6902c0273ef0694391998a860ea56cd7af",
          "contractAddress": null,
          "l1BaseFeeScalar": "0x44d",
          "l1BlobBaseFee": "0x11dd11520ad",
          "l1BlobBaseFeeScalar": "0xa118b",
          "l1Fee": "0x49c3ee8dc032",
          "l1GasPrice": "0xdc95cf580",
          "l1GasUsed": "0x640"
        },
        {
          "status": "0x1",
          "cumulativeGasUsed": "0x1042bb",
          "logs": [
            {
              "address": "0x57e56f6902c0273ef0694391998a860ea56cd7af",
              "topics": [
                "0x238399d427b947898edb290f5ff0f9109849b1c3ba196a42e35f00c50a54b98b"
              ],
              "data": "0x0000000000000000000000000000000000000000000000000000000000009ce100000000000000000000000057e56f6902c0273ef0694391998a860ea56cd7af",
              "blockHash": "0x3bdb7d436ea119fbb8fe8912653f5fecc311403a3dd8098811b10cf7ee8e3e70",
              "blockNumber": "0xe31de1",
              "transactionHash": "0x81345d5afaca540f022bc4e70d500e8de8bbc76336d9c64ca26cba107f2ea4c2",
              "transactionIndex": "0x9",
              "logIndex": "0xd",
              "removed": false
            }
          ],
          "logsBloom": "0x00000000000000000000000000000000000000000000000000000000000000000000000000000000000000000000000000000000000000000800000000000000000000000000000000000000000000000000000000000000000000000000000000000000000000000000000000000000000000000000000000000000000000000000000000000000000000000000000000000000000000000000000000000004000000000000000000000000000000000000000000000000200002000000000000000000000000800000000000000000000000000000000000040000000000000000000000000000000000000000000000000000000000000000000000000000",
          "type": "0x2",
          "transactionHash": "0x81345d5afaca540f022bc4e70d500e8de8bbc76336d9c64ca26cba107f2ea4c2",
          "transactionIndex": "0x9",
          "blockHash": "0x3bdb7d436ea119fbb8fe8912653f5fecc311403a3dd8098811b10cf7ee8e3e70",
          "blockNumber": "0xe31de1",
          "gasUsed": "0xba48",
          "effectiveGasPrice": "0x86582",
          "from": "0x64a822f980dc5f126215d75d11dd8114ed0bdb5f",
          "to": "0x57e56f6902c0273ef0694391998a860ea56cd7af",
          "contractAddress": null,
          "l1BaseFeeScalar": "0x44d",
          "l1BlobBaseFee": "0x11dd11520ad",
          "l1BlobBaseFeeScalar": "0xa118b",
          "l1Fee": "0x49c3ee8dc032",
          "l1GasPrice": "0xdc95cf580",
          "l1GasUsed": "0x640"
        }
      ],
      "libraries": [],
      "pending": [],
      "returns": {},
      "timestamp": 1725536915,
      "chain": 84532,
      "commit": "3db11dc"
    },
    {
      "transactions": [
        {
          "hash": "0x2de99e579cbdabce4bef3be53b88f29abbb43f88e7f47200b9c2ceaf1ea12bd1",
          "transactionType": "CALL",
          "contractName": null,
          "contractAddress": "0x57e56f6902c0273ef0694391998a860ea56cd7af",
          "function": "setPeer(uint32,bytes32)",
          "arguments": [
            "40245",
            "0x00000000000000000000000057e56f6902c0273ef0694391998a860ea56cd7af"
          ],
          "transaction": {
            "from": "0x64a822f980dc5f126215d75d11dd8114ed0bdb5f",
            "to": "0x57e56f6902c0273ef0694391998a860ea56cd7af",
            "gas": "0x1014c",
            "value": "0x0",
            "input": "0x3400288b0000000000000000000000000000000000000000000000000000000000009d3500000000000000000000000057e56f6902c0273ef0694391998a860ea56cd7af",
            "nonce": "0x111",
            "chainId": "0xaa37dc"
          },
          "additionalContracts": [],
          "isFixedGasLimit": false
        },
        {
          "hash": "0x6010259dc6aa931bce68a5a4f84538c7e6011c51338dfa4738ad6b1861b13862",
          "transactionType": "CALL",
          "contractName": null,
          "contractAddress": "0x57e56f6902c0273ef0694391998a860ea56cd7af",
          "function": "setPeer(uint32,bytes32)",
          "arguments": [
            "40231",
            "0x00000000000000000000000057e56f6902c0273ef0694391998a860ea56cd7af"
          ],
          "transaction": {
            "from": "0x64a822f980dc5f126215d75d11dd8114ed0bdb5f",
            "to": "0x57e56f6902c0273ef0694391998a860ea56cd7af",
            "gas": "0x1014c",
            "value": "0x0",
            "input": "0x3400288b0000000000000000000000000000000000000000000000000000000000009d2700000000000000000000000057e56f6902c0273ef0694391998a860ea56cd7af",
            "nonce": "0x112",
            "chainId": "0xaa37dc"
          },
          "additionalContracts": [],
          "isFixedGasLimit": false
        },
        {
          "hash": "0x71fe5280599eacf7cdf5a0460633be9a60d67978a69425b9b4adf09ab3ca4b07",
          "transactionType": "CALL",
          "contractName": null,
          "contractAddress": "0x57e56f6902c0273ef0694391998a860ea56cd7af",
          "function": "setPeer(uint32,bytes32)",
          "arguments": [
            "40305",
            "0x00000000000000000000000057e56f6902c0273ef0694391998a860ea56cd7af"
          ],
          "transaction": {
            "from": "0x64a822f980dc5f126215d75d11dd8114ed0bdb5f",
            "to": "0x57e56f6902c0273ef0694391998a860ea56cd7af",
            "gas": "0x1014c",
            "value": "0x0",
            "input": "0x3400288b0000000000000000000000000000000000000000000000000000000000009d7100000000000000000000000057e56f6902c0273ef0694391998a860ea56cd7af",
            "nonce": "0x113",
            "chainId": "0xaa37dc"
          },
          "additionalContracts": [],
          "isFixedGasLimit": false
        },
        {
          "hash": "0x3c8ec2a1e6e58e61d854ebd03d4eab424d721a603f222f8507eea47208abd9f9",
          "transactionType": "CALL",
          "contractName": null,
          "contractAddress": "0x57e56f6902c0273ef0694391998a860ea56cd7af",
          "function": "setPeer(uint32,bytes32)",
          "arguments": [
            "40287",
            "0x00000000000000000000000057e56f6902c0273ef0694391998a860ea56cd7af"
          ],
          "transaction": {
            "from": "0x64a822f980dc5f126215d75d11dd8114ed0bdb5f",
            "to": "0x57e56f6902c0273ef0694391998a860ea56cd7af",
            "gas": "0x1014c",
            "value": "0x0",
            "input": "0x3400288b0000000000000000000000000000000000000000000000000000000000009d5f00000000000000000000000057e56f6902c0273ef0694391998a860ea56cd7af",
            "nonce": "0x114",
            "chainId": "0xaa37dc"
          },
          "additionalContracts": [],
          "isFixedGasLimit": false
        },
        {
          "hash": "0xf6be4426140f56e3e5b61e446775a235b4b6214a0ee1c80fb256acbcc65d3e68",
          "transactionType": "CALL",
          "contractName": null,
          "contractAddress": "0x57e56f6902c0273ef0694391998a860ea56cd7af",
          "function": "setPeer(uint32,bytes32)",
          "arguments": [
            "40161",
            "0x00000000000000000000000057e56f6902c0273ef0694391998a860ea56cd7af"
          ],
          "transaction": {
            "from": "0x64a822f980dc5f126215d75d11dd8114ed0bdb5f",
            "to": "0x57e56f6902c0273ef0694391998a860ea56cd7af",
            "gas": "0x1014c",
            "value": "0x0",
            "input": "0x3400288b0000000000000000000000000000000000000000000000000000000000009ce100000000000000000000000057e56f6902c0273ef0694391998a860ea56cd7af",
            "nonce": "0x115",
            "chainId": "0xaa37dc"
          },
          "additionalContracts": [],
          "isFixedGasLimit": false
        }
      ],
      "receipts": [
        {
          "status": "0x1",
          "cumulativeGasUsed": "0xefa28",
          "logs": [
            {
              "address": "0x57e56f6902c0273ef0694391998a860ea56cd7af",
              "topics": [
                "0x238399d427b947898edb290f5ff0f9109849b1c3ba196a42e35f00c50a54b98b"
              ],
              "data": "0x0000000000000000000000000000000000000000000000000000000000009d3500000000000000000000000057e56f6902c0273ef0694391998a860ea56cd7af",
              "blockHash": "0x7183db964473e6ba05c3254346363ddac1e3de150d2b4503707edcefae5d2926",
              "blockNumber": "0x1015f7f",
              "transactionHash": "0x2de99e579cbdabce4bef3be53b88f29abbb43f88e7f47200b9c2ceaf1ea12bd1",
              "transactionIndex": "0x2",
              "logIndex": "0x15",
              "removed": false
            }
          ],
          "logsBloom": "0x00000000000000000000000000000000000000000000000000000000000000000000000000000000000000000000000000000000000000000800000000000000000000000000000000000000000000000000000000000000000000000000000000000000000000000000000000000000000000000000000000000000000000000000000000000000000000000000000000000000000000000000000000000004000000000000000000000000000000000000000000000000200002000000000000000000000000800000000000000000000000000000000000040000000000000000000000000000000000000000000000000000000000000000000000000000",
          "type": "0x2",
          "transactionHash": "0x2de99e579cbdabce4bef3be53b88f29abbb43f88e7f47200b9c2ceaf1ea12bd1",
          "transactionIndex": "0x2",
          "blockHash": "0x7183db964473e6ba05c3254346363ddac1e3de150d2b4503707edcefae5d2926",
          "blockNumber": "0x1015f7f",
          "gasUsed": "0xba48",
          "effectiveGasPrice": "0x68e789d",
          "from": "0x64a822f980dc5f126215d75d11dd8114ed0bdb5f",
          "to": "0x57e56f6902c0273ef0694391998a860ea56cd7af",
          "contractAddress": null,
          "l1BaseFeeScalar": "0x1db0",
          "l1BlobBaseFee": "0x11dd11520ad",
          "l1BlobBaseFeeScalar": "0xd2730",
          "l1Fee": "0x611bb10a0c2c",
          "l1GasPrice": "0x1247c7b01b",
          "l1GasUsed": "0x640"
        },
        {
          "status": "0x1",
          "cumulativeGasUsed": "0xfb470",
          "logs": [
            {
              "address": "0x57e56f6902c0273ef0694391998a860ea56cd7af",
              "topics": [
                "0x238399d427b947898edb290f5ff0f9109849b1c3ba196a42e35f00c50a54b98b"
              ],
              "data": "0x0000000000000000000000000000000000000000000000000000000000009d2700000000000000000000000057e56f6902c0273ef0694391998a860ea56cd7af",
              "blockHash": "0x7183db964473e6ba05c3254346363ddac1e3de150d2b4503707edcefae5d2926",
              "blockNumber": "0x1015f7f",
              "transactionHash": "0x6010259dc6aa931bce68a5a4f84538c7e6011c51338dfa4738ad6b1861b13862",
              "transactionIndex": "0x3",
              "logIndex": "0x16",
              "removed": false
            }
          ],
          "logsBloom": "0x00000000000000000000000000000000000000000000000000000000000000000000000000000000000000000000000000000000000000000800000000000000000000000000000000000000000000000000000000000000000000000000000000000000000000000000000000000000000000000000000000000000000000000000000000000000000000000000000000000000000000000000000000000004000000000000000000000000000000000000000000000000200002000000000000000000000000800000000000000000000000000000000000040000000000000000000000000000000000000000000000000000000000000000000000000000",
          "type": "0x2",
          "transactionHash": "0x6010259dc6aa931bce68a5a4f84538c7e6011c51338dfa4738ad6b1861b13862",
          "transactionIndex": "0x3",
          "blockHash": "0x7183db964473e6ba05c3254346363ddac1e3de150d2b4503707edcefae5d2926",
          "blockNumber": "0x1015f7f",
          "gasUsed": "0xba48",
          "effectiveGasPrice": "0x68e789d",
          "from": "0x64a822f980dc5f126215d75d11dd8114ed0bdb5f",
          "to": "0x57e56f6902c0273ef0694391998a860ea56cd7af",
          "contractAddress": null,
          "l1BaseFeeScalar": "0x1db0",
          "l1BlobBaseFee": "0x11dd11520ad",
          "l1BlobBaseFeeScalar": "0xd2730",
          "l1Fee": "0x611bb10a0c2c",
          "l1GasPrice": "0x1247c7b01b",
          "l1GasUsed": "0x640"
        },
        {
          "status": "0x1",
          "cumulativeGasUsed": "0x110b7a",
          "logs": [
            {
              "address": "0x57e56f6902c0273ef0694391998a860ea56cd7af",
              "topics": [
                "0x238399d427b947898edb290f5ff0f9109849b1c3ba196a42e35f00c50a54b98b"
              ],
              "data": "0x0000000000000000000000000000000000000000000000000000000000009d7100000000000000000000000057e56f6902c0273ef0694391998a860ea56cd7af",
              "blockHash": "0xb87d5dee3854d70e146b652a7d0d66658cf668f40b6dd726e5b0891f4a43d725",
              "blockNumber": "0x1015f80",
              "transactionHash": "0x71fe5280599eacf7cdf5a0460633be9a60d67978a69425b9b4adf09ab3ca4b07",
              "transactionIndex": "0x2",
              "logIndex": "0x16",
              "removed": false
            }
          ],
          "logsBloom": "0x00000000000000000000000000000000000000000000000000000000000000000000000000000000000000000000000000000000000000000800000000000000000000000000000000000000000000000000000000000000000000000000000000000000000000000000000000000000000000000000000000000000000000000000000000000000000000000000000000000000000000000000000000000004000000000000000000000000000000000000000000000000200002000000000000000000000000800000000000000000000000000000000000040000000000000000000000000000000000000000000000000000000000000000000000000000",
          "type": "0x2",
          "transactionHash": "0x71fe5280599eacf7cdf5a0460633be9a60d67978a69425b9b4adf09ab3ca4b07",
          "transactionIndex": "0x2",
          "blockHash": "0xb87d5dee3854d70e146b652a7d0d66658cf668f40b6dd726e5b0891f4a43d725",
          "blockNumber": "0x1015f80",
          "gasUsed": "0xba48",
          "effectiveGasPrice": "0x68e789d",
          "from": "0x64a822f980dc5f126215d75d11dd8114ed0bdb5f",
          "to": "0x57e56f6902c0273ef0694391998a860ea56cd7af",
          "contractAddress": null,
          "l1BaseFeeScalar": "0x1db0",
          "l1BlobBaseFee": "0x11dd11520ad",
          "l1BlobBaseFeeScalar": "0xd2730",
          "l1Fee": "0x611bb10a0c2c",
          "l1GasPrice": "0x1247c7b01b",
          "l1GasUsed": "0x640"
        },
        {
          "status": "0x1",
          "cumulativeGasUsed": "0x11c5c2",
          "logs": [
            {
              "address": "0x57e56f6902c0273ef0694391998a860ea56cd7af",
              "topics": [
                "0x238399d427b947898edb290f5ff0f9109849b1c3ba196a42e35f00c50a54b98b"
              ],
              "data": "0x0000000000000000000000000000000000000000000000000000000000009d5f00000000000000000000000057e56f6902c0273ef0694391998a860ea56cd7af",
              "blockHash": "0xb87d5dee3854d70e146b652a7d0d66658cf668f40b6dd726e5b0891f4a43d725",
              "blockNumber": "0x1015f80",
              "transactionHash": "0x3c8ec2a1e6e58e61d854ebd03d4eab424d721a603f222f8507eea47208abd9f9",
              "transactionIndex": "0x3",
              "logIndex": "0x17",
              "removed": false
            }
          ],
          "logsBloom": "0x00000000000000000000000000000000000000000000000000000000000000000000000000000000000000000000000000000000000000000800000000000000000000000000000000000000000000000000000000000000000000000000000000000000000000000000000000000000000000000000000000000000000000000000000000000000000000000000000000000000000000000000000000000004000000000000000000000000000000000000000000000000200002000000000000000000000000800000000000000000000000000000000000040000000000000000000000000000000000000000000000000000000000000000000000000000",
          "type": "0x2",
          "transactionHash": "0x3c8ec2a1e6e58e61d854ebd03d4eab424d721a603f222f8507eea47208abd9f9",
          "transactionIndex": "0x3",
          "blockHash": "0xb87d5dee3854d70e146b652a7d0d66658cf668f40b6dd726e5b0891f4a43d725",
          "blockNumber": "0x1015f80",
          "gasUsed": "0xba48",
          "effectiveGasPrice": "0x68e789d",
          "from": "0x64a822f980dc5f126215d75d11dd8114ed0bdb5f",
          "to": "0x57e56f6902c0273ef0694391998a860ea56cd7af",
          "contractAddress": null,
          "l1BaseFeeScalar": "0x1db0",
          "l1BlobBaseFee": "0x11dd11520ad",
          "l1BlobBaseFeeScalar": "0xd2730",
          "l1Fee": "0x611bb10a0c2c",
          "l1GasPrice": "0x1247c7b01b",
          "l1GasUsed": "0x640"
        },
        {
          "status": "0x1",
          "cumulativeGasUsed": "0x12800a",
          "logs": [
            {
              "address": "0x57e56f6902c0273ef0694391998a860ea56cd7af",
              "topics": [
                "0x238399d427b947898edb290f5ff0f9109849b1c3ba196a42e35f00c50a54b98b"
              ],
              "data": "0x0000000000000000000000000000000000000000000000000000000000009ce100000000000000000000000057e56f6902c0273ef0694391998a860ea56cd7af",
              "blockHash": "0xb87d5dee3854d70e146b652a7d0d66658cf668f40b6dd726e5b0891f4a43d725",
              "blockNumber": "0x1015f80",
              "transactionHash": "0xf6be4426140f56e3e5b61e446775a235b4b6214a0ee1c80fb256acbcc65d3e68",
              "transactionIndex": "0x4",
              "logIndex": "0x18",
              "removed": false
            }
          ],
          "logsBloom": "0x00000000000000000000000000000000000000000000000000000000000000000000000000000000000000000000000000000000000000000800000000000000000000000000000000000000000000000000000000000000000000000000000000000000000000000000000000000000000000000000000000000000000000000000000000000000000000000000000000000000000000000000000000000004000000000000000000000000000000000000000000000000200002000000000000000000000000800000000000000000000000000000000000040000000000000000000000000000000000000000000000000000000000000000000000000000",
          "type": "0x2",
          "transactionHash": "0xf6be4426140f56e3e5b61e446775a235b4b6214a0ee1c80fb256acbcc65d3e68",
          "transactionIndex": "0x4",
          "blockHash": "0xb87d5dee3854d70e146b652a7d0d66658cf668f40b6dd726e5b0891f4a43d725",
          "blockNumber": "0x1015f80",
          "gasUsed": "0xba48",
          "effectiveGasPrice": "0x68e789d",
          "from": "0x64a822f980dc5f126215d75d11dd8114ed0bdb5f",
          "to": "0x57e56f6902c0273ef0694391998a860ea56cd7af",
          "contractAddress": null,
          "l1BaseFeeScalar": "0x1db0",
          "l1BlobBaseFee": "0x11dd11520ad",
          "l1BlobBaseFeeScalar": "0xd2730",
          "l1Fee": "0x611bb10a0c2c",
          "l1GasPrice": "0x1247c7b01b",
          "l1GasUsed": "0x640"
        }
      ],
      "libraries": [],
      "pending": [],
      "returns": {},
      "timestamp": 1725536915,
      "chain": 11155420,
      "commit": "3db11dc"
    },
    {
      "transactions": [
        {
          "hash": "0xb6f751c964fba957ac7335b05451c1387da44bc80f14285fb148bac5e3700370",
          "transactionType": "CALL",
          "contractName": null,
          "contractAddress": "0x57e56f6902c0273ef0694391998a860ea56cd7af",
          "function": "setPeer(uint32,bytes32)",
          "arguments": [
            "40245",
            "0x00000000000000000000000057e56f6902c0273ef0694391998a860ea56cd7af"
          ],
          "transaction": {
            "from": "0x64a822f980dc5f126215d75d11dd8114ed0bdb5f",
            "to": "0x57e56f6902c0273ef0694391998a860ea56cd7af",
            "gas": "0x5f949",
            "value": "0x0",
            "input": "0x3400288b0000000000000000000000000000000000000000000000000000000000009d3500000000000000000000000057e56f6902c0273ef0694391998a860ea56cd7af",
            "nonce": "0x45",
            "chainId": "0x66eee"
          },
          "additionalContracts": [],
          "isFixedGasLimit": false
        },
        {
          "hash": "0x038f7cb8f7cf976df67e8f5869e3ce8bf873a12fabade519d15690e540aa5a58",
          "transactionType": "CALL",
          "contractName": null,
          "contractAddress": "0x57e56f6902c0273ef0694391998a860ea56cd7af",
          "function": "setPeer(uint32,bytes32)",
          "arguments": [
            "40232",
            "0x00000000000000000000000057e56f6902c0273ef0694391998a860ea56cd7af"
          ],
          "transaction": {
            "from": "0x64a822f980dc5f126215d75d11dd8114ed0bdb5f",
            "to": "0x57e56f6902c0273ef0694391998a860ea56cd7af",
            "gas": "0x5f949",
            "value": "0x0",
            "input": "0x3400288b0000000000000000000000000000000000000000000000000000000000009d2800000000000000000000000057e56f6902c0273ef0694391998a860ea56cd7af",
            "nonce": "0x46",
            "chainId": "0x66eee"
          },
          "additionalContracts": [],
          "isFixedGasLimit": false
        },
        {
          "hash": "0x1f1a843aa73c9d67291f8255cb05e996383444632bd6cce5475879541adc6cef",
          "transactionType": "CALL",
          "contractName": null,
          "contractAddress": "0x57e56f6902c0273ef0694391998a860ea56cd7af",
          "function": "setPeer(uint32,bytes32)",
          "arguments": [
            "40305",
            "0x00000000000000000000000057e56f6902c0273ef0694391998a860ea56cd7af"
          ],
          "transaction": {
            "from": "0x64a822f980dc5f126215d75d11dd8114ed0bdb5f",
            "to": "0x57e56f6902c0273ef0694391998a860ea56cd7af",
            "gas": "0x5f949",
            "value": "0x0",
            "input": "0x3400288b0000000000000000000000000000000000000000000000000000000000009d7100000000000000000000000057e56f6902c0273ef0694391998a860ea56cd7af",
            "nonce": "0x47",
            "chainId": "0x66eee"
          },
          "additionalContracts": [],
          "isFixedGasLimit": false
        },
        {
          "hash": "0xc944a6e11e7e905a4e28a4204729456046dd49fd578da082419633d8909a93e8",
          "transactionType": "CALL",
          "contractName": null,
          "contractAddress": "0x57e56f6902c0273ef0694391998a860ea56cd7af",
          "function": "setPeer(uint32,bytes32)",
          "arguments": [
            "40287",
            "0x00000000000000000000000057e56f6902c0273ef0694391998a860ea56cd7af"
          ],
          "transaction": {
            "from": "0x64a822f980dc5f126215d75d11dd8114ed0bdb5f",
            "to": "0x57e56f6902c0273ef0694391998a860ea56cd7af",
            "gas": "0x5f949",
            "value": "0x0",
            "input": "0x3400288b0000000000000000000000000000000000000000000000000000000000009d5f00000000000000000000000057e56f6902c0273ef0694391998a860ea56cd7af",
            "nonce": "0x48",
            "chainId": "0x66eee"
          },
          "additionalContracts": [],
          "isFixedGasLimit": false
        },
        {
          "hash": "0x803140bd42ac3c5879049b47e1c87163a7b8d09d6b969ff9dfc2ff22c6321942",
          "transactionType": "CALL",
          "contractName": null,
          "contractAddress": "0x57e56f6902c0273ef0694391998a860ea56cd7af",
          "function": "setPeer(uint32,bytes32)",
          "arguments": [
            "40161",
            "0x00000000000000000000000057e56f6902c0273ef0694391998a860ea56cd7af"
          ],
          "transaction": {
            "from": "0x64a822f980dc5f126215d75d11dd8114ed0bdb5f",
            "to": "0x57e56f6902c0273ef0694391998a860ea56cd7af",
            "gas": "0x5f949",
            "value": "0x0",
            "input": "0x3400288b0000000000000000000000000000000000000000000000000000000000009ce100000000000000000000000057e56f6902c0273ef0694391998a860ea56cd7af",
            "nonce": "0x49",
            "chainId": "0x66eee"
          },
          "additionalContracts": [],
          "isFixedGasLimit": false
        }
      ],
      "receipts": [
        {
          "status": "0x1",
          "cumulativeGasUsed": "0x601e62",
          "logs": [
            {
              "address": "0x57e56f6902c0273ef0694391998a860ea56cd7af",
              "topics": [
                "0x238399d427b947898edb290f5ff0f9109849b1c3ba196a42e35f00c50a54b98b"
              ],
              "data": "0x0000000000000000000000000000000000000000000000000000000000009d3500000000000000000000000057e56f6902c0273ef0694391998a860ea56cd7af",
              "blockHash": "0xf47f9688e1b2695c411cccae2fe959f681c342dc30cc76b428c0c5c89f118f4e",
              "blockNumber": "0x49e4461",
              "transactionHash": "0xb6f751c964fba957ac7335b05451c1387da44bc80f14285fb148bac5e3700370",
              "transactionIndex": "0x3",
              "logIndex": "0x30",
              "removed": false
            }
          ],
          "logsBloom": "0x00000000000000000000000000000000000000000000000000000000000000000000000000000000000000000000000000000000000000000800000000000000000000000000000000000000000000000000000000000000000000000000000000000000000000000000000000000000000000000000000000000000000000000000000000000000000000000000000000000000000000000000000000000004000000000000000000000000000000000000000000000000200002000000000000000000000000800000000000000000000000000000000000040000000000000000000000000000000000000000000000000000000000000000000000000000",
          "type": "0x2",
          "transactionHash": "0xb6f751c964fba957ac7335b05451c1387da44bc80f14285fb148bac5e3700370",
          "transactionIndex": "0x3",
          "blockHash": "0xf47f9688e1b2695c411cccae2fe959f681c342dc30cc76b428c0c5c89f118f4e",
          "blockNumber": "0x49e4461",
          "gasUsed": "0x3b070",
          "effectiveGasPrice": "0x5f5e100",
          "from": "0x64a822f980dc5f126215d75d11dd8114ed0bdb5f",
          "to": "0x57e56f6902c0273ef0694391998a860ea56cd7af",
          "contractAddress": null,
          "gasUsedForL1": "0x2f628",
          "l1BlockNumber": "0x65463c"
        },
        {
          "status": "0x1",
          "cumulativeGasUsed": "0x3b070",
          "logs": [
            {
              "address": "0x57e56f6902c0273ef0694391998a860ea56cd7af",
              "topics": [
                "0x238399d427b947898edb290f5ff0f9109849b1c3ba196a42e35f00c50a54b98b"
              ],
              "data": "0x0000000000000000000000000000000000000000000000000000000000009d2800000000000000000000000057e56f6902c0273ef0694391998a860ea56cd7af",
              "blockHash": "0x4d0e722c57a77aabedcca78c43a2ca99f0a6a1141ad4f613981dccceb3d0f16b",
              "blockNumber": "0x49e4467",
              "transactionHash": "0x038f7cb8f7cf976df67e8f5869e3ce8bf873a12fabade519d15690e540aa5a58",
              "transactionIndex": "0x1",
              "logIndex": "0x0",
              "removed": false
            }
          ],
          "logsBloom": "0x00000000000000000000000000000000000000000000000000000000000000000000000000000000000000000000000000000000000000000800000000000000000000000000000000000000000000000000000000000000000000000000000000000000000000000000000000000000000000000000000000000000000000000000000000000000000000000000000000000000000000000000000000000004000000000000000000000000000000000000000000000000200002000000000000000000000000800000000000000000000000000000000000040000000000000000000000000000000000000000000000000000000000000000000000000000",
          "type": "0x2",
          "transactionHash": "0x038f7cb8f7cf976df67e8f5869e3ce8bf873a12fabade519d15690e540aa5a58",
          "transactionIndex": "0x1",
          "blockHash": "0x4d0e722c57a77aabedcca78c43a2ca99f0a6a1141ad4f613981dccceb3d0f16b",
          "blockNumber": "0x49e4467",
          "gasUsed": "0x3b070",
          "effectiveGasPrice": "0x5f5e100",
          "from": "0x64a822f980dc5f126215d75d11dd8114ed0bdb5f",
          "to": "0x57e56f6902c0273ef0694391998a860ea56cd7af",
          "contractAddress": null,
          "gasUsedForL1": "0x2f628",
          "l1BlockNumber": "0x65463c"
        },
        {
          "status": "0x1",
          "cumulativeGasUsed": "0xc9083",
          "logs": [
            {
              "address": "0x57e56f6902c0273ef0694391998a860ea56cd7af",
              "topics": [
                "0x238399d427b947898edb290f5ff0f9109849b1c3ba196a42e35f00c50a54b98b"
              ],
              "data": "0x0000000000000000000000000000000000000000000000000000000000009d7100000000000000000000000057e56f6902c0273ef0694391998a860ea56cd7af",
              "blockHash": "0xdc2777d823c2f3065e908776bddce3acc52f1a62dc98530b999b5cba3ab1dd98",
              "blockNumber": "0x49e446b",
              "transactionHash": "0x1f1a843aa73c9d67291f8255cb05e996383444632bd6cce5475879541adc6cef",
              "transactionIndex": "0x2",
              "logIndex": "0x3",
              "removed": false
            }
          ],
          "logsBloom": "0x00000000000000000000000000000000000000000000000000000000000000000000000000000000000000000000000000000000000000000800000000000000000000000000000000000000000000000000000000000000000000000000000000000000000000000000000000000000000000000000000000000000000000000000000000000000000000000000000000000000000000000000000000000004000000000000000000000000000000000000000000000000200002000000000000000000000000800000000000000000000000000000000000040000000000000000000000000000000000000000000000000000000000000000000000000000",
          "type": "0x2",
          "transactionHash": "0x1f1a843aa73c9d67291f8255cb05e996383444632bd6cce5475879541adc6cef",
          "transactionIndex": "0x2",
          "blockHash": "0xdc2777d823c2f3065e908776bddce3acc52f1a62dc98530b999b5cba3ab1dd98",
          "blockNumber": "0x49e446b",
          "gasUsed": "0x3b070",
          "effectiveGasPrice": "0x5f5e100",
          "from": "0x64a822f980dc5f126215d75d11dd8114ed0bdb5f",
          "to": "0x57e56f6902c0273ef0694391998a860ea56cd7af",
          "contractAddress": null,
          "gasUsedForL1": "0x2f628",
          "l1BlockNumber": "0x65463c"
        },
        {
          "status": "0x1",
          "cumulativeGasUsed": "0x3b070",
          "logs": [
            {
              "address": "0x57e56f6902c0273ef0694391998a860ea56cd7af",
              "topics": [
                "0x238399d427b947898edb290f5ff0f9109849b1c3ba196a42e35f00c50a54b98b"
              ],
              "data": "0x0000000000000000000000000000000000000000000000000000000000009d5f00000000000000000000000057e56f6902c0273ef0694391998a860ea56cd7af",
              "blockHash": "0x44081b5f9e3b434656854c3af3436c68b853dd2ec5ac36de9d4e7b767be65805",
              "blockNumber": "0x49e446f",
              "transactionHash": "0xc944a6e11e7e905a4e28a4204729456046dd49fd578da082419633d8909a93e8",
              "transactionIndex": "0x1",
              "logIndex": "0x0",
              "removed": false
            }
          ],
          "logsBloom": "0x00000000000000000000000000000000000000000000000000000000000000000000000000000000000000000000000000000000000000000800000000000000000000000000000000000000000000000000000000000000000000000000000000000000000000000000000000000000000000000000000000000000000000000000000000000000000000000000000000000000000000000000000000000004000000000000000000000000000000000000000000000000200002000000000000000000000000800000000000000000000000000000000000040000000000000000000000000000000000000000000000000000000000000000000000000000",
          "type": "0x2",
          "transactionHash": "0xc944a6e11e7e905a4e28a4204729456046dd49fd578da082419633d8909a93e8",
          "transactionIndex": "0x1",
          "blockHash": "0x44081b5f9e3b434656854c3af3436c68b853dd2ec5ac36de9d4e7b767be65805",
          "blockNumber": "0x49e446f",
          "gasUsed": "0x3b070",
          "effectiveGasPrice": "0x5f5e100",
          "from": "0x64a822f980dc5f126215d75d11dd8114ed0bdb5f",
          "to": "0x57e56f6902c0273ef0694391998a860ea56cd7af",
          "contractAddress": null,
          "gasUsedForL1": "0x2f628",
          "l1BlockNumber": "0x65463c"
        },
        {
          "status": "0x1",
          "cumulativeGasUsed": "0x3ca493",
          "logs": [
            {
              "address": "0x57e56f6902c0273ef0694391998a860ea56cd7af",
              "topics": [
                "0x238399d427b947898edb290f5ff0f9109849b1c3ba196a42e35f00c50a54b98b"
              ],
              "data": "0x0000000000000000000000000000000000000000000000000000000000009ce100000000000000000000000057e56f6902c0273ef0694391998a860ea56cd7af",
              "blockHash": "0x2356968124e92bff9bd6f7cc8b55151789ba0e7ac41ea161b51e4e972611124c",
              "blockNumber": "0x49e4474",
              "transactionHash": "0x803140bd42ac3c5879049b47e1c87163a7b8d09d6b969ff9dfc2ff22c6321942",
              "transactionIndex": "0x2",
              "logIndex": "0x1b",
              "removed": false
            }
          ],
          "logsBloom": "0x00000000000000000000000000000000000000000000000000000000000000000000000000000000000000000000000000000000000000000800000000000000000000000000000000000000000000000000000000000000000000000000000000000000000000000000000000000000000000000000000000000000000000000000000000000000000000000000000000000000000000000000000000000004000000000000000000000000000000000000000000000000200002000000000000000000000000800000000000000000000000000000000000040000000000000000000000000000000000000000000000000000000000000000000000000000",
          "type": "0x2",
          "transactionHash": "0x803140bd42ac3c5879049b47e1c87163a7b8d09d6b969ff9dfc2ff22c6321942",
          "transactionIndex": "0x2",
          "blockHash": "0x2356968124e92bff9bd6f7cc8b55151789ba0e7ac41ea161b51e4e972611124c",
          "blockNumber": "0x49e4474",
          "gasUsed": "0x3b070",
          "effectiveGasPrice": "0x5f5e100",
          "from": "0x64a822f980dc5f126215d75d11dd8114ed0bdb5f",
          "to": "0x57e56f6902c0273ef0694391998a860ea56cd7af",
          "contractAddress": null,
          "gasUsedForL1": "0x2f628",
          "l1BlockNumber": "0x65463c"
        }
      ],
      "libraries": [],
      "pending": [],
      "returns": {},
      "timestamp": 1725536916,
      "chain": 421614,
      "commit": "3db11dc"
    },
    {
      "transactions": [
        {
          "hash": "0xa96292ee7fad98be5926a19294690f5d6293200d8572851662da07780998a50a",
          "transactionType": "CALL",
          "contractName": null,
          "contractAddress": "0x57e56f6902c0273ef0694391998a860ea56cd7af",
          "function": "setPeer(uint32,bytes32)",
          "arguments": [
            "40245",
            "0x00000000000000000000000057e56f6902c0273ef0694391998a860ea56cd7af"
          ],
          "transaction": {
            "from": "0x64a822f980dc5f126215d75d11dd8114ed0bdb5f",
            "to": "0x57e56f6902c0273ef0694391998a860ea56cd7af",
            "gas": "0x1014c",
            "value": "0x0",
            "input": "0x3400288b0000000000000000000000000000000000000000000000000000000000009d3500000000000000000000000057e56f6902c0273ef0694391998a860ea56cd7af",
            "nonce": "0xf",
            "chainId": "0xe705"
          },
          "additionalContracts": [],
          "isFixedGasLimit": false
        },
        {
          "hash": "0x48a0f54ae1b00bded76e57efd5c894180a0cdeeb9d9e95547a2d87ab829301a4",
          "transactionType": "CALL",
          "contractName": null,
          "contractAddress": "0x57e56f6902c0273ef0694391998a860ea56cd7af",
          "function": "setPeer(uint32,bytes32)",
          "arguments": [
            "40232",
            "0x00000000000000000000000057e56f6902c0273ef0694391998a860ea56cd7af"
          ],
          "transaction": {
            "from": "0x64a822f980dc5f126215d75d11dd8114ed0bdb5f",
            "to": "0x57e56f6902c0273ef0694391998a860ea56cd7af",
            "gas": "0x1014c",
            "value": "0x0",
            "input": "0x3400288b0000000000000000000000000000000000000000000000000000000000009d2800000000000000000000000057e56f6902c0273ef0694391998a860ea56cd7af",
            "nonce": "0x10",
            "chainId": "0xe705"
          },
          "additionalContracts": [],
          "isFixedGasLimit": false
        },
        {
          "hash": "0x540faaa7b526d1c4b6f1e70cdfa031c66162e1b4f8af5939fc430de85f8b5f97",
          "transactionType": "CALL",
          "contractName": null,
          "contractAddress": "0x57e56f6902c0273ef0694391998a860ea56cd7af",
          "function": "setPeer(uint32,bytes32)",
          "arguments": [
            "40231",
            "0x00000000000000000000000057e56f6902c0273ef0694391998a860ea56cd7af"
          ],
          "transaction": {
            "from": "0x64a822f980dc5f126215d75d11dd8114ed0bdb5f",
            "to": "0x57e56f6902c0273ef0694391998a860ea56cd7af",
            "gas": "0x1014c",
            "value": "0x0",
            "input": "0x3400288b0000000000000000000000000000000000000000000000000000000000009d2700000000000000000000000057e56f6902c0273ef0694391998a860ea56cd7af",
            "nonce": "0x11",
            "chainId": "0xe705"
          },
          "additionalContracts": [],
          "isFixedGasLimit": false
        },
        {
          "hash": "0xe778e8114aa8ca2cc58711eae99d2f819693b10cef462e9d6675e40a215548f4",
          "transactionType": "CALL",
          "contractName": null,
          "contractAddress": "0x57e56f6902c0273ef0694391998a860ea56cd7af",
          "function": "setPeer(uint32,bytes32)",
          "arguments": [
            "40305",
            "0x00000000000000000000000057e56f6902c0273ef0694391998a860ea56cd7af"
          ],
          "transaction": {
            "from": "0x64a822f980dc5f126215d75d11dd8114ed0bdb5f",
            "to": "0x57e56f6902c0273ef0694391998a860ea56cd7af",
            "gas": "0x1014c",
            "value": "0x0",
            "input": "0x3400288b0000000000000000000000000000000000000000000000000000000000009d7100000000000000000000000057e56f6902c0273ef0694391998a860ea56cd7af",
            "nonce": "0x12",
            "chainId": "0xe705"
          },
          "additionalContracts": [],
          "isFixedGasLimit": false
        },
        {
          "hash": "0x1e50b140496004e464a49434f8932538318b7a4451e4a278a17e0e79ec81a5c3",
          "transactionType": "CALL",
          "contractName": null,
          "contractAddress": "0x57e56f6902c0273ef0694391998a860ea56cd7af",
          "function": "setPeer(uint32,bytes32)",
          "arguments": [
            "40161",
            "0x00000000000000000000000057e56f6902c0273ef0694391998a860ea56cd7af"
          ],
          "transaction": {
            "from": "0x64a822f980dc5f126215d75d11dd8114ed0bdb5f",
            "to": "0x57e56f6902c0273ef0694391998a860ea56cd7af",
            "gas": "0x1014c",
            "value": "0x0",
            "input": "0x3400288b0000000000000000000000000000000000000000000000000000000000009ce100000000000000000000000057e56f6902c0273ef0694391998a860ea56cd7af",
            "nonce": "0x13",
            "chainId": "0xe705"
          },
          "additionalContracts": [],
          "isFixedGasLimit": false
        }
      ],
      "receipts": [
        {
          "status": "0x1",
          "cumulativeGasUsed": "0xba48",
          "logs": [
            {
              "address": "0x57e56f6902c0273ef0694391998a860ea56cd7af",
              "topics": [
                "0x238399d427b947898edb290f5ff0f9109849b1c3ba196a42e35f00c50a54b98b"
              ],
              "data": "0x0000000000000000000000000000000000000000000000000000000000009d3500000000000000000000000057e56f6902c0273ef0694391998a860ea56cd7af",
              "blockHash": "0xf3dd5982b3ae8fc9e485d175caffe9b1ba900c09f697f549102c305d95f33fb3",
              "blockNumber": "0x3950fa",
              "transactionHash": "0xa96292ee7fad98be5926a19294690f5d6293200d8572851662da07780998a50a",
              "transactionIndex": "0x0",
              "logIndex": "0x0",
              "removed": false
            }
          ],
          "logsBloom": "0x00000000000000000000000000000000000000000000000000000000000000000000000000000000000000000000000000000000000000000800000000000000000000000000000000000000000000000000000000000000000000000000000000000000000000000000000000000000000000000000000000000000000000000000000000000000000000000000000000000000000000000000000000000004000000000000000000000000000000000000000000000000200002000000000000000000000000800000000000000000000000000000000000040000000000000000000000000000000000000000000000000000000000000000000000000000",
          "type": "0x2",
          "transactionHash": "0xa96292ee7fad98be5926a19294690f5d6293200d8572851662da07780998a50a",
          "transactionIndex": "0x0",
          "blockHash": "0xf3dd5982b3ae8fc9e485d175caffe9b1ba900c09f697f549102c305d95f33fb3",
          "blockNumber": "0x3950fa",
          "gasUsed": "0xba48",
          "effectiveGasPrice": "0x198ce9e4d",
          "from": "0x64a822f980dc5f126215d75d11dd8114ed0bdb5f",
          "to": "0x57e56f6902c0273ef0694391998a860ea56cd7af",
          "contractAddress": null
        },
        {
          "status": "0x1",
          "cumulativeGasUsed": "0x17490",
          "logs": [
            {
              "address": "0x57e56f6902c0273ef0694391998a860ea56cd7af",
              "topics": [
                "0x238399d427b947898edb290f5ff0f9109849b1c3ba196a42e35f00c50a54b98b"
              ],
              "data": "0x0000000000000000000000000000000000000000000000000000000000009d2800000000000000000000000057e56f6902c0273ef0694391998a860ea56cd7af",
              "blockHash": "0xf3dd5982b3ae8fc9e485d175caffe9b1ba900c09f697f549102c305d95f33fb3",
              "blockNumber": "0x3950fa",
              "transactionHash": "0x48a0f54ae1b00bded76e57efd5c894180a0cdeeb9d9e95547a2d87ab829301a4",
              "transactionIndex": "0x1",
              "logIndex": "0x1",
              "removed": false
            }
          ],
          "logsBloom": "0x00000000000000000000000000000000000000000000000000000000000000000000000000000000000000000000000000000000000000000800000000000000000000000000000000000000000000000000000000000000000000000000000000000000000000000000000000000000000000000000000000000000000000000000000000000000000000000000000000000000000000000000000000000004000000000000000000000000000000000000000000000000200002000000000000000000000000800000000000000000000000000000000000040000000000000000000000000000000000000000000000000000000000000000000000000000",
          "type": "0x2",
          "transactionHash": "0x48a0f54ae1b00bded76e57efd5c894180a0cdeeb9d9e95547a2d87ab829301a4",
          "transactionIndex": "0x1",
          "blockHash": "0xf3dd5982b3ae8fc9e485d175caffe9b1ba900c09f697f549102c305d95f33fb3",
          "blockNumber": "0x3950fa",
          "gasUsed": "0xba48",
          "effectiveGasPrice": "0x198ce9e4d",
          "from": "0x64a822f980dc5f126215d75d11dd8114ed0bdb5f",
          "to": "0x57e56f6902c0273ef0694391998a860ea56cd7af",
          "contractAddress": null
        },
        {
          "status": "0x1",
          "cumulativeGasUsed": "0xba48",
          "logs": [
            {
              "address": "0x57e56f6902c0273ef0694391998a860ea56cd7af",
              "topics": [
                "0x238399d427b947898edb290f5ff0f9109849b1c3ba196a42e35f00c50a54b98b"
              ],
              "data": "0x0000000000000000000000000000000000000000000000000000000000009d2700000000000000000000000057e56f6902c0273ef0694391998a860ea56cd7af",
              "blockHash": "0x9b25459cafecfdc4d46b09087656571497c50ffb49d7853c2eda39f9897057bf",
              "blockNumber": "0x3950fb",
              "transactionHash": "0x540faaa7b526d1c4b6f1e70cdfa031c66162e1b4f8af5939fc430de85f8b5f97",
              "transactionIndex": "0x0",
              "logIndex": "0x0",
              "removed": false
            }
          ],
          "logsBloom": "0x00000000000000000000000000000000000000000000000000000000000000000000000000000000000000000000000000000000000000000800000000000000000000000000000000000000000000000000000000000000000000000000000000000000000000000000000000000000000000000000000000000000000000000000000000000000000000000000000000000000000000000000000000000004000000000000000000000000000000000000000000000000200002000000000000000000000000800000000000000000000000000000000000040000000000000000000000000000000000000000000000000000000000000000000000000000",
          "type": "0x2",
          "transactionHash": "0x540faaa7b526d1c4b6f1e70cdfa031c66162e1b4f8af5939fc430de85f8b5f97",
          "transactionIndex": "0x0",
          "blockHash": "0x9b25459cafecfdc4d46b09087656571497c50ffb49d7853c2eda39f9897057bf",
          "blockNumber": "0x3950fb",
          "gasUsed": "0xba48",
          "effectiveGasPrice": "0x198ce9e4d",
          "from": "0x64a822f980dc5f126215d75d11dd8114ed0bdb5f",
          "to": "0x57e56f6902c0273ef0694391998a860ea56cd7af",
          "contractAddress": null
        },
        {
          "status": "0x1",
          "cumulativeGasUsed": "0x17490",
          "logs": [
            {
              "address": "0x57e56f6902c0273ef0694391998a860ea56cd7af",
              "topics": [
                "0x238399d427b947898edb290f5ff0f9109849b1c3ba196a42e35f00c50a54b98b"
              ],
              "data": "0x0000000000000000000000000000000000000000000000000000000000009d7100000000000000000000000057e56f6902c0273ef0694391998a860ea56cd7af",
              "blockHash": "0x9b25459cafecfdc4d46b09087656571497c50ffb49d7853c2eda39f9897057bf",
              "blockNumber": "0x3950fb",
              "transactionHash": "0xe778e8114aa8ca2cc58711eae99d2f819693b10cef462e9d6675e40a215548f4",
              "transactionIndex": "0x1",
              "logIndex": "0x1",
              "removed": false
            }
          ],
          "logsBloom": "0x00000000000000000000000000000000000000000000000000000000000000000000000000000000000000000000000000000000000000000800000000000000000000000000000000000000000000000000000000000000000000000000000000000000000000000000000000000000000000000000000000000000000000000000000000000000000000000000000000000000000000000000000000000004000000000000000000000000000000000000000000000000200002000000000000000000000000800000000000000000000000000000000000040000000000000000000000000000000000000000000000000000000000000000000000000000",
          "type": "0x2",
          "transactionHash": "0xe778e8114aa8ca2cc58711eae99d2f819693b10cef462e9d6675e40a215548f4",
          "transactionIndex": "0x1",
          "blockHash": "0x9b25459cafecfdc4d46b09087656571497c50ffb49d7853c2eda39f9897057bf",
          "blockNumber": "0x3950fb",
          "gasUsed": "0xba48",
          "effectiveGasPrice": "0x198ce9e4d",
          "from": "0x64a822f980dc5f126215d75d11dd8114ed0bdb5f",
          "to": "0x57e56f6902c0273ef0694391998a860ea56cd7af",
          "contractAddress": null
        },
        {
          "status": "0x1",
          "cumulativeGasUsed": "0x22ed8",
          "logs": [
            {
              "address": "0x57e56f6902c0273ef0694391998a860ea56cd7af",
              "topics": [
                "0x238399d427b947898edb290f5ff0f9109849b1c3ba196a42e35f00c50a54b98b"
              ],
              "data": "0x0000000000000000000000000000000000000000000000000000000000009ce100000000000000000000000057e56f6902c0273ef0694391998a860ea56cd7af",
              "blockHash": "0x9b25459cafecfdc4d46b09087656571497c50ffb49d7853c2eda39f9897057bf",
              "blockNumber": "0x3950fb",
              "transactionHash": "0x1e50b140496004e464a49434f8932538318b7a4451e4a278a17e0e79ec81a5c3",
              "transactionIndex": "0x2",
              "logIndex": "0x2",
              "removed": false
            }
          ],
          "logsBloom": "0x00000000000000000000000000000000000000000000000000000000000000000000000000000000000000000000000000000000000000000800000000000000000000000000000000000000000000000000000000000000000000000000000000000000000000000000000000000000000000000000000000000000000000000000000000000000000000000000000000000000000000000000000000000004000000000000000000000000000000000000000000000000200002000000000000000000000000800000000000000000000000000000000000040000000000000000000000000000000000000000000000000000000000000000000000000000",
          "type": "0x2",
          "transactionHash": "0x1e50b140496004e464a49434f8932538318b7a4451e4a278a17e0e79ec81a5c3",
          "transactionIndex": "0x2",
          "blockHash": "0x9b25459cafecfdc4d46b09087656571497c50ffb49d7853c2eda39f9897057bf",
          "blockNumber": "0x3950fb",
          "gasUsed": "0xba48",
          "effectiveGasPrice": "0x198ce9e4d",
          "from": "0x64a822f980dc5f126215d75d11dd8114ed0bdb5f",
          "to": "0x57e56f6902c0273ef0694391998a860ea56cd7af",
          "contractAddress": null
        }
      ],
      "libraries": [],
      "pending": [],
      "returns": {},
      "timestamp": 1725536917,
      "chain": 59141,
      "commit": "3db11dc"
    }
  ],
  "timestamp": 1725536956
}