{
  "deployments": [
    {
      "transactions": [
        {
          "hash": "0x28e42c9467c58d1d87e699c9a925355c20d6962776aed5efe425b9cc382dcaf5",
          "transactionType": "CALL",
          "contractName": null,
          "contractAddress": "0x265029b030c8c5c2b8f7ffb5eac212dd49e6bc75",
          "function": "setPeer(uint32,bytes32)",
          "arguments": [
            "40232",
            "0x000000000000000000000000265029b030c8c5c2b8f7ffb5eac212dd49e6bc75"
          ],
          "transaction": {
            "from": "0x64a822f980dc5f126215d75d11dd8114ed0bdb5f",
            "to": "0x265029b030c8c5c2b8f7ffb5eac212dd49e6bc75",
            "gas": "0x1016a",
            "value": "0x0",
            "input": "0x3400288b0000000000000000000000000000000000000000000000000000000000009d28000000000000000000000000265029b030c8c5c2b8f7ffb5eac212dd49e6bc75",
            "nonce": "0x208",
            "chainId": "0x14a34"
          },
          "additionalContracts": [],
          "isFixedGasLimit": false
        },
        {
          "hash": "0x6a3d615ae8943c15942e53ec8eccfdd74d91ec1f26f47d19065e6d5b7a1cddf0",
          "transactionType": "CALL",
          "contractName": null,
          "contractAddress": "0x265029b030c8c5c2b8f7ffb5eac212dd49e6bc75",
          "function": "setPeer(uint32,bytes32)",
          "arguments": [
            "40231",
            "0x000000000000000000000000265029b030c8c5c2b8f7ffb5eac212dd49e6bc75"
          ],
          "transaction": {
            "from": "0x64a822f980dc5f126215d75d11dd8114ed0bdb5f",
            "to": "0x265029b030c8c5c2b8f7ffb5eac212dd49e6bc75",
            "gas": "0x1016a",
            "value": "0x0",
            "input": "0x3400288b0000000000000000000000000000000000000000000000000000000000009d27000000000000000000000000265029b030c8c5c2b8f7ffb5eac212dd49e6bc75",
            "nonce": "0x209",
            "chainId": "0x14a34"
          },
          "additionalContracts": [],
          "isFixedGasLimit": false
        },
        {
          "hash": "0x6612d2f141a8941640df91a521689074944481a09530660cd1f288d99cdd1584",
          "transactionType": "CALL",
          "contractName": null,
          "contractAddress": "0x265029b030c8c5c2b8f7ffb5eac212dd49e6bc75",
          "function": "setPeer(uint32,bytes32)",
          "arguments": [
            "40305",
            "0x000000000000000000000000265029b030c8c5c2b8f7ffb5eac212dd49e6bc75"
          ],
          "transaction": {
            "from": "0x64a822f980dc5f126215d75d11dd8114ed0bdb5f",
            "to": "0x265029b030c8c5c2b8f7ffb5eac212dd49e6bc75",
            "gas": "0x1016a",
            "value": "0x0",
            "input": "0x3400288b0000000000000000000000000000000000000000000000000000000000009d71000000000000000000000000265029b030c8c5c2b8f7ffb5eac212dd49e6bc75",
            "nonce": "0x20a",
            "chainId": "0x14a34"
          },
          "additionalContracts": [],
          "isFixedGasLimit": false
        },
        {
          "hash": "0x0beffe877ebad9a91d157d166bb85cad5939ad25c019017bc4a0ea3d26f8aff7",
          "transactionType": "CALL",
          "contractName": null,
          "contractAddress": "0x265029b030c8c5c2b8f7ffb5eac212dd49e6bc75",
          "function": "setPeer(uint32,bytes32)",
          "arguments": [
            "40287",
            "0x000000000000000000000000265029b030c8c5c2b8f7ffb5eac212dd49e6bc75"
          ],
          "transaction": {
            "from": "0x64a822f980dc5f126215d75d11dd8114ed0bdb5f",
            "to": "0x265029b030c8c5c2b8f7ffb5eac212dd49e6bc75",
            "gas": "0x1016a",
            "value": "0x0",
            "input": "0x3400288b0000000000000000000000000000000000000000000000000000000000009d5f000000000000000000000000265029b030c8c5c2b8f7ffb5eac212dd49e6bc75",
            "nonce": "0x20b",
            "chainId": "0x14a34"
          },
          "additionalContracts": [],
          "isFixedGasLimit": false
        },
        {
          "hash": "0x1d0d4f588d883e183dd1c0bcc26019a842f5138c8b95c0825e4f30abe4c0e7d6",
          "transactionType": "CALL",
          "contractName": null,
          "contractAddress": "0x265029b030c8c5c2b8f7ffb5eac212dd49e6bc75",
          "function": "setPeer(uint32,bytes32)",
          "arguments": [
            "40161",
            "0x000000000000000000000000265029b030c8c5c2b8f7ffb5eac212dd49e6bc75"
          ],
          "transaction": {
            "from": "0x64a822f980dc5f126215d75d11dd8114ed0bdb5f",
            "to": "0x265029b030c8c5c2b8f7ffb5eac212dd49e6bc75",
            "gas": "0x1016a",
            "value": "0x0",
            "input": "0x3400288b0000000000000000000000000000000000000000000000000000000000009ce1000000000000000000000000265029b030c8c5c2b8f7ffb5eac212dd49e6bc75",
            "nonce": "0x20c",
            "chainId": "0x14a34"
          },
          "additionalContracts": [],
          "isFixedGasLimit": false
        },
        {
          "hash": "0x5bb02fb01cef6e3f09c69eb14a22fa368018b37ef7ddee6144c62b1144894136",
          "transactionType": "CALL",
          "contractName": null,
          "contractAddress": "0x265029b030c8c5c2b8f7ffb5eac212dd49e6bc75",
          "function": "setDstEidOfHomeChain(uint32)",
          "arguments": [
            "40245"
          ],
          "transaction": {
            "from": "0x64a822f980dc5f126215d75d11dd8114ed0bdb5f",
            "to": "0x265029b030c8c5c2b8f7ffb5eac212dd49e6bc75",
            "gas": "0xa4d0",
            "value": "0x0",
            "input": "0x1cd24bd40000000000000000000000000000000000000000000000000000000000009d35",
            "nonce": "0x20d",
            "chainId": "0x14a34"
          },
          "additionalContracts": [],
          "isFixedGasLimit": false
        }
      ],
      "receipts": [
        {
          "status": "0x1",
          "cumulativeGasUsed": "0x12f9c6",
          "logs": [
            {
              "address": "0x265029b030c8c5c2b8f7ffb5eac212dd49e6bc75",
              "topics": [
                "0x238399d427b947898edb290f5ff0f9109849b1c3ba196a42e35f00c50a54b98b"
              ],
              "data": "0x0000000000000000000000000000000000000000000000000000000000009d28000000000000000000000000265029b030c8c5c2b8f7ffb5eac212dd49e6bc75",
              "blockHash": "0xf37fec3359e948e23b609e2f1b4a4511ffeeb9f32c289c8e2b23c8af719e16a1",
              "blockNumber": "0xe33547",
              "transactionHash": "0x28e42c9467c58d1d87e699c9a925355c20d6962776aed5efe425b9cc382dcaf5",
              "transactionIndex": "0x8",
              "logIndex": "0x16",
              "removed": false
            }
          ],
          "logsBloom": "0x00000000000000000000000000000000000000000000000000000000000000000000000000000000000000000000000000000000000000000800000000000000000000000000000000000000000000000000000000000000000000000000000010000000000000000000000000000000000000000000000000000000000000000000000000000000000000000000000000000000000000010000000000000000000000000000000000000000000000000000000000000000000002000000000000000000000000000000000000000000000000000000000000040000000000000000000000000000000000000000000000000000080000000000000000000000",
          "type": "0x2",
          "transactionHash": "0x28e42c9467c58d1d87e699c9a925355c20d6962776aed5efe425b9cc382dcaf5",
          "transactionIndex": "0x8",
          "blockHash": "0xf37fec3359e948e23b609e2f1b4a4511ffeeb9f32c289c8e2b23c8af719e16a1",
          "blockNumber": "0xe33547",
          "gasUsed": "0xba5e",
          "effectiveGasPrice": "0xc680",
          "from": "0x64a822f980dc5f126215d75d11dd8114ed0bdb5f",
          "to": "0x265029b030c8c5c2b8f7ffb5eac212dd49e6bc75",
          "contractAddress": null,
          "l1BaseFeeScalar": "0x44d",
          "l1BlobBaseFee": "0x17838b069f9",
          "l1BlobBaseFeeScalar": "0xa118b",
          "l1Fee": "0x611233f4d990",
          "l1GasPrice": "0xe4d2df30f",
          "l1GasUsed": "0x640"
        },
        {
          "status": "0x1",
          "cumulativeGasUsed": "0x13b424",
          "logs": [
            {
              "address": "0x265029b030c8c5c2b8f7ffb5eac212dd49e6bc75",
              "topics": [
                "0x238399d427b947898edb290f5ff0f9109849b1c3ba196a42e35f00c50a54b98b"
              ],
              "data": "0x0000000000000000000000000000000000000000000000000000000000009d27000000000000000000000000265029b030c8c5c2b8f7ffb5eac212dd49e6bc75",
              "blockHash": "0xf37fec3359e948e23b609e2f1b4a4511ffeeb9f32c289c8e2b23c8af719e16a1",
              "blockNumber": "0xe33547",
              "transactionHash": "0x6a3d615ae8943c15942e53ec8eccfdd74d91ec1f26f47d19065e6d5b7a1cddf0",
              "transactionIndex": "0x9",
              "logIndex": "0x17",
              "removed": false
            }
          ],
          "logsBloom": "0x00000000000000000000000000000000000000000000000000000000000000000000000000000000000000000000000000000000000000000800000000000000000000000000000000000000000000000000000000000000000000000000000010000000000000000000000000000000000000000000000000000000000000000000000000000000000000000000000000000000000000010000000000000000000000000000000000000000000000000000000000000000000002000000000000000000000000000000000000000000000000000000000000040000000000000000000000000000000000000000000000000000080000000000000000000000",
          "type": "0x2",
          "transactionHash": "0x6a3d615ae8943c15942e53ec8eccfdd74d91ec1f26f47d19065e6d5b7a1cddf0",
          "transactionIndex": "0x9",
          "blockHash": "0xf37fec3359e948e23b609e2f1b4a4511ffeeb9f32c289c8e2b23c8af719e16a1",
          "blockNumber": "0xe33547",
          "gasUsed": "0xba5e",
          "effectiveGasPrice": "0xc680",
          "from": "0x64a822f980dc5f126215d75d11dd8114ed0bdb5f",
          "to": "0x265029b030c8c5c2b8f7ffb5eac212dd49e6bc75",
          "contractAddress": null,
          "l1BaseFeeScalar": "0x44d",
          "l1BlobBaseFee": "0x17838b069f9",
          "l1BlobBaseFeeScalar": "0xa118b",
          "l1Fee": "0x611233f4d990",
          "l1GasPrice": "0xe4d2df30f",
          "l1GasUsed": "0x640"
        },
        {
          "status": "0x1",
          "cumulativeGasUsed": "0x146e82",
          "logs": [
            {
              "address": "0x265029b030c8c5c2b8f7ffb5eac212dd49e6bc75",
              "topics": [
                "0x238399d427b947898edb290f5ff0f9109849b1c3ba196a42e35f00c50a54b98b"
              ],
              "data": "0x0000000000000000000000000000000000000000000000000000000000009d71000000000000000000000000265029b030c8c5c2b8f7ffb5eac212dd49e6bc75",
              "blockHash": "0xf37fec3359e948e23b609e2f1b4a4511ffeeb9f32c289c8e2b23c8af719e16a1",
              "blockNumber": "0xe33547",
              "transactionHash": "0x6612d2f141a8941640df91a521689074944481a09530660cd1f288d99cdd1584",
              "transactionIndex": "0xa",
              "logIndex": "0x18",
              "removed": false
            }
          ],
          "logsBloom": "0x00000000000000000000000000000000000000000000000000000000000000000000000000000000000000000000000000000000000000000800000000000000000000000000000000000000000000000000000000000000000000000000000010000000000000000000000000000000000000000000000000000000000000000000000000000000000000000000000000000000000000010000000000000000000000000000000000000000000000000000000000000000000002000000000000000000000000000000000000000000000000000000000000040000000000000000000000000000000000000000000000000000080000000000000000000000",
          "type": "0x2",
          "transactionHash": "0x6612d2f141a8941640df91a521689074944481a09530660cd1f288d99cdd1584",
          "transactionIndex": "0xa",
          "blockHash": "0xf37fec3359e948e23b609e2f1b4a4511ffeeb9f32c289c8e2b23c8af719e16a1",
          "blockNumber": "0xe33547",
          "gasUsed": "0xba5e",
          "effectiveGasPrice": "0xc680",
          "from": "0x64a822f980dc5f126215d75d11dd8114ed0bdb5f",
          "to": "0x265029b030c8c5c2b8f7ffb5eac212dd49e6bc75",
          "contractAddress": null,
          "l1BaseFeeScalar": "0x44d",
          "l1BlobBaseFee": "0x17838b069f9",
          "l1BlobBaseFeeScalar": "0xa118b",
          "l1Fee": "0x611233f4d990",
          "l1GasPrice": "0xe4d2df30f",
          "l1GasUsed": "0x640"
        },
        {
          "status": "0x1",
          "cumulativeGasUsed": "0x126a67",
          "logs": [
            {
              "address": "0x265029b030c8c5c2b8f7ffb5eac212dd49e6bc75",
              "topics": [
                "0x238399d427b947898edb290f5ff0f9109849b1c3ba196a42e35f00c50a54b98b"
              ],
              "data": "0x0000000000000000000000000000000000000000000000000000000000009d5f000000000000000000000000265029b030c8c5c2b8f7ffb5eac212dd49e6bc75",
              "blockHash": "0x80c16b31182013d9ac0e01e0656304cb962cd1ca958a278170bfab18b545b83a",
              "blockNumber": "0xe33548",
              "transactionHash": "0x0beffe877ebad9a91d157d166bb85cad5939ad25c019017bc4a0ea3d26f8aff7",
              "transactionIndex": "0x9",
              "logIndex": "0x17",
              "removed": false
            }
          ],
          "logsBloom": "0x00000000000000000000000000000000000000000000000000000000000000000000000000000000000000000000000000000000000000000800000000000000000000000000000000000000000000000000000000000000000000000000000010000000000000000000000000000000000000000000000000000000000000000000000000000000000000000000000000000000000000010000000000000000000000000000000000000000000000000000000000000000000002000000000000000000000000000000000000000000000000000000000000040000000000000000000000000000000000000000000000000000080000000000000000000000",
          "type": "0x2",
          "transactionHash": "0x0beffe877ebad9a91d157d166bb85cad5939ad25c019017bc4a0ea3d26f8aff7",
          "transactionIndex": "0x9",
          "blockHash": "0x80c16b31182013d9ac0e01e0656304cb962cd1ca958a278170bfab18b545b83a",
          "blockNumber": "0xe33548",
          "gasUsed": "0xba5e",
          "effectiveGasPrice": "0xc680",
          "from": "0x64a822f980dc5f126215d75d11dd8114ed0bdb5f",
          "to": "0x265029b030c8c5c2b8f7ffb5eac212dd49e6bc75",
          "contractAddress": null,
          "l1BaseFeeScalar": "0x44d",
          "l1BlobBaseFee": "0x17838b069f9",
          "l1BlobBaseFeeScalar": "0xa118b",
          "l1Fee": "0x611233f4d990",
          "l1GasPrice": "0xe4d2df30f",
          "l1GasUsed": "0x640"
        },
        {
          "status": "0x1",
          "cumulativeGasUsed": "0x1324c5",
          "logs": [
            {
              "address": "0x265029b030c8c5c2b8f7ffb5eac212dd49e6bc75",
              "topics": [
                "0x238399d427b947898edb290f5ff0f9109849b1c3ba196a42e35f00c50a54b98b"
              ],
              "data": "0x0000000000000000000000000000000000000000000000000000000000009ce1000000000000000000000000265029b030c8c5c2b8f7ffb5eac212dd49e6bc75",
              "blockHash": "0x80c16b31182013d9ac0e01e0656304cb962cd1ca958a278170bfab18b545b83a",
              "blockNumber": "0xe33548",
              "transactionHash": "0x1d0d4f588d883e183dd1c0bcc26019a842f5138c8b95c0825e4f30abe4c0e7d6",
              "transactionIndex": "0xa",
              "logIndex": "0x18",
              "removed": false
            }
          ],
          "logsBloom": "0x00000000000000000000000000000000000000000000000000000000000000000000000000000000000000000000000000000000000000000800000000000000000000000000000000000000000000000000000000000000000000000000000010000000000000000000000000000000000000000000000000000000000000000000000000000000000000000000000000000000000000010000000000000000000000000000000000000000000000000000000000000000000002000000000000000000000000000000000000000000000000000000000000040000000000000000000000000000000000000000000000000000080000000000000000000000",
          "type": "0x2",
          "transactionHash": "0x1d0d4f588d883e183dd1c0bcc26019a842f5138c8b95c0825e4f30abe4c0e7d6",
          "transactionIndex": "0xa",
          "blockHash": "0x80c16b31182013d9ac0e01e0656304cb962cd1ca958a278170bfab18b545b83a",
          "blockNumber": "0xe33548",
          "gasUsed": "0xba5e",
          "effectiveGasPrice": "0xc680",
          "from": "0x64a822f980dc5f126215d75d11dd8114ed0bdb5f",
          "to": "0x265029b030c8c5c2b8f7ffb5eac212dd49e6bc75",
          "contractAddress": null,
          "l1BaseFeeScalar": "0x44d",
          "l1BlobBaseFee": "0x17838b069f9",
          "l1BlobBaseFeeScalar": "0xa118b",
          "l1Fee": "0x611233f4d990",
          "l1GasPrice": "0xe4d2df30f",
          "l1GasUsed": "0x640"
        },
        {
          "status": "0x1",
          "cumulativeGasUsed": "0x139577",
          "logs": [],
          "logsBloom": "0x00000000000000000000000000000000000000000000000000000000000000000000000000000000000000000000000000000000000000000000000000000000000000000000000000000000000000000000000000000000000000000000000000000000000000000000000000000000000000000000000000000000000000000000000000000000000000000000000000000000000000000000000000000000000000000000000000000000000000000000000000000000000000000000000000000000000000000000000000000000000000000000000000000000000000000000000000000000000000000000000000000000000000000000000000000000",
          "type": "0x2",
          "transactionHash": "0x5bb02fb01cef6e3f09c69eb14a22fa368018b37ef7ddee6144c62b1144894136",
          "transactionIndex": "0xb",
          "blockHash": "0x80c16b31182013d9ac0e01e0656304cb962cd1ca958a278170bfab18b545b83a",
          "blockNumber": "0xe33548",
          "gasUsed": "0x70b2",
          "effectiveGasPrice": "0xc680",
          "from": "0x64a822f980dc5f126215d75d11dd8114ed0bdb5f",
          "to": "0x265029b030c8c5c2b8f7ffb5eac212dd49e6bc75",
          "contractAddress": null,
          "l1BaseFeeScalar": "0x44d",
          "l1BlobBaseFee": "0x17838b069f9",
          "l1BlobBaseFeeScalar": "0xa118b",
          "l1Fee": "0x611233f4d990",
          "l1GasPrice": "0xe4d2df30f",
          "l1GasUsed": "0x640"
        }
      ],
      "libraries": [],
      "pending": [],
      "returns": {},
      "timestamp": 1725548902,
      "chain": 84532,
      "commit": "1d1fc8c"
    },
    {
      "transactions": [
        {
          "hash": "0x0c673d22c4db87e12c6b1de44146e8c353448c39055cb124544fbfd02a25de64",
          "transactionType": "CALL",
          "contractName": null,
          "contractAddress": "0x265029b030c8c5c2b8f7ffb5eac212dd49e6bc75",
          "function": "setPeer(uint32,bytes32)",
          "arguments": [
            "40245",
            "0x000000000000000000000000265029b030c8c5c2b8f7ffb5eac212dd49e6bc75"
          ],
          "transaction": {
            "from": "0x64a822f980dc5f126215d75d11dd8114ed0bdb5f",
            "to": "0x265029b030c8c5c2b8f7ffb5eac212dd49e6bc75",
            "gas": "0x1016a",
            "value": "0x0",
            "input": "0x3400288b0000000000000000000000000000000000000000000000000000000000009d35000000000000000000000000265029b030c8c5c2b8f7ffb5eac212dd49e6bc75",
            "nonce": "0x134",
            "chainId": "0xaa37dc"
          },
          "additionalContracts": [],
          "isFixedGasLimit": false
        },
        {
          "hash": "0xdd34a3bfc46b4d3394cd8e9f2d2f9cf431ba60a0817c5ed81bfd2b59dfc4d3ea",
          "transactionType": "CALL",
          "contractName": null,
          "contractAddress": "0x265029b030c8c5c2b8f7ffb5eac212dd49e6bc75",
          "function": "setPeer(uint32,bytes32)",
          "arguments": [
            "40231",
            "0x000000000000000000000000265029b030c8c5c2b8f7ffb5eac212dd49e6bc75"
          ],
          "transaction": {
            "from": "0x64a822f980dc5f126215d75d11dd8114ed0bdb5f",
            "to": "0x265029b030c8c5c2b8f7ffb5eac212dd49e6bc75",
            "gas": "0x1016a",
            "value": "0x0",
            "input": "0x3400288b0000000000000000000000000000000000000000000000000000000000009d27000000000000000000000000265029b030c8c5c2b8f7ffb5eac212dd49e6bc75",
            "nonce": "0x135",
            "chainId": "0xaa37dc"
          },
          "additionalContracts": [],
          "isFixedGasLimit": false
        },
        {
          "hash": "0xf163ef4b2111bff1d06d3a34417e9726110bf3baebae3eacb6c430026895eb22",
          "transactionType": "CALL",
          "contractName": null,
          "contractAddress": "0x265029b030c8c5c2b8f7ffb5eac212dd49e6bc75",
          "function": "setPeer(uint32,bytes32)",
          "arguments": [
            "40305",
            "0x000000000000000000000000265029b030c8c5c2b8f7ffb5eac212dd49e6bc75"
          ],
          "transaction": {
            "from": "0x64a822f980dc5f126215d75d11dd8114ed0bdb5f",
            "to": "0x265029b030c8c5c2b8f7ffb5eac212dd49e6bc75",
            "gas": "0x1016a",
            "value": "0x0",
            "input": "0x3400288b0000000000000000000000000000000000000000000000000000000000009d71000000000000000000000000265029b030c8c5c2b8f7ffb5eac212dd49e6bc75",
            "nonce": "0x136",
            "chainId": "0xaa37dc"
          },
          "additionalContracts": [],
          "isFixedGasLimit": false
        },
        {
          "hash": "0x9bcebb7c017cab4aaf30c1c9dabdf25dce3554c28626c934896d80ad184e033f",
          "transactionType": "CALL",
          "contractName": null,
          "contractAddress": "0x265029b030c8c5c2b8f7ffb5eac212dd49e6bc75",
          "function": "setPeer(uint32,bytes32)",
          "arguments": [
            "40287",
            "0x000000000000000000000000265029b030c8c5c2b8f7ffb5eac212dd49e6bc75"
          ],
          "transaction": {
            "from": "0x64a822f980dc5f126215d75d11dd8114ed0bdb5f",
            "to": "0x265029b030c8c5c2b8f7ffb5eac212dd49e6bc75",
            "gas": "0x1016a",
            "value": "0x0",
            "input": "0x3400288b0000000000000000000000000000000000000000000000000000000000009d5f000000000000000000000000265029b030c8c5c2b8f7ffb5eac212dd49e6bc75",
            "nonce": "0x137",
            "chainId": "0xaa37dc"
          },
          "additionalContracts": [],
          "isFixedGasLimit": false
        },
        {
          "hash": "0x5253326cc605273b496594c2dfb82eb1c297afd3e34d949534af08e910e1f963",
          "transactionType": "CALL",
          "contractName": null,
          "contractAddress": "0x265029b030c8c5c2b8f7ffb5eac212dd49e6bc75",
          "function": "setPeer(uint32,bytes32)",
          "arguments": [
            "40161",
            "0x000000000000000000000000265029b030c8c5c2b8f7ffb5eac212dd49e6bc75"
          ],
          "transaction": {
            "from": "0x64a822f980dc5f126215d75d11dd8114ed0bdb5f",
            "to": "0x265029b030c8c5c2b8f7ffb5eac212dd49e6bc75",
            "gas": "0x1016a",
            "value": "0x0",
            "input": "0x3400288b0000000000000000000000000000000000000000000000000000000000009ce1000000000000000000000000265029b030c8c5c2b8f7ffb5eac212dd49e6bc75",
            "nonce": "0x138",
            "chainId": "0xaa37dc"
          },
          "additionalContracts": [],
          "isFixedGasLimit": false
        },
        {
          "hash": "0x14845e996711798dbb5184691d01f16a7a7307a55a427fa19f178093060f90d6",
          "transactionType": "CALL",
          "contractName": null,
          "contractAddress": "0x265029b030c8c5c2b8f7ffb5eac212dd49e6bc75",
          "function": "setDstEidOfHomeChain(uint32)",
          "arguments": [
            "40232"
          ],
          "transaction": {
            "from": "0x64a822f980dc5f126215d75d11dd8114ed0bdb5f",
            "to": "0x265029b030c8c5c2b8f7ffb5eac212dd49e6bc75",
            "gas": "0xa4d0",
            "value": "0x0",
            "input": "0x1cd24bd40000000000000000000000000000000000000000000000000000000000009d28",
            "nonce": "0x139",
            "chainId": "0xaa37dc"
          },
          "additionalContracts": [],
          "isFixedGasLimit": false
        }
      ],
      "receipts": [
        {
          "status": "0x1",
          "cumulativeGasUsed": "0xbe686",
          "logs": [
            {
              "address": "0x265029b030c8c5c2b8f7ffb5eac212dd49e6bc75",
              "topics": [
                "0x238399d427b947898edb290f5ff0f9109849b1c3ba196a42e35f00c50a54b98b"
              ],
              "data": "0x0000000000000000000000000000000000000000000000000000000000009d35000000000000000000000000265029b030c8c5c2b8f7ffb5eac212dd49e6bc75",
              "blockHash": "0xa472ee44a783bf8dcdfb1461e22cfc834843a3e6b808628072273a2d5aff0e06",
              "blockNumber": "0x10176e6",
              "transactionHash": "0x0c673d22c4db87e12c6b1de44146e8c353448c39055cb124544fbfd02a25de64",
              "transactionIndex": "0x2",
              "logIndex": "0x10",
              "removed": false
            }
          ],
          "logsBloom": "0x00000000000000000000000000000000000000000000000000000000000000000000000000000000000000000000000000000000000000000800000000000000000000000000000000000000000000000000000000000000000000000000000010000000000000000000000000000000000000000000000000000000000000000000000000000000000000000000000000000000000000010000000000000000000000000000000000000000000000000000000000000000000002000000000000000000000000000000000000000000000000000000000000040000000000000000000000000000000000000000000000000000080000000000000000000000",
          "type": "0x2",
          "transactionHash": "0x0c673d22c4db87e12c6b1de44146e8c353448c39055cb124544fbfd02a25de64",
          "transactionIndex": "0x2",
          "blockHash": "0xa472ee44a783bf8dcdfb1461e22cfc834843a3e6b808628072273a2d5aff0e06",
          "blockNumber": "0x10176e6",
          "gasUsed": "0xba5e",
          "effectiveGasPrice": "0xf6a79",
          "from": "0x64a822f980dc5f126215d75d11dd8114ed0bdb5f",
          "to": "0x265029b030c8c5c2b8f7ffb5eac212dd49e6bc75",
          "contractAddress": null,
          "l1BaseFeeScalar": "0x1db0",
          "l1BlobBaseFee": "0x11dd11520ad",
          "l1BlobBaseFeeScalar": "0xd2730",
          "l1Fee": "0x6114c3a6fc48",
          "l1GasPrice": "0x11b5f139bf",
          "l1GasUsed": "0x640"
        },
        {
          "status": "0x1",
          "cumulativeGasUsed": "0xca0e4",
          "logs": [
            {
              "address": "0x265029b030c8c5c2b8f7ffb5eac212dd49e6bc75",
              "topics": [
                "0x238399d427b947898edb290f5ff0f9109849b1c3ba196a42e35f00c50a54b98b"
              ],
              "data": "0x0000000000000000000000000000000000000000000000000000000000009d27000000000000000000000000265029b030c8c5c2b8f7ffb5eac212dd49e6bc75",
              "blockHash": "0xa472ee44a783bf8dcdfb1461e22cfc834843a3e6b808628072273a2d5aff0e06",
              "blockNumber": "0x10176e6",
              "transactionHash": "0xdd34a3bfc46b4d3394cd8e9f2d2f9cf431ba60a0817c5ed81bfd2b59dfc4d3ea",
              "transactionIndex": "0x3",
              "logIndex": "0x11",
              "removed": false
            }
          ],
          "logsBloom": "0x00000000000000000000000000000000000000000000000000000000000000000000000000000000000000000000000000000000000000000800000000000000000000000000000000000000000000000000000000000000000000000000000010000000000000000000000000000000000000000000000000000000000000000000000000000000000000000000000000000000000000010000000000000000000000000000000000000000000000000000000000000000000002000000000000000000000000000000000000000000000000000000000000040000000000000000000000000000000000000000000000000000080000000000000000000000",
          "type": "0x2",
          "transactionHash": "0xdd34a3bfc46b4d3394cd8e9f2d2f9cf431ba60a0817c5ed81bfd2b59dfc4d3ea",
          "transactionIndex": "0x3",
          "blockHash": "0xa472ee44a783bf8dcdfb1461e22cfc834843a3e6b808628072273a2d5aff0e06",
          "blockNumber": "0x10176e6",
          "gasUsed": "0xba5e",
          "effectiveGasPrice": "0xf6a79",
          "from": "0x64a822f980dc5f126215d75d11dd8114ed0bdb5f",
          "to": "0x265029b030c8c5c2b8f7ffb5eac212dd49e6bc75",
          "contractAddress": null,
          "l1BaseFeeScalar": "0x1db0",
          "l1BlobBaseFee": "0x11dd11520ad",
          "l1BlobBaseFeeScalar": "0xd2730",
          "l1Fee": "0x6114c3a6fc48",
          "l1GasPrice": "0x11b5f139bf",
          "l1GasUsed": "0x640"
        },
        {
          "status": "0x1",
          "cumulativeGasUsed": "0xd5b42",
          "logs": [
            {
              "address": "0x265029b030c8c5c2b8f7ffb5eac212dd49e6bc75",
              "topics": [
                "0x238399d427b947898edb290f5ff0f9109849b1c3ba196a42e35f00c50a54b98b"
              ],
              "data": "0x0000000000000000000000000000000000000000000000000000000000009d71000000000000000000000000265029b030c8c5c2b8f7ffb5eac212dd49e6bc75",
              "blockHash": "0xa472ee44a783bf8dcdfb1461e22cfc834843a3e6b808628072273a2d5aff0e06",
              "blockNumber": "0x10176e6",
              "transactionHash": "0xf163ef4b2111bff1d06d3a34417e9726110bf3baebae3eacb6c430026895eb22",
              "transactionIndex": "0x4",
              "logIndex": "0x12",
              "removed": false
            }
          ],
          "logsBloom": "0x00000000000000000000000000000000000000000000000000000000000000000000000000000000000000000000000000000000000000000800000000000000000000000000000000000000000000000000000000000000000000000000000010000000000000000000000000000000000000000000000000000000000000000000000000000000000000000000000000000000000000010000000000000000000000000000000000000000000000000000000000000000000002000000000000000000000000000000000000000000000000000000000000040000000000000000000000000000000000000000000000000000080000000000000000000000",
          "type": "0x2",
          "transactionHash": "0xf163ef4b2111bff1d06d3a34417e9726110bf3baebae3eacb6c430026895eb22",
          "transactionIndex": "0x4",
          "blockHash": "0xa472ee44a783bf8dcdfb1461e22cfc834843a3e6b808628072273a2d5aff0e06",
          "blockNumber": "0x10176e6",
          "gasUsed": "0xba5e",
          "effectiveGasPrice": "0xf6a79",
          "from": "0x64a822f980dc5f126215d75d11dd8114ed0bdb5f",
          "to": "0x265029b030c8c5c2b8f7ffb5eac212dd49e6bc75",
          "contractAddress": null,
          "l1BaseFeeScalar": "0x1db0",
          "l1BlobBaseFee": "0x11dd11520ad",
          "l1BlobBaseFeeScalar": "0xd2730",
          "l1Fee": "0x6114c3a6fc48",
          "l1GasPrice": "0x11b5f139bf",
          "l1GasUsed": "0x640"
        },
        {
          "status": "0x1",
          "cumulativeGasUsed": "0xe15a0",
          "logs": [
            {
              "address": "0x265029b030c8c5c2b8f7ffb5eac212dd49e6bc75",
              "topics": [
                "0x238399d427b947898edb290f5ff0f9109849b1c3ba196a42e35f00c50a54b98b"
              ],
              "data": "0x0000000000000000000000000000000000000000000000000000000000009d5f000000000000000000000000265029b030c8c5c2b8f7ffb5eac212dd49e6bc75",
              "blockHash": "0xa472ee44a783bf8dcdfb1461e22cfc834843a3e6b808628072273a2d5aff0e06",
              "blockNumber": "0x10176e6",
              "transactionHash": "0x9bcebb7c017cab4aaf30c1c9dabdf25dce3554c28626c934896d80ad184e033f",
              "transactionIndex": "0x5",
              "logIndex": "0x13",
              "removed": false
            }
          ],
          "logsBloom": "0x00000000000000000000000000000000000000000000000000000000000000000000000000000000000000000000000000000000000000000800000000000000000000000000000000000000000000000000000000000000000000000000000010000000000000000000000000000000000000000000000000000000000000000000000000000000000000000000000000000000000000010000000000000000000000000000000000000000000000000000000000000000000002000000000000000000000000000000000000000000000000000000000000040000000000000000000000000000000000000000000000000000080000000000000000000000",
          "type": "0x2",
          "transactionHash": "0x9bcebb7c017cab4aaf30c1c9dabdf25dce3554c28626c934896d80ad184e033f",
          "transactionIndex": "0x5",
          "blockHash": "0xa472ee44a783bf8dcdfb1461e22cfc834843a3e6b808628072273a2d5aff0e06",
          "blockNumber": "0x10176e6",
          "gasUsed": "0xba5e",
          "effectiveGasPrice": "0xf6a79",
          "from": "0x64a822f980dc5f126215d75d11dd8114ed0bdb5f",
          "to": "0x265029b030c8c5c2b8f7ffb5eac212dd49e6bc75",
          "contractAddress": null,
          "l1BaseFeeScalar": "0x1db0",
          "l1BlobBaseFee": "0x11dd11520ad",
          "l1BlobBaseFeeScalar": "0xd2730",
          "l1Fee": "0x6114c3a6fc48",
          "l1GasPrice": "0x11b5f139bf",
          "l1GasUsed": "0x640"
        },
        {
          "status": "0x1",
          "cumulativeGasUsed": "0xecffe",
          "logs": [
            {
              "address": "0x265029b030c8c5c2b8f7ffb5eac212dd49e6bc75",
              "topics": [
                "0x238399d427b947898edb290f5ff0f9109849b1c3ba196a42e35f00c50a54b98b"
              ],
              "data": "0x0000000000000000000000000000000000000000000000000000000000009ce1000000000000000000000000265029b030c8c5c2b8f7ffb5eac212dd49e6bc75",
              "blockHash": "0xa472ee44a783bf8dcdfb1461e22cfc834843a3e6b808628072273a2d5aff0e06",
              "blockNumber": "0x10176e6",
              "transactionHash": "0x5253326cc605273b496594c2dfb82eb1c297afd3e34d949534af08e910e1f963",
              "transactionIndex": "0x6",
              "logIndex": "0x14",
              "removed": false
            }
          ],
          "logsBloom": "0x00000000000000000000000000000000000000000000000000000000000000000000000000000000000000000000000000000000000000000800000000000000000000000000000000000000000000000000000000000000000000000000000010000000000000000000000000000000000000000000000000000000000000000000000000000000000000000000000000000000000000010000000000000000000000000000000000000000000000000000000000000000000002000000000000000000000000000000000000000000000000000000000000040000000000000000000000000000000000000000000000000000080000000000000000000000",
          "type": "0x2",
          "transactionHash": "0x5253326cc605273b496594c2dfb82eb1c297afd3e34d949534af08e910e1f963",
          "transactionIndex": "0x6",
          "blockHash": "0xa472ee44a783bf8dcdfb1461e22cfc834843a3e6b808628072273a2d5aff0e06",
          "blockNumber": "0x10176e6",
          "gasUsed": "0xba5e",
          "effectiveGasPrice": "0xf6a79",
          "from": "0x64a822f980dc5f126215d75d11dd8114ed0bdb5f",
          "to": "0x265029b030c8c5c2b8f7ffb5eac212dd49e6bc75",
          "contractAddress": null,
          "l1BaseFeeScalar": "0x1db0",
          "l1BlobBaseFee": "0x11dd11520ad",
          "l1BlobBaseFeeScalar": "0xd2730",
          "l1Fee": "0x6114c3a6fc48",
          "l1GasPrice": "0x11b5f139bf",
          "l1GasUsed": "0x640"
        },
        {
          "status": "0x1",
          "cumulativeGasUsed": "0xf40b0",
          "logs": [],
          "logsBloom": "0x00000000000000000000000000000000000000000000000000000000000000000000000000000000000000000000000000000000000000000000000000000000000000000000000000000000000000000000000000000000000000000000000000000000000000000000000000000000000000000000000000000000000000000000000000000000000000000000000000000000000000000000000000000000000000000000000000000000000000000000000000000000000000000000000000000000000000000000000000000000000000000000000000000000000000000000000000000000000000000000000000000000000000000000000000000000",
          "type": "0x2",
          "transactionHash": "0x14845e996711798dbb5184691d01f16a7a7307a55a427fa19f178093060f90d6",
          "transactionIndex": "0x7",
          "blockHash": "0xa472ee44a783bf8dcdfb1461e22cfc834843a3e6b808628072273a2d5aff0e06",
          "blockNumber": "0x10176e6",
          "gasUsed": "0x70b2",
          "effectiveGasPrice": "0xf6a79",
          "from": "0x64a822f980dc5f126215d75d11dd8114ed0bdb5f",
          "to": "0x265029b030c8c5c2b8f7ffb5eac212dd49e6bc75",
          "contractAddress": null,
          "l1BaseFeeScalar": "0x1db0",
          "l1BlobBaseFee": "0x11dd11520ad",
          "l1BlobBaseFeeScalar": "0xd2730",
          "l1Fee": "0x6114c3a6fc48",
          "l1GasPrice": "0x11b5f139bf",
          "l1GasUsed": "0x640"
        }
      ],
      "libraries": [],
      "pending": [],
      "returns": {},
      "timestamp": 1725548902,
      "chain": 11155420,
      "commit": "1d1fc8c"
    },
    {
      "transactions": [
        {
          "hash": "0x2fa5f31f9f99cebca0bcac140942dbb30d52cd6bd2f4ee9bc4c46db0b5f88142",
          "transactionType": "CALL",
          "contractName": null,
          "contractAddress": "0x265029b030c8c5c2b8f7ffb5eac212dd49e6bc75",
          "function": "setPeer(uint32,bytes32)",
          "arguments": [
            "40245",
            "0x000000000000000000000000265029b030c8c5c2b8f7ffb5eac212dd49e6bc75"
          ],
          "transaction": {
            "from": "0x64a822f980dc5f126215d75d11dd8114ed0bdb5f",
            "to": "0x265029b030c8c5c2b8f7ffb5eac212dd49e6bc75",
            "gas": "0xefbf8",
            "value": "0x0",
            "input": "0x3400288b0000000000000000000000000000000000000000000000000000000000009d35000000000000000000000000265029b030c8c5c2b8f7ffb5eac212dd49e6bc75",
            "nonce": "0x59",
            "chainId": "0x66eee"
          },
          "additionalContracts": [],
          "isFixedGasLimit": false
        },
        {
          "hash": "0x2382e31742097358ee1b61d3c42beb1925a2f8ce97711bcf49b0752224a34031",
          "transactionType": "CALL",
          "contractName": null,
          "contractAddress": "0x265029b030c8c5c2b8f7ffb5eac212dd49e6bc75",
          "function": "setPeer(uint32,bytes32)",
          "arguments": [
            "40232",
            "0x000000000000000000000000265029b030c8c5c2b8f7ffb5eac212dd49e6bc75"
          ],
          "transaction": {
            "from": "0x64a822f980dc5f126215d75d11dd8114ed0bdb5f",
            "to": "0x265029b030c8c5c2b8f7ffb5eac212dd49e6bc75",
            "gas": "0xefbf8",
            "value": "0x0",
            "input": "0x3400288b0000000000000000000000000000000000000000000000000000000000009d28000000000000000000000000265029b030c8c5c2b8f7ffb5eac212dd49e6bc75",
            "nonce": "0x5a",
            "chainId": "0x66eee"
          },
          "additionalContracts": [],
          "isFixedGasLimit": false
        },
        {
          "hash": "0xeaaa199560b2456718dc66e6071e1d6fc6a3c99a8e9ab4b8c75a3602bc311209",
          "transactionType": "CALL",
          "contractName": null,
          "contractAddress": "0x265029b030c8c5c2b8f7ffb5eac212dd49e6bc75",
          "function": "setPeer(uint32,bytes32)",
          "arguments": [
            "40305",
            "0x000000000000000000000000265029b030c8c5c2b8f7ffb5eac212dd49e6bc75"
          ],
          "transaction": {
            "from": "0x64a822f980dc5f126215d75d11dd8114ed0bdb5f",
            "to": "0x265029b030c8c5c2b8f7ffb5eac212dd49e6bc75",
            "gas": "0xefbf8",
            "value": "0x0",
            "input": "0x3400288b0000000000000000000000000000000000000000000000000000000000009d71000000000000000000000000265029b030c8c5c2b8f7ffb5eac212dd49e6bc75",
            "nonce": "0x5b",
            "chainId": "0x66eee"
          },
          "additionalContracts": [],
          "isFixedGasLimit": false
        },
        {
          "hash": "0x666636e7bd585106ca846d599082fb4d9cee275f5d346eaaae2f399d74891de3",
          "transactionType": "CALL",
          "contractName": null,
          "contractAddress": "0x265029b030c8c5c2b8f7ffb5eac212dd49e6bc75",
          "function": "setPeer(uint32,bytes32)",
          "arguments": [
            "40287",
            "0x000000000000000000000000265029b030c8c5c2b8f7ffb5eac212dd49e6bc75"
          ],
          "transaction": {
            "from": "0x64a822f980dc5f126215d75d11dd8114ed0bdb5f",
            "to": "0x265029b030c8c5c2b8f7ffb5eac212dd49e6bc75",
            "gas": "0xefbf8",
            "value": "0x0",
            "input": "0x3400288b0000000000000000000000000000000000000000000000000000000000009d5f000000000000000000000000265029b030c8c5c2b8f7ffb5eac212dd49e6bc75",
            "nonce": "0x5c",
            "chainId": "0x66eee"
          },
          "additionalContracts": [],
          "isFixedGasLimit": false
        },
        {
          "hash": "0x1d5cdae678a5816ae0c34c9ff7e6ae328d8fb88634e1513b7043261ce0975be8",
          "transactionType": "CALL",
          "contractName": null,
          "contractAddress": "0x265029b030c8c5c2b8f7ffb5eac212dd49e6bc75",
          "function": "setPeer(uint32,bytes32)",
          "arguments": [
            "40161",
            "0x000000000000000000000000265029b030c8c5c2b8f7ffb5eac212dd49e6bc75"
          ],
          "transaction": {
            "from": "0x64a822f980dc5f126215d75d11dd8114ed0bdb5f",
            "to": "0x265029b030c8c5c2b8f7ffb5eac212dd49e6bc75",
            "gas": "0xefbf8",
            "value": "0x0",
            "input": "0x3400288b0000000000000000000000000000000000000000000000000000000000009ce1000000000000000000000000265029b030c8c5c2b8f7ffb5eac212dd49e6bc75",
            "nonce": "0x5d",
            "chainId": "0x66eee"
          },
          "additionalContracts": [],
          "isFixedGasLimit": false
        },
        {
          "hash": "0x80181eec653dc76bc5fae489cfe1648172e7ec54f59c4783568ac4e523bf1275",
          "transactionType": "CALL",
          "contractName": null,
          "contractAddress": "0x265029b030c8c5c2b8f7ffb5eac212dd49e6bc75",
          "function": "setDstEidOfHomeChain(uint32)",
          "arguments": [
            "40231"
          ],
          "transaction": {
            "from": "0x64a822f980dc5f126215d75d11dd8114ed0bdb5f",
            "to": "0x265029b030c8c5c2b8f7ffb5eac212dd49e6bc75",
            "gas": "0xc6ac8",
            "value": "0x0",
            "input": "0x1cd24bd40000000000000000000000000000000000000000000000000000000000009d27",
            "nonce": "0x5e",
            "chainId": "0x66eee"
          },
          "additionalContracts": [],
          "isFixedGasLimit": false
        }
      ],
      "receipts": [
        {
          "status": "0x1",
          "cumulativeGasUsed": "0x90780",
          "logs": [
            {
              "address": "0x265029b030c8c5c2b8f7ffb5eac212dd49e6bc75",
              "topics": [
                "0x238399d427b947898edb290f5ff0f9109849b1c3ba196a42e35f00c50a54b98b"
              ],
              "data": "0x0000000000000000000000000000000000000000000000000000000000009d35000000000000000000000000265029b030c8c5c2b8f7ffb5eac212dd49e6bc75",
              "blockHash": "0xf409b458d1516de958b1679b5646590c2c933fd3df3234a1f0b8a9a774437235",
              "blockNumber": "0x49eff26",
              "transactionHash": "0x2fa5f31f9f99cebca0bcac140942dbb30d52cd6bd2f4ee9bc4c46db0b5f88142",
              "transactionIndex": "0x1",
              "logIndex": "0x0",
              "removed": false
            }
          ],
          "logsBloom": "0x00000000000000000000000000000000000000000000000000000000000000000000000000000000000000000000000000000000000000000800000000000000000000000000000000000000000000000000000000000000000000000000000010000000000000000000000000000000000000000000000000000000000000000000000000000000000000000000000000000000000000010000000000000000000000000000000000000000000000000000000000000000000002000000000000000000000000000000000000000000000000000000000000040000000000000000000000000000000000000000000000000000080000000000000000000000",
          "type": "0x2",
          "transactionHash": "0x2fa5f31f9f99cebca0bcac140942dbb30d52cd6bd2f4ee9bc4c46db0b5f88142",
          "transactionIndex": "0x1",
          "blockHash": "0xf409b458d1516de958b1679b5646590c2c933fd3df3234a1f0b8a9a774437235",
          "blockNumber": "0x49eff26",
          "gasUsed": "0x90780",
          "effectiveGasPrice": "0x5f5e100",
          "from": "0x64a822f980dc5f126215d75d11dd8114ed0bdb5f",
          "to": "0x265029b030c8c5c2b8f7ffb5eac212dd49e6bc75",
          "contractAddress": null,
          "gasUsedForL1": "0x84d22",
          "l1BlockNumber": "0x654969"
        },
        {
          "status": "0x1",
          "cumulativeGasUsed": "0x12a13ff",
          "logs": [
            {
              "address": "0x265029b030c8c5c2b8f7ffb5eac212dd49e6bc75",
              "topics": [
                "0x238399d427b947898edb290f5ff0f9109849b1c3ba196a42e35f00c50a54b98b"
              ],
              "data": "0x0000000000000000000000000000000000000000000000000000000000009d28000000000000000000000000265029b030c8c5c2b8f7ffb5eac212dd49e6bc75",
              "blockHash": "0x85880f5a536971892e34af259f3d4e28dd701d0878760337c3231d9070917641",
              "blockNumber": "0x49eff2a",
              "transactionHash": "0x2382e31742097358ee1b61d3c42beb1925a2f8ce97711bcf49b0752224a34031",
              "transactionIndex": "0x2",
              "logIndex": "0x3f",
              "removed": false
            }
          ],
          "logsBloom": "0x00000000000000000000000000000000000000000000000000000000000000000000000000000000000000000000000000000000000000000800000000000000000000000000000000000000000000000000000000000000000000000000000010000000000000000000000000000000000000000000000000000000000000000000000000000000000000000000000000000000000000010000000000000000000000000000000000000000000000000000000000000000000002000000000000000000000000000000000000000000000000000000000000040000000000000000000000000000000000000000000000000000080000000000000000000000",
          "type": "0x2",
          "transactionHash": "0x2382e31742097358ee1b61d3c42beb1925a2f8ce97711bcf49b0752224a34031",
          "transactionIndex": "0x2",
          "blockHash": "0x85880f5a536971892e34af259f3d4e28dd701d0878760337c3231d9070917641",
          "blockNumber": "0x49eff2a",
          "gasUsed": "0x90780",
          "effectiveGasPrice": "0x5f5e100",
          "from": "0x64a822f980dc5f126215d75d11dd8114ed0bdb5f",
          "to": "0x265029b030c8c5c2b8f7ffb5eac212dd49e6bc75",
          "contractAddress": null,
          "gasUsedForL1": "0x84d22",
          "l1BlockNumber": "0x654969"
        },
        {
          "status": "0x1",
          "cumulativeGasUsed": "0x90780",
          "logs": [
            {
              "address": "0x265029b030c8c5c2b8f7ffb5eac212dd49e6bc75",
              "topics": [
                "0x238399d427b947898edb290f5ff0f9109849b1c3ba196a42e35f00c50a54b98b"
              ],
              "data": "0x0000000000000000000000000000000000000000000000000000000000009d71000000000000000000000000265029b030c8c5c2b8f7ffb5eac212dd49e6bc75",
              "blockHash": "0x03985e56238f5bee9588168a04f3951279184417e3d99670433175ffebe379d3",
              "blockNumber": "0x49eff2d",
              "transactionHash": "0xeaaa199560b2456718dc66e6071e1d6fc6a3c99a8e9ab4b8c75a3602bc311209",
              "transactionIndex": "0x1",
              "logIndex": "0x0",
              "removed": false
            }
          ],
          "logsBloom": "0x00000000000000000000000000000000000000000000000000000000000000000000000000000000000000000000000000000000000000000800000000000000000000000000000000000000000000000000000000000000000000000000000010000000000000000000000000000000000000000000000000000000000000000000000000000000000000000000000000000000000000010000000000000000000000000000000000000000000000000000000000000000000002000000000000000000000000000000000000000000000000000000000000040000000000000000000000000000000000000000000000000000080000000000000000000000",
          "type": "0x2",
          "transactionHash": "0xeaaa199560b2456718dc66e6071e1d6fc6a3c99a8e9ab4b8c75a3602bc311209",
          "transactionIndex": "0x1",
          "blockHash": "0x03985e56238f5bee9588168a04f3951279184417e3d99670433175ffebe379d3",
          "blockNumber": "0x49eff2d",
          "gasUsed": "0x90780",
          "effectiveGasPrice": "0x5f5e100",
          "from": "0x64a822f980dc5f126215d75d11dd8114ed0bdb5f",
          "to": "0x265029b030c8c5c2b8f7ffb5eac212dd49e6bc75",
          "contractAddress": null,
          "gasUsedForL1": "0x84d22",
          "l1BlockNumber": "0x654969"
        },
        {
          "status": "0x1",
          "cumulativeGasUsed": "0xde81ad",
          "logs": [
            {
              "address": "0x265029b030c8c5c2b8f7ffb5eac212dd49e6bc75",
              "topics": [
                "0x238399d427b947898edb290f5ff0f9109849b1c3ba196a42e35f00c50a54b98b"
              ],
              "data": "0x0000000000000000000000000000000000000000000000000000000000009d5f000000000000000000000000265029b030c8c5c2b8f7ffb5eac212dd49e6bc75",
              "blockHash": "0x497d7ec08dacf5db03adee50ce8384922565b24e661e3b6563a03a0fc78c5db9",
              "blockNumber": "0x49eff30",
              "transactionHash": "0x666636e7bd585106ca846d599082fb4d9cee275f5d346eaaae2f399d74891de3",
              "transactionIndex": "0x4",
              "logIndex": "0x23",
              "removed": false
            }
          ],
          "logsBloom": "0x00000000000000000000000000000000000000000000000000000000000000000000000000000000000000000000000000000000000000000800000000000000000000000000000000000000000000000000000000000000000000000000000010000000000000000000000000000000000000000000000000000000000000000000000000000000000000000000000000000000000000010000000000000000000000000000000000000000000000000000000000000000000002000000000000000000000000000000000000000000000000000000000000040000000000000000000000000000000000000000000000000000080000000000000000000000",
          "type": "0x2",
          "transactionHash": "0x666636e7bd585106ca846d599082fb4d9cee275f5d346eaaae2f399d74891de3",
          "transactionIndex": "0x4",
          "blockHash": "0x497d7ec08dacf5db03adee50ce8384922565b24e661e3b6563a03a0fc78c5db9",
          "blockNumber": "0x49eff30",
          "gasUsed": "0x90780",
          "effectiveGasPrice": "0x5f5e100",
          "from": "0x64a822f980dc5f126215d75d11dd8114ed0bdb5f",
          "to": "0x265029b030c8c5c2b8f7ffb5eac212dd49e6bc75",
          "contractAddress": null,
          "gasUsedForL1": "0x84d22",
          "l1BlockNumber": "0x654969"
        },
        {
          "status": "0x1",
          "cumulativeGasUsed": "0x7f8599",
          "logs": [
            {
              "address": "0x265029b030c8c5c2b8f7ffb5eac212dd49e6bc75",
              "topics": [
                "0x238399d427b947898edb290f5ff0f9109849b1c3ba196a42e35f00c50a54b98b"
              ],
              "data": "0x0000000000000000000000000000000000000000000000000000000000009ce1000000000000000000000000265029b030c8c5c2b8f7ffb5eac212dd49e6bc75",
              "blockHash": "0x69b8876fe0f3f5eeb286814403cc31855dfe43a6f1614f572505785bdf84f587",
              "blockNumber": "0x49eff34",
              "transactionHash": "0x1d5cdae678a5816ae0c34c9ff7e6ae328d8fb88634e1513b7043261ce0975be8",
              "transactionIndex": "0x2",
              "logIndex": "0x16",
              "removed": false
            }
          ],
          "logsBloom": "0x00000000000000000000000000000000000000000000000000000000000000000000000000000000000000000000000000000000000000000800000000000000000000000000000000000000000000000000000000000000000000000000000010000000000000000000000000000000000000000000000000000000000000000000000000000000000000000000000000000000000000010000000000000000000000000000000000000000000000000000000000000000000002000000000000000000000000000000000000000000000000000000000000040000000000000000000000000000000000000000000000000000080000000000000000000000",
          "type": "0x2",
          "transactionHash": "0x1d5cdae678a5816ae0c34c9ff7e6ae328d8fb88634e1513b7043261ce0975be8",
          "transactionIndex": "0x2",
          "blockHash": "0x69b8876fe0f3f5eeb286814403cc31855dfe43a6f1614f572505785bdf84f587",
          "blockNumber": "0x49eff34",
          "gasUsed": "0x90780",
          "effectiveGasPrice": "0x5f5e100",
          "from": "0x64a822f980dc5f126215d75d11dd8114ed0bdb5f",
          "to": "0x265029b030c8c5c2b8f7ffb5eac212dd49e6bc75",
          "contractAddress": null,
          "gasUsedForL1": "0x84d22",
          "l1BlockNumber": "0x654969"
        },
        {
          "status": "0x1",
          "cumulativeGasUsed": "0x73c81",
          "logs": [],
          "logsBloom": "0x00000000000000000000000000000000000000000000000000000000000000000000000000000000000000000000000000000000000000000000000000000000000000000000000000000000000000000000000000000000000000000000000000000000000000000000000000000000000000000000000000000000000000000000000000000000000000000000000000000000000000000000000000000000000000000000000000000000000000000000000000000000000000000000000000000000000000000000000000000000000000000000000000000000000000000000000000000000000000000000000000000000000000000000000000000000",
          "type": "0x2",
          "transactionHash": "0x80181eec653dc76bc5fae489cfe1648172e7ec54f59c4783568ac4e523bf1275",
          "transactionIndex": "0x1",
          "blockHash": "0xa020afed28a9865a8616f18bd65fdaca0cccb9a0cbf0b88d21db23e4e0649be7",
          "blockNumber": "0x49eff39",
          "gasUsed": "0x73c81",
          "effectiveGasPrice": "0x5f5e100",
          "from": "0x64a822f980dc5f126215d75d11dd8114ed0bdb5f",
          "to": "0x265029b030c8c5c2b8f7ffb5eac212dd49e6bc75",
          "contractAddress": null,
          "gasUsedForL1": "0x6cbcf",
          "l1BlockNumber": "0x654969"
        }
      ],
      "libraries": [],
      "pending": [],
      "returns": {},
      "timestamp": 1725548904,
      "chain": 421614,
      "commit": "1d1fc8c"
    },
    {
      "transactions": [
        {
          "hash": "0xf8f2a1378391a103bf5c958bff89289fa5589251f20789c016c5fb3f5607535e",
          "transactionType": "CALL",
          "contractName": null,
          "contractAddress": "0x265029b030c8c5c2b8f7ffb5eac212dd49e6bc75",
          "function": "setPeer(uint32,bytes32)",
          "arguments": [
            "40245",
            "0x000000000000000000000000265029b030c8c5c2b8f7ffb5eac212dd49e6bc75"
          ],
          "transaction": {
            "from": "0x64a822f980dc5f126215d75d11dd8114ed0bdb5f",
            "to": "0x265029b030c8c5c2b8f7ffb5eac212dd49e6bc75",
            "gas": "0x1016a",
            "value": "0x0",
            "input": "0x3400288b0000000000000000000000000000000000000000000000000000000000009d35000000000000000000000000265029b030c8c5c2b8f7ffb5eac212dd49e6bc75",
            "nonce": "0x23",
            "chainId": "0xe705"
          },
          "additionalContracts": [],
          "isFixedGasLimit": false
        },
        {
          "hash": "0x92645776ae8546bb590f578b9eff361745a5c66163ae72c821d90f5d172e27c1",
          "transactionType": "CALL",
          "contractName": null,
          "contractAddress": "0x265029b030c8c5c2b8f7ffb5eac212dd49e6bc75",
          "function": "setPeer(uint32,bytes32)",
          "arguments": [
            "40232",
            "0x000000000000000000000000265029b030c8c5c2b8f7ffb5eac212dd49e6bc75"
          ],
          "transaction": {
            "from": "0x64a822f980dc5f126215d75d11dd8114ed0bdb5f",
            "to": "0x265029b030c8c5c2b8f7ffb5eac212dd49e6bc75",
            "gas": "0x1016a",
            "value": "0x0",
            "input": "0x3400288b0000000000000000000000000000000000000000000000000000000000009d28000000000000000000000000265029b030c8c5c2b8f7ffb5eac212dd49e6bc75",
            "nonce": "0x24",
            "chainId": "0xe705"
          },
          "additionalContracts": [],
          "isFixedGasLimit": false
        },
        {
          "hash": "0x9790abec5775494e0392612ac9f8deb55665b49416cc881e3a4e7019a050ff41",
          "transactionType": "CALL",
          "contractName": null,
          "contractAddress": "0x265029b030c8c5c2b8f7ffb5eac212dd49e6bc75",
          "function": "setPeer(uint32,bytes32)",
          "arguments": [
            "40231",
            "0x000000000000000000000000265029b030c8c5c2b8f7ffb5eac212dd49e6bc75"
          ],
          "transaction": {
            "from": "0x64a822f980dc5f126215d75d11dd8114ed0bdb5f",
            "to": "0x265029b030c8c5c2b8f7ffb5eac212dd49e6bc75",
            "gas": "0x1016a",
            "value": "0x0",
            "input": "0x3400288b0000000000000000000000000000000000000000000000000000000000009d27000000000000000000000000265029b030c8c5c2b8f7ffb5eac212dd49e6bc75",
            "nonce": "0x25",
            "chainId": "0xe705"
          },
          "additionalContracts": [],
          "isFixedGasLimit": false
        },
        {
          "hash": "0x4f1d05d9ca4902b71d83a35912ee13bad7f2f618cf155608de3a1e385497ffdc",
          "transactionType": "CALL",
          "contractName": null,
          "contractAddress": "0x265029b030c8c5c2b8f7ffb5eac212dd49e6bc75",
          "function": "setPeer(uint32,bytes32)",
          "arguments": [
            "40305",
            "0x000000000000000000000000265029b030c8c5c2b8f7ffb5eac212dd49e6bc75"
          ],
          "transaction": {
            "from": "0x64a822f980dc5f126215d75d11dd8114ed0bdb5f",
            "to": "0x265029b030c8c5c2b8f7ffb5eac212dd49e6bc75",
            "gas": "0x1016a",
            "value": "0x0",
            "input": "0x3400288b0000000000000000000000000000000000000000000000000000000000009d71000000000000000000000000265029b030c8c5c2b8f7ffb5eac212dd49e6bc75",
            "nonce": "0x26",
            "chainId": "0xe705"
          },
          "additionalContracts": [],
          "isFixedGasLimit": false
        },
        {
          "hash": "0x41abd7eb895cd371e5a4060b61f82053b9f1aa00eb14ecba8358f8878d1e95fa",
          "transactionType": "CALL",
          "contractName": null,
          "contractAddress": "0x265029b030c8c5c2b8f7ffb5eac212dd49e6bc75",
          "function": "setPeer(uint32,bytes32)",
          "arguments": [
            "40161",
            "0x000000000000000000000000265029b030c8c5c2b8f7ffb5eac212dd49e6bc75"
          ],
          "transaction": {
            "from": "0x64a822f980dc5f126215d75d11dd8114ed0bdb5f",
            "to": "0x265029b030c8c5c2b8f7ffb5eac212dd49e6bc75",
            "gas": "0x1016a",
            "value": "0x0",
            "input": "0x3400288b0000000000000000000000000000000000000000000000000000000000009ce1000000000000000000000000265029b030c8c5c2b8f7ffb5eac212dd49e6bc75",
            "nonce": "0x27",
            "chainId": "0xe705"
          },
          "additionalContracts": [],
          "isFixedGasLimit": false
        },
        {
          "hash": "0xb1909bb9b637402dc3e6fa9caf54f0556eb609211b0b9e84c57f9b6707d07b5f",
          "transactionType": "CALL",
          "contractName": null,
          "contractAddress": "0x265029b030c8c5c2b8f7ffb5eac212dd49e6bc75",
          "function": "setDstEidOfHomeChain(uint32)",
          "arguments": [
            "40287"
          ],
          "transaction": {
            "from": "0x64a822f980dc5f126215d75d11dd8114ed0bdb5f",
            "to": "0x265029b030c8c5c2b8f7ffb5eac212dd49e6bc75",
            "gas": "0xa4d0",
            "value": "0x0",
            "input": "0x1cd24bd40000000000000000000000000000000000000000000000000000000000009d5f",
            "nonce": "0x28",
            "chainId": "0xe705"
          },
          "additionalContracts": [],
          "isFixedGasLimit": false
        }
      ],
      "receipts": [
        {
          "status": "0x1",
          "cumulativeGasUsed": "0xba5e",
          "logs": [
            {
              "address": "0x265029b030c8c5c2b8f7ffb5eac212dd49e6bc75",
              "topics": [
                "0x238399d427b947898edb290f5ff0f9109849b1c3ba196a42e35f00c50a54b98b"
              ],
              "data": "0x0000000000000000000000000000000000000000000000000000000000009d35000000000000000000000000265029b030c8c5c2b8f7ffb5eac212dd49e6bc75",
              "blockHash": "0xc2c67996668612fca2b34834fc05fff5974ddec1102451f754ff41204ead3654",
              "blockNumber": "0x3953ce",
              "transactionHash": "0xf8f2a1378391a103bf5c958bff89289fa5589251f20789c016c5fb3f5607535e",
              "transactionIndex": "0x0",
              "logIndex": "0x0",
              "removed": false
            }
          ],
          "logsBloom": "0x00000000000000000000000000000000000000000000000000000000000000000000000000000000000000000000000000000000000000000800000000000000000000000000000000000000000000000000000000000000000000000000000010000000000000000000000000000000000000000000000000000000000000000000000000000000000000000000000000000000000000010000000000000000000000000000000000000000000000000000000000000000000002000000000000000000000000000000000000000000000000000000000000040000000000000000000000000000000000000000000000000000080000000000000000000000",
          "type": "0x2",
          "transactionHash": "0xf8f2a1378391a103bf5c958bff89289fa5589251f20789c016c5fb3f5607535e",
          "transactionIndex": "0x0",
          "blockHash": "0xc2c67996668612fca2b34834fc05fff5974ddec1102451f754ff41204ead3654",
          "blockNumber": "0x3953ce",
          "gasUsed": "0xba5e",
          "effectiveGasPrice": "0x1bb942cc2",
          "from": "0x64a822f980dc5f126215d75d11dd8114ed0bdb5f",
          "to": "0x265029b030c8c5c2b8f7ffb5eac212dd49e6bc75",
          "contractAddress": null
        },
        {
          "status": "0x1",
          "cumulativeGasUsed": "0x174bc",
          "logs": [
            {
              "address": "0x265029b030c8c5c2b8f7ffb5eac212dd49e6bc75",
              "topics": [
                "0x238399d427b947898edb290f5ff0f9109849b1c3ba196a42e35f00c50a54b98b"
              ],
              "data": "0x0000000000000000000000000000000000000000000000000000000000009d28000000000000000000000000265029b030c8c5c2b8f7ffb5eac212dd49e6bc75",
              "blockHash": "0xc2c67996668612fca2b34834fc05fff5974ddec1102451f754ff41204ead3654",
              "blockNumber": "0x3953ce",
              "transactionHash": "0x92645776ae8546bb590f578b9eff361745a5c66163ae72c821d90f5d172e27c1",
              "transactionIndex": "0x1",
              "logIndex": "0x1",
              "removed": false
            }
          ],
          "logsBloom": "0x00000000000000000000000000000000000000000000000000000000000000000000000000000000000000000000000000000000000000000800000000000000000000000000000000000000000000000000000000000000000000000000000010000000000000000000000000000000000000000000000000000000000000000000000000000000000000000000000000000000000000010000000000000000000000000000000000000000000000000000000000000000000002000000000000000000000000000000000000000000000000000000000000040000000000000000000000000000000000000000000000000000080000000000000000000000",
          "type": "0x2",
          "transactionHash": "0x92645776ae8546bb590f578b9eff361745a5c66163ae72c821d90f5d172e27c1",
          "transactionIndex": "0x1",
          "blockHash": "0xc2c67996668612fca2b34834fc05fff5974ddec1102451f754ff41204ead3654",
          "blockNumber": "0x3953ce",
          "gasUsed": "0xba5e",
          "effectiveGasPrice": "0x1bb942cc2",
          "from": "0x64a822f980dc5f126215d75d11dd8114ed0bdb5f",
          "to": "0x265029b030c8c5c2b8f7ffb5eac212dd49e6bc75",
          "contractAddress": null
        },
        {
          "status": "0x1",
          "cumulativeGasUsed": "0x22f1a",
          "logs": [
            {
              "address": "0x265029b030c8c5c2b8f7ffb5eac212dd49e6bc75",
              "topics": [
                "0x238399d427b947898edb290f5ff0f9109849b1c3ba196a42e35f00c50a54b98b"
              ],
              "data": "0x0000000000000000000000000000000000000000000000000000000000009d27000000000000000000000000265029b030c8c5c2b8f7ffb5eac212dd49e6bc75",
              "blockHash": "0xc2c67996668612fca2b34834fc05fff5974ddec1102451f754ff41204ead3654",
              "blockNumber": "0x3953ce",
              "transactionHash": "0x9790abec5775494e0392612ac9f8deb55665b49416cc881e3a4e7019a050ff41",
              "transactionIndex": "0x2",
              "logIndex": "0x2",
              "removed": false
            }
          ],
          "logsBloom": "0x00000000000000000000000000000000000000000000000000000000000000000000000000000000000000000000000000000000000000000800000000000000000000000000000000000000000000000000000000000000000000000000000010000000000000000000000000000000000000000000000000000000000000000000000000000000000000000000000000000000000000010000000000000000000000000000000000000000000000000000000000000000000002000000000000000000000000000000000000000000000000000000000000040000000000000000000000000000000000000000000000000000080000000000000000000000",
          "type": "0x2",
          "transactionHash": "0x9790abec5775494e0392612ac9f8deb55665b49416cc881e3a4e7019a050ff41",
          "transactionIndex": "0x2",
          "blockHash": "0xc2c67996668612fca2b34834fc05fff5974ddec1102451f754ff41204ead3654",
          "blockNumber": "0x3953ce",
          "gasUsed": "0xba5e",
          "effectiveGasPrice": "0x1bb942cc2",
          "from": "0x64a822f980dc5f126215d75d11dd8114ed0bdb5f",
          "to": "0x265029b030c8c5c2b8f7ffb5eac212dd49e6bc75",
          "contractAddress": null
        },
        {
          "status": "0x1",
          "cumulativeGasUsed": "0x2e978",
          "logs": [
            {
              "address": "0x265029b030c8c5c2b8f7ffb5eac212dd49e6bc75",
              "topics": [
                "0x238399d427b947898edb290f5ff0f9109849b1c3ba196a42e35f00c50a54b98b"
              ],
              "data": "0x0000000000000000000000000000000000000000000000000000000000009d71000000000000000000000000265029b030c8c5c2b8f7ffb5eac212dd49e6bc75",
              "blockHash": "0xc2c67996668612fca2b34834fc05fff5974ddec1102451f754ff41204ead3654",
              "blockNumber": "0x3953ce",
              "transactionHash": "0x4f1d05d9ca4902b71d83a35912ee13bad7f2f618cf155608de3a1e385497ffdc",
              "transactionIndex": "0x3",
              "logIndex": "0x3",
              "removed": false
            }
          ],
          "logsBloom": "0x00000000000000000000000000000000000000000000000000000000000000000000000000000000000000000000000000000000000000000800000000000000000000000000000000000000000000000000000000000000000000000000000010000000000000000000000000000000000000000000000000000000000000000000000000000000000000000000000000000000000000010000000000000000000000000000000000000000000000000000000000000000000002000000000000000000000000000000000000000000000000000000000000040000000000000000000000000000000000000000000000000000080000000000000000000000",
          "type": "0x2",
          "transactionHash": "0x4f1d05d9ca4902b71d83a35912ee13bad7f2f618cf155608de3a1e385497ffdc",
          "transactionIndex": "0x3",
          "blockHash": "0xc2c67996668612fca2b34834fc05fff5974ddec1102451f754ff41204ead3654",
          "blockNumber": "0x3953ce",
          "gasUsed": "0xba5e",
          "effectiveGasPrice": "0x1bb942cc2",
          "from": "0x64a822f980dc5f126215d75d11dd8114ed0bdb5f",
          "to": "0x265029b030c8c5c2b8f7ffb5eac212dd49e6bc75",
          "contractAddress": null
        },
        {
          "status": "0x1",
          "cumulativeGasUsed": "0x3a3d6",
          "logs": [
            {
              "address": "0x265029b030c8c5c2b8f7ffb5eac212dd49e6bc75",
              "topics": [
                "0x238399d427b947898edb290f5ff0f9109849b1c3ba196a42e35f00c50a54b98b"
              ],
              "data": "0x0000000000000000000000000000000000000000000000000000000000009ce1000000000000000000000000265029b030c8c5c2b8f7ffb5eac212dd49e6bc75",
              "blockHash": "0xc2c67996668612fca2b34834fc05fff5974ddec1102451f754ff41204ead3654",
              "blockNumber": "0x3953ce",
              "transactionHash": "0x41abd7eb895cd371e5a4060b61f82053b9f1aa00eb14ecba8358f8878d1e95fa",
              "transactionIndex": "0x4",
              "logIndex": "0x4",
              "removed": false
            }
          ],
          "logsBloom": "0x00000000000000000000000000000000000000000000000000000000000000000000000000000000000000000000000000000000000000000800000000000000000000000000000000000000000000000000000000000000000000000000000010000000000000000000000000000000000000000000000000000000000000000000000000000000000000000000000000000000000000010000000000000000000000000000000000000000000000000000000000000000000002000000000000000000000000000000000000000000000000000000000000040000000000000000000000000000000000000000000000000000080000000000000000000000",
          "type": "0x2",
          "transactionHash": "0x41abd7eb895cd371e5a4060b61f82053b9f1aa00eb14ecba8358f8878d1e95fa",
          "transactionIndex": "0x4",
          "blockHash": "0xc2c67996668612fca2b34834fc05fff5974ddec1102451f754ff41204ead3654",
          "blockNumber": "0x3953ce",
          "gasUsed": "0xba5e",
          "effectiveGasPrice": "0x1bb942cc2",
          "from": "0x64a822f980dc5f126215d75d11dd8114ed0bdb5f",
          "to": "0x265029b030c8c5c2b8f7ffb5eac212dd49e6bc75",
          "contractAddress": null
        },
        {
          "status": "0x1",
          "cumulativeGasUsed": "0x41488",
          "logs": [],
          "logsBloom": "0x00000000000000000000000000000000000000000000000000000000000000000000000000000000000000000000000000000000000000000000000000000000000000000000000000000000000000000000000000000000000000000000000000000000000000000000000000000000000000000000000000000000000000000000000000000000000000000000000000000000000000000000000000000000000000000000000000000000000000000000000000000000000000000000000000000000000000000000000000000000000000000000000000000000000000000000000000000000000000000000000000000000000000000000000000000000",
          "type": "0x2",
          "transactionHash": "0xb1909bb9b637402dc3e6fa9caf54f0556eb609211b0b9e84c57f9b6707d07b5f",
          "transactionIndex": "0x5",
          "blockHash": "0xc2c67996668612fca2b34834fc05fff5974ddec1102451f754ff41204ead3654",
          "blockNumber": "0x3953ce",
          "gasUsed": "0x70b2",
          "effectiveGasPrice": "0x1bb942cc2",
          "from": "0x64a822f980dc5f126215d75d11dd8114ed0bdb5f",
          "to": "0x265029b030c8c5c2b8f7ffb5eac212dd49e6bc75",
          "contractAddress": null
        }
      ],
      "libraries": [],
      "pending": [],
      "returns": {},
      "timestamp": 1725548904,
      "chain": 59141,
      "commit": "1d1fc8c"
    }
  ],
  "timestamp": 1725548934
}