{
  "deployments": [
    {
      "transactions": [
        {
          "hash": "0x953d2e583bdcbfc04f71dae09488d88dc977b681ac1f5bcd81914e6aa14c4991",
          "transactionType": "CALL",
          "contractName": null,
          "contractAddress": "0xe8429f469e66e10644a4f5ec82ee890b808c5dc1",
          "function": "setPeer(uint32,bytes32)",
          "arguments": [
            "40232",
            "0x000000000000000000000000e8429f469e66e10644a4f5ec82ee890b808c5dc1"
          ],
          "transaction": {
            "from": "0x64a822f980dc5f126215d75d11dd8114ed0bdb5f",
            "to": "0xe8429f469e66e10644a4f5ec82ee890b808c5dc1",
            "gas": "0x100f0",
            "value": "0x0",
            "input": "0x3400288b0000000000000000000000000000000000000000000000000000000000009d28000000000000000000000000e8429f469e66e10644a4f5ec82ee890b808c5dc1",
            "nonce": "0x12d",
            "chainId": "0x14a34"
          },
          "additionalContracts": [],
          "isFixedGasLimit": false
        }
      ],
      "receipts": [
        {
          "status": "0x1",
          "cumulativeGasUsed": "0x2bbf2b",
          "logs": [
            {
              "address": "0xe8429f469e66e10644a4f5ec82ee890b808c5dc1",
              "topics": [
                "0x238399d427b947898edb290f5ff0f9109849b1c3ba196a42e35f00c50a54b98b"
              ],
              "data": "0x0000000000000000000000000000000000000000000000000000000000009d28000000000000000000000000e8429f469e66e10644a4f5ec82ee890b808c5dc1",
              "blockHash": "0x7fa974334ed7491b04e8d4ddac4b5f0f34f7461dfdb6268157613b3d026695e2",
              "blockNumber": "0xdfe1ab",
              "transactionHash": "0x953d2e583bdcbfc04f71dae09488d88dc977b681ac1f5bcd81914e6aa14c4991",
              "transactionIndex": "0x9",
              "logIndex": "0x2b",
              "removed": false
            }
          ],
          "logsBloom": "0x00000000000000000000000000000000000000000000000000000000000000000000000000000000000000000000000000000000010000000800000000000000000000000000000000000000000000000000000000000000000000000000000000000000000000000000000000000000000000000000000000000000000000000000000000000000000000000000000000000000000000000000000000000002000000000000000000000000000000000000000000000000000002000000000000000000000000000000000000000000000000000000000000040000000000000040000000000000000000000000000000000000000000000000000000000000",
          "type": "0x2",
          "transactionHash": "0x953d2e583bdcbfc04f71dae09488d88dc977b681ac1f5bcd81914e6aa14c4991",
          "transactionIndex": "0x9",
          "blockHash": "0x7fa974334ed7491b04e8d4ddac4b5f0f34f7461dfdb6268157613b3d026695e2",
          "blockNumber": "0xdfe1ab",
          "gasUsed": "0xba05",
          "effectiveGasPrice": "0xf0a2e",
          "from": "0x64a822f980dc5f126215d75d11dd8114ed0bdb5f",
          "to": "0xe8429f469e66e10644a4f5ec82ee890b808c5dc1",
          "contractAddress": null,
          "l1BaseFeeScalar": "0x44d",
          "l1BlobBaseFee": "0x13cc64ab25",
          "l1BlobBaseFeeScalar": "0xa118b",
          "l1Fee": "0x51c66d17bff",
          "l1GasPrice": "0x122dcda9d",
          "l1GasUsed": "0x640"
        }
      ],
      "libraries": [],
      "pending": [],
      "returns": {},
      "timestamp": 1725112863,
      "chain": 84532,
      "commit": "ef3e872"
    },
    {
      "transactions": [
        {
          "hash": "0xd3c8691452b27fc5616ee4b58781d9147fa02d2f23458b41fbc3cb135dbdb64c",
          "transactionType": "CALL",
          "contractName": null,
          "contractAddress": "0xe8429f469e66e10644a4f5ec82ee890b808c5dc1",
          "function": "setPeer(uint32,bytes32)",
          "arguments": [
            "40245",
            "0x000000000000000000000000e8429f469e66e10644a4f5ec82ee890b808c5dc1"
          ],
          "transaction": {
            "from": "0x64a822f980dc5f126215d75d11dd8114ed0bdb5f",
            "to": "0xe8429f469e66e10644a4f5ec82ee890b808c5dc1",
            "gas": "0x100f0",
            "value": "0x0",
            "input": "0x3400288b0000000000000000000000000000000000000000000000000000000000009d35000000000000000000000000e8429f469e66e10644a4f5ec82ee890b808c5dc1",
            "nonce": "0xaf",
            "chainId": "0xaa37dc"
          },
          "additionalContracts": [],
          "isFixedGasLimit": false
        }
      ],
      "receipts": [
        {
          "status": "0x1",
          "cumulativeGasUsed": "0x19ee50",
          "logs": [
            {
              "address": "0xe8429f469e66e10644a4f5ec82ee890b808c5dc1",
              "topics": [
                "0x238399d427b947898edb290f5ff0f9109849b1c3ba196a42e35f00c50a54b98b"
              ],
              "data": "0x0000000000000000000000000000000000000000000000000000000000009d35000000000000000000000000e8429f469e66e10644a4f5ec82ee890b808c5dc1",
              "blockHash": "0x57038e3463757645a394493b920787d522b7ffaad63e68e462605aa3f815df74",
              "blockNumber": "0xfe2349",
              "transactionHash": "0xd3c8691452b27fc5616ee4b58781d9147fa02d2f23458b41fbc3cb135dbdb64c",
              "transactionIndex": "0x4",
              "logIndex": "0x21",
              "removed": false
            }
          ],
          "logsBloom": "0x00000000000000000000000000000000000000000000000000000000000000000000000000000000000000000000000000000000010000000800000000000000000000000000000000000000000000000000000000000000000000000000000000000000000000000000000000000000000000000000000000000000000000000000000000000000000000000000000000000000000000000000000000000002000000000000000000000000000000000000000000000000000002000000000000000000000000000000000000000000000000000000000000040000000000000040000000000000000000000000000000000000000000000000000000000000",
          "type": "0x2",
          "transactionHash": "0xd3c8691452b27fc5616ee4b58781d9147fa02d2f23458b41fbc3cb135dbdb64c",
          "transactionIndex": "0x4",
          "blockHash": "0x57038e3463757645a394493b920787d522b7ffaad63e68e462605aa3f815df74",
          "blockNumber": "0xfe2349",
          "gasUsed": "0xba05",
          "effectiveGasPrice": "0xf6a9c",
          "from": "0x64a822f980dc5f126215d75d11dd8114ed0bdb5f",
          "to": "0xe8429f469e66e10644a4f5ec82ee890b808c5dc1",
          "contractAddress": null,
          "l1BaseFeeScalar": "0x1db0",
          "l1BlobBaseFee": "0xfa4a801e5",
          "l1BlobBaseFeeScalar": "0xd2730",
          "l1Fee": "0x551c874fa2b",
          "l1GasPrice": "0x118d88a83",
          "l1GasUsed": "0x640"
        }
      ],
      "libraries": [],
      "pending": [],
      "returns": {},
      "timestamp": 1725112863,
      "chain": 11155420,
      "commit": "ef3e872"
    }
  ],
  "timestamp": 1725112900
}