{
  "deployments": [
    {
      "transactions": [
        {
          "hash": "0xc67c64613b1e926474b603fc7902e9adf810e88c482182d9419285ddc56900dc",
          "transactionType": "CALL",
          "contractName": null,
          "contractAddress": "0x92bee7c879bc36dca46f728604d00aff0bbfd673",
          "function": "setPeer(uint32,bytes32)",
          "arguments": [
            "40232",
            "0x00000000000000000000000076baeae38288df2504775f8e5b0084c0e1012a21"
          ],
          "transaction": {
            "from": "0x64a822f980dc5f126215d75d11dd8114ed0bdb5f",
            "to": "0x92bee7c879bc36dca46f728604d00aff0bbfd673",
            "gas": "0x10ffc",
            "value": "0x0",
            "input": "0x3400288b0000000000000000000000000000000000000000000000000000000000009d2800000000000000000000000076baeae38288df2504775f8e5b0084c0e1012a21",
            "nonce": "0x17e",
            "chainId": "0x14a34"
          },
          "additionalContracts": [],
          "isFixedGasLimit": false
        }
      ],
      "receipts": [
        {
          "status": "0x1",
          "cumulativeGasUsed": "0x1ee906",
          "logs": [
            {
              "address": "0x92bee7c879bc36dca46f728604d00aff0bbfd673",
              "topics": [
                "0x238399d427b947898edb290f5ff0f9109849b1c3ba196a42e35f00c50a54b98b"
              ],
              "data": "0x0000000000000000000000000000000000000000000000000000000000009d2800000000000000000000000076baeae38288df2504775f8e5b0084c0e1012a21",
              "blockHash": "0x34dccfbf15208c2c738000a3aa30139dc0658c959cde7c3dd7712ca9de62afca",
              "blockNumber": "0xe1143a",
              "transactionHash": "0xc67c64613b1e926474b603fc7902e9adf810e88c482182d9419285ddc56900dc",
              "transactionIndex": "0x9",
              "logIndex": "0x2b",
              "removed": false
            }
          ],
          "logsBloom": "0x00000000000000000000000000000000000000000000000000000000000000000000000000000000000000000000000000000000000000000800000000004000000000000000000000000000000000000000000000000000000000000000000000400000000000000004000000000000000000000000000000000000000000000000000000000000000000000000000000000000000000000000000000000000000000000000000000000000000000000000000000000000000002000000000000000000000000000000000000000000000000000000000000040000000000000000000000000000000000000000000000000000000000000000000000000000",
          "type": "0x2",
          "transactionHash": "0xc67c64613b1e926474b603fc7902e9adf810e88c482182d9419285ddc56900dc",
          "transactionIndex": "0x9",
          "blockHash": "0x34dccfbf15208c2c738000a3aa30139dc0658c959cde7c3dd7712ca9de62afca",
          "blockNumber": "0xe1143a",
          "gasUsed": "0xb9f9",
          "effectiveGasPrice": "0xf44fc",
          "from": "0x64a822f980dc5f126215d75d11dd8114ed0bdb5f",
          "to": "0x92bee7c879bc36dca46f728604d00aff0bbfd673",
          "contractAddress": null,
          "l1BaseFeeScalar": "0x44d",
          "l1BlobBaseFee": "0xb26f1877d6",
          "l1BlobBaseFeeScalar": "0xa118b",
          "l1Fee": "0x2e0f90b5df7f",
          "l1GasPrice": "0x9fb134bcd",
          "l1GasUsed": "0x640"
        }
      ],
      "libraries": [],
      "pending": [],
      "returns": {},
      "timestamp": 1725269839,
      "chain": 84532,
      "commit": "63746a1"
    },
    {
      "transactions": [
        {
          "hash": "0x281ab4f0a7cfd72bd513abb210b42e9b5f180c6a98b6dbcafabedf844de97340",
          "transactionType": "CALL",
          "contractName": null,
          "contractAddress": "0x92bee7c879bc36dca46f728604d00aff0bbfd673",
          "function": "setPeer(uint32,bytes32)",
          "arguments": [
            "40245",
            "0x00000000000000000000000076baeae38288df2504775f8e5b0084c0e1012a21"
          ],
          "transaction": {
            "from": "0x64a822f980dc5f126215d75d11dd8114ed0bdb5f",
            "to": "0x92bee7c879bc36dca46f728604d00aff0bbfd673",
            "gas": "0x10ffc",
            "value": "0x0",
            "input": "0x3400288b0000000000000000000000000000000000000000000000000000000000009d3500000000000000000000000076baeae38288df2504775f8e5b0084c0e1012a21",
            "nonce": "0xcf",
            "chainId": "0xaa37dc"
          },
          "additionalContracts": [],
          "isFixedGasLimit": false
        }
      ],
      "receipts": [
        {
          "status": "0x1",
          "cumulativeGasUsed": "0x328893",
          "logs": [
            {
              "address": "0x92bee7c879bc36dca46f728604d00aff0bbfd673",
              "topics": [
                "0x238399d427b947898edb290f5ff0f9109849b1c3ba196a42e35f00c50a54b98b"
              ],
              "data": "0x0000000000000000000000000000000000000000000000000000000000009d3500000000000000000000000076baeae38288df2504775f8e5b0084c0e1012a21",
              "blockHash": "0xe2afe4d46fb98cb0c22f023a319403ad47c692769ee0395581bf7d479e138a7d",
              "blockNumber": "0xff55d8",
              "transactionHash": "0x281ab4f0a7cfd72bd513abb210b42e9b5f180c6a98b6dbcafabedf844de97340",
              "transactionIndex": "0x5",
              "logIndex": "0x28",
              "removed": false
            }
          ],
          "logsBloom": "0x00000000000000000000000000000000000000000000000000000000000000000000000000000000000000000000000000000000000000000800000000004000000000000000000000000000000000000000000000000000000000000000000000400000000000000004000000000000000000000000000000000000000000000000000000000000000000000000000000000000000000000000000000000000000000000000000000000000000000000000000000000000000002000000000000000000000000000000000000000000000000000000000000040000000000000000000000000000000000000000000000000000000000000000000000000000",
          "type": "0x2",
          "transactionHash": "0x281ab4f0a7cfd72bd513abb210b42e9b5f180c6a98b6dbcafabedf844de97340",
          "transactionIndex": "0x5",
          "blockHash": "0xe2afe4d46fb98cb0c22f023a319403ad47c692769ee0395581bf7d479e138a7d",
          "blockNumber": "0xff55d8",
          "gasUsed": "0xb9f9",
          "effectiveGasPrice": "0xf6ad9",
          "from": "0x64a822f980dc5f126215d75d11dd8114ed0bdb5f",
          "to": "0x92bee7c879bc36dca46f728604d00aff0bbfd673",
          "contractAddress": null,
          "l1BaseFeeScalar": "0x1db0",
          "l1BlobBaseFee": "0x787eb9bbc3",
          "l1BlobBaseFeeScalar": "0xd2730",
          "l1Fee": "0x28fb56c5d62e",
          "l1GasPrice": "0x89b89f480",
          "l1GasUsed": "0x640"
        }
      ],
      "libraries": [],
      "pending": [],
      "returns": {},
      "timestamp": 1725269839,
      "chain": 11155420,
      "commit": "63746a1"
    }
  ],
  "timestamp": 1725269857
}