{
  "deployments": [
    {
      "transactions": [
        {
          "hash": "0xbcc911ef72e240e179284a3e8b4bcd963cf9445305f935258b41a0f38f83dcef",
          "transactionType": "CALL",
          "contractName": null,
          "contractAddress": "0x01debc62b0bbe60dbd4e8be8be4c464bba2cd9ed",
          "function": "setPeer(uint32,bytes32)",
          "arguments": [
            "40232",
            "0x00000000000000000000000001debc62b0bbe60dbd4e8be8be4c464bba2cd9ed"
          ],
          "transaction": {
            "from": "0x64a822f980dc5f126215d75d11dd8114ed0bdb5f",
            "to": "0x01debc62b0bbe60dbd4e8be8be4c464bba2cd9ed",
            "gas": "0x10169",
            "value": "0x0",
            "input": "0x3400288b0000000000000000000000000000000000000000000000000000000000009d2800000000000000000000000001debc62b0bbe60dbd4e8be8be4c464bba2cd9ed",
            "nonce": "0x194",
            "chainId": "0x14a34"
          },
          "additionalContracts": [],
          "isFixedGasLimit": false
        }
      ],
      "receipts": [
        {
          "status": "0x1",
          "cumulativeGasUsed": "0x1ccd43",
          "logs": [
            {
              "address": "0x01debc62b0bbe60dbd4e8be8be4c464bba2cd9ed",
              "topics": [
                "0x238399d427b947898edb290f5ff0f9109849b1c3ba196a42e35f00c50a54b98b"
              ],
              "data": "0x0000000000000000000000000000000000000000000000000000000000009d2800000000000000000000000001debc62b0bbe60dbd4e8be8be4c464bba2cd9ed",
              "blockHash": "0x11fd566595a2f45c4451f5d8c9dc6dec972d38892089a8af87889d6e6fa45deb",
              "blockNumber": "0xe11fc9",
              "transactionHash": "0xbcc911ef72e240e179284a3e8b4bcd963cf9445305f935258b41a0f38f83dcef",
              "transactionIndex": "0x6",
              "logIndex": "0x28",
              "removed": false
            }
          ],
          "logsBloom": "0x00000000000000000000000000000000000000000000000004000000000000000000000000000000000000000000000000000000000000000800000000000000000000000000000000000000000000000000000000000000000000000000000000000000000000000000000004000000000000000000000000000000000000000000000000000000000000000000000000000000000000000000000000000000000000000000000000000000000000000000000000000000000002000000000000000000000000000000000000000000000000000000000000040000000000000000000000000000000000000100000000000000000000000000000000000000",
          "type": "0x2",
          "transactionHash": "0xbcc911ef72e240e179284a3e8b4bcd963cf9445305f935258b41a0f38f83dcef",
          "transactionIndex": "0x6",
          "blockHash": "0x11fd566595a2f45c4451f5d8c9dc6dec972d38892089a8af87889d6e6fa45deb",
          "blockNumber": "0xe11fc9",
          "gasUsed": "0xba5d",
          "effectiveGasPrice": "0x7a6ea",
          "from": "0x64a822f980dc5f126215d75d11dd8114ed0bdb5f",
          "to": "0x01debc62b0bbe60dbd4e8be8be4c464bba2cd9ed",
          "contractAddress": null,
          "l1BaseFeeScalar": "0x44d",
          "l1BlobBaseFee": "0x11dd11520ad",
          "l1BlobBaseFeeScalar": "0xa118b",
          "l1Fee": "0x49b8080158a8",
          "l1GasPrice": "0x707f11f2c",
          "l1GasUsed": "0x640"
        }
      ],
      "libraries": [],
      "pending": [],
      "returns": {},
      "timestamp": 1725275758,
      "chain": 84532,
      "commit": "0235df7"
    },
    {
      "transactions": [
        {
          "hash": "0xc32ddcfa1617d4e291f07c4039808ef6ec4fb152cc639ae3f09f1c62bd962a62",
          "transactionType": "CALL",
          "contractName": null,
          "contractAddress": "0x01debc62b0bbe60dbd4e8be8be4c464bba2cd9ed",
          "function": "setPeer(uint32,bytes32)",
          "arguments": [
            "40245",
            "0x00000000000000000000000001debc62b0bbe60dbd4e8be8be4c464bba2cd9ed"
          ],
          "transaction": {
            "from": "0x64a822f980dc5f126215d75d11dd8114ed0bdb5f",
            "to": "0x01debc62b0bbe60dbd4e8be8be4c464bba2cd9ed",
            "gas": "0x10169",
            "value": "0x0",
            "input": "0x3400288b0000000000000000000000000000000000000000000000000000000000009d3500000000000000000000000001debc62b0bbe60dbd4e8be8be4c464bba2cd9ed",
            "nonce": "0xe1",
            "chainId": "0xaa37dc"
          },
          "additionalContracts": [],
          "isFixedGasLimit": false
        }
      ],
      "receipts": [
        {
          "status": "0x1",
          "cumulativeGasUsed": "0x40d264",
          "logs": [
            {
              "address": "0x01debc62b0bbe60dbd4e8be8be4c464bba2cd9ed",
              "topics": [
                "0x238399d427b947898edb290f5ff0f9109849b1c3ba196a42e35f00c50a54b98b"
              ],
              "data": "0x0000000000000000000000000000000000000000000000000000000000009d3500000000000000000000000001debc62b0bbe60dbd4e8be8be4c464bba2cd9ed",
              "blockHash": "0x84032cd3df94dca463c63171c396981451c6865d233ce1cb7001780b28ecc484",
              "blockNumber": "0xff6167",
              "transactionHash": "0xc32ddcfa1617d4e291f07c4039808ef6ec4fb152cc639ae3f09f1c62bd962a62",
              "transactionIndex": "0x5",
              "logIndex": "0x32",
              "removed": false
            }
          ],
          "logsBloom": "0x00000000000000000000000000000000000000000000000004000000000000000000000000000000000000000000000000000000000000000800000000000000000000000000000000000000000000000000000000000000000000000000000000000000000000000000000004000000000000000000000000000000000000000000000000000000000000000000000000000000000000000000000000000000000000000000000000000000000000000000000000000000000002000000000000000000000000000000000000000000000000000000000000040000000000000000000000000000000000000100000000000000000000000000000000000000",
          "type": "0x2",
          "transactionHash": "0xc32ddcfa1617d4e291f07c4039808ef6ec4fb152cc639ae3f09f1c62bd962a62",
          "transactionIndex": "0x5",
          "blockHash": "0x84032cd3df94dca463c63171c396981451c6865d233ce1cb7001780b28ecc484",
          "blockNumber": "0xff6167",
          "gasUsed": "0xba5d",
          "effectiveGasPrice": "0xf6a83",
          "from": "0x64a822f980dc5f126215d75d11dd8114ed0bdb5f",
          "to": "0x01debc62b0bbe60dbd4e8be8be4c464bba2cd9ed",
          "contractAddress": null,
          "l1BaseFeeScalar": "0x1db0",
          "l1BlobBaseFee": "0x11dd11520ad",
          "l1BlobBaseFeeScalar": "0xd2730",
          "l1Fee": "0x608ce44243c8",
          "l1GasPrice": "0x689774227",
          "l1GasUsed": "0x640"
        }
      ],
      "libraries": [],
      "pending": [],
      "returns": {},
      "timestamp": 1725275758,
      "chain": 11155420,
      "commit": "0235df7"
    }
  ],
  "timestamp": 1725275776
}