{
  "deployments": [
    {
      "transactions": [
        {
          "hash": "0xe919b0ce3e51f0c1f9510204553b19d1259c013a79bc99f59929da7b1b27fe41",
          "transactionType": "CALL",
          "contractName": null,
          "contractAddress": "0x9c8f6c71322ab8e8001b7863448950281457a690",
          "function": "setPeer(uint32,bytes32)",
          "arguments": [
            "40232",
            "0x0000000000000000000000009c8f6c71322ab8e8001b7863448950281457a690"
          ],
          "transaction": {
            "from": "0x64a822f980dc5f126215d75d11dd8114ed0bdb5f",
            "to": "0x9c8f6c71322ab8e8001b7863448950281457a690",
            "gas": "0x1105c",
            "value": "0x0",
            "input": "0x3400288b0000000000000000000000000000000000000000000000000000000000009d280000000000000000000000009c8f6c71322ab8e8001b7863448950281457a690",
            "nonce": "0x1b0",
            "chainId": "0x14a34"
          },
          "additionalContracts": [],
          "isFixedGasLimit": false
        }
      ],
      "receipts": [
        {
          "status": "0x1",
          "cumulativeGasUsed": "0x145f79",
          "logs": [
            {
              "address": "0x9c8f6c71322ab8e8001b7863448950281457a690",
              "topics": [
                "0x238399d427b947898edb290f5ff0f9109849b1c3ba196a42e35f00c50a54b98b"
              ],
              "data": "0x0000000000000000000000000000000000000000000000000000000000009d280000000000000000000000009c8f6c71322ab8e8001b7863448950281457a690",
              "blockHash": "0x76a8d7eb764ca7f52336fc73a955620c07d2b4b9473c6bbf7a1627f392414e7e",
              "blockNumber": "0xe2b4c9",
              "transactionHash": "0xe919b0ce3e51f0c1f9510204553b19d1259c013a79bc99f59929da7b1b27fe41",
              "transactionIndex": "0x8",
              "logIndex": "0x17",
              "removed": false
            }
          ],
          "logsBloom": "0x00000000000000000000000000000000000000000000000000000000000000000000000000000000000000000000000000000000000000000800000000000000000000000000000000000000000000000000000001000000000000000000000000000000000000000100020000000000000000000000000000000000000000000000000000000000000000000000000000000000000000000000000000000000000000000000000000000000000000000000000000000000000002000000000000000000000000000000000000000000000000000000000000040000000000000000000000000000000000000000000000000000000000000000000000000000",
          "type": "0x2",
          "transactionHash": "0xe919b0ce3e51f0c1f9510204553b19d1259c013a79bc99f59929da7b1b27fe41",
          "transactionIndex": "0x8",
          "blockHash": "0x76a8d7eb764ca7f52336fc73a955620c07d2b4b9473c6bbf7a1627f392414e7e",
          "blockNumber": "0xe2b4c9",
          "gasUsed": "0xba3b",
          "effectiveGasPrice": "0xf435b",
          "from": "0x64a822f980dc5f126215d75d11dd8114ed0bdb5f",
          "to": "0x9c8f6c71322ab8e8001b7863448950281457a690",
          "contractAddress": null,
          "l1BaseFeeScalar": "0x44d",
          "l1BlobBaseFee": "0xf0a79d117",
          "l1BlobBaseFeeScalar": "0xa118b",
          "l1Fee": "0x3e2d2dc88fd",
          "l1GasPrice": "0x15511bd6a",
          "l1GasUsed": "0x640"
        }
      ],
      "libraries": [],
      "pending": [],
      "returns": {},
      "timestamp": 1725483115,
      "chain": 84532,
      "commit": "3db11dc"
    },
    {
      "transactions": [
        {
          "hash": "0xa48f001290bd3d766f1b943ab03546af08253fccd7ff58f93b6e021c26a9f480",
          "transactionType": "CALL",
          "contractName": null,
          "contractAddress": "0x9c8f6c71322ab8e8001b7863448950281457a690",
          "function": "setPeer(uint32,bytes32)",
          "arguments": [
            "40245",
            "0x0000000000000000000000009c8f6c71322ab8e8001b7863448950281457a690"
          ],
          "transaction": {
            "from": "0x64a822f980dc5f126215d75d11dd8114ed0bdb5f",
            "to": "0x9c8f6c71322ab8e8001b7863448950281457a690",
            "gas": "0x1105c",
            "value": "0x0",
            "input": "0x3400288b0000000000000000000000000000000000000000000000000000000000009d350000000000000000000000009c8f6c71322ab8e8001b7863448950281457a690",
            "nonce": "0xf1",
            "chainId": "0xaa37dc"
          },
          "additionalContracts": [],
          "isFixedGasLimit": false
        }
      ],
      "receipts": [
        {
          "status": "0x1",
          "cumulativeGasUsed": "0x2ee23",
          "logs": [
            {
              "address": "0x9c8f6c71322ab8e8001b7863448950281457a690",
              "topics": [
                "0x238399d427b947898edb290f5ff0f9109849b1c3ba196a42e35f00c50a54b98b"
              ],
              "data": "0x0000000000000000000000000000000000000000000000000000000000009d350000000000000000000000009c8f6c71322ab8e8001b7863448950281457a690",
              "blockHash": "0xfc224304855d01750f7824b05349543d8b3c156875b690e92ae8dd67412bca1c",
              "blockNumber": "0x100f667",
              "transactionHash": "0xa48f001290bd3d766f1b943ab03546af08253fccd7ff58f93b6e021c26a9f480",
              "transactionIndex": "0x2",
              "logIndex": "0x2",
              "removed": false
            }
          ],
          "logsBloom": "0x00000000000000000000000000000000000000000000000000000000000000000000000000000000000000000000000000000000000000000800000000000000000000000000000000000000000000000000000001000000000000000000000000000000000000000100020000000000000000000000000000000000000000000000000000000000000000000000000000000000000000000000000000000000000000000000000000000000000000000000000000000000000002000000000000000000000000000000000000000000000000000000000000040000000000000000000000000000000000000000000000000000000000000000000000000000",
          "type": "0x2",
          "transactionHash": "0xa48f001290bd3d766f1b943ab03546af08253fccd7ff58f93b6e021c26a9f480",
          "transactionIndex": "0x2",
          "blockHash": "0xfc224304855d01750f7824b05349543d8b3c156875b690e92ae8dd67412bca1c",
          "blockNumber": "0x100f667",
          "gasUsed": "0xba3b",
          "effectiveGasPrice": "0xf6a67",
          "from": "0x64a822f980dc5f126215d75d11dd8114ed0bdb5f",
          "to": "0x9c8f6c71322ab8e8001b7863448950281457a690",
          "contractAddress": null,
          "l1BaseFeeScalar": "0x1db0",
          "l1BlobBaseFee": "0x11993d0609",
          "l1BlobBaseFeeScalar": "0xd2730",
          "l1Fee": "0x6026a5308a8",
          "l1GasPrice": "0x1c2e2e009",
          "l1GasUsed": "0x640"
        }
      ],
      "libraries": [],
      "pending": [],
      "returns": {},
      "timestamp": 1725483116,
      "chain": 11155420,
      "commit": "3db11dc"
    }
  ],
  "timestamp": 1725483133
}