{
  "deployments": [
    {
      "transactions": [
        {
          "hash": "0x841018e0f6496d97a83471df482d48d7895d124f2cdee873c077c6efb320bc4f",
          "transactionType": "CALL",
          "contractName": null,
          "contractAddress": "0xeccacad7ed94d501ffa9cfe93b61d0d4870546d7",
          "function": "setPeer(uint32,bytes32)",
          "arguments": [
            "40232",
            "0x000000000000000000000000eccacad7ed94d501ffa9cfe93b61d0d4870546d7"
          ],
          "transaction": {
            "from": "0x64a822f980dc5f126215d75d11dd8114ed0bdb5f",
            "to": "0xeccacad7ed94d501ffa9cfe93b61d0d4870546d7",
            "gas": "0xae5c",
            "value": "0x0",
            "input": "0x3400288b0000000000000000000000000000000000000000000000000000000000009d28000000000000000000000000eccacad7ed94d501ffa9cfe93b61d0d4870546d7",
            "nonce": "0x11b",
            "chainId": "0x14a34"
          },
          "additionalContracts": [],
          "isFixedGasLimit": false
        }
      ],
      "receipts": [
        {
          "status": "0x1",
          "cumulativeGasUsed": "0x36c677",
          "logs": [
            {
              "address": "0xeccacad7ed94d501ffa9cfe93b61d0d4870546d7",
              "topics": [
                "0x238399d427b947898edb290f5ff0f9109849b1c3ba196a42e35f00c50a54b98b"
              ],
              "data": "0x0000000000000000000000000000000000000000000000000000000000009d28000000000000000000000000eccacad7ed94d501ffa9cfe93b61d0d4870546d7",
              "blockHash": "0x90584b3f9d4179c75db436854f252499d2a33c3906dfcdbfcfa2695e431c1d88",
              "blockNumber": "0xdfe000",
              "transactionHash": "0x841018e0f6496d97a83471df482d48d7895d124f2cdee873c077c6efb320bc4f",
              "transactionIndex": "0x8",
              "logIndex": "0x42",
              "removed": false
            }
          ],
          "logsBloom": "0x00000000000000000000000000000000000000000000000000000000000000000000000000000000000000000000000000000000080000000800000000000000000000000000200000000000000000000000000000000000000000000000000000000000000000000000000000000000000000000000000000000000000000000000000000000000000000000000000004000000000000000000000000000000000000000000000000000000000000000000000000000000000002000000000000000000000000000000000000000000000000000000000000040000000000000000000000000000000000000000000000000000000000000000000000000000",
          "type": "0x2",
          "transactionHash": "0x841018e0f6496d97a83471df482d48d7895d124f2cdee873c077c6efb320bc4f",
          "transactionIndex": "0x8",
          "blockHash": "0x90584b3f9d4179c75db436854f252499d2a33c3906dfcdbfcfa2695e431c1d88",
          "blockNumber": "0xdfe000",
          "gasUsed": "0x7739",
          "effectiveGasPrice": "0x7a67e",
          "from": "0x64a822f980dc5f126215d75d11dd8114ed0bdb5f",
          "to": "0xeccacad7ed94d501ffa9cfe93b61d0d4870546d7",
          "contractAddress": null,
          "l1BaseFeeScalar": "0x44d",
          "l1BlobBaseFee": "0x190eaf73cf",
          "l1BlobBaseFeeScalar": "0xa118b",
          "l1Fee": "0x677f4438e70",
          "l1GasPrice": "0x17154113a",
          "l1GasUsed": "0x640"
        }
      ],
      "libraries": [],
      "pending": [],
      "returns": {},
      "timestamp": 1725112028,
      "chain": 84532,
      "commit": "ef3e872"
    },
    {
      "transactions": [
        {
          "hash": "0x63039f82fd1b55cb0d817d84136ab3fb4828c23f23dc197d718567492073285d",
          "transactionType": "CALL",
          "contractName": null,
          "contractAddress": "0x07040be54ddbd74b0f4cf4a40a4b3ef4ca5217fe",
          "function": "setPeer(uint32,bytes32)",
          "arguments": [
            "40245",
            "0x000000000000000000000000eccacad7ed94d501ffa9cfe93b61d0d4870546d7"
          ],
          "transaction": {
            "from": "0x64a822f980dc5f126215d75d11dd8114ed0bdb5f",
            "to": "0x07040be54ddbd74b0f4cf4a40a4b3ef4ca5217fe",
            "gas": "0xae5c",
            "value": "0x0",
            "input": "0x3400288b0000000000000000000000000000000000000000000000000000000000009d35000000000000000000000000eccacad7ed94d501ffa9cfe93b61d0d4870546d7",
            "nonce": "0x9f",
            "chainId": "0xaa37dc"
          },
          "additionalContracts": [],
          "isFixedGasLimit": false
        }
      ],
      "receipts": [
        {
          "status": "0x1",
          "cumulativeGasUsed": "0xb829d",
          "logs": [
            {
              "address": "0x07040be54ddbd74b0f4cf4a40a4b3ef4ca5217fe",
              "topics": [
                "0x238399d427b947898edb290f5ff0f9109849b1c3ba196a42e35f00c50a54b98b"
              ],
              "data": "0x0000000000000000000000000000000000000000000000000000000000009d35000000000000000000000000eccacad7ed94d501ffa9cfe93b61d0d4870546d7",
              "blockHash": "0xf2568131acdb8ac90a27a8adf9a35e641de07a520766b1ee2208843ebdf08498",
              "blockNumber": "0xfe219f",
              "transactionHash": "0x63039f82fd1b55cb0d817d84136ab3fb4828c23f23dc197d718567492073285d",
              "transactionIndex": "0x2",
              "logIndex": "0x10",
              "removed": false
            }
          ],
          "logsBloom": "0x00000000000000000000000000000000000000000000000000000000000000000000000000000000000000000000000000000800000000000800000000000000000000000000000000000000000000000000000000000000000000000000000002000000000000000000000000000000000000000000000000000000000000000000000000000000000000000000000000000000000000000000000000000000000000000000000000000000000000000000000000000000000002000000000000000000000000000000000000000000000000000800000000040000000000000000000000000000000000000000000000000000000000000000000000000000",
          "type": "0x2",
          "transactionHash": "0x63039f82fd1b55cb0d817d84136ab3fb4828c23f23dc197d718567492073285d",
          "transactionIndex": "0x2",
          "blockHash": "0xf2568131acdb8ac90a27a8adf9a35e641de07a520766b1ee2208843ebdf08498",
          "blockNumber": "0xfe219f",
          "gasUsed": "0x7739",
          "effectiveGasPrice": "0xf6aa8",
          "from": "0x64a822f980dc5f126215d75d11dd8114ed0bdb5f",
          "to": "0x07040be54ddbd74b0f4cf4a40a4b3ef4ca5217fe",
          "contractAddress": null,
          "l1BaseFeeScalar": "0x1db0",
          "l1BlobBaseFee": "0x1309423560",
          "l1BlobBaseFeeScalar": "0xd2730",
          "l1Fee": "0x67ab177e2d7",
          "l1GasPrice": "0x176399265",
          "l1GasUsed": "0x640"
        }
      ],
      "libraries": [],
      "pending": [],
      "returns": {},
      "timestamp": 1725112029,
      "chain": 11155420,
      "commit": "ef3e872"
    }
  ],
  "timestamp": 1725112048
}