{
  "deployments": [
    {
      "transactions": [
        {
          "hash": "0x896b3d61c13860e83a17ebddb7b0d8357dd9efc6e55168c1d3abbc150c164c8e",
          "transactionType": "CALL",
          "contractName": null,
          "contractAddress": "0x012079a664bcad2ef5a111ebefa023286a399a44",
          "function": "setPeer(uint32,bytes32)",
          "arguments": [
            "40232",
            "0x000000000000000000000000012079a664bcad2ef5a111ebefa023286a399a44"
          ],
          "transaction": {
            "from": "0x64a822f980dc5f126215d75d11dd8114ed0bdb5f",
            "to": "0x012079a664bcad2ef5a111ebefa023286a399a44",
            "gas": "0x10154",
            "value": "0x0",
            "input": "0x3400288b0000000000000000000000000000000000000000000000000000000000009d28000000000000000000000000012079a664bcad2ef5a111ebefa023286a399a44",
            "nonce": "0x27b",
            "chainId": "0x14a34"
          },
          "additionalContracts": [],
          "isFixedGasLimit": false
        },
        {
          "hash": "0x04cd1dba57b60b4a112e6cde95f233c9d1e5201cb0c7901a09830fa9dc26726f",
          "transactionType": "CALL",
          "contractName": null,
          "contractAddress": "0x012079a664bcad2ef5a111ebefa023286a399a44",
          "function": "setPeer(uint32,bytes32)",
          "arguments": [
            "40231",
            "0x000000000000000000000000012079a664bcad2ef5a111ebefa023286a399a44"
          ],
          "transaction": {
            "from": "0x64a822f980dc5f126215d75d11dd8114ed0bdb5f",
            "to": "0x012079a664bcad2ef5a111ebefa023286a399a44",
            "gas": "0x10154",
            "value": "0x0",
            "input": "0x3400288b0000000000000000000000000000000000000000000000000000000000009d27000000000000000000000000012079a664bcad2ef5a111ebefa023286a399a44",
            "nonce": "0x27c",
            "chainId": "0x14a34"
          },
          "additionalContracts": [],
          "isFixedGasLimit": false
        },
        {
          "hash": "0x67995b4cf4f7311232a7319f388c42740d8ed98e046f058558f557b50acd8ca6",
          "transactionType": "CALL",
          "contractName": null,
          "contractAddress": "0x012079a664bcad2ef5a111ebefa023286a399a44",
          "function": "setPeer(uint32,bytes32)",
          "arguments": [
            "40305",
            "0x000000000000000000000000012079a664bcad2ef5a111ebefa023286a399a44"
          ],
          "transaction": {
            "from": "0x64a822f980dc5f126215d75d11dd8114ed0bdb5f",
            "to": "0x012079a664bcad2ef5a111ebefa023286a399a44",
            "gas": "0x10154",
            "value": "0x0",
            "input": "0x3400288b0000000000000000000000000000000000000000000000000000000000009d71000000000000000000000000012079a664bcad2ef5a111ebefa023286a399a44",
            "nonce": "0x27d",
            "chainId": "0x14a34"
          },
          "additionalContracts": [],
          "isFixedGasLimit": false
        },
        {
          "hash": "0x88d160e35b1d5ed0c77717075fda38d69d59bf74ca7d4136d795aea9d9f9cb63",
          "transactionType": "CALL",
          "contractName": null,
          "contractAddress": "0x012079a664bcad2ef5a111ebefa023286a399a44",
          "function": "setPeer(uint32,bytes32)",
          "arguments": [
            "40287",
            "0x000000000000000000000000012079a664bcad2ef5a111ebefa023286a399a44"
          ],
          "transaction": {
            "from": "0x64a822f980dc5f126215d75d11dd8114ed0bdb5f",
            "to": "0x012079a664bcad2ef5a111ebefa023286a399a44",
            "gas": "0x10154",
            "value": "0x0",
            "input": "0x3400288b0000000000000000000000000000000000000000000000000000000000009d5f000000000000000000000000012079a664bcad2ef5a111ebefa023286a399a44",
            "nonce": "0x27e",
            "chainId": "0x14a34"
          },
          "additionalContracts": [],
          "isFixedGasLimit": false
        },
        {
          "hash": "0x1e22a6d093c9ce9f9ada2932d5fa397bb01532171df77cd716092e0a7374addb",
          "transactionType": "CALL",
          "contractName": null,
          "contractAddress": "0x012079a664bcad2ef5a111ebefa023286a399a44",
          "function": "setPeer(uint32,bytes32)",
          "arguments": [
            "40161",
            "0x000000000000000000000000012079a664bcad2ef5a111ebefa023286a399a44"
          ],
          "transaction": {
            "from": "0x64a822f980dc5f126215d75d11dd8114ed0bdb5f",
            "to": "0x012079a664bcad2ef5a111ebefa023286a399a44",
            "gas": "0x10154",
            "value": "0x0",
            "input": "0x3400288b0000000000000000000000000000000000000000000000000000000000009ce1000000000000000000000000012079a664bcad2ef5a111ebefa023286a399a44",
            "nonce": "0x27f",
            "chainId": "0x14a34"
          },
          "additionalContracts": [],
          "isFixedGasLimit": false
        },
        {
          "hash": "0x0135565dabc4db2b7cb8ba2df928fc035092095437ee7840c29ecd57385720b7",
          "transactionType": "CALL",
          "contractName": null,
          "contractAddress": "0x012079a664bcad2ef5a111ebefa023286a399a44",
          "function": "setDstEidOfHomeChain(uint32)",
          "arguments": [
            "40245"
          ],
          "transaction": {
            "from": "0x64a822f980dc5f126215d75d11dd8114ed0bdb5f",
            "to": "0x012079a664bcad2ef5a111ebefa023286a399a44",
            "gas": "0xa3ff",
            "value": "0x0",
            "input": "0x1cd24bd40000000000000000000000000000000000000000000000000000000000009d35",
            "nonce": "0x280",
            "chainId": "0x14a34"
          },
          "additionalContracts": [],
          "isFixedGasLimit": false
        }
      ],
      "receipts": [
        {
          "status": "0x1",
          "cumulativeGasUsed": "0xd9203",
          "logs": [
            {
              "address": "0x012079a664bcad2ef5a111ebefa023286a399a44",
              "topics": [
                "0x238399d427b947898edb290f5ff0f9109849b1c3ba196a42e35f00c50a54b98b"
              ],
              "data": "0x0000000000000000000000000000000000000000000000000000000000009d28000000000000000000000000012079a664bcad2ef5a111ebefa023286a399a44",
              "blockHash": "0x08fc72345014704bf4347f0dcb0f7f717e026e2b4fdd6dadd4d202f8b07ab43d",
              "blockNumber": "0xe40829",
              "transactionHash": "0x896b3d61c13860e83a17ebddb7b0d8357dd9efc6e55168c1d3abbc150c164c8e",
              "transactionIndex": "0xa",
              "logIndex": "0xa",
              "removed": false
            }
          ],
          "logsBloom": "0x00000000000000000000000000000000000000000000000000000000000000000000000000000000000000000000000000000000000000000800000000000000000000000000000000000000000000000000000000000000000000000000000000000000000000000000000000000020000200000000000000000000000000000000000000000020000000000000000000000000000000000000000000000000000000000000000000000000000000000000000000000000000002000000000000000000000000000000000000000000000000000000000000040000000000000000000000000000000000000000000000000000000000000000000000000000",
          "type": "0x2",
          "transactionHash": "0x896b3d61c13860e83a17ebddb7b0d8357dd9efc6e55168c1d3abbc150c164c8e",
          "transactionIndex": "0xa",
          "blockHash": "0x08fc72345014704bf4347f0dcb0f7f717e026e2b4fdd6dadd4d202f8b07ab43d",
          "blockNumber": "0xe40829",
          "gasUsed": "0xba4e",
          "effectiveGasPrice": "0x993071",
          "from": "0x64a822f980dc5f126215d75d11dd8114ed0bdb5f",
          "to": "0x012079a664bcad2ef5a111ebefa023286a399a44",
          "contractAddress": null,
          "l1BaseFeeScalar": "0x44d",
          "l1BlobBaseFee": "0x1352a0f1e91",
          "l1BlobBaseFeeScalar": "0xa118b",
          "l1Fee": "0x4fb04c7fef5c",
          "l1GasPrice": "0x903700e",
          "l1GasUsed": "0x640"
        },
        {
          "status": "0x1",
          "cumulativeGasUsed": "0xe4c51",
          "logs": [
            {
              "address": "0x012079a664bcad2ef5a111ebefa023286a399a44",
              "topics": [
                "0x238399d427b947898edb290f5ff0f9109849b1c3ba196a42e35f00c50a54b98b"
              ],
              "data": "0x0000000000000000000000000000000000000000000000000000000000009d27000000000000000000000000012079a664bcad2ef5a111ebefa023286a399a44",
              "blockHash": "0x08fc72345014704bf4347f0dcb0f7f717e026e2b4fdd6dadd4d202f8b07ab43d",
              "blockNumber": "0xe40829",
              "transactionHash": "0x04cd1dba57b60b4a112e6cde95f233c9d1e5201cb0c7901a09830fa9dc26726f",
              "transactionIndex": "0xb",
              "logIndex": "0xb",
              "removed": false
            }
          ],
          "logsBloom": "0x00000000000000000000000000000000000000000000000000000000000000000000000000000000000000000000000000000000000000000800000000000000000000000000000000000000000000000000000000000000000000000000000000000000000000000000000000000020000200000000000000000000000000000000000000000020000000000000000000000000000000000000000000000000000000000000000000000000000000000000000000000000000002000000000000000000000000000000000000000000000000000000000000040000000000000000000000000000000000000000000000000000000000000000000000000000",
          "type": "0x2",
          "transactionHash": "0x04cd1dba57b60b4a112e6cde95f233c9d1e5201cb0c7901a09830fa9dc26726f",
          "transactionIndex": "0xb",
          "blockHash": "0x08fc72345014704bf4347f0dcb0f7f717e026e2b4fdd6dadd4d202f8b07ab43d",
          "blockNumber": "0xe40829",
          "gasUsed": "0xba4e",
          "effectiveGasPrice": "0x993071",
          "from": "0x64a822f980dc5f126215d75d11dd8114ed0bdb5f",
          "to": "0x012079a664bcad2ef5a111ebefa023286a399a44",
          "contractAddress": null,
          "l1BaseFeeScalar": "0x44d",
          "l1BlobBaseFee": "0x1352a0f1e91",
          "l1BlobBaseFeeScalar": "0xa118b",
          "l1Fee": "0x4fb04c7fef5c",
          "l1GasPrice": "0x903700e",
          "l1GasUsed": "0x640"
        },
        {
          "status": "0x1",
          "cumulativeGasUsed": "0xf069f",
          "logs": [
            {
              "address": "0x012079a664bcad2ef5a111ebefa023286a399a44",
              "topics": [
                "0x238399d427b947898edb290f5ff0f9109849b1c3ba196a42e35f00c50a54b98b"
              ],
              "data": "0x0000000000000000000000000000000000000000000000000000000000009d71000000000000000000000000012079a664bcad2ef5a111ebefa023286a399a44",
              "blockHash": "0x08fc72345014704bf4347f0dcb0f7f717e026e2b4fdd6dadd4d202f8b07ab43d",
              "blockNumber": "0xe40829",
              "transactionHash": "0x67995b4cf4f7311232a7319f388c42740d8ed98e046f058558f557b50acd8ca6",
              "transactionIndex": "0xc",
              "logIndex": "0xc",
              "removed": false
            }
          ],
          "logsBloom": "0x00000000000000000000000000000000000000000000000000000000000000000000000000000000000000000000000000000000000000000800000000000000000000000000000000000000000000000000000000000000000000000000000000000000000000000000000000000020000200000000000000000000000000000000000000000020000000000000000000000000000000000000000000000000000000000000000000000000000000000000000000000000000002000000000000000000000000000000000000000000000000000000000000040000000000000000000000000000000000000000000000000000000000000000000000000000",
          "type": "0x2",
          "transactionHash": "0x67995b4cf4f7311232a7319f388c42740d8ed98e046f058558f557b50acd8ca6",
          "transactionIndex": "0xc",
          "blockHash": "0x08fc72345014704bf4347f0dcb0f7f717e026e2b4fdd6dadd4d202f8b07ab43d",
          "blockNumber": "0xe40829",
          "gasUsed": "0xba4e",
          "effectiveGasPrice": "0x993071",
          "from": "0x64a822f980dc5f126215d75d11dd8114ed0bdb5f",
          "to": "0x012079a664bcad2ef5a111ebefa023286a399a44",
          "contractAddress": null,
          "l1BaseFeeScalar": "0x44d",
          "l1BlobBaseFee": "0x1352a0f1e91",
          "l1BlobBaseFeeScalar": "0xa118b",
          "l1Fee": "0x4fb04c7fef5c",
          "l1GasPrice": "0x903700e",
          "l1GasUsed": "0x640"
        },
        {
          "status": "0x1",
          "cumulativeGasUsed": "0xfc0ed",
          "logs": [
            {
              "address": "0x012079a664bcad2ef5a111ebefa023286a399a44",
              "topics": [
                "0x238399d427b947898edb290f5ff0f9109849b1c3ba196a42e35f00c50a54b98b"
              ],
              "data": "0x0000000000000000000000000000000000000000000000000000000000009d5f000000000000000000000000012079a664bcad2ef5a111ebefa023286a399a44",
              "blockHash": "0x08fc72345014704bf4347f0dcb0f7f717e026e2b4fdd6dadd4d202f8b07ab43d",
              "blockNumber": "0xe40829",
              "transactionHash": "0x88d160e35b1d5ed0c77717075fda38d69d59bf74ca7d4136d795aea9d9f9cb63",
              "transactionIndex": "0xd",
              "logIndex": "0xd",
              "removed": false
            }
          ],
          "logsBloom": "0x00000000000000000000000000000000000000000000000000000000000000000000000000000000000000000000000000000000000000000800000000000000000000000000000000000000000000000000000000000000000000000000000000000000000000000000000000000020000200000000000000000000000000000000000000000020000000000000000000000000000000000000000000000000000000000000000000000000000000000000000000000000000002000000000000000000000000000000000000000000000000000000000000040000000000000000000000000000000000000000000000000000000000000000000000000000",
          "type": "0x2",
          "transactionHash": "0x88d160e35b1d5ed0c77717075fda38d69d59bf74ca7d4136d795aea9d9f9cb63",
          "transactionIndex": "0xd",
          "blockHash": "0x08fc72345014704bf4347f0dcb0f7f717e026e2b4fdd6dadd4d202f8b07ab43d",
          "blockNumber": "0xe40829",
          "gasUsed": "0xba4e",
          "effectiveGasPrice": "0x993071",
          "from": "0x64a822f980dc5f126215d75d11dd8114ed0bdb5f",
          "to": "0x012079a664bcad2ef5a111ebefa023286a399a44",
          "contractAddress": null,
          "l1BaseFeeScalar": "0x44d",
          "l1BlobBaseFee": "0x1352a0f1e91",
          "l1BlobBaseFeeScalar": "0xa118b",
          "l1Fee": "0x4fb04c7fef5c",
          "l1GasPrice": "0x903700e",
          "l1GasUsed": "0x640"
        },
        {
          "status": "0x1",
          "cumulativeGasUsed": "0x107b3b",
          "logs": [
            {
              "address": "0x012079a664bcad2ef5a111ebefa023286a399a44",
              "topics": [
                "0x238399d427b947898edb290f5ff0f9109849b1c3ba196a42e35f00c50a54b98b"
              ],
              "data": "0x0000000000000000000000000000000000000000000000000000000000009ce1000000000000000000000000012079a664bcad2ef5a111ebefa023286a399a44",
              "blockHash": "0x08fc72345014704bf4347f0dcb0f7f717e026e2b4fdd6dadd4d202f8b07ab43d",
              "blockNumber": "0xe40829",
              "transactionHash": "0x1e22a6d093c9ce9f9ada2932d5fa397bb01532171df77cd716092e0a7374addb",
              "transactionIndex": "0xe",
              "logIndex": "0xe",
              "removed": false
            }
          ],
          "logsBloom": "0x00000000000000000000000000000000000000000000000000000000000000000000000000000000000000000000000000000000000000000800000000000000000000000000000000000000000000000000000000000000000000000000000000000000000000000000000000000020000200000000000000000000000000000000000000000020000000000000000000000000000000000000000000000000000000000000000000000000000000000000000000000000000002000000000000000000000000000000000000000000000000000000000000040000000000000000000000000000000000000000000000000000000000000000000000000000",
          "type": "0x2",
          "transactionHash": "0x1e22a6d093c9ce9f9ada2932d5fa397bb01532171df77cd716092e0a7374addb",
          "transactionIndex": "0xe",
          "blockHash": "0x08fc72345014704bf4347f0dcb0f7f717e026e2b4fdd6dadd4d202f8b07ab43d",
          "blockNumber": "0xe40829",
          "gasUsed": "0xba4e",
          "effectiveGasPrice": "0x993071",
          "from": "0x64a822f980dc5f126215d75d11dd8114ed0bdb5f",
          "to": "0x012079a664bcad2ef5a111ebefa023286a399a44",
          "contractAddress": null,
          "l1BaseFeeScalar": "0x44d",
          "l1BlobBaseFee": "0x1352a0f1e91",
          "l1BlobBaseFeeScalar": "0xa118b",
          "l1Fee": "0x4fb04c7fef5c",
          "l1GasPrice": "0x903700e",
          "l1GasUsed": "0x640"
        },
        {
          "status": "0x1",
          "cumulativeGasUsed": "0x10eb5e",
          "logs": [],
          "logsBloom": "0x00000000000000000000000000000000000000000000000000000000000000000000000000000000000000000000000000000000000000000000000000000000000000000000000000000000000000000000000000000000000000000000000000000000000000000000000000000000000000000000000000000000000000000000000000000000000000000000000000000000000000000000000000000000000000000000000000000000000000000000000000000000000000000000000000000000000000000000000000000000000000000000000000000000000000000000000000000000000000000000000000000000000000000000000000000000",
          "type": "0x2",
          "transactionHash": "0x0135565dabc4db2b7cb8ba2df928fc035092095437ee7840c29ecd57385720b7",
          "transactionIndex": "0xf",
          "blockHash": "0x08fc72345014704bf4347f0dcb0f7f717e026e2b4fdd6dadd4d202f8b07ab43d",
          "blockNumber": "0xe40829",
          "gasUsed": "0x7023",
          "effectiveGasPrice": "0x993071",
          "from": "0x64a822f980dc5f126215d75d11dd8114ed0bdb5f",
          "to": "0x012079a664bcad2ef5a111ebefa023286a399a44",
          "contractAddress": null,
          "l1BaseFeeScalar": "0x44d",
          "l1BlobBaseFee": "0x1352a0f1e91",
          "l1BlobBaseFeeScalar": "0xa118b",
          "l1Fee": "0x4fb04c7fef5c",
          "l1GasPrice": "0x903700e",
          "l1GasUsed": "0x640"
        }
      ],
      "libraries": [],
      "pending": [],
      "returns": {},
      "timestamp": 1725656788,
      "chain": 84532,
      "commit": "2af87c9"
    },
    {
      "transactions": [
        {
          "hash": "0x7795c5d9300761dc550b1ac0d944d7c5f5fb56e3526f7bb26c66f1d3073049f0",
          "transactionType": "CALL",
          "contractName": null,
          "contractAddress": "0x012079a664bcad2ef5a111ebefa023286a399a44",
          "function": "setPeer(uint32,bytes32)",
          "arguments": [
            "40245",
            "0x000000000000000000000000012079a664bcad2ef5a111ebefa023286a399a44"
          ],
          "transaction": {
            "from": "0x64a822f980dc5f126215d75d11dd8114ed0bdb5f",
            "to": "0x012079a664bcad2ef5a111ebefa023286a399a44",
            "gas": "0x10154",
            "value": "0x0",
            "input": "0x3400288b0000000000000000000000000000000000000000000000000000000000009d35000000000000000000000000012079a664bcad2ef5a111ebefa023286a399a44",
            "nonce": "0x189",
            "chainId": "0xaa37dc"
          },
          "additionalContracts": [],
          "isFixedGasLimit": false
        },
        {
          "hash": "0xd944ad7278eb929227198f0cb0ddbe8e0f431a0b6284eb097cd947acf7c0b753",
          "transactionType": "CALL",
          "contractName": null,
          "contractAddress": "0x012079a664bcad2ef5a111ebefa023286a399a44",
          "function": "setPeer(uint32,bytes32)",
          "arguments": [
            "40231",
            "0x000000000000000000000000012079a664bcad2ef5a111ebefa023286a399a44"
          ],
          "transaction": {
            "from": "0x64a822f980dc5f126215d75d11dd8114ed0bdb5f",
            "to": "0x012079a664bcad2ef5a111ebefa023286a399a44",
            "gas": "0x10154",
            "value": "0x0",
            "input": "0x3400288b0000000000000000000000000000000000000000000000000000000000009d27000000000000000000000000012079a664bcad2ef5a111ebefa023286a399a44",
            "nonce": "0x18a",
            "chainId": "0xaa37dc"
          },
          "additionalContracts": [],
          "isFixedGasLimit": false
        },
        {
          "hash": "0xd6cfefe4d342fb9b6e956b2a6b74703f2de60f7a3a62aa7db80b995e974fec69",
          "transactionType": "CALL",
          "contractName": null,
          "contractAddress": "0x012079a664bcad2ef5a111ebefa023286a399a44",
          "function": "setPeer(uint32,bytes32)",
          "arguments": [
            "40305",
            "0x000000000000000000000000012079a664bcad2ef5a111ebefa023286a399a44"
          ],
          "transaction": {
            "from": "0x64a822f980dc5f126215d75d11dd8114ed0bdb5f",
            "to": "0x012079a664bcad2ef5a111ebefa023286a399a44",
            "gas": "0x10154",
            "value": "0x0",
            "input": "0x3400288b0000000000000000000000000000000000000000000000000000000000009d71000000000000000000000000012079a664bcad2ef5a111ebefa023286a399a44",
            "nonce": "0x18b",
            "chainId": "0xaa37dc"
          },
          "additionalContracts": [],
          "isFixedGasLimit": false
        },
        {
          "hash": "0x84652db1fd889c33c5300fda2e6654c79a234d9ad7f5e1a7c1125b57295823b7",
          "transactionType": "CALL",
          "contractName": null,
          "contractAddress": "0x012079a664bcad2ef5a111ebefa023286a399a44",
          "function": "setPeer(uint32,bytes32)",
          "arguments": [
            "40287",
            "0x000000000000000000000000012079a664bcad2ef5a111ebefa023286a399a44"
          ],
          "transaction": {
            "from": "0x64a822f980dc5f126215d75d11dd8114ed0bdb5f",
            "to": "0x012079a664bcad2ef5a111ebefa023286a399a44",
            "gas": "0x10154",
            "value": "0x0",
            "input": "0x3400288b0000000000000000000000000000000000000000000000000000000000009d5f000000000000000000000000012079a664bcad2ef5a111ebefa023286a399a44",
            "nonce": "0x18c",
            "chainId": "0xaa37dc"
          },
          "additionalContracts": [],
          "isFixedGasLimit": false
        },
        {
          "hash": "0xd0798658a932956fe65eb9bdce71447514d4fcabb55df0d2225561a7077f07e6",
          "transactionType": "CALL",
          "contractName": null,
          "contractAddress": "0x012079a664bcad2ef5a111ebefa023286a399a44",
          "function": "setPeer(uint32,bytes32)",
          "arguments": [
            "40161",
            "0x000000000000000000000000012079a664bcad2ef5a111ebefa023286a399a44"
          ],
          "transaction": {
            "from": "0x64a822f980dc5f126215d75d11dd8114ed0bdb5f",
            "to": "0x012079a664bcad2ef5a111ebefa023286a399a44",
            "gas": "0x10154",
            "value": "0x0",
            "input": "0x3400288b0000000000000000000000000000000000000000000000000000000000009ce1000000000000000000000000012079a664bcad2ef5a111ebefa023286a399a44",
            "nonce": "0x18d",
            "chainId": "0xaa37dc"
          },
          "additionalContracts": [],
          "isFixedGasLimit": false
        },
        {
          "hash": "0xa58950a515b274da4e7c161cdbb93c7dd250a67dcceb4e84c5d6698b467e6cde",
          "transactionType": "CALL",
          "contractName": null,
          "contractAddress": "0x012079a664bcad2ef5a111ebefa023286a399a44",
          "function": "setDstEidOfHomeChain(uint32)",
          "arguments": [
            "40232"
          ],
          "transaction": {
            "from": "0x64a822f980dc5f126215d75d11dd8114ed0bdb5f",
            "to": "0x012079a664bcad2ef5a111ebefa023286a399a44",
            "gas": "0xa3ff",
            "value": "0x0",
            "input": "0x1cd24bd40000000000000000000000000000000000000000000000000000000000009d28",
            "nonce": "0x18e",
            "chainId": "0xaa37dc"
          },
          "additionalContracts": [],
          "isFixedGasLimit": false
        }
      ],
      "receipts": [
        {
          "status": "0x1",
          "cumulativeGasUsed": "0x23bf56",
          "logs": [
            {
              "address": "0x012079a664bcad2ef5a111ebefa023286a399a44",
              "topics": [
                "0x238399d427b947898edb290f5ff0f9109849b1c3ba196a42e35f00c50a54b98b"
              ],
              "data": "0x0000000000000000000000000000000000000000000000000000000000009d35000000000000000000000000012079a664bcad2ef5a111ebefa023286a399a44",
              "blockHash": "0xc298557c383c881043bf0759b552eac43af74a86eb29e6344b1ac65557bd8d0b",
              "blockNumber": "0x10249c4",
              "transactionHash": "0x7795c5d9300761dc550b1ac0d944d7c5f5fb56e3526f7bb26c66f1d3073049f0",
              "transactionIndex": "0x6",
              "logIndex": "0x22",
              "removed": false
            }
          ],
          "logsBloom": "0x00000000000000000000000000000000000000000000000000000000000000000000000000000000000000000000000000000000000000000800000000000000000000000000000000000000000000000000000000000000000000000000000000000000000000000000000000000020000200000000000000000000000000000000000000000020000000000000000000000000000000000000000000000000000000000000000000000000000000000000000000000000000002000000000000000000000000000000000000000000000000000000000000040000000000000000000000000000000000000000000000000000000000000000000000000000",
          "type": "0x2",
          "transactionHash": "0x7795c5d9300761dc550b1ac0d944d7c5f5fb56e3526f7bb26c66f1d3073049f0",
          "transactionIndex": "0x6",
          "blockHash": "0xc298557c383c881043bf0759b552eac43af74a86eb29e6344b1ac65557bd8d0b",
          "blockNumber": "0x10249c4",
          "gasUsed": "0xba4e",
          "effectiveGasPrice": "0xf6a79",
          "from": "0x64a822f980dc5f126215d75d11dd8114ed0bdb5f",
          "to": "0x012079a664bcad2ef5a111ebefa023286a399a44",
          "contractAddress": null,
          "l1BaseFeeScalar": "0x1db0",
          "l1BlobBaseFee": "0x2030d12434e",
          "l1BlobBaseFeeScalar": "0xd2730",
          "l1Fee": "0xad6dcbea4ce4",
          "l1GasPrice": "0x851ce44",
          "l1GasUsed": "0x640"
        },
        {
          "status": "0x1",
          "cumulativeGasUsed": "0x2479a4",
          "logs": [
            {
              "address": "0x012079a664bcad2ef5a111ebefa023286a399a44",
              "topics": [
                "0x238399d427b947898edb290f5ff0f9109849b1c3ba196a42e35f00c50a54b98b"
              ],
              "data": "0x0000000000000000000000000000000000000000000000000000000000009d27000000000000000000000000012079a664bcad2ef5a111ebefa023286a399a44",
              "blockHash": "0xc298557c383c881043bf0759b552eac43af74a86eb29e6344b1ac65557bd8d0b",
              "blockNumber": "0x10249c4",
              "transactionHash": "0xd944ad7278eb929227198f0cb0ddbe8e0f431a0b6284eb097cd947acf7c0b753",
              "transactionIndex": "0x7",
              "logIndex": "0x23",
              "removed": false
            }
          ],
          "logsBloom": "0x00000000000000000000000000000000000000000000000000000000000000000000000000000000000000000000000000000000000000000800000000000000000000000000000000000000000000000000000000000000000000000000000000000000000000000000000000000020000200000000000000000000000000000000000000000020000000000000000000000000000000000000000000000000000000000000000000000000000000000000000000000000000002000000000000000000000000000000000000000000000000000000000000040000000000000000000000000000000000000000000000000000000000000000000000000000",
          "type": "0x2",
          "transactionHash": "0xd944ad7278eb929227198f0cb0ddbe8e0f431a0b6284eb097cd947acf7c0b753",
          "transactionIndex": "0x7",
          "blockHash": "0xc298557c383c881043bf0759b552eac43af74a86eb29e6344b1ac65557bd8d0b",
          "blockNumber": "0x10249c4",
          "gasUsed": "0xba4e",
          "effectiveGasPrice": "0xf6a79",
          "from": "0x64a822f980dc5f126215d75d11dd8114ed0bdb5f",
          "to": "0x012079a664bcad2ef5a111ebefa023286a399a44",
          "contractAddress": null,
          "l1BaseFeeScalar": "0x1db0",
          "l1BlobBaseFee": "0x2030d12434e",
          "l1BlobBaseFeeScalar": "0xd2730",
          "l1Fee": "0xad6dcbea4ce4",
          "l1GasPrice": "0x851ce44",
          "l1GasUsed": "0x640"
        },
        {
          "status": "0x1",
          "cumulativeGasUsed": "0x2533f2",
          "logs": [
            {
              "address": "0x012079a664bcad2ef5a111ebefa023286a399a44",
              "topics": [
                "0x238399d427b947898edb290f5ff0f9109849b1c3ba196a42e35f00c50a54b98b"
              ],
              "data": "0x0000000000000000000000000000000000000000000000000000000000009d71000000000000000000000000012079a664bcad2ef5a111ebefa023286a399a44",
              "blockHash": "0xc298557c383c881043bf0759b552eac43af74a86eb29e6344b1ac65557bd8d0b",
              "blockNumber": "0x10249c4",
              "transactionHash": "0xd6cfefe4d342fb9b6e956b2a6b74703f2de60f7a3a62aa7db80b995e974fec69",
              "transactionIndex": "0x8",
              "logIndex": "0x24",
              "removed": false
            }
          ],
          "logsBloom": "0x00000000000000000000000000000000000000000000000000000000000000000000000000000000000000000000000000000000000000000800000000000000000000000000000000000000000000000000000000000000000000000000000000000000000000000000000000000020000200000000000000000000000000000000000000000020000000000000000000000000000000000000000000000000000000000000000000000000000000000000000000000000000002000000000000000000000000000000000000000000000000000000000000040000000000000000000000000000000000000000000000000000000000000000000000000000",
          "type": "0x2",
          "transactionHash": "0xd6cfefe4d342fb9b6e956b2a6b74703f2de60f7a3a62aa7db80b995e974fec69",
          "transactionIndex": "0x8",
          "blockHash": "0xc298557c383c881043bf0759b552eac43af74a86eb29e6344b1ac65557bd8d0b",
          "blockNumber": "0x10249c4",
          "gasUsed": "0xba4e",
          "effectiveGasPrice": "0xf6a79",
          "from": "0x64a822f980dc5f126215d75d11dd8114ed0bdb5f",
          "to": "0x012079a664bcad2ef5a111ebefa023286a399a44",
          "contractAddress": null,
          "l1BaseFeeScalar": "0x1db0",
          "l1BlobBaseFee": "0x2030d12434e",
          "l1BlobBaseFeeScalar": "0xd2730",
          "l1Fee": "0xad6dcbea4ce4",
          "l1GasPrice": "0x851ce44",
          "l1GasUsed": "0x640"
        },
        {
          "status": "0x1",
          "cumulativeGasUsed": "0x25ee40",
          "logs": [
            {
              "address": "0x012079a664bcad2ef5a111ebefa023286a399a44",
              "topics": [
                "0x238399d427b947898edb290f5ff0f9109849b1c3ba196a42e35f00c50a54b98b"
              ],
              "data": "0x0000000000000000000000000000000000000000000000000000000000009d5f000000000000000000000000012079a664bcad2ef5a111ebefa023286a399a44",
              "blockHash": "0xc298557c383c881043bf0759b552eac43af74a86eb29e6344b1ac65557bd8d0b",
              "blockNumber": "0x10249c4",
              "transactionHash": "0x84652db1fd889c33c5300fda2e6654c79a234d9ad7f5e1a7c1125b57295823b7",
              "transactionIndex": "0x9",
              "logIndex": "0x25",
              "removed": false
            }
          ],
          "logsBloom": "0x00000000000000000000000000000000000000000000000000000000000000000000000000000000000000000000000000000000000000000800000000000000000000000000000000000000000000000000000000000000000000000000000000000000000000000000000000000020000200000000000000000000000000000000000000000020000000000000000000000000000000000000000000000000000000000000000000000000000000000000000000000000000002000000000000000000000000000000000000000000000000000000000000040000000000000000000000000000000000000000000000000000000000000000000000000000",
          "type": "0x2",
          "transactionHash": "0x84652db1fd889c33c5300fda2e6654c79a234d9ad7f5e1a7c1125b57295823b7",
          "transactionIndex": "0x9",
          "blockHash": "0xc298557c383c881043bf0759b552eac43af74a86eb29e6344b1ac65557bd8d0b",
          "blockNumber": "0x10249c4",
          "gasUsed": "0xba4e",
          "effectiveGasPrice": "0xf6a79",
          "from": "0x64a822f980dc5f126215d75d11dd8114ed0bdb5f",
          "to": "0x012079a664bcad2ef5a111ebefa023286a399a44",
          "contractAddress": null,
          "l1BaseFeeScalar": "0x1db0",
          "l1BlobBaseFee": "0x2030d12434e",
          "l1BlobBaseFeeScalar": "0xd2730",
          "l1Fee": "0xad6dcbea4ce4",
          "l1GasPrice": "0x851ce44",
          "l1GasUsed": "0x640"
        },
        {
          "status": "0x1",
          "cumulativeGasUsed": "0x26a88e",
          "logs": [
            {
              "address": "0x012079a664bcad2ef5a111ebefa023286a399a44",
              "topics": [
                "0x238399d427b947898edb290f5ff0f9109849b1c3ba196a42e35f00c50a54b98b"
              ],
              "data": "0x0000000000000000000000000000000000000000000000000000000000009ce1000000000000000000000000012079a664bcad2ef5a111ebefa023286a399a44",
              "blockHash": "0xc298557c383c881043bf0759b552eac43af74a86eb29e6344b1ac65557bd8d0b",
              "blockNumber": "0x10249c4",
              "transactionHash": "0xd0798658a932956fe65eb9bdce71447514d4fcabb55df0d2225561a7077f07e6",
              "transactionIndex": "0xa",
              "logIndex": "0x26",
              "removed": false
            }
          ],
          "logsBloom": "0x00000000000000000000000000000000000000000000000000000000000000000000000000000000000000000000000000000000000000000800000000000000000000000000000000000000000000000000000000000000000000000000000000000000000000000000000000000020000200000000000000000000000000000000000000000020000000000000000000000000000000000000000000000000000000000000000000000000000000000000000000000000000002000000000000000000000000000000000000000000000000000000000000040000000000000000000000000000000000000000000000000000000000000000000000000000",
          "type": "0x2",
          "transactionHash": "0xd0798658a932956fe65eb9bdce71447514d4fcabb55df0d2225561a7077f07e6",
          "transactionIndex": "0xa",
          "blockHash": "0xc298557c383c881043bf0759b552eac43af74a86eb29e6344b1ac65557bd8d0b",
          "blockNumber": "0x10249c4",
          "gasUsed": "0xba4e",
          "effectiveGasPrice": "0xf6a79",
          "from": "0x64a822f980dc5f126215d75d11dd8114ed0bdb5f",
          "to": "0x012079a664bcad2ef5a111ebefa023286a399a44",
          "contractAddress": null,
          "l1BaseFeeScalar": "0x1db0",
          "l1BlobBaseFee": "0x2030d12434e",
          "l1BlobBaseFeeScalar": "0xd2730",
          "l1Fee": "0xad6dcbea4ce4",
          "l1GasPrice": "0x851ce44",
          "l1GasUsed": "0x640"
        },
        {
          "status": "0x1",
          "cumulativeGasUsed": "0x2718b1",
          "logs": [],
          "logsBloom": "0x00000000000000000000000000000000000000000000000000000000000000000000000000000000000000000000000000000000000000000000000000000000000000000000000000000000000000000000000000000000000000000000000000000000000000000000000000000000000000000000000000000000000000000000000000000000000000000000000000000000000000000000000000000000000000000000000000000000000000000000000000000000000000000000000000000000000000000000000000000000000000000000000000000000000000000000000000000000000000000000000000000000000000000000000000000000",
          "type": "0x2",
          "transactionHash": "0xa58950a515b274da4e7c161cdbb93c7dd250a67dcceb4e84c5d6698b467e6cde",
          "transactionIndex": "0xb",
          "blockHash": "0xc298557c383c881043bf0759b552eac43af74a86eb29e6344b1ac65557bd8d0b",
          "blockNumber": "0x10249c4",
          "gasUsed": "0x7023",
          "effectiveGasPrice": "0xf6a79",
          "from": "0x64a822f980dc5f126215d75d11dd8114ed0bdb5f",
          "to": "0x012079a664bcad2ef5a111ebefa023286a399a44",
          "contractAddress": null,
          "l1BaseFeeScalar": "0x1db0",
          "l1BlobBaseFee": "0x2030d12434e",
          "l1BlobBaseFeeScalar": "0xd2730",
          "l1Fee": "0xad6dcbea4ce4",
          "l1GasPrice": "0x851ce44",
          "l1GasUsed": "0x640"
        }
      ],
      "libraries": [],
      "pending": [],
      "returns": {},
      "timestamp": 1725656789,
      "chain": 11155420,
      "commit": "2af87c9"
    },
    {
      "transactions": [
        {
          "hash": "0x402cf0ddb444d9da3979154d31155e91ce96a7453b34d69e67726c4f172810af",
          "transactionType": "CALL",
          "contractName": null,
          "contractAddress": "0x012079a664bcad2ef5a111ebefa023286a399a44",
          "function": "setPeer(uint32,bytes32)",
          "arguments": [
            "40245",
            "0x000000000000000000000000012079a664bcad2ef5a111ebefa023286a399a44"
          ],
          "transaction": {
            "from": "0x64a822f980dc5f126215d75d11dd8114ed0bdb5f",
            "to": "0x012079a664bcad2ef5a111ebefa023286a399a44",
            "gas": "0xf426",
            "value": "0x0",
            "input": "0x3400288b0000000000000000000000000000000000000000000000000000000000009d35000000000000000000000000012079a664bcad2ef5a111ebefa023286a399a44",
            "nonce": "0xab",
            "chainId": "0x66eee"
          },
          "additionalContracts": [],
          "isFixedGasLimit": false
        },
        {
          "hash": "0xa42868fd6a59f61d7858240188a1b15fd933809644e4fccda24de82943b4670e",
          "transactionType": "CALL",
          "contractName": null,
          "contractAddress": "0x012079a664bcad2ef5a111ebefa023286a399a44",
          "function": "setPeer(uint32,bytes32)",
          "arguments": [
            "40232",
            "0x000000000000000000000000012079a664bcad2ef5a111ebefa023286a399a44"
          ],
          "transaction": {
            "from": "0x64a822f980dc5f126215d75d11dd8114ed0bdb5f",
            "to": "0x012079a664bcad2ef5a111ebefa023286a399a44",
            "gas": "0xf426",
            "value": "0x0",
            "input": "0x3400288b0000000000000000000000000000000000000000000000000000000000009d28000000000000000000000000012079a664bcad2ef5a111ebefa023286a399a44",
            "nonce": "0xac",
            "chainId": "0x66eee"
          },
          "additionalContracts": [],
          "isFixedGasLimit": false
        },
        {
          "hash": "0x268aab3564f10d44ec6234b1867279c74b6429daebc5a15cd02a7db72520dec8",
          "transactionType": "CALL",
          "contractName": null,
          "contractAddress": "0x012079a664bcad2ef5a111ebefa023286a399a44",
          "function": "setPeer(uint32,bytes32)",
          "arguments": [
            "40305",
            "0x000000000000000000000000012079a664bcad2ef5a111ebefa023286a399a44"
          ],
          "transaction": {
            "from": "0x64a822f980dc5f126215d75d11dd8114ed0bdb5f",
            "to": "0x012079a664bcad2ef5a111ebefa023286a399a44",
            "gas": "0xf426",
            "value": "0x0",
            "input": "0x3400288b0000000000000000000000000000000000000000000000000000000000009d71000000000000000000000000012079a664bcad2ef5a111ebefa023286a399a44",
            "nonce": "0xad",
            "chainId": "0x66eee"
          },
          "additionalContracts": [],
          "isFixedGasLimit": false
        },
        {
          "hash": "0x71781dd04b423d39d5ecbdb688acd89bae0d349f93fc831627990af37f389b90",
          "transactionType": "CALL",
          "contractName": null,
          "contractAddress": "0x012079a664bcad2ef5a111ebefa023286a399a44",
          "function": "setPeer(uint32,bytes32)",
          "arguments": [
            "40287",
            "0x000000000000000000000000012079a664bcad2ef5a111ebefa023286a399a44"
          ],
          "transaction": {
            "from": "0x64a822f980dc5f126215d75d11dd8114ed0bdb5f",
            "to": "0x012079a664bcad2ef5a111ebefa023286a399a44",
            "gas": "0xf426",
            "value": "0x0",
            "input": "0x3400288b0000000000000000000000000000000000000000000000000000000000009d5f000000000000000000000000012079a664bcad2ef5a111ebefa023286a399a44",
            "nonce": "0xae",
            "chainId": "0x66eee"
          },
          "additionalContracts": [],
          "isFixedGasLimit": false
        },
        {
          "hash": "0x9d1c96c517735a48c10cb196d36586ce9a489370ffcc8a804e036157d0da553d",
          "transactionType": "CALL",
          "contractName": null,
          "contractAddress": "0x012079a664bcad2ef5a111ebefa023286a399a44",
          "function": "setPeer(uint32,bytes32)",
          "arguments": [
            "40161",
            "0x000000000000000000000000012079a664bcad2ef5a111ebefa023286a399a44"
          ],
          "transaction": {
            "from": "0x64a822f980dc5f126215d75d11dd8114ed0bdb5f",
            "to": "0x012079a664bcad2ef5a111ebefa023286a399a44",
            "gas": "0xf426",
            "value": "0x0",
            "input": "0x3400288b0000000000000000000000000000000000000000000000000000000000009ce1000000000000000000000000012079a664bcad2ef5a111ebefa023286a399a44",
            "nonce": "0xaf",
            "chainId": "0x66eee"
          },
          "additionalContracts": [],
          "isFixedGasLimit": false
        },
        {
          "hash": "0x75a7d4736df02cafabe4875ae405e599413c0e9412fa0fd74fbb6e42b460752f",
          "transactionType": "CALL",
          "contractName": null,
          "contractAddress": "0x012079a664bcad2ef5a111ebefa023286a399a44",
          "function": "setDstEidOfHomeChain(uint32)",
          "arguments": [
            "40231"
          ],
          "transaction": {
            "from": "0x64a822f980dc5f126215d75d11dd8114ed0bdb5f",
            "to": "0x012079a664bcad2ef5a111ebefa023286a399a44",
            "gas": "0x938b",
            "value": "0x0",
            "input": "0x1cd24bd40000000000000000000000000000000000000000000000000000000000009d27",
            "nonce": "0xb0",
            "chainId": "0x66eee"
          },
          "additionalContracts": [],
          "isFixedGasLimit": false
        }
      ],
      "receipts": [
        {
          "status": "0x1",
          "cumulativeGasUsed": "0x31072",
          "logs": [
            {
              "address": "0x012079a664bcad2ef5a111ebefa023286a399a44",
              "topics": [
                "0x238399d427b947898edb290f5ff0f9109849b1c3ba196a42e35f00c50a54b98b"
              ],
              "data": "0x0000000000000000000000000000000000000000000000000000000000009d35000000000000000000000000012079a664bcad2ef5a111ebefa023286a399a44",
              "blockHash": "0x45449c4b72ed7a2513b5ee77c817e2de46cfb509b0b36536b9b8ee20a21a1950",
              "blockNumber": "0x4a58d13",
              "transactionHash": "0x402cf0ddb444d9da3979154d31155e91ce96a7453b34d69e67726c4f172810af",
              "transactionIndex": "0x2",
              "logIndex": "0x7",
              "removed": false
            }
          ],
          "logsBloom": "0x00000000000000000000000000000000000000000000000000000000000000000000000000000000000000000000000000000000000000000800000000000000000000000000000000000000000000000000000000000000000000000000000000000000000000000000000000000020000200000000000000000000000000000000000000000020000000000000000000000000000000000000000000000000000000000000000000000000000000000000000000000000000002000000000000000000000000000000000000000000000000000000000000040000000000000000000000000000000000000000000000000000000000000000000000000000",
          "type": "0x2",
          "transactionHash": "0x402cf0ddb444d9da3979154d31155e91ce96a7453b34d69e67726c4f172810af",
          "transactionIndex": "0x2",
          "blockHash": "0x45449c4b72ed7a2513b5ee77c817e2de46cfb509b0b36536b9b8ee20a21a1950",
          "blockNumber": "0x4a58d13",
          "gasUsed": "0xba4e",
          "effectiveGasPrice": "0x5f5e100",
          "from": "0x64a822f980dc5f126215d75d11dd8114ed0bdb5f",
          "to": "0x012079a664bcad2ef5a111ebefa023286a399a44",
          "contractAddress": null,
          "gasUsedForL1": "0x0",
          "l1BlockNumber": "0x656656"
        },
        {
          "status": "0x1",
          "cumulativeGasUsed": "0xba4e",
          "logs": [
            {
              "address": "0x012079a664bcad2ef5a111ebefa023286a399a44",
              "topics": [
                "0x238399d427b947898edb290f5ff0f9109849b1c3ba196a42e35f00c50a54b98b"
              ],
              "data": "0x0000000000000000000000000000000000000000000000000000000000009d28000000000000000000000000012079a664bcad2ef5a111ebefa023286a399a44",
              "blockHash": "0xefbae540fffdbbb2820f0e15a841fbdbd38d74036d6bf8ab55145a48d3087d62",
              "blockNumber": "0x4a58d17",
              "transactionHash": "0xa42868fd6a59f61d7858240188a1b15fd933809644e4fccda24de82943b4670e",
              "transactionIndex": "0x1",
              "logIndex": "0x0",
              "removed": false
            }
          ],
          "logsBloom": "0x00000000000000000000000000000000000000000000000000000000000000000000000000000000000000000000000000000000000000000800000000000000000000000000000000000000000000000000000000000000000000000000000000000000000000000000000000000020000200000000000000000000000000000000000000000020000000000000000000000000000000000000000000000000000000000000000000000000000000000000000000000000000002000000000000000000000000000000000000000000000000000000000000040000000000000000000000000000000000000000000000000000000000000000000000000000",
          "type": "0x2",
          "transactionHash": "0xa42868fd6a59f61d7858240188a1b15fd933809644e4fccda24de82943b4670e",
          "transactionIndex": "0x1",
          "blockHash": "0xefbae540fffdbbb2820f0e15a841fbdbd38d74036d6bf8ab55145a48d3087d62",
          "blockNumber": "0x4a58d17",
          "gasUsed": "0xba4e",
          "effectiveGasPrice": "0x5f5e100",
          "from": "0x64a822f980dc5f126215d75d11dd8114ed0bdb5f",
          "to": "0x012079a664bcad2ef5a111ebefa023286a399a44",
          "contractAddress": null,
          "gasUsedForL1": "0x0",
          "l1BlockNumber": "0x656656"
        },
        {
          "status": "0x1",
          "cumulativeGasUsed": "0xba4e",
          "logs": [
            {
              "address": "0x012079a664bcad2ef5a111ebefa023286a399a44",
              "topics": [
                "0x238399d427b947898edb290f5ff0f9109849b1c3ba196a42e35f00c50a54b98b"
              ],
              "data": "0x0000000000000000000000000000000000000000000000000000000000009d71000000000000000000000000012079a664bcad2ef5a111ebefa023286a399a44",
              "blockHash": "0x0ee9bb5b72ef17ea36ae7ead91fe0d3ce90fddbd73f162f07ee941ad8d432531",
              "blockNumber": "0x4a58d1b",
              "transactionHash": "0x268aab3564f10d44ec6234b1867279c74b6429daebc5a15cd02a7db72520dec8",
              "transactionIndex": "0x1",
              "logIndex": "0x0",
              "removed": false
            }
          ],
          "logsBloom": "0x00000000000000000000000000000000000000000000000000000000000000000000000000000000000000000000000000000000000000000800000000000000000000000000000000000000000000000000000000000000000000000000000000000000000000000000000000000020000200000000000000000000000000000000000000000020000000000000000000000000000000000000000000000000000000000000000000000000000000000000000000000000000002000000000000000000000000000000000000000000000000000000000000040000000000000000000000000000000000000000000000000000000000000000000000000000",
          "type": "0x2",
          "transactionHash": "0x268aab3564f10d44ec6234b1867279c74b6429daebc5a15cd02a7db72520dec8",
          "transactionIndex": "0x1",
          "blockHash": "0x0ee9bb5b72ef17ea36ae7ead91fe0d3ce90fddbd73f162f07ee941ad8d432531",
          "blockNumber": "0x4a58d1b",
          "gasUsed": "0xba4e",
          "effectiveGasPrice": "0x5f5e100",
          "from": "0x64a822f980dc5f126215d75d11dd8114ed0bdb5f",
          "to": "0x012079a664bcad2ef5a111ebefa023286a399a44",
          "contractAddress": null,
          "gasUsedForL1": "0x0",
          "l1BlockNumber": "0x656656"
        },
        {
          "status": "0x1",
          "cumulativeGasUsed": "0x429bb",
          "logs": [
            {
              "address": "0x012079a664bcad2ef5a111ebefa023286a399a44",
              "topics": [
                "0x238399d427b947898edb290f5ff0f9109849b1c3ba196a42e35f00c50a54b98b"
              ],
              "data": "0x0000000000000000000000000000000000000000000000000000000000009d5f000000000000000000000000012079a664bcad2ef5a111ebefa023286a399a44",
              "blockHash": "0xcfbc866e0c18452af6ee7ac063708c4d4302c35136144bcafe9a7b1894cf42c8",
              "blockNumber": "0x4a58d1e",
              "transactionHash": "0x71781dd04b423d39d5ecbdb688acd89bae0d349f93fc831627990af37f389b90",
              "transactionIndex": "0x3",
              "logIndex": "0x5",
              "removed": false
            }
          ],
          "logsBloom": "0x00000000000000000000000000000000000000000000000000000000000000000000000000000000000000000000000000000000000000000800000000000000000000000000000000000000000000000000000000000000000000000000000000000000000000000000000000000020000200000000000000000000000000000000000000000020000000000000000000000000000000000000000000000000000000000000000000000000000000000000000000000000000002000000000000000000000000000000000000000000000000000000000000040000000000000000000000000000000000000000000000000000000000000000000000000000",
          "type": "0x2",
          "transactionHash": "0x71781dd04b423d39d5ecbdb688acd89bae0d349f93fc831627990af37f389b90",
          "transactionIndex": "0x3",
          "blockHash": "0xcfbc866e0c18452af6ee7ac063708c4d4302c35136144bcafe9a7b1894cf42c8",
          "blockNumber": "0x4a58d1e",
          "gasUsed": "0xba4e",
          "effectiveGasPrice": "0x5f5e100",
          "from": "0x64a822f980dc5f126215d75d11dd8114ed0bdb5f",
          "to": "0x012079a664bcad2ef5a111ebefa023286a399a44",
          "contractAddress": null,
          "gasUsedForL1": "0x0",
          "l1BlockNumber": "0x656656"
        },
        {
          "status": "0x1",
          "cumulativeGasUsed": "0x4c09b",
          "logs": [
            {
              "address": "0x012079a664bcad2ef5a111ebefa023286a399a44",
              "topics": [
                "0x238399d427b947898edb290f5ff0f9109849b1c3ba196a42e35f00c50a54b98b"
              ],
              "data": "0x0000000000000000000000000000000000000000000000000000000000009ce1000000000000000000000000012079a664bcad2ef5a111ebefa023286a399a44",
              "blockHash": "0x2a002a3ca1d1e4afe7f59270af8d107b0474179c75e851f9688dc21254b768c2",
              "blockNumber": "0x4a58d22",
              "transactionHash": "0x9d1c96c517735a48c10cb196d36586ce9a489370ffcc8a804e036157d0da553d",
              "transactionIndex": "0x4",
              "logIndex": "0x6",
              "removed": false
            }
          ],
          "logsBloom": "0x00000000000000000000000000000000000000000000000000000000000000000000000000000000000000000000000000000000000000000800000000000000000000000000000000000000000000000000000000000000000000000000000000000000000000000000000000000020000200000000000000000000000000000000000000000020000000000000000000000000000000000000000000000000000000000000000000000000000000000000000000000000000002000000000000000000000000000000000000000000000000000000000000040000000000000000000000000000000000000000000000000000000000000000000000000000",
          "type": "0x2",
          "transactionHash": "0x9d1c96c517735a48c10cb196d36586ce9a489370ffcc8a804e036157d0da553d",
          "transactionIndex": "0x4",
          "blockHash": "0x2a002a3ca1d1e4afe7f59270af8d107b0474179c75e851f9688dc21254b768c2",
          "blockNumber": "0x4a58d22",
          "gasUsed": "0xba4e",
          "effectiveGasPrice": "0x5f5e100",
          "from": "0x64a822f980dc5f126215d75d11dd8114ed0bdb5f",
          "to": "0x012079a664bcad2ef5a111ebefa023286a399a44",
          "contractAddress": null,
          "gasUsedForL1": "0x0",
          "l1BlockNumber": "0x656656"
        },
        {
          "status": "0x1",
          "cumulativeGasUsed": "0x7023",
          "logs": [],
          "logsBloom": "0x00000000000000000000000000000000000000000000000000000000000000000000000000000000000000000000000000000000000000000000000000000000000000000000000000000000000000000000000000000000000000000000000000000000000000000000000000000000000000000000000000000000000000000000000000000000000000000000000000000000000000000000000000000000000000000000000000000000000000000000000000000000000000000000000000000000000000000000000000000000000000000000000000000000000000000000000000000000000000000000000000000000000000000000000000000000",
          "type": "0x2",
          "transactionHash": "0x75a7d4736df02cafabe4875ae405e599413c0e9412fa0fd74fbb6e42b460752f",
          "transactionIndex": "0x1",
          "blockHash": "0x5c2746e5f256c3a24dd4ce9e33f718769cde7b5f2433a884aa41b2af795931b1",
          "blockNumber": "0x4a58d26",
          "gasUsed": "0x7023",
          "effectiveGasPrice": "0x5f5e100",
          "from": "0x64a822f980dc5f126215d75d11dd8114ed0bdb5f",
          "to": "0x012079a664bcad2ef5a111ebefa023286a399a44",
          "contractAddress": null,
          "gasUsedForL1": "0x0",
          "l1BlockNumber": "0x656656"
        }
      ],
      "libraries": [],
      "pending": [],
      "returns": {},
      "timestamp": 1725656790,
      "chain": 421614,
      "commit": "2af87c9"
    },
    {
      "transactions": [
        {
          "hash": "0x00e34a264d1a106f004e629864491108a3c251ee7abab4c2aafcdcd72a79c866",
          "transactionType": "CALL",
          "contractName": null,
          "contractAddress": "0x012079a664bcad2ef5a111ebefa023286a399a44",
          "function": "setPeer(uint32,bytes32)",
          "arguments": [
            "40245",
            "0x000000000000000000000000012079a664bcad2ef5a111ebefa023286a399a44"
          ],
          "transaction": {
            "from": "0x64a822f980dc5f126215d75d11dd8114ed0bdb5f",
            "to": "0x012079a664bcad2ef5a111ebefa023286a399a44",
            "gas": "0x10154",
            "value": "0x0",
            "input": "0x3400288b0000000000000000000000000000000000000000000000000000000000009d35000000000000000000000000012079a664bcad2ef5a111ebefa023286a399a44",
            "nonce": "0x69",
            "chainId": "0xe705"
          },
          "additionalContracts": [],
          "isFixedGasLimit": false
        },
        {
          "hash": "0xd02c7887a04117e73d7a435acfb02805378dc9d4f31f767f6ab7f3f95ba33b1b",
          "transactionType": "CALL",
          "contractName": null,
          "contractAddress": "0x012079a664bcad2ef5a111ebefa023286a399a44",
          "function": "setPeer(uint32,bytes32)",
          "arguments": [
            "40232",
            "0x000000000000000000000000012079a664bcad2ef5a111ebefa023286a399a44"
          ],
          "transaction": {
            "from": "0x64a822f980dc5f126215d75d11dd8114ed0bdb5f",
            "to": "0x012079a664bcad2ef5a111ebefa023286a399a44",
            "gas": "0x10154",
            "value": "0x0",
            "input": "0x3400288b0000000000000000000000000000000000000000000000000000000000009d28000000000000000000000000012079a664bcad2ef5a111ebefa023286a399a44",
            "nonce": "0x6a",
            "chainId": "0xe705"
          },
          "additionalContracts": [],
          "isFixedGasLimit": false
        },
        {
          "hash": "0x8cb1e451fc89db045e9728febc9bd95930de76e1cf9bdc53dd218cbabf1c5ee6",
          "transactionType": "CALL",
          "contractName": null,
          "contractAddress": "0x012079a664bcad2ef5a111ebefa023286a399a44",
          "function": "setPeer(uint32,bytes32)",
          "arguments": [
            "40231",
            "0x000000000000000000000000012079a664bcad2ef5a111ebefa023286a399a44"
          ],
          "transaction": {
            "from": "0x64a822f980dc5f126215d75d11dd8114ed0bdb5f",
            "to": "0x012079a664bcad2ef5a111ebefa023286a399a44",
            "gas": "0x10154",
            "value": "0x0",
            "input": "0x3400288b0000000000000000000000000000000000000000000000000000000000009d27000000000000000000000000012079a664bcad2ef5a111ebefa023286a399a44",
            "nonce": "0x6b",
            "chainId": "0xe705"
          },
          "additionalContracts": [],
          "isFixedGasLimit": false
        },
        {
          "hash": "0x012f82c5ecd5e7c635db48ca7c411a753539d5fff45172537d6041aa625f0cbe",
          "transactionType": "CALL",
          "contractName": null,
          "contractAddress": "0x012079a664bcad2ef5a111ebefa023286a399a44",
          "function": "setPeer(uint32,bytes32)",
          "arguments": [
            "40305",
            "0x000000000000000000000000012079a664bcad2ef5a111ebefa023286a399a44"
          ],
          "transaction": {
            "from": "0x64a822f980dc5f126215d75d11dd8114ed0bdb5f",
            "to": "0x012079a664bcad2ef5a111ebefa023286a399a44",
            "gas": "0x10154",
            "value": "0x0",
            "input": "0x3400288b0000000000000000000000000000000000000000000000000000000000009d71000000000000000000000000012079a664bcad2ef5a111ebefa023286a399a44",
            "nonce": "0x6c",
            "chainId": "0xe705"
          },
          "additionalContracts": [],
          "isFixedGasLimit": false
        },
        {
          "hash": "0x37dae85dfcb65a193274d0b4fec6c988cb0ac3c306f6a0edc2bef2ecb3e6c726",
          "transactionType": "CALL",
          "contractName": null,
          "contractAddress": "0x012079a664bcad2ef5a111ebefa023286a399a44",
          "function": "setPeer(uint32,bytes32)",
          "arguments": [
            "40161",
            "0x000000000000000000000000012079a664bcad2ef5a111ebefa023286a399a44"
          ],
          "transaction": {
            "from": "0x64a822f980dc5f126215d75d11dd8114ed0bdb5f",
            "to": "0x012079a664bcad2ef5a111ebefa023286a399a44",
            "gas": "0x10154",
            "value": "0x0",
            "input": "0x3400288b0000000000000000000000000000000000000000000000000000000000009ce1000000000000000000000000012079a664bcad2ef5a111ebefa023286a399a44",
            "nonce": "0x6d",
            "chainId": "0xe705"
          },
          "additionalContracts": [],
          "isFixedGasLimit": false
        },
        {
          "hash": "0xfaa869c6f393f6708c0a1f78a77517a93cc7f32358481b904c46d6031a0b6461",
          "transactionType": "CALL",
          "contractName": null,
          "contractAddress": "0x012079a664bcad2ef5a111ebefa023286a399a44",
          "function": "setDstEidOfHomeChain(uint32)",
          "arguments": [
            "40287"
          ],
          "transaction": {
            "from": "0x64a822f980dc5f126215d75d11dd8114ed0bdb5f",
            "to": "0x012079a664bcad2ef5a111ebefa023286a399a44",
            "gas": "0xa3ff",
            "value": "0x0",
            "input": "0x1cd24bd40000000000000000000000000000000000000000000000000000000000009d5f",
            "nonce": "0x6e",
            "chainId": "0xe705"
          },
          "additionalContracts": [],
          "isFixedGasLimit": false
        }
      ],
      "receipts": [
        {
          "status": "0x1",
          "cumulativeGasUsed": "0xba4e",
          "logs": [
            {
              "address": "0x012079a664bcad2ef5a111ebefa023286a399a44",
              "topics": [
                "0x238399d427b947898edb290f5ff0f9109849b1c3ba196a42e35f00c50a54b98b"
              ],
              "data": "0x0000000000000000000000000000000000000000000000000000000000009d35000000000000000000000000012079a664bcad2ef5a111ebefa023286a399a44",
              "blockHash": "0x594856d55338f6060338d330ef3aad026f525ba1679df9df251ecfa296ba30cd",
              "blockNumber": "0x3965e3",
              "transactionHash": "0x00e34a264d1a106f004e629864491108a3c251ee7abab4c2aafcdcd72a79c866",
              "transactionIndex": "0x0",
              "logIndex": "0x0",
              "removed": false
            }
          ],
          "logsBloom": "0x00000000000000000000000000000000000000000000000000000000000000000000000000000000000000000000000000000000000000000800000000000000000000000000000000000000000000000000000000000000000000000000000000000000000000000000000000000020000200000000000000000000000000000000000000000020000000000000000000000000000000000000000000000000000000000000000000000000000000000000000000000000000002000000000000000000000000000000000000000000000000000000000000040000000000000000000000000000000000000000000000000000000000000000000000000000",
          "type": "0x2",
          "transactionHash": "0x00e34a264d1a106f004e629864491108a3c251ee7abab4c2aafcdcd72a79c866",
          "transactionIndex": "0x0",
          "blockHash": "0x594856d55338f6060338d330ef3aad026f525ba1679df9df251ecfa296ba30cd",
          "blockNumber": "0x3965e3",
          "gasUsed": "0xba4e",
          "effectiveGasPrice": "0xa06d02b8",
          "from": "0x64a822f980dc5f126215d75d11dd8114ed0bdb5f",
          "to": "0x012079a664bcad2ef5a111ebefa023286a399a44",
          "contractAddress": null
        },
        {
          "status": "0x1",
          "cumulativeGasUsed": "0x1749c",
          "logs": [
            {
              "address": "0x012079a664bcad2ef5a111ebefa023286a399a44",
              "topics": [
                "0x238399d427b947898edb290f5ff0f9109849b1c3ba196a42e35f00c50a54b98b"
              ],
              "data": "0x0000000000000000000000000000000000000000000000000000000000009d28000000000000000000000000012079a664bcad2ef5a111ebefa023286a399a44",
              "blockHash": "0x594856d55338f6060338d330ef3aad026f525ba1679df9df251ecfa296ba30cd",
              "blockNumber": "0x3965e3",
              "transactionHash": "0xd02c7887a04117e73d7a435acfb02805378dc9d4f31f767f6ab7f3f95ba33b1b",
              "transactionIndex": "0x1",
              "logIndex": "0x1",
              "removed": false
            }
          ],
          "logsBloom": "0x00000000000000000000000000000000000000000000000000000000000000000000000000000000000000000000000000000000000000000800000000000000000000000000000000000000000000000000000000000000000000000000000000000000000000000000000000000020000200000000000000000000000000000000000000000020000000000000000000000000000000000000000000000000000000000000000000000000000000000000000000000000000002000000000000000000000000000000000000000000000000000000000000040000000000000000000000000000000000000000000000000000000000000000000000000000",
          "type": "0x2",
          "transactionHash": "0xd02c7887a04117e73d7a435acfb02805378dc9d4f31f767f6ab7f3f95ba33b1b",
          "transactionIndex": "0x1",
          "blockHash": "0x594856d55338f6060338d330ef3aad026f525ba1679df9df251ecfa296ba30cd",
          "blockNumber": "0x3965e3",
          "gasUsed": "0xba4e",
          "effectiveGasPrice": "0xa06d02b8",
          "from": "0x64a822f980dc5f126215d75d11dd8114ed0bdb5f",
          "to": "0x012079a664bcad2ef5a111ebefa023286a399a44",
          "contractAddress": null
        },
        {
          "status": "0x1",
          "cumulativeGasUsed": "0x22eea",
          "logs": [
            {
              "address": "0x012079a664bcad2ef5a111ebefa023286a399a44",
              "topics": [
                "0x238399d427b947898edb290f5ff0f9109849b1c3ba196a42e35f00c50a54b98b"
              ],
              "data": "0x0000000000000000000000000000000000000000000000000000000000009d27000000000000000000000000012079a664bcad2ef5a111ebefa023286a399a44",
              "blockHash": "0x594856d55338f6060338d330ef3aad026f525ba1679df9df251ecfa296ba30cd",
              "blockNumber": "0x3965e3",
              "transactionHash": "0x8cb1e451fc89db045e9728febc9bd95930de76e1cf9bdc53dd218cbabf1c5ee6",
              "transactionIndex": "0x2",
              "logIndex": "0x2",
              "removed": false
            }
          ],
          "logsBloom": "0x00000000000000000000000000000000000000000000000000000000000000000000000000000000000000000000000000000000000000000800000000000000000000000000000000000000000000000000000000000000000000000000000000000000000000000000000000000020000200000000000000000000000000000000000000000020000000000000000000000000000000000000000000000000000000000000000000000000000000000000000000000000000002000000000000000000000000000000000000000000000000000000000000040000000000000000000000000000000000000000000000000000000000000000000000000000",
          "type": "0x2",
          "transactionHash": "0x8cb1e451fc89db045e9728febc9bd95930de76e1cf9bdc53dd218cbabf1c5ee6",
          "transactionIndex": "0x2",
          "blockHash": "0x594856d55338f6060338d330ef3aad026f525ba1679df9df251ecfa296ba30cd",
          "blockNumber": "0x3965e3",
          "gasUsed": "0xba4e",
          "effectiveGasPrice": "0xa06d02b8",
          "from": "0x64a822f980dc5f126215d75d11dd8114ed0bdb5f",
          "to": "0x012079a664bcad2ef5a111ebefa023286a399a44",
          "contractAddress": null
        },
        {
          "status": "0x1",
          "cumulativeGasUsed": "0x2e938",
          "logs": [
            {
              "address": "0x012079a664bcad2ef5a111ebefa023286a399a44",
              "topics": [
                "0x238399d427b947898edb290f5ff0f9109849b1c3ba196a42e35f00c50a54b98b"
              ],
              "data": "0x0000000000000000000000000000000000000000000000000000000000009d71000000000000000000000000012079a664bcad2ef5a111ebefa023286a399a44",
              "blockHash": "0x594856d55338f6060338d330ef3aad026f525ba1679df9df251ecfa296ba30cd",
              "blockNumber": "0x3965e3",
              "transactionHash": "0x012f82c5ecd5e7c635db48ca7c411a753539d5fff45172537d6041aa625f0cbe",
              "transactionIndex": "0x3",
              "logIndex": "0x3",
              "removed": false
            }
          ],
          "logsBloom": "0x00000000000000000000000000000000000000000000000000000000000000000000000000000000000000000000000000000000000000000800000000000000000000000000000000000000000000000000000000000000000000000000000000000000000000000000000000000020000200000000000000000000000000000000000000000020000000000000000000000000000000000000000000000000000000000000000000000000000000000000000000000000000002000000000000000000000000000000000000000000000000000000000000040000000000000000000000000000000000000000000000000000000000000000000000000000",
          "type": "0x2",
          "transactionHash": "0x012f82c5ecd5e7c635db48ca7c411a753539d5fff45172537d6041aa625f0cbe",
          "transactionIndex": "0x3",
          "blockHash": "0x594856d55338f6060338d330ef3aad026f525ba1679df9df251ecfa296ba30cd",
          "blockNumber": "0x3965e3",
          "gasUsed": "0xba4e",
          "effectiveGasPrice": "0xa06d02b8",
          "from": "0x64a822f980dc5f126215d75d11dd8114ed0bdb5f",
          "to": "0x012079a664bcad2ef5a111ebefa023286a399a44",
          "contractAddress": null
        },
        {
          "status": "0x1",
          "cumulativeGasUsed": "0x3a386",
          "logs": [
            {
              "address": "0x012079a664bcad2ef5a111ebefa023286a399a44",
              "topics": [
                "0x238399d427b947898edb290f5ff0f9109849b1c3ba196a42e35f00c50a54b98b"
              ],
              "data": "0x0000000000000000000000000000000000000000000000000000000000009ce1000000000000000000000000012079a664bcad2ef5a111ebefa023286a399a44",
              "blockHash": "0x594856d55338f6060338d330ef3aad026f525ba1679df9df251ecfa296ba30cd",
              "blockNumber": "0x3965e3",
              "transactionHash": "0x37dae85dfcb65a193274d0b4fec6c988cb0ac3c306f6a0edc2bef2ecb3e6c726",
              "transactionIndex": "0x4",
              "logIndex": "0x4",
              "removed": false
            }
          ],
          "logsBloom": "0x00000000000000000000000000000000000000000000000000000000000000000000000000000000000000000000000000000000000000000800000000000000000000000000000000000000000000000000000000000000000000000000000000000000000000000000000000000020000200000000000000000000000000000000000000000020000000000000000000000000000000000000000000000000000000000000000000000000000000000000000000000000000002000000000000000000000000000000000000000000000000000000000000040000000000000000000000000000000000000000000000000000000000000000000000000000",
          "type": "0x2",
          "transactionHash": "0x37dae85dfcb65a193274d0b4fec6c988cb0ac3c306f6a0edc2bef2ecb3e6c726",
          "transactionIndex": "0x4",
          "blockHash": "0x594856d55338f6060338d330ef3aad026f525ba1679df9df251ecfa296ba30cd",
          "blockNumber": "0x3965e3",
          "gasUsed": "0xba4e",
          "effectiveGasPrice": "0xa06d02b8",
          "from": "0x64a822f980dc5f126215d75d11dd8114ed0bdb5f",
          "to": "0x012079a664bcad2ef5a111ebefa023286a399a44",
          "contractAddress": null
        },
        {
          "status": "0x1",
          "cumulativeGasUsed": "0x413a9",
          "logs": [],
          "logsBloom": "0x00000000000000000000000000000000000000000000000000000000000000000000000000000000000000000000000000000000000000000000000000000000000000000000000000000000000000000000000000000000000000000000000000000000000000000000000000000000000000000000000000000000000000000000000000000000000000000000000000000000000000000000000000000000000000000000000000000000000000000000000000000000000000000000000000000000000000000000000000000000000000000000000000000000000000000000000000000000000000000000000000000000000000000000000000000000",
          "type": "0x2",
          "transactionHash": "0xfaa869c6f393f6708c0a1f78a77517a93cc7f32358481b904c46d6031a0b6461",
          "transactionIndex": "0x5",
          "blockHash": "0x594856d55338f6060338d330ef3aad026f525ba1679df9df251ecfa296ba30cd",
          "blockNumber": "0x3965e3",
          "gasUsed": "0x7023",
          "effectiveGasPrice": "0xa06d02b8",
          "from": "0x64a822f980dc5f126215d75d11dd8114ed0bdb5f",
          "to": "0x012079a664bcad2ef5a111ebefa023286a399a44",
          "contractAddress": null
        }
      ],
      "libraries": [],
      "pending": [],
      "returns": {},
      "timestamp": 1725656791,
      "chain": 59141,
      "commit": "2af87c9"
    }
  ],
  "timestamp": 1725656892
}