{
  "deployments": [
    {
      "transactions": [
        {
          "hash": "0x2fe437f0ef79aef9232b8e8ae2bf2e4410a3951a7a0463d03c0f10829bde5057",
          "transactionType": "CALL",
          "contractName": null,
          "contractAddress": "0xeccacad7ed94d501ffa9cfe93b61d0d4870546d7",
          "function": "setPeer(uint32,bytes32)",
          "arguments": [
            "40232",
            "0x00000000000000000000000007040be54ddbd74b0f4cf4a40a4b3ef4ca5217fe"
          ],
          "transaction": {
            "from": "0x64a822f980dc5f126215d75d11dd8114ed0bdb5f",
            "to": "0xeccacad7ed94d501ffa9cfe93b61d0d4870546d7",
            "gas": "0x100f0",
            "value": "0x0",
            "input": "0x3400288b0000000000000000000000000000000000000000000000000000000000009d2800000000000000000000000007040be54ddbd74b0f4cf4a40a4b3ef4ca5217fe",
            "nonce": "0xf9",
            "chainId": "0x14a34"
          },
          "additionalContracts": [],
          "isFixedGasLimit": false
        }
      ],
      "receipts": [
        {
          "status": "0x1",
          "cumulativeGasUsed": "0x3c8622",
          "logs": [
            {
              "address": "0xeccacad7ed94d501ffa9cfe93b61d0d4870546d7",
              "topics": [
                "0x238399d427b947898edb290f5ff0f9109849b1c3ba196a42e35f00c50a54b98b"
              ],
              "data": "0x0000000000000000000000000000000000000000000000000000000000009d2800000000000000000000000007040be54ddbd74b0f4cf4a40a4b3ef4ca5217fe",
              "blockHash": "0x45ffda1965728245ee476b689082c7a661ee125b0501cf8f79275314c2a8f4be",
              "blockNumber": "0xdfdc51",
              "transactionHash": "0x2fe437f0ef79aef9232b8e8ae2bf2e4410a3951a7a0463d03c0f10829bde5057",
              "transactionIndex": "0x8",
              "logIndex": "0x51",
              "removed": false
            }
          ],
          "logsBloom": "0x00000000000000000000000000000000000000000000000000000000000000000000000000000000000000000000000000000000080000000800000000000000000000000000200000000000000000000000000000000000000000000000000000000000000000000000000000000000000000000000000000000000000000000000000000000000000000000000000004000000000000000000000000000000000000000000000000000000000000000000000000000000000002000000000000000000000000000000000000000000000000000000000000040000000000000000000000000000000000000000000000000000000000000000000000000000",
          "type": "0x2",
          "transactionHash": "0x2fe437f0ef79aef9232b8e8ae2bf2e4410a3951a7a0463d03c0f10829bde5057",
          "transactionIndex": "0x8",
          "blockHash": "0x45ffda1965728245ee476b689082c7a661ee125b0501cf8f79275314c2a8f4be",
          "blockNumber": "0xdfdc51",
          "gasUsed": "0xba05",
          "effectiveGasPrice": "0xf458b",
          "from": "0x64a822f980dc5f126215d75d11dd8114ed0bdb5f",
          "to": "0xeccacad7ed94d501ffa9cfe93b61d0d4870546d7",
          "contractAddress": null,
          "l1BaseFeeScalar": "0x44d",
          "l1BlobBaseFee": "0xc5c2c3b19",
          "l1BlobBaseFeeScalar": "0xa118b",
          "l1Fee": "0x33177361c80",
          "l1GasPrice": "0x112281777",
          "l1GasUsed": "0x640"
        }
      ],
      "libraries": [],
      "pending": [],
      "returns": {},
      "timestamp": 1725110142,
      "chain": 84532,
      "commit": "ef3e872"
    },
    {
      "transactions": [
        {
          "hash": "0x675a631c3ed9bed19acaaebf3ea75460f5f39f069f17d5b7557a464361484a2d",
          "transactionType": "CALL",
          "contractName": null,
          "contractAddress": "0x07040be54ddbd74b0f4cf4a40a4b3ef4ca5217fe",
          "function": "setPeer(uint32,bytes32)",
          "arguments": [
            "40245",
            "0x0000000000000000000000009ccd0a438e7938e3539d83c0e29326353f50338d"
          ],
          "transaction": {
            "from": "0x64a822f980dc5f126215d75d11dd8114ed0bdb5f",
            "to": "0x07040be54ddbd74b0f4cf4a40a4b3ef4ca5217fe",
            "gas": "0x9e5d",
            "value": "0x0",
            "input": "0x3400288b0000000000000000000000000000000000000000000000000000000000009d350000000000000000000000009ccd0a438e7938e3539d83c0e29326353f50338d",
            "nonce": "0x7f",
            "chainId": "0xaa37dc"
          },
          "additionalContracts": [],
          "isFixedGasLimit": false
        }
      ],
      "receipts": [
        {
          "status": "0x1",
          "cumulativeGasUsed": "0x15f7db",
          "logs": [
            {
              "address": "0x07040be54ddbd74b0f4cf4a40a4b3ef4ca5217fe",
              "topics": [
                "0x238399d427b947898edb290f5ff0f9109849b1c3ba196a42e35f00c50a54b98b"
              ],
              "data": "0x0000000000000000000000000000000000000000000000000000000000009d350000000000000000000000009ccd0a438e7938e3539d83c0e29326353f50338d",
              "blockHash": "0xdb5bfb25d566b58e1023552829325a375336fd77c23a765342081536a09184cd",
              "blockNumber": "0xfe1def",
              "transactionHash": "0x675a631c3ed9bed19acaaebf3ea75460f5f39f069f17d5b7557a464361484a2d",
              "transactionIndex": "0x3",
              "logIndex": "0x20",
              "removed": false
            }
          ],
          "logsBloom": "0x00000000000000000000000000000000000000000000000000000000000000000000000000000000000000000000000000000800000000000800000000000000000000000000000000000000000000000000000000000000000000000000000002000000000000000000000000000000000000000000000000000000000000000000000000000000000000000000000000000000000000000000000000000000000000000000000000000000000000000000000000000000000002000000000000000000000000000000000000000000000000000800000000040000000000000000000000000000000000000000000000000000000000000000000000000000",
          "type": "0x2",
          "transactionHash": "0x675a631c3ed9bed19acaaebf3ea75460f5f39f069f17d5b7557a464361484a2d",
          "transactionIndex": "0x3",
          "blockHash": "0xdb5bfb25d566b58e1023552829325a375336fd77c23a765342081536a09184cd",
          "blockNumber": "0xfe1def",
          "gasUsed": "0x6c49",
          "effectiveGasPrice": "0xf43a0",
          "from": "0x64a822f980dc5f126215d75d11dd8114ed0bdb5f",
          "to": "0x07040be54ddbd74b0f4cf4a40a4b3ef4ca5217fe",
          "contractAddress": null,
          "l1BaseFeeScalar": "0x1db0",
          "l1BlobBaseFee": "0x13cc64ab25",
          "l1BlobBaseFeeScalar": "0xd2730",
          "l1Fee": "0x6bfc71c9a6d",
          "l1GasPrice": "0x1bd5cf12c",
          "l1GasUsed": "0x640"
        }
      ],
      "libraries": [],
      "pending": [],
      "returns": {},
      "timestamp": 1725110143,
      "chain": 11155420,
      "commit": "ef3e872"
    }
  ],
  "timestamp": 1725110161
}