{
  "deployments": [
    {
      "transactions": [
        {
          "hash": "0x57fbadc4849885561cf39957fce87822e65fcea9a5cf46063e90d10bfd61d69e",
          "transactionType": "CALL",
          "contractName": null,
          "contractAddress": "0x9ccd0a438e7938e3539d83c0e29326353f50338d",
          "function": "setPeer(uint32,bytes32)",
          "arguments": [
            "40232",
            "0x000000000000000000000000b95c4274b60e29c2b4af48bf775ca601d96ef6b1"
          ],
          "transaction": {
            "from": "0x64a822f980dc5f126215d75d11dd8114ed0bdb5f",
            "to": "0x9ccd0a438e7938e3539d83c0e29326353f50338d",
            "gas": "0x100f0",
            "value": "0x0",
            "input": "0x3400288b0000000000000000000000000000000000000000000000000000000000009d28000000000000000000000000b95c4274b60e29c2b4af48bf775ca601d96ef6b1",
            "nonce": "0xd1",
            "chainId": "0x14a34"
          },
          "additionalContracts": [],
          "isFixedGasLimit": false
        }
      ],
      "receipts": [
        {
          "status": "0x1",
          "cumulativeGasUsed": "0x33d797",
          "logs": [
            {
              "address": "0x9ccd0a438e7938e3539d83c0e29326353f50338d",
              "topics": [
                "0x238399d427b947898edb290f5ff0f9109849b1c3ba196a42e35f00c50a54b98b"
              ],
              "data": "0x0000000000000000000000000000000000000000000000000000000000009d28000000000000000000000000b95c4274b60e29c2b4af48bf775ca601d96ef6b1",
              "blockHash": "0xecf3ab509f69026b064557c123ee1b9d4411803060c268321786cf08a9d90b88",
              "blockNumber": "0xdf4689",
              "transactionHash": "0x57fbadc4849885561cf39957fce87822e65fcea9a5cf46063e90d10bfd61d69e",
              "transactionIndex": "0x10",
              "logIndex": "0x35",
              "removed": false
            }
          ],
          "logsBloom": "0x00000000000000000000000000000000000000000000000000000000000000000000000000000000000000000000000000000000000000000800000000000000000000000000000000000000000000000000000000000000000000000000000000000000000000000000004000000000000000000000000000000010000000000000000000000000000000000000000000000000000000000000000000000000000000000000000000000000000000000000000000000000000002000000000000000000000000000000000000000000000000000000000000040000000000000000000000000000000000000000020000000000000000000000000000000000",
          "type": "0x2",
          "transactionHash": "0x57fbadc4849885561cf39957fce87822e65fcea9a5cf46063e90d10bfd61d69e",
          "transactionIndex": "0x10",
          "blockHash": "0xecf3ab509f69026b064557c123ee1b9d4411803060c268321786cf08a9d90b88",
          "blockNumber": "0xdf4689",
          "gasUsed": "0xba05",
          "effectiveGasPrice": "0x1da880",
          "from": "0x64a822f980dc5f126215d75d11dd8114ed0bdb5f",
          "to": "0x9ccd0a438e7938e3539d83c0e29326353f50338d",
          "contractAddress": null,
          "l1BaseFeeScalar": "0x44d",
          "l1BlobBaseFee": "0x1",
          "l1BlobBaseFeeScalar": "0xa118b",
          "l1Fee": "0x25482a7d5",
          "l1GasPrice": "0x1529e56c2",
          "l1GasUsed": "0x640"
        }
      ],
      "libraries": [],
      "pending": [],
      "returns": {},
      "timestamp": 1725033454,
      "chain": 84532,
      "commit": "be31092"
    },
    {
      "transactions": [
        {
          "hash": "0x2ebc36f9cf259d7c73c9f8e101e0c177c53492ab1ece7a931fb071c046c49e1a",
          "transactionType": "CALL",
          "contractName": null,
          "contractAddress": "0x07040be54ddbd74b0f4cf4a40a4b3ef4ca5217fe",
          "function": "setPeer(uint32,bytes32)",
          "arguments": [
            "40245",
            "0x000000000000000000000000f3a628492ab6a055d624cb85c8396643669d346a"
          ],
          "transaction": {
            "from": "0x64a822f980dc5f126215d75d11dd8114ed0bdb5f",
            "to": "0x07040be54ddbd74b0f4cf4a40a4b3ef4ca5217fe",
            "gas": "0x100f0",
            "value": "0x0",
            "input": "0x3400288b0000000000000000000000000000000000000000000000000000000000009d35000000000000000000000000f3a628492ab6a055d624cb85c8396643669d346a",
            "nonce": "0x5f",
            "chainId": "0xaa37dc"
          },
          "additionalContracts": [],
          "isFixedGasLimit": false
        }
      ],
      "receipts": [
        {
          "status": "0x1",
          "cumulativeGasUsed": "0x6f628",
          "logs": [
            {
              "address": "0x07040be54ddbd74b0f4cf4a40a4b3ef4ca5217fe",
              "topics": [
                "0x238399d427b947898edb290f5ff0f9109849b1c3ba196a42e35f00c50a54b98b"
              ],
              "data": "0x0000000000000000000000000000000000000000000000000000000000009d35000000000000000000000000f3a628492ab6a055d624cb85c8396643669d346a",
              "blockHash": "0xd468ca5290ac236a1778cad161249c71232e7cd1974a20c20a30e22800a0f7dd",
              "blockNumber": "0xfd8827",
              "transactionHash": "0x2ebc36f9cf259d7c73c9f8e101e0c177c53492ab1ece7a931fb071c046c49e1a",
              "transactionIndex": "0x3",
              "logIndex": "0x7",
              "removed": false
            }
          ],
          "logsBloom": "0x00000000000000000000000000000000000000000000000000000000000000000000000000000000000000000000000000000800000000000800000000000000000000000000000000000000000000000000000000000000000000000000000002000000000000000000000000000000000000000000000000000000000000000000000000000000000000000000000000000000000000000000000000000000000000000000000000000000000000000000000000000000000002000000000000000000000000000000000000000000000000000800000000040000000000000000000000000000000000000000000000000000000000000000000000000000",
          "type": "0x2",
          "transactionHash": "0x2ebc36f9cf259d7c73c9f8e101e0c177c53492ab1ece7a931fb071c046c49e1a",
          "transactionIndex": "0x3",
          "blockHash": "0xd468ca5290ac236a1778cad161249c71232e7cd1974a20c20a30e22800a0f7dd",
          "blockNumber": "0xfd8827",
          "gasUsed": "0xba05",
          "effectiveGasPrice": "0xf6a99",
          "from": "0x64a822f980dc5f126215d75d11dd8114ed0bdb5f",
          "to": "0x07040be54ddbd74b0f4cf4a40a4b3ef4ca5217fe",
          "contractAddress": null,
          "l1BaseFeeScalar": "0x1db0",
          "l1BlobBaseFee": "0x1",
          "l1BlobBaseFeeScalar": "0xd2730",
          "l1Fee": "0x143aaac0e4",
          "l1GasPrice": "0x1a9e09185",
          "l1GasUsed": "0x640"
        }
      ],
      "libraries": [],
      "pending": [],
      "returns": {},
      "timestamp": 1725033454,
      "chain": 11155420,
      "commit": "be31092"
    }
  ],
  "timestamp": 1725033473
}